:100000006F00B06A1300000013000000130000002E
:100010001300000013000000130000001300000094
:100020001300000013000000130000001300000084
:08003000130000007300100032
:100038006FF09FFC000000006F00D0316F00903619
:1000480000000000000000000000000000000000A8
:100058000000000000000000000000000000000098
:100068006F40B045000000006F00000F0000000066
:100078006F00D0356FF05FF86F00503A6F00303B7B
:100088006F00103C6F00F03C6F0060226F0060282A
:100098006F0060306F0060366F00603C6F00903C0E
:1000A8006F0050416F0010466F00F0226F00904AB9
:1000B8006F00504F6F0010546F00205A000000006E
:1000C8000000000000000000000000006F00603F1A
:1000D8006F00A05D6F00A0646F00606B6F00A0747C
:1000E8006F0070016F0010046F00D00A6FF0DFF02E
:1000F8006FF09FF06FF05FF06FF01FF06FF0DFEFC1
:100108006FF09FEF6F40905E6F00D00F6F00B017D9
:100118006F0080476FF05FEE6FF01FEE6FF0DFED5E
:1001280000000000000000000000000000000000C7
:080138000000000000000000BF
:1001400073750430828073100530828097520020CE
:10015000938242EB739002340321050095A00100C5
:10016000197106C212C816CA1ACC1ECE22D026D2C7
:100170002AD42ED632D836DA3ADC3EDEC2C0C6C227
:10018000CAC4CEC6D2C8D6CADACCDECEE2D0E6D257
:10019000EAD4EED6F2D8F6DAFADCFEDEF32200304C
:1001A00016C483A2018923A02200F322103416C0B2
:1001B000EF30B04483A2418903A1020011A00100E5
:1001C000824273901234A2427390023092404242B3
:1001D000D2426243F243025492542255B2554256DF
:1001E000D2566257F257064896482649B649464ABB
:1001F000D64A664BF64B065C965C265DB65D465E5F
:10020000D65E665FF65F09617300203000003D43F3
:100210002A876373C3029377F700BDEFADE593764A
:1002200006FF3D8ABA960CC34CC30CC74CC74107A6
:10023000E36BD7FE11E28280B306C3408A069702C1
:10024000000096966780A6002307B700A306B700B4
:100250002306B700A305B7002305B700A304B70022
:100260002304B700A303B7002303B700A302B7001A
:100270002302B700A301B7002301B700A300B70012
:100280002300B700828093F5F50F93968500D58DF6
:1002900093960501D58D61B79396270097020000CC
:1002A00096968682E78086FA9680C1171D8F3E96C5
:1002B000E374C3F8A5B7397106DE16DC1ADA1ED866
:1002C0002AD62ED432D236D03ACE3ECC42CA46C8F6
:1002D00072C676C47AC27EC0EF2040690545EF0041
:1002E000705485476307F502EF20806AF250E252AE
:1002F0005253C2533255A255125682567247E247A4
:100300005248C248324EA24E124F824F21617300B2
:1003100020300545EF00D052C1BF397106DE16DC32
:100320001ADA1ED82AD62ED432D236D03ACE3ECCC5
:1003300042CA46C872C676C47AC27EC0EF20006345
:100340000945EF00304E85476307F502EF20406412
:10035000F250E2525253C2533255A25512568256AF
:100360007247E2475248C248324EA24E124F824F65
:10037000216173002030B707002083A7470B09478E
:100380006389E70005476389E7000945EF00504BA3
:1003900075BFEF108077D5BFEF10A036FDB739716C
:1003A00006DE16DC1ADA1ED82AD62ED432D236D081
:1003B0003ACE3ECC42CA46C872C676C47AC27EC025
:1003C000EF20C05A1145EF00F04585476307F5025D
:1003D000EF20005CF250E2525253C2533255A25504
:1003E000125682567247E2475248C248324EA24ED7
:1003F000124F824F2161730020301145EF005044AD
:10040000C1BF397106DE16DC1ADA1ED82AD62ED400
:1004100032D236D03ACE3ECC42CA46C872C676C434
:100420007AC27EC0EF2080542145EF00B03F85475F
:100430006307F502EF20C055F250E2525253C25307
:100440003255A255125682567247E2475248C24868
:10045000324EA24E124F824F21617300203021454F
:10046000EF00103EC1BF397106DE16DC1ADA1ED865
:100470002AD62ED432D236D03ACE3ECC42CA46C844
:1004800072C676C47AC27EC0EF20404E4145EF006E
:10049000703985476307F502EF20804FF250E25232
:1004A0005253C2533255A255125682567247E247F2
:1004B0005248C248324EA24E124F824F2161730001
:1004C00020304145EF00D037C1BF397106DE16DC60
:1004D0001ADA1ED82AD62ED432D236D03ACE3ECC14
:1004E00042CA46C872C676C47AC27EC0EF200048AF
:1004F00013050020EF00103385476303F50413054F
:100500000010EF00303285476305F506130500083B
:10051000EF00503185476303F50613050004EF0033
:10052000703085476301F50613050002EF00902F38
:100530008547631BF50013050002EF00703029A00A
:1005400013050020EF00D02FEF208044F250E2523C
:100550005253C2533255A255125682567247E24741
:100560005248C248324EA24E124F824F2161730050
:10057000203013050010EF00B02CF9B71305000868
:10058000EF00102CD1B713050004EF00702B6DBFE6
:10059000397106DE16DC1ADA1ED82AD62ED432D2EB
:1005A00036D03ACE3ECC42CA46C872C676C47AC26B
:1005B0007EC0EF20A03B2165EF00D0268547630871
:1005C000F5041165EF0010268547630AF5060965F5
:1005D000EF00502585476308F5060565EF00902478
:1005E00085476306F506056513050580EF00902332
:1005F00085476302F50613050040EF00B0228547EA
:10060000631AF50013050040EF00902321A0216537
:10061000EF001023EF20C037F250E2525253C25382
:100620003255A255125682567247E2475248C24886
:10063000324EA24E124F824F21617300203011655D
:10064000EF001020C1BF0965EF00901FE1B70565FD
:10065000EF00101FC1B7056513050580EF00501EA0
:1006600055BF397106DE16DC1ADA1ED82AD62ED40A
:1006700032D236D03ACE3ECC42CA46C872C676C4D2
:100680007AC27EC0EF20802EEF208030F250E252FE
:100690005253C2533255A255125682567247E24700
:1006A0005248C248324EA24E124F824F216173000F
:1006B0002030397106DE16DC1ADA1ED82AD62ED47E
:1006C00032D236D03ACE3ECC42CA46C872C676C482
:1006D0007AC27EC0EF20802993050008373501409B
:1006E000130505C0EF00905E15E5EF20602AF2507B
:1006F000E2525253C2533255A25512568256724795
:10070000E2475248C248324EA24E124F824F2161F8
:10071000730020309305000837350140130505C0EC
:10072000EF00905CD9B7397106DE16DC1ADA1ED8F4
:100730002AD62ED432D236D03ACE3ECC42CA46C881
:1007400072C676C47AC27EC0EF2040228545373516
:100750000140130505C0EF00705715E5EF20402359
:10076000F250E2525253C2533255A255125682569B
:100770007247E2475248C248324EA24E124F824F51
:10078000216173002030854537350140130505C0D0
:10079000EF009055E1B7397106DE16DC1ADA1ED883
:1007A0002AD62ED432D236D03ACE3ECC42CA46C811
:1007B00072C676C47AC27EC0EF20401B9305000447
:1007C00037350140130505C0EF0050501DED93056E
:1007D000000237350140130505C0EF00304F1DED15
:1007E000EF20001BF250E2525253C2533255A25531
:1007F000125682567247E2475248C248324EA24EC3
:10080000124F824F21617300203093050004373569
:100810000140130505C0EF00304D55BF93050002A0
:1008200037350140130505C0EF00104C55BF397135
:1008300006DE16DC1ADA1ED82AD62ED432D236D0EC
:100840003ACE3ECC42CA46C872C676C47AC27EC090
:10085000EF20C011894537350140130505C0EF0071
:10086000F04631ED914537350140130505C0EF00E5
:10087000F04531EDA14537350140130505C0EF00C6
:10088000F04431EDC14537350140130505C0EF0097
:10089000F04331EDEF20C00FF250E2525253C253F9
:1008A0003255A255125682567247E2475248C24804
:1008B000324EA24E124F824F216173002030894583
:1008C00037350140130505C0EF00104261BF914567
:1008D00037350140130505C0EF00104161BFA14548
:1008E00037350140130505C0EF00104061BFC14519
:1008F00037350140130505C0EF00103F61BF4111BE
:1009000006C6EF20A006854537050040EF00103CE5
:1009100011E5EF20E007B2404101828085453705AF
:100920000040EF00703CEF104013E5B7397106DE70
:1009300016DC1ADA1ED82AD62ED432D236D03ACEC7
:100940003ECC42CA46C872C676C47AC27EC0EF2088
:10095000E00185453705004013050540EF001037DD
:1009600015E5EF20E002F250E2525253C2533255E5
:10097000A255125682567247E2475248C248324E3A
:10098000A24E124F824F21617300203085453705FA
:10099000004013050540EF003035E1B7397106DE40
:1009A00016DC1ADA1ED82AD62ED432D236D03ACE57
:1009B0003ECC42CA46C872C676C47AC27EC0EF1028
:1009C000F07A85453715004013050580EF0010309B
:1009D00015E5EF10F07BF250E2525253C2533255FC
:1009E000A255125682567247E2475248C248324ECA
:1009F000A24E124F824F216173002030854537157A
:100A0000004013050580EF00302EE1B7397106DE96
:100A100016DC1ADA1ED82AD62ED432D236D03ACEE6
:100A20003ECC42CA46C872C676C47AC27EC0EF10B7
:100A3000F073930550523745004013050540EF0011
:100A4000104219C9B707002083A7470B0947638ADB
:100A5000E7020547638AE702EF109073F250E25213
:100A60005253C2533255A255125682567247E2472C
:100A70005248C248324EA24E124F824F216173003B
:100A80002030EF100003C9BFEF003042F1B73971D9
:100A900006DE16DC1ADA1ED82AD62ED432D236D08A
:100AA0003ACE3ECC42CA46C872C676C47AC27EC02E
:100AB000EF10D06BEF10D06DF250E2525253C25390
:100AC0003255A255125682567247E2475248C248E2
:100AD000324EA24E124F824F216173002030397185
:100AE00006DE16DC1ADA1ED82AD62ED432D236D03A
:100AF0003ACE3ECC42CA46C872C676C47AC27EC0DE
:100B0000EF10D0660965D52185476307F502EF1020
:100B10003068F250E2525253C2533255A255125627
:100B200082567247E2475248C248324EA24E124F96
:100B3000824F2161730020300965C129B707002069
:100B400083A7470B09476388E7000547E391E7FC64
:100B5000EF00903C6DBFEF00B07C55BF397106DEF1
:100B600016DC1ADA1ED82AD62ED432D236D03ACE95
:100B70003ECC42CA46C872C676C47AC27EC0EF1066
:100B8000F05EEF10F060F250E2525253C253325511
:100B9000A255125682567247E2475248C248324E18
:100BA000A24E124F824F216173002030397106DE50
:100BB00016DC1ADA1ED82AD62ED432D236D03ACE45
:100BC0003ECC42CA46C872C676C47AC27EC0EF1016
:100BD000F05901A0397106DE16DC1ADA1ED82AD6C1
:100BE0002ED432D236D03ACE3ECC42CA46C872C695
:100BF00076C47AC27EC0EF107057EF107059F25071
:100C0000E2525253C2533255A2551256825672477F
:100C1000E2475248C248324EA24E124F824F2161E3
:100C200073002030411106C6EF105054EF1050569B
:100C3000B24041018280411106C6EF103053EF10DF
:100C40003055B24041018280411106C6EF1010526A
:100C5000EF101054B24041018280411106C6EF10DE
:100C6000F050EF10F052B24041018280397106DE3F
:100C700016DC1ADA1ED82AD62ED432D236D03ACE84
:100C80003ECC42CA46C872C676C47AC27EC0EF1055
:100C9000F04DEF10F04FF250E2525253C253325522
:100CA000A255125682567247E2475248C248324E07
:100CB000A24E124F824F216173002030397106DE3F
:100CC00016DC1ADA1ED82AD62ED432D236D03ACE34
:100CD0003ECC42CA46C872C676C47AC27EC0EF1005
:100CE000F048EF10F04AF250E2525253C2533255DC
:100CF000A255125682567247E2475248C248324EB7
:100D0000A24E124F824F216173002030397106DEEE
:100D100016DC1ADA1ED82AD62ED432D236D03ACEE3
:100D20003ECC42CA46C872C676C47AC27EC0EF10B4
:100D3000F043EF10F045F250E2525253C253325595
:100D4000A255125682567247E2475248C248324E66
:100D5000A24E124F824F216173002030397106DE9E
:100D600016DC1ADA1ED82AD62ED432D236D03ACE93
:100D70003ECC42CA46C872C676C47AC27EC0EF1064
:100D8000F03EEF10F040F250E2525253C25332554F
:100D9000A255125682567247E2475248C248324E16
:100DA000A24E124F824F216173002030397106DE4E
:100DB00016DC1ADA1ED82AD62ED432D236D03ACE43
:100DC0003ECC42CA46C872C676C47AC27EC0EF1014
:100DD000F039EF10F03BF250E2525253C253325509
:100DE000A255125682567247E2475248C248324EC6
:100DF000A24E124F824F216173002030397106DEFE
:100E000016DC1ADA1ED82AD62ED432D236D03ACEF2
:100E10003ECC42CA46C872C676C47AC27EC0EF10C3
:100E2000F034EF10F036F250E2525253C2533255C2
:100E3000A255125682567247E2475248C248324E75
:100E4000A24E124F824F216173002030411106C61D
:100E50000565130585BBEF20D045EF40E038EF4036
:100E60008022EF40803E9306003101468545130500
:100E7000C002EF0070519306100213060002B7156E
:100E80000E000945EF10001D93060031014685450F
:100E90001305F002EF00504F1305800CEF20704156
:100EA0001305F002EF009061C5BF97010020938108
:100EB00061A0174100201301E1141775000013050C
:100EC000658697F5FF1F9385E5131386018363FA03
:100ED000C5008322050023A0550011059105E3EA12
:100EE000C5FE13850183971500209385A51E6377A2
:100EF000B500232005001105E36DB5FE93028008BF
:100F000073A0023097F2FFFF9382421393E2120024
:100F100073905230EF40A00501458145EF1020430A
:100F2000971200009382E2427390123473002030D3
:100F3000A54763F7B7048328C500138865FF131717
:100F4000180042979D47B397E70093C7F7FFB3F7A1
:100F50001701B396E600DD8E54C5994763E3C704D5
:100F600058597D16931726003E96FD47B397C70044
:100F700093C7F7FFF98F3396C5005D8E50D98280F5
:100F800003280501139715002E979D47B397E70097
:100F900093C7F7FFB3F70701B396E600DD8E14C9D8
:100FA0006DBFB14763E3C7021459130796FF1316C9
:100FB00027003A96FD47B397C70093C7F7FFF58F11
:100FC0003396C5005D8E10D9828054554D16131787
:100FD00026003A96FD47B397C70093C7F7FFF58FF2
:100FE000B395C500DD8D4CD582809317350063DA4B
:100FF0000700B707024083A707407D8D3335A00067
:101000008280B70702409C43CDBF9317350063D75A
:101010000700B707024023A2A7408280B70702401B
:10102000C8C3828037070140832707400327474111
:10103000698F09C77D8D3335A0008280014582808C
:10104000B707014023AAA74082809C4593F8F70088
:10105000C18B81C7DC41B3E8F80083C70500A9CB89
:1010600010418147054E3D4F930E8002930F80043F
:10107000214329A054C98507638B6702B316FE007C
:1010800003D70500758FE398E6FE13972700331802
:10109000EF001348F8FF3376C8003397E800598E05
:1010A0009845E309D7FDE318F7FD14C9E9B710C166
:1010B00003D705009307F00F63FDE7045041A147F4
:1010C000054EBD4F130F8002930E8004414331A0A3
:1010D00054C915A88507638D6702B316FE0003D7B0
:1010E0000500758FE398E6FE1397270001173398E4
:1010F000EF001348F8FF3376C8003397E800598EA5
:101100009845E307E7FD9845E316D7FD14C9D9B71D
:1011100050C1828019C20CC982804CC982802A8643
:1011200063400504B7070140DC4393160501C18203
:10113000370730003378E5006308E8021317B5007D
:10114000635C0704135705011378F7000D47331745
:1011500007011347F7FF7D8FB707000FD98F0DA049
:10116000B7070140DC4FD1B7370700F17D17F98F82
:10117000B708014003A848003377E80023A2E8003D
:1011800091C5558112053395A600C98F63420602A9
:10119000370701405CC3828013575501120733970C
:1011A000E6001347F7FF7D8FB707000FD98FC9BF40
:1011B000370701405CCF8280B7E700E0BC47898BEE
:1011C00095CF8346050083472500920793F7F70FD5
:1011D00037E700E036972300F7405C41B5C7034787
:1011E0000500935757008546B396E600938707049A
:1011F0008A0737E700E0BA9794C38280B7E700E038
:10120000BC47898BF9FB034715008547630FF7003F
:101210008346050083472500920793F7F70F37E7CA
:1012200000E036972300F7404DBF83460500834713
:101230002500920793E707F893F7F70F37E700E0E9
:1012400036972300F74051BF0347050093575700D7
:101250008546B396E600938707068A0737E700E0DE
:10126000BA9794C38280B7170240DC43B18B114711
:101270006384E70821476387E70899C7B7177A00AF
:10128000938707201CC131A0B7177A0093870720E6
:101290001CC1371602405C429183BD8B370700208A
:1012A00013070700BA9783C607001C41B3D7D700BE
:1012B0005CC15442A1829D8ABA9683C60600B3D609
:1012C000D70014C55442AD829D8A36970347070064
:1012D000B3D7E7005CC558423983937637003707A8
:1012E00000201307070B3697034707001377F70F04
:1012F000B3D7E7021CC98280B7177A00938707200B
:101300001CC141BF371702405C435843C983BD8BA2
:1013100089079316F70063CA060037173D001307C5
:101320000790B387E7021CC1ADB737170240584397
:101330009316E70063DA060037173D00130707909E
:10134000B387E7021CC1B1B737177A00130707202C
:10135000B387E7021CC135BF99C5371702401C4F40
:101360005D8D08CF8280B7170240984F1345F5FF77
:10137000798D88CF828099C5371702405C4F5D8D8B
:1013800048CF8280B7170240D84F1345F5FF798DBB
:10139000C8CF828083570500C207C1833737014019
:1013A000130707C06300E504370700406307E5063D
:1013B000130707406303E50637170040130707804C
:1013C000630DE50493F7F7CF03D76500D98F23109A
:1013D000F50083D745002316F50283D705002314B3
:1013E000F50285A093F7F7F803D72500D98F93F777
:1013F000F7CF03D76500D98F2310F50083D74500B9
:101400002316F50283D705002314F50203C78500D0
:10141000B73701402398E7C22DA093F7F7F803D719
:101420002500D98F93F7F7CF03D76500D98F231005
:10143000F50083D745002316F50283D70500231452
:10144000F5028547231AF5008280FD572312F50027
:1014500023100500231305002311050023040500B4
:10146000828081C98357050093E717002310F50098
:10147000828083570500C207C183F99BC207C183DD
:101480002310F50082800358850042081358080194
:10149000035785014207418383570502C207C18371
:1014A000137888FFB365B8001377C7CF1367171099
:1014B00093F7D7FD9206558ED18FC207C1832314AF
:1014C000B500231CE5002310F50282808357050137
:1014D0000355C50042054181ED8F89C76D8D3335B8
:1014E000A00082800145828093C5F5FFC205C181BD
:1014F0002318B5008280797106D622D426D22A8498
:10150000AE8403570501F577FD17F98F03D7650002
:10151000D98F2318F5000357C500FD779387379FB0
:10152000F98F03D74500D98F03D78500D98F03D70B
:10153000A500D98F2316F50083574501C207C18343
:1015400093F7F7CF03D7C500D98F231AF5006800AA
:10155000193BB7470140938707806301F406524760
:101560008357C400C207C18763CC070493171700D1
:10157000BA978E07BA9798400A07B3D7E7021307BE
:101580004006B3D6E7029206B3F7E7020357C4005A
:101590004207418763400704920793872703130795
:1015A0004006B3D7E702BD8BD58FC207C183231492
:1015B000F400B250225492544561828062474DB784
:1015C00093171700BA978E07BA9798400607B3D7B4
:1015D000E70275B7139737001307270393074006F1
:1015E0003357F7021D8BB367D700C1B781C9835743
:1015F000C5000967D98F2316F50082800357C500FF
:10160000F977FD17F98F2316F500828093F7F50F10
:1016100095830547B315B700638CE7008946130728
:101620004501638AD70019CA1C43DD8D0CC3828033
:101630001307C500CDBF13070501F5B71C4393C5BC
:10164000F5FFFD8D0CC3828093F5F51F2312B500C5
:101650008280035505006D8D3335A000828093F79D
:10166000F50F958385463397B6006388D702894680
:101670006389D702835745017D8F03550500931772
:101680000501C183014509CBA1810545B315B5000D
:1016900033F5B7003335A00082808357C5007D8FB6
:1016A000E9BF835705017D8FC9BF411106C622C41A
:1016B0001384B1838345040093878183BE950545D8
:1016C000EF00903083470400850793F7F70F23005E
:1016D000F4000547638EE7000D476397E700A38D8D
:1016E00001820547238EE182B2402244410182807B
:1016F00003C781839307500AE308F7FEA38D018295
:10170000E5B7B707024009671307874BB8C7F84327
:1017100013671700F8C38280411106C60547238A64
:10172000E182B7060240FC4241677917F98FFCC29B
:1017300003A50183EF007063B240410182809D6781
:10174000138707D31847A16654CB916614CB03A720
:1017500007D3930700025CCBA147930500089306CB
:10176000000219A80CCB14CB54CB06051375F50F4A
:10177000FD1793F7F70F81CB131685016186E343BD
:1017800006FE4CCBCDB79D6783A787D3216798CB47
:1017900082809D67138707D31847A16654CB916653
:1017A00054CB03A707D3930700025CCBA147930553
:1017B00000089306000219A80CCB14CB54CB0605E5
:1017C0001375F50FFD1793F7F70F81CB13168501EE
:1017D0006186E34306FE4CCBCDB79D6783A787D3D5
:1017E000216798CB8280411106C622C493178501D8
:1017F000E18763C707022A849D4763E2B7049385A4
:1018000005FB13F5F50F71371355440013650501FA
:1018100049371375F400B53FB2402244410182803C
:10182000B7760000938606CE1D66130606CD930597
:10183000900D377500001305C5CEEF30B023B77695
:101840000000938606D21D66130606CD9305A00DF3
:10185000377500001305C5CEEF30D021011106CE3B
:1018600022CC26CA4AC84EC6AA841309000B930983
:10187000800B4A85393F0545293F4145193F1304EF
:10188000000826856D3D7D146DFC05091379F90F5F
:10189000E31139FFF2406244D2444249B249056142
:1018A0008280411106C622C426C293060031054635
:1018B00085451545D12C93060031014685451D45CA
:1018C000E12493060031054685451305D0046D2CAF
:1018D00093060031054685451305E00475249306FB
:1018E0000031054685451305F004792C9D6703A753
:1018F00007D39306000214CB938707D380478964EC
:1019000044C8130520038145EF00806704C8130510
:10191000E00A41350145B53D4145A53D13050004AB
:101920008D3D13051008B5351305F0079D351305DA
:10193000100A85351305800CA93D1305600A913DF9
:101940001305800AB9351305F003A1351305300DD1
:10195000893501453D3D1305500D253D1305000812
:101960000D3D1305900D35351305100F1D3513056D
:10197000A00D05354945313D1305B00D193D130541
:101980000004013D130500022935094519351305E9
:10199000D00801355145F53B1305400ADD3B1305E1
:1019A000600AC53B1305F00AED330145453D81450D
:1019B0000145153DB2402244924441018280797133
:1019C00006D622D426D24AD04ECE52CC56CA5AC8B7
:1019D0005EC662C466C283040600BDC02A892E8B1F
:1019E000B28B814A130CE007814C9D69938989AAC7
:1019F000194A2DA8DA854A85FD3393141400A29460
:101A000086040144B3878400CE9703C50700053BD5
:101A10000504E31944FF19091379F90F850A93FAAC
:101A2000FA0FB3875B018384070099C8811413F40C
:101A3000F40FE3712CFD050B137BFB0F66895DBF73
:101A4000B250225492540259F249624AD24A424B4D
:101A5000B24B224C924C45618280011106CE22CCC1
:101A600026CA4AC84EC69D6783A487D3114798C823
:101A7000A147DCC8D8C89CC898C8DCC81384818C2E
:101A800093090410114923AA2401814529456520A1
:101A90002310A40023A824010904E31634FF0547FA
:101AA000A38EE182F2406244D2444249B2490561C8
:101AB0008280411106C622C41384418483450400F8
:101AC00093870184BE950545EF00007083470400AD
:101AD000850793F7F70F2300F4000547638EE700AF
:101AE0000D476397E700238201840547A381E184C2
:101AF000B24022444101828003C701849307500A07
:101B0000E308F7FE23820184E5B7B70702400567C3
:101B100013070796B8C7F84313671700F8C3828006
:101B20000547238FE182B7060240FC4241677917DF
:101B3000F98FFCC28280411106C622C426C2AE843F
:101B4000814605469375F50F37240140130504407F
:101B5000EFF00FBE8327844037075000D98F23242E
:101B6000F4403727014083270740898BEDDFB727F3
:101B7000014003A5C7443355950042054181B24059
:101B80002244924441018280130700086306E51055
:101B9000797106D622D426D24AD04ECE52CC935753
:101BA000550013F977001374F501368AB289AE84B3
:101BB0008DCB05476389E7060947638BE7060D4729
:101BC000638DE70611476380E70815476383E708DD
:101BD0001947639CE700854513050010EFF0CFF728
:101BE00029A085451145EFF02FF7854733948700ED
:101BF00042044180231281006383F4069376FA0F36
:101C000036C6131729009D67938707D3BA974C00F0
:101C10008843EFF08FC3B250225492540259F249D4
:101C2000624A4561828085452145EFF0EFF275BF3C
:101C300085454145EFF04FF24DBF85451305000244
:101C4000EFF08FF15DB7854513050004EFF0CFF09D
:101C500069BF854513050008EFF00FF079B79317BA
:101C60000A01C183A1839DE78D473EC49376FA0F95
:101C700036C6131729009D66938606D3369704430C
:101C80004C002685EFF06FBC4E86A2852685EFF0CE
:101C90006FC851B73EC4D9BF8280135735009376C1
:101CA000C7011D67130707D336971C43984785471D
:101CB0003395A700798D3335A00082801357350006
:101CC0009376C7011D67130707D336971843544708
:101CD0008547B397A700C207C183B58F5CC78280D1
:101CE000B7E700E07D5723A0E71823A2E71882801A
:101CF000011106CE2304A100A304B1002305C100F5
:101D000036C62800EFF04FCB37E600E01842FD76EC
:101D1000F98E03A7819C558F23A4E19C5842938799
:101D2000819C12071183D443558FD8C303C7870002
:101D300085476305F700F240056182805537E5BFAE
:101D4000411106C622C42E8415C989476306F506CB
:101D500091476309F5069947630CF506A147630FA0
:101D6000F506A9476303F508B147631EF5009146E0
:101D70000146814513056002013D31A091460146AF
:101D800081452145113585476308F4068D47630B6E
:101D9000F4069547630EF4069D476302F408A547D1
:101DA0006305F408AD476309F408B547630DF4080B
:101DB000B24022444101828091460146814501455D
:101DC000E133D1B79146014681453D45753B65BF3D
:101DD0009146014681451945453B75B791460146F7
:101DE0008145130560044D3379BF91460146814515
:101DF00013054002513B41BF9146014681452545AF
:101E000061337DB79146014681450545B53B4DB7E8
:101E100091460146814513053002BD3351BF9146BD
:101E2000014681451D458D3361B791460146814587
:101E300013057004913BADBF9146014681451305E2
:101E400050029933B5B7914601468145130570029A
:101E5000253BB9BF011106CE22CC26CA4AC82A8426
:101E6000AE84328929C58547630AF5048947630C26
:101E7000F5048D47630EF504CA852685D135854561
:101E80000545EFF06FCD91476389F404A147638A5C
:101E9000F40AA9476396F404AD476313F904854532
:101EA00037151A0013050580EFF06FA715A88545B3
:101EB000056513050580EFF02FCA7DBF85450545F3
:101EC000EFF06FCB55BF85450945EFF0CFCA6DB731
:101ED00085451145EFF02FCA45B79547630BF904C7
:101EE0004800EFF08FD685472312F100FD572314E9
:101EF000F1002315010023130100230601000A0449
:101F00009D67938707D43E9400404C002285EFF0F4
:101F10006FC88146014689452285EFF0CFD68545B9
:101F20002285EFF00FD4F2406244D2444249056169
:101F3000828085453705180013050530EFF02F9E88
:101F400045B7A547E31EF9F8854537151A0013056F
:101F500005C0EFF0CF9C69B70A059D67938707D44A
:101F6000AA979C4303D547024205418582800A0512
:101F70009D67938707D4AA979C4323920702828088
:101F8000411106C6EF10F032B2404101828041118A
:101F900006C60DE585476385F500B24041018280A4
:101FA00093068031014685452545EFF0FFBD9146FA
:101FB000014681452945EFF03FBDC5B78947630913
:101FC000F502C1476306F504930700026310F506A6
:101FD00093068031014685451305A002EFF0DFBA74
:101FE0009146014681451305B002EFF0FFB975B780
:101FF000930680310146854513056002EFF0DFB896
:1020000091460146814513057002EFF0FFB771B7A5
:1020100093068031014685450945EFF0FFB69146AC
:10202000014681450D45EFF03FB685BF930720027D
:10203000E315F5F693068031014685451305A004A6
:10204000EFF09FB49146014681451305B004EFF0CF
:10205000BFB3A1B7797106D622D426D24AD04ECECC
:102060002A84AE89B284368985450545EFF0CFAE26
:10207000CA852685293F89476381F4029307200298
:102080006390F40293073002631CF900854537051D
:1020900014004105EFF0AF8821A08D47630AF904D1
:1020A00029CC85476300F40689476303F4064EC0D4
:1020B0002312010023130100231401002316010041
:1020C000B1472315F1000A049D67938707D53E9415
:1020D00000408A852285EFF00FC285452285EFF00A
:1020E000EFD0B250225492540259F2494561828095
:1020F00085451145EFF0AF8265B785451165EFF075
:10210000AFA575B7854537050200EFF0CFA645B7F7
:10211000854537050400EFF00FA651BF0A059D67FE
:10212000938707D5AA9798438357070093F7070823
:10213000E5DFC205C1812312B70082801DC64111AF
:1021400006C622C426C24AC02A892E84B384C5008A
:1021500005048345F4FF4A85D137E39B84FEB240F2
:10216000224492440249410182808280411106C684
:1021700022C426C22A84AE84131725009D67938744
:1021800007D5BA970546930550528843EFF00FC81C
:10219000A6860146854513055403EFF07FB5B2408E
:1021A00022449244410182800A059D67938707D5A6
:1021B000AA9798438357070093F70702E5DF8357F1
:1021C00047002380F50082800A059D67938707D525
:1021D000AA9798438357070093F7070299E30145AD
:1021E0008280835747002380F5000545828003A540
:1021F000C1848280411106C69387C1849843050734
:1022000098C3EF10006F3C41FD173CC191C7EF1020
:10221000D031B240410182805C5D3CC1EF10C07999
:10222000FDB7634205029307803E3347F50233074B
:10223000F7023365F5023305F5021305753E3345A4
:10224000F5023A9582807D55828001458280014564
:10225000828001458280014582801D6713070769DE
:102260009D6793874769637CF702411106C622C4C4
:1022700026C21D64930404699D6793873769858F1F
:10228000F19B9107BE94130404691C4082971104CA
:10229000E31D94FEB2402244924441018280828038
:1022A0001D67130747699D679387C769637CF702BA
:1022B000411106C622C426C21D64930444699D6769
:1022C0009387B769858FF19B9107BE941304446986
:1022D0001C4082971104E31D94FEB24022449244B4
:1022E000410182808280411106C65D3FEFE01FB64A
:1022F000B24041018280411106C6D1470947930689
:1023000000400146B72500009385652E3775000013
:10231000130505D6EF10405EEF10C07FB2404101BB
:102320008280411106C6EFD0BFE1EF207025EF009B
:102330009055EF109028EF10602B753FEF1090280C
:10234000F120EF10802D0145B24041018280411102
:1023500006C6C13F0145B2404101828003A7818783
:1023600093878187630FF708011106CE22CC26CA16
:102370004AC84EC652C456C293898187854A2DA049
:102380002685EF102026630A5505EF10E03E5285A2
:10239000EFD07FDB4848EF1080012685EF10402109
:1023A00083A7818763863705EFD09FD92A8A83A7C1
:1023B0008187638D370303A481879304C4FE18408B
:1023C0005C405CC3184098C340C000C0EF10C038E8
:1023D0007C4CDDD72685829765B72685EF102014C3
:1023E000EF1080395285EFD01FD619A0EFD0BFD59E
:1023F000F2406244D2444249B249224A924A0561BB
:1024000082808280411106C6913FFDBF411106C600
:1024100022C4930800021D48930700301387C1A40B
:1024200081463726000013064640B77500009385A5
:1024300085D61385419DEF10C0401385419DEF1057
:10244000606DB240224441018280411106C622C41F
:1024500026C24AC02A843289B6842E868945EF1066
:102460000005930744011CCC5CC8231E2401A3046F
:1024700094000145B24022449244024941018280C5
:10248000797106D622D426D24AD04ECE52CC2A8496
:102490002EC6EFD0FFCAAA898357C401A1E7B2476D
:1024A000A9CBEF100045AA84232805021309440193
:1024B000034A9400EF10005663010A04854763083D
:1024C000FA04B2476348F0084E85EFD0DFC7EF103B
:1024D000A0178858B250225492540259F249624AC5
:1024E00045618280FD17231EF400EFD0DFC5014552
:1024F000D5B7EFD05FC57955F1BF93874401184C2C
:102500001CC3184C98CC1CCC23AA24015DBF5C488A
:102510006308F90283C6540303C7170263E9E600A0
:102520009C43630FF90003C71702E3FBE6FE138722
:102530004401D44398C2D44394CCD8C3DCC851B727
:1025400093874401184C1CC3184C98CC1CCC23AA6C
:10255000240185BF13844404700081452285EF1057
:10256000C0782285EF10806A85B7411106C622C463
:1025700026C22A84EFD0DFBCAA84484893074401CE
:102580006300F5023115EF10E0532685EFD0BFBB95
:10259000EF10800B0145B2402244924441018280F9
:1025A0008357C4018507231EF4002685EFD0BFB9E9
:1025B000D5B7411106C622C426C24AC0AE843289AC
:1025C000AA851545EF0090782A841DC9A30425012A
:1025D000930745011CCD5CC9231095021395040196
:1025E00041810A05EF00104748CC15C123110402B0
:1025F0002312040223130402930784025CD41CD424
:102600002285B240224492440249410182802285BF
:10261000EF00107A0144EDB7397106DE22DC26DACC
:102620004AD84ED652D456D25AD05ECE62CC66CA62
:102630002A842E8C32C6EF10C02BAA84EFD05FB054
:10264000AA8903572402835704026309F704035736
:1026500044025C4C0A07BA9723A0870183574402BF
:102660008507C207C1832312F4020357040263E4FF
:10267000E700231204028357240285072311F40282
:1026800048485104630785123115EF10A0434E8569
:10269000EFD07FABEF00507B014525A0B247814CC6
:1026A00089CB130A8402938A4401054B938B44041B
:1026B000B9A8EFD05FA9755529A04E85EFD0BFA866
:1026C0007555F2506254D2544259B259225A925A14
:1026D000025BF24B624CD24C216182805C5423A09D
:1026E00057015C549CCC2326540323AA4401B247CF
:1026F0006345F0084E85EFD01FA5EF00F0748858B1
:1027000069F1EFD0FFA3AA89B2476344F0080357E9
:10271000240283570402E31CF7F223A80402B24701
:10272000C9DF034994002685EF10C02EE30809FA9B
:10273000E31F69FB1C546308FA0283C6540303C7F2
:10274000170263E9E6009C43630FFA0003C7170210
:10275000E3FBE6FED84323205701D84398CC23A2BD
:102760005701DCC869B75C5423A057015C549CCC6A
:102770002326540323AA44019DBFEFF05FA7AA8C30
:10278000700081455E85EF1040565E85EF10004871
:1027900095B7EFF0DFA533079541B247E69733854C
:1027A000A740634505002AC6BA8C95B702C6BA8C05
:1027B000B9BF4E85EFD03F99014521B7411106C6FB
:1027C0000146993DB24041018280397106DE22DC2A
:1027D00026DA4AD84ED652D456D25AD05ECE62CCE1
:1027E00066CAAA842E8C32C6EF10A0102A84EFD0BD
:1027F0003F95AA8983D72402639C0710B247814C76
:1028000089CB138A4401930A4401054B930B44047A
:102810008DA0EFD05F93795539A04E85EFD0BF9250
:10282000F9571CD87955F2506254D2544259B259D2
:10283000225A925A025BF24B624CD24C2161828046
:102840009C4C23A057019C4C1CCC23AC5401232A44
:102850004401B2476342F0084E85EFD0DF8EEF00AF
:10286000B05E085869F1EFD0BF8DAA89B2476341C5
:10287000F00883D72402C9EF23280402B247D1DF2E
:1028800003C994002285EF10E018E30B09FAE31264
:1028900069FDDC486308FA028346540303C7170244
:1028A00063E9E6009C43630FFA0003C71702E3FBEA
:1028B000E6FED84323205701D84318CC23A2570162
:1028C0005CC841BF9C4C23A057019C4C1CCC23AC42
:1028D0005401232A4401B5BFEFF07F91AA8C700008
:1028E00081455E85EF1060405E85EF102032ADB708
:1028F000EFF0FF8F33079541B247E6973385A74046
:10290000634505002AC6BA8CADB702C6BA8C95B726
:1029100003D76402DC4C0A07BA979C432320FC00CF
:1029200083D764028507C207C1832393F40203D7C8
:10293000040263E4E7002393040283D72402FD1713
:102940002391F402885493848402630C950031151A
:10295000EF1040174E85EFD00FFFEF00F04E01450E
:10296000D9B54E85EFD02FFE014575BD411106C684
:10297000EFD00FFD1387018583470700850793F785
:10298000F70F2300F700EFD00FFCB2404101828027
:10299000411106C6EFD0CFFA1387018583470700A0
:1029A000FD1793F7F70F2300F700EFD0CFF9B240F0
:1029B00041018280411193780804639F08021D6FD2
:1029C000130F4F0693780801638C08021378E8FF11
:1029D000930200029378280063840804634B060284
:1029E00093784800930FB002639D0802937F88009C
:1029F000B33FF001960F35A01D6F130F0FFCD9B731
:102A00009378180093020003E39608FC93020002F7
:102A1000D1B73306C040930FD0028148A94E81A898
:102A2000814F65FE930600032300D1008548468E42
:102A300063D3F8003E8E3307C74193761801BDE299
:102A400063880F10635EE00E1303E7FF854663C5DE
:102A5000E6101A87FDA01373F60011828508330E65
:102A600011017A9303430300A30F6EFE69D2E3942E
:102A7000D6FF3373D6033356D603CDB70507B30657
:102A8000E6406357D000E37BB7FE2300D701FDB7D4
:102A90001307F3FF1346F3FF7D86B376C300158F4C
:102AA00085063695639F0F081378080163120802A4
:102AB0009306F7FF6357E0042A9721A005056307F3
:102AC000E500E37DB5FE23005500CDBF3A857D5777
:102AD000B3061E41AA961306000363CFC801AA8657
:102AE000635F10038DCF46830A8533061501B687D1
:102AF00039A80505E306D5FEE37DB5FE2300C50034
:102B0000CDBF3687F1B785077D166309A600E3FCC4
:102B1000B7FE0348F6FF23800701F5B79A96338581
:102B2000E600930700026348E00036854101828099
:102B30008506E38DA6FEE3FDB6FE2380F600CDBF3D
:102B40007D176374B5002300F5017D170505A9BF46
:102B50001303F7FF6359E0002A87930E0002130660
:102B600015001A960DB71A8781B78D4763F9C7000C
:102B7000937735008DC71307F6FFAA8729A0AA8788
:102B80001307F6FF01CE05073E978507A38FB7FE13
:102B9000E39DE7FE8280BA874286DDB7828093F7A5
:102BA000F50F93968700D58F93960701DD8EBD476D
:102BB00063F1C704930706FFC19BC107AA972A8741
:102BC00014C354C314C74107232ED7FEE39AE7FE6C
:102BD0001378F600318A61D29307C8FFF19B910701
:102BE000BA971107232ED7FEE31DF7FE13763800A0
:102BF00041BF2A873288CDB763E0A502B306C5007E
:102C0000AA8711CA850585070387F5FFA38FE7FE0D
:102C1000E39AD7FE828082803387C500E370E5FEA9
:102C2000B307C50065DA7D17FD178306070023800B
:102C3000D700E31AF5FE828009CEAA868505938720
:102C400016000387F5FFA38FE7FE09C77D16BE8632
:102C500075F682801307F6FF6DDF36968507A38F22
:102C600007FEE31DF6FE82808307050089CBAA8755
:102C70008507038707006DFF3385A7408280AA87F9
:102C8000E5BF5D7186C6A2C4A6C2CAC04EDE52DCD4
:102C900056DA5AD85ED662D466D26AD06ECEAA8C84
:102CA0002E8D368CB30AB50063F5AA00134DF5FFDF
:102CB000FD5A83070600E68963820736930B5002AC
:102CC0001309B0021D67930D07D741677D173AC4FA
:102CD00009A8850932841306140083071400638F42
:102CE000073263877701E3F659FF2380F900D5B7F0
:102CF00081441307D00293060002930530021305A6
:102D0000000321A093E40401228613041600830724
:102D10001600E389E7FE638B2701638CD700638D80
:102D2000B700639EA70093E41400F9BF93E4440046
:102D3000E1BF93E48400C9BF93E40402F1B73E8786
:102D4000938607FDA54563F6D5041307A0027D5AB7
:102D50006382E706030704009307E0027D5B6309D3
:102D6000F7068307040013F6B7FF930680060147B2
:102D7000630CD60A834704009387B7FD13F6F70F59
:102D80009306300563E8C62093172600EE979C4310
:102D90008287014AA546050493172A003E9A060A2F
:102DA0003A9A130A0AFD03070400930707FDE3F4A8
:102DB000F6FE4DB71304260093074C00032A0C00BF
:102DC0003E8CE3590AF8330A404193E4040159B7B1
:102DD0001307140083071400BE86938507FD25465C
:102DE0006379B6009306A0026386D7023A84014B4A
:102DF0008DBF014B050793172B00DA978607B6970F
:102E0000138B07FD83060700938706FDE374F6FE28
:102E10003A8429A00904032B0C00110C9347FBFFF3
:102E2000FD87337BFB0035BF13F7F70F050499B718
:102E3000C14641AAC1889DC093064C0063F6590162
:102E400083270C002380F9009387190005476351FD
:102E5000471D52864E9A130700020DA89307FAFFEA
:102E60006351F002CE971307000221A08509638702
:102E70003701E3FD59FF2380E900CDBFBE89014A38
:102E800065BF3E8A55BF850763874701E3FD57FF4E
:102E90002380E700CDBFB299368C35BD93074C0037
:102EA0003EC6032C0C0063010C026285EFF0DFDBF1
:102EB000635560016353AB005A85C18899C863505C
:102EC000A006B387A900A9A0B7770000138CC70597
:102ED000E9BF9306FAFF63574503D2852A87B307F4
:102EE000AA40CE971306000221A085096387F90046
:102EF000E3FD59FF2380C900CDBF330AB740369A9E
:102F0000BE8975BF368A65BF8509050C638AF900DD
:102F1000E3FC59FF03070C002380E900F5B7CE87D7
:102F2000635B450F3305AA40B389A700130700026E
:102F300021A0850763873701E3FD57FF2380E70062
:102F4000CDBF324C49BBFD576302FA0293074C00D8
:102F50003EC62688DA875287C14603260C00D685EE
:102F60004E85EFF03FA5AA89324CB5B393E4140027
:102F7000214AE9BF63F65901930750022380F90003
:102F8000850991BB93E40404C14625A893E4240079
:102F9000A94605A863F65901930750022380F9005A
:102FA000138719008307040099C763745701A3802E
:102FB000F90089090DB37D14BA8931BBA94611A066
:102FC000A1469307C0066302F702930780066302D7
:102FD000F70203260C00110C2688DA875287D68563
:102FE0004E85EFF03F9DAA89FDB103260C00110C20
:102FF000E5B793074C0003260C0013F7240009E7FC
:103000002247798E3E8CC9BF420641863E8CE9B785
:10301000368CBE89C9B1324CBE8975B963060D00C4
:1030200063F559032380090033859941B64026444E
:1030300096440649F259625AD25A425BB25B225C0C
:10304000925C025DF24D61618280A38F0AFEE9BF4E
:10305000397106CE22CC2ED232D436D63AD83EDAC8
:1030600042DC46DE541036C62A869305F0071385E7
:10307000C1D4EFF01FC11385C1D4EF101062F2402C
:10308000624421618280411106C637750000130534
:1030900045FD7D3F37750000130505FE553F377729
:1030A0000000130747008D4605468D453775000023
:1030B00013050501713F3775000013050503493FEE
:1030C000B240410182800DC59377F50F9DE3C16742
:1030D000938707F0E98F95E7B707FF00E98F8DEF3A
:1030E00061819D67938707EC3E9503450500650563
:1030F00082801D67130707ECBA9703C50700050513
:10310000828021851375F50F9D67938707EC3E95A7
:10311000034505002505828041851375F50F9D67E0
:10312000938707EC3E95034505004505828003A77C
:1031300081855C41BA976304F50283D6270085E256
:1031400083A64185638DF60083A6C185638BF60255
:10315000D44354C1DC43BA97B306E54094C7144541
:10316000B307D700630EF50003D6270011EA03A6C4
:10317000C185630BA6005041D0C35C413E9714C784
:10318000828023AEA184E9B723AEF184EDB741116B
:1031900006C683A541863775000013054508EFF084
:1031A0003FEB83A581863775000013058509EFF095
:1031B0003FEA83A50186377500001305C50AEFF0C5
:1031C0003FE9B24041018280411106C622C413F793
:1031D000C5FFE14663F9E60093073500F19B9306CE
:1031E00087FE63FEF6002E86AA853775000013055C
:1031F0000512EFF0FFE5B2402244410182801D8FAD
:10320000130687FE23A2C186138481851CC08966AC
:10321000938606EA2390D7005117D8C323A407004A
:1032200023910700BA9723AAF1842390D7008546FB
:103230002391D700D8C398C781460546B7750000CB
:10324000938585111385C1DCEFF02FA0184023AEC4
:10325000E18455B763040512411106C622C426C293
:1032600093043500F19883A7418663EB9710B1472B
:1032700063F3F400B144FD551385C1DCEFF04FA0BA
:1032800003A5C18583A68185B307D54003A84186E0
:103290003306984063E2C7061385C1DCEFF0EFAC5C
:1032A0000145B24022449244410182808547231166
:1032B000F400938781869043329798C383A7018651
:1032C00063F0E70A23A0E18661A883572500C5C300
:1032D00003A74185630DE5084841369583572500CE
:1032E00091C7E31BA7FE23AEA18451A023AEA18406
:1032F000BDA85C40E3F2C7FA3384F600035724000C
:103300006DFB58401D8F930547FFE3E495FE138640
:103310008401E3EDC5F81386C4003E963387C600EA
:103320008965938505EA2310B700231107004C40F7
:103330004CC31CC750C085472311F4005C433108BF
:1033400063840701B69790C7138781861C43B10732
:10335000BE9404C383A7018663F4970023A09186DB
:103360008967938707EA2310F400E30085F6138545
:10337000C1DCEFF08F9F1305C40025B701458280A3
:10338000014505B7411106C622C426C2B304B502E1
:103390002685EFF03FEC2A8409C526868145EFF0AB
:1033A000CFFC2285B240224492444101828009C967
:1033B00083A781856366F50083A741856363F50074
:1033C0008280411106C622C426C22A84930445FF86
:1033D000FD551385C1DCEFF0AF8A835764FF81CBC5
:1033E000035744FF8967938707EA6303F70237753A
:1033F00000001305C50CEFF0BFC5835644FF03560C
:1034000064FFA685377500001305850EEFF05FC4D5
:10341000231B04FE8967938707EA231AF4FE83A718
:10342000C18563F4F40023AE9184138781861C4325
:10343000832684FF958F83A68185B386D440B69773
:103440001CC32685EFF0BFCE1385C1DCEFF0EF91F2
:10345000B2402244924441018280AA87370700206B
:1034600003270701630CE502370700200327070243
:103470006302E5023707002003270703630EE50018
:10348000370700200327070401456303F700828004
:103490000D4531A0054521A0094511A0014593170F
:1034A000450037050020130505013E95CDB70111F4
:1034B00006CE22CC26CA4AC84EC652C4AA84AE89B9
:1034C000328A2E85593F2A89412C832749001304CB
:1034D0004900638587009C43E39F87FE712C93E935
:1034E00009F8238434012146D2852685EFF0CFF4F4
:1034F000EFC01FC59387C400032749005CC303279F
:103500004900D8C42322F90080C8EFC0DFC3F240CD
:103510006244D2444249B249224A05618280411143
:1035200006C622C42A8423040500EFC07FC1930786
:10353000C40054441848D8C2544414C31CC85CC4C2
:10354000EFC07FC0B240224441018280011106CE0B
:1035500022CC26CA4AC84EC6AA892E89EFF0FFEFB0
:10356000AA844845EFF01FCF2A841DC9D044814565
:10357000EFF0AFDF23043401A30404002146CA8521
:103580002285EFF06FEBEFC0BFBB9307C400D840BC
:103590005CC3D84058C4DCC0910404C8EFC0BFBAB3
:1035A0002285F2406244D2444249B2490561828098
:1035B000411106C622C42A8423040500EFC05FB867
:1035C0009307C40054441848D8C2544414C31CC8B8
:1035D0005CC4EFC05FB72285EFF07FDDB2402244CC
:1035E00041018280030585007D818280239A0186C6
:1035F0009387C1DE13870704DCC39CC3A107E39D47
:10360000E7FE1D472386E18623A8018623A00188C3
:1036100093878187DCC39CC38280411106C603A5C2
:103620000188EFF05FAA7D15931735001385C1DE81
:103630003E9508411307C5FE23A8E1862105EFC08A
:10364000FFB0B24041018280411106C622C4EFC0E2
:103650003FAF2A8483974187A1E303A50188EFF058
:103660009FA67D15131735009387C1DEBA978C434B
:103670009387C5FE03A701876300F7022386A1860F
:1036800023A8F18683C7018593F7F70F89CFA1059A
:103690001305C701EF0000782285EFC0DFAAB24012
:1036A000224441018280A1051305C701EF00407546
:1036B0002285EFC05FA9E5B7411106C622C42A845E
:1036C000EFC01FA883474403C19B93E71700230A59
:1036D000F4028347540393064401139737009387FA
:1036E000C1DEBA97D84314C3D84318CCD4C35CC83E
:1036F00093870188185C9443558F98C3EFC0BFA48B
:10370000B240224441018280411106C622C42A846B
:10371000EFC01FA3930744015448184CD8C2544823
:1037200014C31CCC5CC8834754031397370093879A
:10373000C1DEBA9798436308F700EFC0DFA0B2403C
:10374000224441018280138701881C5C93C7F7FFE4
:103750001443F58F1CC3D5B7411106C6EFC05F9E59
:103760009387418703D7070005072390E700EFC041
:103770009F9DB24041018280411106C6EFC05F9C0F
:103780001387418783570700FD17C207C18723109E
:10379000F7006357F000EFC01F9BB24041018280E9
:1037A000239A0186EFC03F9A83A70187FDD7EFF0E8
:1037B000BFE9E5B7411106C622C426C203A40187AA
:1037C000EFC01F98AA842285EFF01FF49147230AC7
:1037D000F40213054404752E2285EFF0BFE08547FF
:1037E0006307F5021307440183A68187D8C254C832
:1037F00023ACE186938781871CCC2685EFC0BF94DC
:10380000EFF09FE4B24022449244410182803C5850
:10381000F1FB2285EFF0BFD0CDB7411106C6795735
:1038200018D9130745015049144D54C2504990C24C
:1038300018CD58C9EFF05FE8EFF01FE1B240410149
:103840008280011106CE22CC26CA4AC84EC652C476
:1038500056C25AC02A84328BB68ABA893E8A4289B5
:10386000C6842E868545EFF09FC4930744011CCC87
:103870005CC8232064032322540323243403232617
:1038800044035286930530024E85EFF00FAE5C5430
:10389000F1171054B73600009386467B3E964C5085
:1038A0000850152348CC230B2403A30A2403232CFC
:1038B000040244DC24C023280402230A040223282F
:1038C0000406232A040681470147A28637460000E2
:1038D0001306A681A28513054404AD240145F240D8
:1038E0006244D2444249B249224A924A024B05619B
:1038F000828003A501878280011106CE22CC26CAD0
:103900004AC84EC652C456C2AE8A328AB684BA89F2
:103910003E89AA850545EFF07FC349CD2A842685D7
:10392000EFF05F9359C1930744011CCC5CC823207E
:1039300054032322440308D444D42686930530023A
:10394000EFF0AFA25C54F1171054B7360000938625
:10395000467B3E964C500850BD2148CC230B340387
:10396000A30A3403232C0402232E2403232024053A
:1039700023280402230A040223280406232A040617
:1039800081470147A286374600001306A681A2851B
:1039900013054404452A2285F2406244D244424938
:1039A000B249224A924A056182802285EFF05FC0C7
:1039B0000144D5B70144C5B7411106C6EFC04FF861
:1039C00083A7018703C747033D8B85466316D7004E
:1039D000D44B984F6398E600EFC0EFF60145B24034
:1039E0004101828013864701D8C2D44B14C390CFC3
:1039F000D0CB83C657038E061387C1DE3697544358
:103A000090C2544394CF50C3D8CBEFC0CFF3EFF064
:103A1000BFC3E9B783474503BD8B05476390E70400
:103A2000411106C622C426C22A84EFC06FF1AA84BF
:103A300083474403C19B93E72700230AF4022285AE
:103A4000EFF09FCC1305440485242685EFC0AFEF2B
:103A50000145B24022449244410182807D558280DA
:103A6000011106CE22CC26CA4AC82AC6EFC04FEDA5
:103A70002A8903A401872285EFF0DFF99304440427
:103A80007000814526859524268549224A85EFC008
:103A90008FEBEFF07FBB1858F9576309F70001452A
:103AA000F2406244D24442490561828023280402E4
:103AB000FDB7411106C6EFE0CFF6EFF07FFAB24056
:103AC0004101828083474503BD8B09476392E70428
:103AD000411106C622C426C22A84EFC06FE6AA841A
:103AE000930744015448184CD8C2544814C31CCC02
:103AF0005CC8130544044D2A2685EFC0CFE4228517
:103B0000EFF09FBB0145B2402244924441018280C4
:103B10007D558280411106C683466503A30AD502FE
:103B200005473317D70018DD0947230AE502EFF0F0
:103B30007FF983A7018799C3EFF01FB10145B24018
:103B400041018280011106CE22CC26CA4AC84EC647
:103B500052C42A84328AB6893A89BE842E86A945FF
:103B6000EFF0FF94F998A3049400232E440123203E
:103B700034032324040223222403930744011CCC8E
:103B80005CC8F2406244D2444249B249224A0561CB
:103B90008280411106C622C42A84EFC06FDA9307DF
:103BA00044015448184CD8C2544814C31CCC5CC8B7
:103BB000EFC06FD92285EFF09F960145B2402244B5
:103BC00041018280011106CE22CC26CA4AC84EC6C7
:103BD000AE893289B6843A84AA852945EFF01F97C9
:103BE00019CD7998A3048500232E350123202503C0
:103BF0002324050244D1930745011CCD5CC9F24042
:103C00006244D2444249B24905618280411106C6EC
:103C100022C426C22A84EFC0AFD29304440158487C
:103C20001C4C5CC3584898C304CC44C883479400D8
:103C3000F99BA304F400EFC00FD1EFE04FDB5C5021
:103C40003E9508D4EFC0CFCF93878188CC431387AC
:103C50008188370800801348E8FF11A03687638CFD
:103C6000E5001443DC4A1054E38AC7FE918F637465
:103C7000F8003687EDB7938741889443850694C34F
:103C80001C43C4C31C435CC804C318CC83479400C2
:103C900093E71700A304F400EFC0EFCA0145B24058
:103CA000224492444101828083479500858B99E3A9
:103CB0007D558280411106C622C42A84EFC04FC8B8
:103CC000930744015448184CD8C2544814C31CCC20
:103CD0005CC8EFC04FC783479400F99BA304F4006E
:103CE0000145B24022444101828085476385F50247
:103CF00063DFB70089476384F5028D47639FF50052
:103D00008347950093E72700A304F50039A091E5C8
:103D10001C425CD119A05C511CC2014582808347C2
:103D20009500F59BA304F500CDBF011106CE22CC72
:103D300026CA4AC84EC652C456C2EFE04FCB2A8AA2
:103D4000EFC00FC0AA8993848188B707008013C988
:103D5000E7FF8D4A8040631E94004E85EFC0AFBEE2
:103D6000F2406244D2444249B249224A924A056131
:103D700082805C48330AFA40E36149FF18405C40A6
:103D80005CC3184098C340C000C01C44484482979C
:103D9000EFE0EFC52A8A834754FF13F73700630625
:103DA0005701F99BA30AF4FE75B7F99BA30AF4FE29
:103DB0001305C4FEEFF09FE571BF93878188DCC3D4
:103DC0009CC3828082802A881106719A130506F8A6
:103DD000AA8737C7ADDE1307F7EE98C39107E31E36
:103DE000F6FE2322D6F82324B6FA232006F9A1678B
:103DF000938707882324F6F8828023AC0188828089
:103E000023A8A18823AAB188B7E700E0116723A0FF
:103E1000E720828083A7818999E323A8A18823AA28
:103E2000B188054723ACE188B7E700E0116723A01C
:103E3000E7208280411106C6377500001305C51EB4
:103E4000EFF00FA10145B24041018280011106CE81
:103E500022CC26CA4AC84EC6004163088502AA84FD
:103E600037790000B779000001A813858949EFF080
:103E70002F9E0040638B84009305C4FE13054949BF
:103E8000EFF00F9D1C40E39297FEF2406244D24453
:103E90004249B24905618280411106C6EFF0AF9EEA
:103EA0000145B24041018280011106CE22CC26CAD2
:103EB0004AC84EC623A80500DC45BDC383C785009C
:103EC000B5C32E892A8483A9050039CDEFC04FA739
:103ED0008347C4FF93F7F7F7034789006391E7022D
:103EE0008327490081440040638F8900850491073E
:103EF00023AE87FE0327C900E31797FE31A0EFC06A
:103F00008FA4014431A00144EFC0EFA323289900FE
:103F10002285F2406244D2444249B249056182801E
:103F20000144FDB70144EDB7EFC08FA14E844DBFF2
:103F3000517186D7A2D5A6D3CAD1CECFD2CDD6CBFA
:103F4000DAC9DEC7E2C5E6C3EAC16EDF0545EFF0B8
:103F5000CFD011052ACF85472302F10AFC183ED1A4
:103F6000A1473ED502D7377600001306462FA1455C
:103F7000377500001305C52FEFF08F8D2144B774FE
:103F8000000013850434EFF0AF8C7D147DF8377595
:103F9000000013054534EFF0AF8B814AB77B00007A
:103FA000377B0000B77D0000D5A8130A44FF130635
:103FB0008007D2854800EF10E0314E85EFC0AF9802
:103FC00003479402D2862146A14513854B38EFF072
:103FD0002F8883478402BD8B05476382E708094722
:103FE0006384E708D9C71147638AE7080D47638CE4
:103FF000E7084C4C03C7050093073002631CF70821
:10400000AE8613073002850683C70600E38DE7FE00
:104010001050B295B386D54093074006B386F6029A
:1040200008485C505858B3D6C602898D1305CB3C5E
:10403000EFF00F8285041109BA5763DFF4040324FB
:104040000900EFC0EF8FAA898347C4FF93F7F7F702
:104050000347410AE38BE7F4EFC0EF8EE1BF13851E
:104060000C39EFE0FFFE71B71305CD39EFE05FFECD
:1040700049B713058C3AEFE0BFFDA5BF13854D3B53
:10408000EFE01FFDBDB7B77700001385073CEFE0F9
:104090003FFC85B7AE86ADBF63840A026C095685C6
:1040A000EFF09FE0AA8ABA57E358F0FE1309C10760
:1040B0008144377C0000377D0000B77C000041B7A9
:1040C0000145BE502E549E540E59FE496E4ADE4A9A
:1040D0004E4BBE4B2E4C9E4C0E4DFA5D6D61828058
:1040E000011106CE22CC26CA4AC84EC652C4377524
:1040F000000013050520EFE0BFF503A4C18983A7E5
:10410000018A637AF402B7790000377A000031A09F
:10411000210483A7018A6370F40204400946938551
:1041200049212685EF10D01765D5A68513058A216C
:10413000EFE01FF2F1BF0145F2406244D244424930
:10414000B249224A056182801D7186CEA2CCA6CAE0
:10415000CAC8CEC6D2C4D6C2DAC02945EFF0EFAF86
:1041600011052AD6A947230AF1027C003ED8A147AF
:104170003EDC02DE377600001306463FA145377568
:1041800000001305C53FEFE0BFEC2144B774000009
:1041900013850434EFE0DFEB7D147DF83775000004
:1041A00013054542EFE0DFEA014AB7790000377BAB
:1041B0000000B77A000085A0EFB0FFF88504110970
:1041C000F25763D8F40403240900EFB07FF7834764
:1041D000C4FF93F7F7F703474103E39FE7FCEFB012
:1041E0009FF65C4C184C930644FF2146A14513856D
:1041F0008944EFE0FFE58347D4FF858B91C71385A2
:104200000A46EFE0FFE45DBF1305CB46EFE05FE455
:1042100075B7630E0A006C105285EFF0FFC82A8A4A
:10422000F257E358F0FE1309C100814469BFEFD093
:104230001FFCAA85377500001305C547EFE05FE155
:104240000145F6406644D6444649B649264A964A50
:10425000064B25618280597186D6A2D4A6D2CAD0D7
:10426000CECED2CCD6CADAC8DEC61545EFF0EF9E68
:1042700011052AD69547230AF1027C003ED8A147B2
:104280003EDC02DE377600001306C621A1453775F5
:10429000000013054522EFE0BFDB2144B7740000A6
:1042A00013850434EFE0DFDA7D147DF83775000004
:1042B00013058524EFE0DFD9014AB77B0000377B87
:1042C0000000B77A000061A0EFB0FFE7050991098F
:1042D000F257635CF90603A40900EFB07FE6834759
:1042E000C4FF93F7F7F703474103E39FE7FCEFB001
:1042F0009FE5930484001044638BC402930644FF3B
:104300000357640183574401014805081042E39EA6
:10431000C4FE2146A14513054B26EFE07FD3268539
:10432000EFF0DFB21385CA1FEFE09FD245B7014817
:104330008357440103576401930644FF2146A14576
:104340001385CB27EFE0DFD051B7630E0A006C1066
:104350005285EFF07FB52A8AF257E358F0FE9309B1
:10436000C10001498DBF0145B650265496540659E7
:10437000F649664AD64A464BB64B6561828059710A
:1043800086D6A2D4A6D2CAD0CECED2CCD6CADAC8CD
:10439000DEC60945EFF06F8C11052AD68947230A3E
:1043A000F1027C003ED8A1473EDC02DE37760000F9
:1043B00013064629A145377500001305052AEFE0CD
:1043C0003FC92144B774000013850434EFE05FC88F
:1043D0007D147DF8377500001305C52BEFE05FC72E
:1043E000014AB77B0000377B0000B77A000041A08C
:1043F000EFB07FD505099109F2576358F90683A4F8
:104400000900EFB0FFD383C7C4FF93F7F7F7034763
:104410004103E39FE7FCEFB01FD313848400904473
:104420006309C402938644FF03D7040181478507CB
:104430001042E31EC4FE2146A14513054B2DEFE0BB
:104440003FC12285EFF09FA01385CA1FEFE05FC038
:1044500055B7814703D70401938644FF2146A14500
:1044600013854B2EEFE0DFBE71B7630E0A006C10B0
:104470005285EFF07FA32A8AF257E358F0FE9309A2
:10448000C1000149ADBF0145B650265496540659A6
:10449000F649664AD64A464BB64B656182800111A1
:1044A00006CE22CC26CA4AC84EC652C43775000072
:1044B0001305854FEFE0DFB903A4C18983A7018A03
:1044C000637BF402B7790000377A000031A0210441
:1044D00083A7018A6371F402044019469385495108
:1044E0002685EF10E05B65F5938564001305CA51DE
:1044F000EFE01FB6E9BF377500001305C51FEFE0F9
:104500003FB50145F2406244D2444249B249224A91
:1045100005618280411106C6EFF09FA10145B240BE
:1045200041018280411106C6EFE07FC60145B240DD
:1045300041018280054582805D7186C6A2C4A6C203
:10454000CAC04EDE52DC56DA5AD85ED62A84AA9504
:1045500013070002A54611A00504B3848540830714
:104560000400E38BE7FEE389D7FE014581ECB6400A
:10457000264496440649F259625AD25A425BB25BCB
:1045800061618280814A13070002A54611A0D28A88
:10459000138A1A00B3074401838707006388E70082
:1045A0006386D700E3159AFE268A19A063010A14D0
:1045B00003A9C18903AB018A637B6913B77B000040
:1045C00021A0210963756913832909001946938580
:1045D0004B514E85EF10C04C6DF55286A285138568
:1045E0006900EF10E04B71FDD69983877900F1FBEC
:1045F000032A4900630D0A0E02C002C202C402C6A9
:1046000002C802CA02CC02CE8A890A8E22870149D8
:10461000014613080002A548A14F930E2002130F74
:10462000C00539A0637C960E230007000507050628
:1046300083070700E38807FFE38617FF630DF9038D
:104640006374960A638BD7032320EE0013051900C9
:104650003383C4403A93BA878507B386C700998EDF
:1046600083850700638B050763891507E39667FE5B
:104670008A85029AEDBD21496DA093071700930624
:1046800016002320FE001305190003071700630D11
:10469000D70363EF9600E9BF1386170085069307DB
:1046A00016008506030716006300D703E3F296FCA5
:1046B0003E86E316E7FF03871700E30FD7FD850665
:1046C000038717008507DDB7E3F496FA2380070018
:1046D0008507850663E5960061BFE3FB96F805094B
:1046E000110E3E873686A9B74A85E31309F883077A
:1046F000040093F7F7FD228799C705078307070092
:1047000093F7F7FDFDFB23000700A2853775000036
:104710001305054EEFE0DF937D5591BD9D47E3F511
:1047200027FD377500001305054CEFE07F9201442B
:10473000B774000083A509001385C451EFE05F91B1
:1047400005049109E36824FF377500001305C51FB0
:10475000EFE01F904A8529BF797106D622D426D270
:104760004AD04ECE52CC56CA5AC85EC662C48307DF
:10477000050099CF2A8903A4C18983A7018A637997
:10478000F40A8149014A377B0000B77B000035A05D
:1047900081450145EFF0BFD061A8CE87B38737418F
:1047A00063D347013E8AA68513858B21EFE05F8A9C
:1047B000210483A7018A6376F406032C04001946BA
:1047C00093054B516285EF10A02D7DF193046C0091
:1047D0004A85EF10C02B2A86A6854A85EF10402C0B
:1047E00061F963170A002685EF10602A2A8AA689D4
:1047F00083870900DDD303076C0005C36391E702DB
:104800002687CE87850705070386070041DA8306DA
:104810000700C9D6E308D6FE51B7CE8741B7CE8789
:10482000B5BF638709005286CE854A85EFE0CFC0C9
:10483000B250225492540259F249624AD24A424B2F
:10484000B24B224C45618280411106C622C426C269
:104850009D679387076A23AEF1889D6793870772E8
:1048600023A0F18A9D679387077223A2F18A9D672F
:104870009387077223A4F18A9305C0070545EFE0EB
:104880007FB023A8A18A31CDA947194793060060BC
:104890000146B75500009385E5973775000013056D
:1048A0008553EFF06F85AA841384018B81460146FE
:1048B000B7750000938505540840EFD01FB9184024
:1048C0008347470293E727002302F702014589C483
:1048D0002685EFF02FA40145B240224492444101C5
:1048E00082803775000013050552EFE06FF67D55A5
:1048F000E5B783A7018B83C74702898B9DC341110D
:1049000006C622C483A5C18A95C113060008138573
:10491000C1E2EF10A01B1385C1E2B2402244410165
:104920008280238601E21385C1E28280EFF09FC07E
:1049300005C99387C1E2377768201307D73698C334
:10494000238207001384C1E21385C1E2EF10201413
:1049500022959307E0032300F500A300050065BF3F
:104960009387C1E237776E731307679698C3096719
:10497000130787062392E70023830700E1B77971C5
:1049800006D622D426D24AD04ECE52CC56CA5AC8C7
:104990005EC662C403A7018B8347470293E71700F3
:1049A0002302F702EFF0FFF4EFE08FEAB77900009F
:1049B000B77B000037790000377A0000B77A000033
:1049C000377C0000377B000029A083A7018B0547B7
:1049D00098D321232A84AA85E34D05FEED47E306FB
:1049E000F5FE83A7018B98538546630ED70689464B
:1049F0006305D708F9DD25476387E50E1307F00740
:104A00006386E51421476383E5143547638BE51C12
:104A100029476388E51C03D767079306F00463FD05
:104A2000E620239B070601473E97A302870283C720
:104A30004702858B6398072603A7018B8357670777
:104A40008507C207C183231BF706835687078506A0
:104A5000231CD7069306F004E3FDF6F6231B070696
:104A6000231C0706BDB71307B0056305E50023A0A7
:104A7000070249B7094798D3A9BF23A00702130724
:104A8000F5FB1377F70F8546E3F5E6F413074004CB
:104A9000630BE50213073004E31EE5F403D7870731
:104AA00083D66707E377D7F2BA97838557021385D2
:104AB000CA54EFE0EFD903A7018B83578707850717
:104AC000231CF70639B783D78707E38407F013055C
:104AD0008954EFE0EFD703A7018B83578707FD17B2
:104AE000231CF706FDB503D7870709CF014413053B
:104AF0008954EFE0EFD5050483A7018B03D787071F
:104B0000E347E4FE138457021305CA1FEFE04FD4B6
:104B1000EFF05FA285476307F502EFF09FDD228685
:104B2000AA8513050B55EFE0AFD203A4018B130543
:104B30005402EF00D07542054181231BA406231CBB
:104B4000A40641BD2285EFF03FC1C1BF03D787074F
:104B5000E30107E803D667077D1642064182239BDF
:104B6000C7067D1742074183239CE706636EC70093
:104B700013850956EFE0CFCD83A7018B03D76707D5
:104B8000BA97A3820702B1B59305670213055702CE
:104B9000198EBE953E95EFE02F861384018B1C4045
:104BA00003D767073E97A302070283D5870793853C
:104BB0005502BE9513858B55EFE08FC91C4003D479
:104BC000870783D76707E3C687E013058954EFE0BB
:104BD0002FC8050483A7018B83D76707E3D787FE18
:104BE000CDBBEFF03F9585476304F502EFF07FD032
:104BF000EFE00FC603A4018B1306000581451305E2
:104C00005402EFB0CFE0231B0406231C0406D1B3EB
:104C100083A7018B83C74702858B91EB03A5018B8B
:104C20008355650713055502EFF01F91C1B71305B2
:104C3000CA1FEFE0EFC1DDB703D68707E376E6DEF4
:104C400093055602130566023306C740BE953E958E
:104C5000EFD09FFA83A5018B83D685073387D500D4
:104C6000A302870203C74502058B0DE783A7018BCB
:104C700003D4870783D76707E350F4DC130589540F
:104C8000EFE00FBD050483A7018B83D76707E347D8
:104C9000F4FE5DB393865602B69513054C49EFE0DA
:104CA0002FBBE9B71385CA54EFE08FBA71B337054C
:104CB0000020130505768280372500201305050C9A
:104CC0008280397106DE16DC1ADA1ED82AD62ED476
:104CD00032D236D03ACE3ECC42CA46C872C676C42C
:104CE0007AC27EC0EFD09FC8B7F700E023820700EA
:104CF000A382070023830700A38307002384070000
:104D0000A384070023850700A3850700EFD08FCE7B
:104D1000EFD01FC8F250E2525253C2533255A2553F
:104D2000125682567247E2475248C248324EA24E4D
:104D3000124F824F216173002030411106C6B71710
:104D40000240DC43C983BD8B37177A001307072065
:104D5000B387E7023727F40013070740BA9723A465
:104D6000F18485460146F165938505200145EFD024
:104D70006FAE85450145EFD06FBFB24041018280E3
:104D8000411106C622C426C24AC0EFF01FFB03A78A
:104D900081848967938707F43357F7027D17B7F744
:104DA00000E023820700A382070023830700A38378
:104DB000070023840700A384070023850700A38539
:104DC00007009376F70F2386D7009356870093F654
:104DD000F60FA386D7009356070193F6F60F2387A5
:104DE000D7006183A387E70023880700A388070013
:104DF00023890700A389070037E400E0FD54230658
:104E0000944005672320E410054798C3EFD0EFC412
:104E1000EFF0FFE92A89EFF03FEAAA854A85EFE043
:104E2000AFBA0146A9453775000013054556EFD0C6
:104E30004FF823AAA18A91672320F41023079440F6
:104E4000B24022449244024941018280011106CEBF
:104E500022CC26CA4AC84EC6B2896358C002AE8464
:104E60003389C5009D6703A407D5930500042285F7
:104E7000EFC02FFE7DD985048385F4FFC205C18173
:104E80002285EFC06FFCE31299FE4E85F24062442A
:104E9000D2444249B24905618280830705008DCF23
:104EA000411106C622C426C22A84A94431A8B545A8
:104EB0000145EFD0AFA605048345F4FF0145EFD0CF
:104EC000EFA58307040081C7E39797FECDB7B240F3
:104ED00022449244410182808280011106CE7D5697
:104EE0006C0003A5418BEFD05F8E0305C100F2403B
:104EF000056182805D7186C696C49AC29EC02ADE14
:104F00002EDC32DA36D83AD63ED442D246D072CEF1
:104F100076CC7ACA7EC8EFD07FA59305505237452C
:104F2000014013050580EFC08FF315E5EFD05FA6B4
:104F3000B640A642164386437255E2555256C256B3
:104F40003257A25712588258724EE24E524FC24FF9
:104F50006161730020309305F1000145EFD0CFA4CB
:104F60008345F10003A5418BEFD05F85C1B74111A7
:104F7000B717024098431367170098C3D843B70682
:104F8000FFF8758FD8C39843B706F7FEFD16758FE7
:104F900098C39843B706FCFFFD16758F98C3D84396
:104FA000B70681FFFD16758FD8C337079F0098C7D6
:104FB00002C402C69843C166558F98C33716024093
:104FC000B7060200130700501C42F58F3EC6A247E9
:104FD00085073EC4B24781E7A247E397E7FEB717CC
:104FE00002409C431397E7006350070285473EC683
:104FF00032478547630CF70037E700E0B70705FA4B
:1050000085073CC74101828002C6DDB7B727024051
:1050100098431367070198C39843719B98C39843BB
:105020001367270098C3B7170240D843D8C3D843A3
:10503000D8C3D843D8C3D843B706C1FFFD16758F70
:10504000D8C3D843B7062500558FD8C39843B706B1
:105050000001558F98C3371702401C439396670091
:10506000E3DD06FEB7170240D843719BD8C3D8438F
:1050700013672700D8C3B71602402147DC42B18B23
:10508000E39EE7FE95BF411106C6154691450545CD
:10509000EFC05FDC2D46A9450945EFC0BFDBB2403C
:1050A00041018280411106C613055002EFC0FFBEC8
:1050B00029C10945EFC05FEA9357F5413D8D1D8D2C
:1050C000239CA18A0945EFC09FEA13053002EFC077
:1050D000DFBC15C90545EFC03FE89357F5413D8D4D
:1050E000898F239DF18A0545EFC07FE8B2404101D9
:1050F00082800945EFC05FE69357F5413D8D898F6A
:10510000239CF18AC1B70545EFC01FE59357F541D0
:105110003D8D1D8D239DA18AF9B7B7270020938768
:10512000070C130780FD2380E700130700FBA38013
:10513000E7000397818B935687402381D700A38193
:10514000E700130710FB2382E7000397A18B935618
:105150008740A382D7002383E700130720FBA383A4
:10516000E70003978180935687402384D700A38468
:10517000E70039572385E7008280797106D602C09F
:1051800002C202C402C602C802CA02CC02CE039600
:10519000818BB7750000938505580A85EF00D00A0A
:1051A0000A8689450145EFC09F810396A18BB7759B
:1051B0000000938545590A85EF0010090A868D4540
:1051C0000145EFC0CFFFB25045618280411106C654
:1051D00022C437740000EFF05FFA1306C4569545F9
:1051E0000145EFC0CFFDC5BF411106C6EFC06FEB53
:1051F000930720031947930600400146B755000066
:105200009385C51C3775000013058557EFE0CFEE79
:1052100019C1EFE03F90B24041018280411106C6C2
:10522000EFF05FE8EFF07FEF2D46B7250020938584
:10523000050C0945EFC09FF09D6783A747D305671D
:1052400098CBD8CBB24041018280411106C60947B4
:1052500095460146B75500009385C5213775000076
:105260001305855AEFE01F9619C1EFE03F9AB2404F
:10527000410182809387C1809C434111328806C6D8
:10528000AA882E87C84736869727000093878732DB
:1052900063170800972700009387C70E3E88C686CD
:1052A00097250000938505321920EF0030213971D0
:1052B00032D436D63EDA3AD842DC46DE9387C18015
:1052C0002E86AA858843341006CE36C62D22F2409B
:1052D00021618280B3C7A5008D8B3307C50081E7AC
:1052E0008D4763EEC700AA876370E50A83C6050091
:1052F00085078505A38FD7FEE3EAE7FE82809376D4
:105300003500AA8791CA83C6050085078505A38F46
:10531000D7FE93F63700FDB79376C7FF138606FED8
:1053200063F0C70683A3050083A2450083AF850011
:1053300003AFC50083AE050103AE450103A385019C
:1053400083A8C5019385450223A0770003A8C5FF64
:1053500023A2570023A4F70123A6E70123A8D7011E
:1053600023AAC70123AC670023AE17019387470226
:1053700023AE07FF75B790419107910523AEC7FE95
:10538000E3EBD7FEE3E4E7F682801C46FD171CC67C
:1053900063D90700184E63C5E700A9476393F5007A
:1053A00081AF1C422E851387170018C22380B700D7
:1053B0008280011122CC26CA4AC84EC652C406CEEB
:1053C0002A89AE893284B304D6007D5A63149400CE
:1053D000014511A8834504004E864A85EFF0FFFA87
:1053E0000504E31545FFF2406244D2444249B24904
:1053F000224A05618280357122CD26CB4AC94EC72B
:1054000006CF52C556C35AC1DEDEE2DCE6DAAA890F
:10541000AE843289368409C51C4D99E3EF00D03043
:10542000972700009387C722639DF40C83A449004B
:1054300083D7C400A18BE5CB9C48F5C79307000236
:10544000A304F1029307000302D22305F10222C64E
:10545000930B5002972A0000938ACA19054C294BD6
:105460004A848347040099C36391770FB30C2441A6
:10547000638E0C00E6864A86A6854E85EFF07FF3A4
:10548000FD576308F51E9256E69636D28347040010
:105490006381071EFD571309140002C802CE3ECADD
:1054A00002CCA309010482D4834509001546568520
:1054B000EF00B04E13041900C24751E913F707017A
:1054C00009C713070002A309E10413F7870009C7FE
:1054D0001307B002A309E104834609001307A002E1
:1054E000638FE606F2474A84814625460347040057
:1054F00093051400130707FD6378E60AADCA3ECE94
:10550000BDA0972700009387A7166395F40083A496
:10551000890039BF9727000093878711E39AF4F039
:1055200083A4C90031B7A6854E85592501D97D557B
:10553000FA406A44DA444A49BA492A4A9A4A0A4B22
:10554000F65B665CD65C0D618280050419BF33058D
:1055500055413315AC00C98F3EC82289B1B73247D7
:1055600093064700184336C6634907023ACE0347FD
:1055700004009307E002631FF70403471400930736
:10558000A002631BF702B2470904138747009C433C
:105590003AC663C107023ECA35A83307E04093E725
:1055A00027003ACE3EC8E1B7B387670385462E840D
:1055B000BA972DBFFD57C5B7050402CA814681477A
:1055C00025460347040093051400130707FD63787D
:1055D000E606F1F2834504000D4617250000130589
:1055E000E501EF00903B11CD97270000938707015D
:1055F0001D8D93070004B397A700424505045D8DF8
:105600002AC883450400194617250000130545FFE5
:10561000130914002304B102EF0030383DC197B7DD
:10562000FFFF9387279E95E74247B24713770710FE
:1056300009CF91073EC69257D2973ED215B5B38790
:10564000670385462E84BA97ADBF9D07E19BA107EE
:10565000D5B77800970600009386E6D526860C0815
:105660004E8597000000E7000000FD572A8AE314EA
:10567000F5FC83D7C40093F70704E39A07EA1255B1
:1056800045BD7800970600009386E6D226860C0872
:105690004E85012AD9BF797156CA9C49BA8A984564
:1056A00022D426D24ECE52CC06D64AD05AC85EC696
:1056B000AA892E84B284368A63D3E700BA879CC055
:1056C0000347340419C385079CC01C4093F70702A5
:1056D00081C79C4089079CC0032904001379690095
:1056E000631A0900130B9401FD5B5C449840998F89
:1056F000634CF9041C408346340493F70702B33625
:10570000D000A5EB13063404D2854E85829AFD574E
:105710006303F5041C4011469840998B544481441E
:105720006397C700B384E64063D3040081441C44FC
:1057300018486354F700998FBE94014969047D5B52
:1057400063982405014509A885465A86D2854E8569
:10575000829A631E75017D55B250225492540259AB
:10576000F249624AD24A424BB24B456182800509F6
:10577000ADBF3307D40013060003A301C7040347DA
:10578000540493871600A2978906A381E7049DBF5E
:1057900085462286D2854E85829AE30E65FB0509F1
:1057A00045B7797122D426D24AD04ECE06D652CCF5
:1057B00056CA5AC8B68983C685019307E00632895E
:1057C000AA842E84138635046381F61E63E2D7060D
:1057D000930730066382F60A63EDD700638B061EDB
:1057E000930780056387F616930A24042301D404E3
:1057F00069A8930740066386F60093079006E39531
:10580000F6FE1C40084393F6070893054500C1C205
:105810001C410CC363D807001307D002B307F04044
:10582000A301E40497260000938606DE294765A0BD
:10583000930730076383F61A63EFD7009307F006E8
:10584000638FF60493070007E390F6FA9C4193E711
:1058500007029CC109A8930750076382F6049307C7
:105860008007E393F6F893078007A302F4049726D2
:1058700000009386A6DAE5A01C43938A250493864C
:1058800047009C4314C32381F5048547BDA293F6CA
:1058900007041C410CC3BDDEC207C187A5BF0C4075
:1058A0001C4313F80508138547006305080008C367
:1058B0009C4339A093F5050408C3FDD983D707009D
:1058C0001307F006638BE60C972600009386C6D379
:1058D0002947A30104044C400CC463C505000840DB
:1058E0006D9908C099E3B28A91CDB28AB3F5E70207
:1058F000FD1AB69583C505002380BA00B3D5E7022B
:1059000063F3E70AA147631EF7001C40858B91CB28
:1059100058401C4863C7E70093070003A38FFAFEB3
:10592000FD1A3306564110C84E87CA867000A285FC
:105930002685EFF05FD67D5A6315450D7D55B25033
:10594000225492540259F249624AD24A424B45616A
:105950008280A382D504972600009386E6CA0C4075
:10596000084313F805081C4111056300080208C329
:1059700013F7150001C793E505020CC04147B1FBC1
:105980000C4093F5F5FD0CC0A9B713F8050408C346
:10599000E30008FEC207C183E1BF9726000093869B
:1059A000A6C621473DB7AE8791B794411C43CC4969
:1059B00013F80608138547006306080008C39C43D4
:1059C0008CC301A808C393F606049C43F5DA239020
:1059D000B70023280400B28A81BF1C43D04181450F
:1059E0009386470014C383AA07005685EF00E07A28
:1059F00001C53305554148C05C401CC8A3010404DF
:105A000025B714485686CA8526858299E30845F34A
:105A10001C40898B8DE7B2474844E352F5F23E853E
:105A200039BF85465686CA8526858299E30865F181
:105A3000050A5C443247998FE345FAFEE9BF014A03
:105A4000930A94017D5BF5B735713ECBB7070080B3
:105A500093C7F7FF3ECE3EC8C1779387872032C5F4
:105A600036C73AC942CD46CF3ECA9387C1802AC4C1
:105A70002ACC884334012E862C0086DE36C2EF0005
:105A8000D023A24723800700F6500D618280AA87A9
:105A9000850703C7F7FF6DFF3385A7407D1582801B
:105AA00005C67D160147B307E500B386E50083C749
:105AB000070083C606006396D7006304C700050786
:105AC000FDF33385D740828001458280AA8709CAC9
:105AD000850503C7F5FF85077D16A38FE7FE65FBE8
