:100000006F0030791300000013000000130000009F
:100010001300000013000000130000001300000094
:100020001300000013000000130000001300000084
:08003000130000007300100032
:100038006FF09FFC000000006F00703E6F003043BF
:1000480000000000000000000000000000000000A8
:100058000000000000000000000000000000000098
:100068006F506043000000006F00000F00000000A8
:100078006F0070426FF05FF86F00F0466F00D04776
:100088006F00B0486F0090496F0040346F00403AED
:100098006F0080406F0080466F00804C6F003049D1
:1000A8006F00F04D6F00B0526F0030316F00305765
:1000B8006F00F05B6F00B0606F00406A00000000E6
:1000C8000000000000000000000000006F00804FEA
:1000D8006F00C06D6F00C0746F00807B6F00D0042C
:1000E8006F0090116F00F0136F00B01A6FF0DFF01F
:1000F8006FF09FF06FF05FF06FF01FF06FF0DFEFC1
:100108006FF09FEF6F50E0556F00B01F6F00F02544
:100118006F00A0576FF05FEE6FF01FEE6FF0DFED2E
:1001280000000000000000000000000000000000C7
:080138000000000000000000BF
:1001400073750430828073100530828097520020CE
:10015000938242EB739002340321050095A00100C5
:10016000197106C212C816CA1ACC1ECE22D026D2C7
:100170002AD42ED632D836DA3ADC3EDEC2C0C6C227
:10018000CAC4CEC6D2C8D6CADACCDECEE2D0E6D257
:10019000EAD4EED6F2D8F6DAFADCFEDEF32200304C
:1001A00016C483A2418A23A02200F322103416C071
:1001B000EF40A04083A2818A03A1020011A00100A8
:1001C000824273901234A2427390023092404242B3
:1001D000D2426243F243025492542255B2554256DF
:1001E000D2566257F257064896482649B649464ABB
:1001F000D64A664BF64B065C965C265DB65D465E5F
:10020000D65E665FF65F09617300203000003D43F3
:100210002A876373C3029377F700BDEFADE593764A
:1002200006FF3D8ABA960CC34CC30CC74CC74107A6
:10023000E36BD7FE11E28280B306C3408A069702C1
:10024000000096966780A6002307B700A306B700B4
:100250002306B700A305B7002305B700A304B70022
:100260002304B700A303B7002303B700A302B7001A
:100270002302B700A301B7002301B700A300B70012
:100280002300B700828093F5F50F93968500D58DF6
:1002900093960501D58D61B79396270097020000CC
:1002A00096968682E78086FA9680C1171D8F3E96C5
:1002B000E374C3F8A5B73367B500FD530D8B79E739
:1002C000B7877F7F9387F7F710419441B372F600A9
:1002D0003363F600BE92B3E262006397720C631858
:1002E000D6065041D441B372F6003363F600BE9295
:1002F000B3E262006398720A631BD604104594450A
:10030000B372F6003363F600BE92B3E2620063910B
:10031000720A631ED6025045D445B372F6003363A9
:10032000F600BE92B3E26200639A72086311D602CD
:1003300010499449B372F6003363F600BE92B3E2FB
:100340006200639372085105D105E30FD6F61317C7
:10035000060193970601631CF7001357060193D714
:1003600006013305F7409375F50F91E982804183CB
:10037000C1833305F7409375F50F91E182801377C0
:10038000F70F93F7F70F3305F74082800346050018
:1003900083C60500050585056313D60065FA330598
:1003A000D640828011059105E312D6FE0145828078
:1003B0002105A105E31CD6FC014582803105B1056C
:1003C000E316D6FC014582804105C105E310D6FC49
:1003D00001458280397106DE16DC1ADA1ED82AD66B
:1003E0002ED432D236D03ACE3ECC42CA46C872C69D
:1003F00076C47AC27EC0EF20904F0545EF00306D85
:1004000085476307F502EF20D050F250E252525375
:10041000C2533255A255125682567247E24752488D
:10042000C248324EA24E124F824F216173002030DB
:100430000545EF00906BC1BF397106DE16DC1ADA94
:100440001ED82AD62ED432D236D03ACE3ECC42CA8C
:1004500046C872C676C47AC27EC0EF2050490945AC
:10046000EF00F06685476307F502EF20904AF250EF
:10047000E2525253C2533255A25512568256724717
:10048000E2475248C248324EA24E124F824F21617B
:1004900073002030EF1090490945EF001065F1B767
:1004A000397106DE16DC1ADA1ED82AD62ED432D2DC
:1004B00036D03ACE3ECC42CA46C872C676C47AC25C
:1004C0007EC0EF20D0421145EF0070608547630782
:1004D000F502EF201044F250E2525253C25332550B
:1004E000A255125682567247E2475248C248324ECF
:1004F000A24E124F824F2161730020301145EF0050
:10050000D05EC1BF397106DE16DC1ADA1ED82AD6D3
:100510002ED432D236D03ACE3ECC42CA46C872C66B
:1005200076C47AC27EC0EF20903C2145EF00305A5D
:1005300085476307F502EF20D03DF250E252525357
:10054000C2533255A255125682567247E24752485C
:10055000C248324EA24E124F824F216173002030AA
:100560002145EF009058C1BF397106DE16DC1ADA5A
:100570001ED82AD62ED432D236D03ACE3ECC42CA5B
:1005800046C872C676C47AC27EC0EF205036414556
:10059000EF00F05385476307F502EF209037F250E4
:1005A000E2525253C2533255A255125682567247E6
:1005B000E2475248C248324EA24E124F824F21614A
:1005C000730020304145EF005052C1BF397106DE43
:1005D00016DC1ADA1ED82AD62ED432D236D03ACE2B
:1005E0003ECC42CA46C872C676C47AC27EC0EF20EC
:1005F000103013050020EF00904D85476303F5048C
:1006000013050010EF00B04C85476305F506130590
:100610000008EF00D04B85476303F506130500047F
:10062000EF00F04A85476301F50613050002EF006D
:10063000104A8547631BF50013050002EF00F04ADE
:1006400029A013050020EF00504AEF20902CF25013
:10065000E2525253C2533255A25512568256724735
:10066000E2475248C248324EA24E124F824F216199
:100670007300203013050010EF003047F9B7130561
:100680000008EF009046D1B713050004EF00F045D5
:100690006DBF397106DE16DC1ADA1ED82AD62ED4C2
:1006A00032D236D03ACE3ECC42CA46C872C676C4A2
:1006B0007AC27EC0EF20B0232165EF00504185470C
:1006C0006308F5041165EF0090408547630AF5065D
:1006D0000965EF00D03F85476308F5060565EF0023
:1006E000103F85476306F506056513050580EF0095
:1006F000103E85476302F50613050040EF00303DCC
:100700008547631AF50013050040EF00103E21A055
:100710002165EF00903DEF20D01FF250E25252537E
:10072000C2533255A255125682567247E24752487A
:10073000C248324EA24E124F824F216173002030C8
:100740001165EF00903AC1BF0965EF00103AE1B7BB
:100750000565EF009039C1B7056513050580EF0009
:10076000D03855BF397106DE16DC1ADA1ED82AD603
:100770002ED432D236D03ACE3ECC42CA46C872C609
:1007800076C47AC27EC0EF209016EF209018F25007
:10079000E2525253C2533255A255125682567247F4
:1007A000E2475248C248324EA24E124F824F216158
:1007B00073002030397106DE16DC1ADA1ED82AD60C
:1007C0002ED432D236D03ACE3ECC42CA46C872C6B9
:1007D00076C47AC27EC0EF209011930500083735A9
:1007E0000140130505C0EF10201015E5EF20701231
:1007F000F250E2525253C2533255A255125682560B
:100800007247E2475248C248324EA24E124F824FC0
:10081000216173002030930500083735014013052E
:1008200005C0EF10200ED9B7397106DE16DC1ADAD2
:100830001ED82AD62ED432D236D03ACE3ECC42CA98
:1008400046C872C676C47AC27EC0EF20500A85457B
:1008500037350140130505C0EF10000915E5EF20FD
:10086000500BF250E2525253C2533255A255125617
:1008700082567247E2475248C248324EA24E124F49
:10088000824F2161730020308545373501401305C3
:1008900005C0EF102007E1B7397106DE16DC1ADA61
:1008A0001ED82AD62ED432D236D03ACE3ECC42CA28
:1008B00046C872C676C47AC27EC0EF205003930544
:1008C000000437350140130505C0EF10E0011DEDB0
:1008D0009305000237350140130505C0EF10C00035
:1008E0001DEDEF201003F250E2525253C253325525
:1008F000A255125682567247E2475248C248324EBB
:10090000A24E124F824F21617300203093050004E4
:1009100037350140130505C0EF00D07E55BF930564
:10092000000237350140130505C0EF00B07D55BF0B
:10093000397106DE16DC1ADA1ED82AD62ED432D247
:1009400036D03ACE3ECC42CA46C872C676C47AC2C7
:100950007EC0EF20C079894537350140130505C0B9
:10096000EF00907831ED914537350140130505C012
:10097000EF00907731EDA14537350140130505C0F3
:10098000EF00907631EDC14537350140130505C0C4
:10099000EF00907531EDEF20C077F250E2525253E4
:1009A000C2533255A255125682567247E2475248F8
:1009B000C248324EA24E124F824F21617300203046
:1009C000894537350140130505C0EF00B07361BF9D
:1009D000914537350140130505C0EF00B07261BF86
:1009E000A14537350140130505C0EF00B07161BF67
:1009F000C14537350140130505C0EF00B07061BF38
:100A0000411106C6EF20A06E854537050040EF0076
:100A1000B06D11E5EF20E06FB24041018280854565
:100A200037050040EF00106EF5B7397106DE16DCB1
:100A30001ADA1ED82AD62ED432D236D03ACE3ECCAE
:100A400042CA46C872C676C47AC27EC0EF20206A07
:100A500085453705004013050540EF00F06815E5B2
:100A6000EF20206BF250E2525253C2533255A2553E
:100A7000125682567247E2475248C248324EA24E40
:100A8000124F824F216173002030854537050040A9
:100A900013050540EF001067E1B7397106DE16DC7B
:100AA0001ADA1ED82AD62ED432D236D03ACE3ECC3E
:100AB00042CA46C872C676C47AC27EC0EF2020639E
:100AC00085453715004013050580EF00F06115E5F9
:100AD000EF202064F250E2525253C2533255A255D5
:100AE000125682567247E2475248C248324EA24ED0
:100AF000124F824F21617300203085453715004029
:100B000013050580EF001060E1B7397106DE16DCD1
:100B10001ADA1ED82AD62ED432D236D03ACE3ECCCD
:100B200042CA46C872C676C47AC27EC0EF20205C34
:100B3000930550523745004013050540EF003073D0
:100B400015E5EF20005DF250E2525253C253325588
:100B5000A255125682567247E2475248C248324E58
:100B6000A24E124F824F216173002030EF10A0354A
:100B7000C9BF397106DE16DC1ADA1ED82AD62ED481
:100B800032D236D03ACE3ECC42CA46C872C676C4BD
:100B90007AC27EC0EF20A055EF20A057F250E2525B
:100BA0005253C2533255A255125682567247E247EB
:100BB0005248C248324EA24E124F824F21617300FA
:100BC0002030397106DE16DC1ADA1ED82AD62ED469
:100BD00032D236D03ACE3ECC42CA46C872C676C46D
:100BE0007AC27EC0EF20A0500965212585476307A2
:100BF000F502EF200052F250E2525253C2533255E6
:100C0000A255125682567247E2475248C248324EA7
:100C1000A24E124F824F2161730020300965D52BFF
:100C2000EF102052F9B7397106DE16DC1ADA1ED839
:100C30002AD62ED432D236D03ACE3ECC42CA46C87C
:100C400072C676C47AC27EC0EF20604AEF20604C44
:100C5000F250E2525253C2533255A25512568256A6
:100C60007247E2475248C248324EA24E124F824F5C
:100C7000216173002030397106DE16DC1ADA1ED8C5
:100C80002AD62ED432D236D03ACE3ECC42CA46C82C
:100C900072C676C47AC27EC0EF20604501A0397169
:100CA00006DE16DC1ADA1ED82AD62ED432D236D078
:100CB0003ACE3ECC42CA46C872C676C47AC27EC01C
:100CC000EF20E042EF20E044F250E2525253C25390
:100CD0003255A255125682567247E2475248C248D0
:100CE000324EA24E124F824F2161730020304111CB
:100CF00006C6EF20C03FEF20C041B24041018280D4
:100D0000411106C6EF20A03EEF20A040B2404101B5
:100D10008280411106C6EF20803DEF20803FB24027
:100D200041018280411106C6EF20603CEF20603E09
:100D3000B24041018280397106DE16DC1ADA1ED813
:100D40002AD62ED432D236D03ACE3ECC42CA46C86B
:100D500072C676C47AC27EC0EF206039EF20603B55
:100D6000F250E2525253C2533255A2551256825695
:100D70007247E2475248C248324EA24E124F824F4B
:100D8000216173002030397106DE16DC1ADA1ED8B4
:100D90002AD62ED432D236D03ACE3ECC42CA46C81B
:100DA00072C676C47AC27EC0EF206034EF2060360F
:100DB000F250E2525253C2533255A2551256825645
:100DC0007247E2475248C248324EA24E124F824FFB
:100DD000216173002030397106DE16DC1ADA1ED864
:100DE0002AD62ED432D236D03ACE3ECC42CA46C8CB
:100DF00072C676C47AC27EC0EF20602FEF206031C9
:100E0000F250E2525253C2533255A25512568256F4
:100E10007247E2475248C248324EA24E124F824FAA
:100E2000216173002030397106DE16DC1ADA1ED813
:100E30002AD62ED432D236D03ACE3ECC42CA46C87A
:100E400072C676C47AC27EC0EF20602AEF20602C82
:100E5000F250E2525253C2533255A25512568256A4
:100E60007247E2475248C248324EA24E124F824F5A
:100E7000216173002030397106DE16DC1ADA1ED8C3
:100E80002AD62ED432D236D03ACE3ECC42CA46C82A
:100E900072C676C47AC27EC0EF206025EF2060273C
:100EA000F250E2525253C2533255A2551256825654
:100EB0007247E2475248C248324EA24E124F824F0A
:100EC000216173002030397106DE16DC1ADA1ED873
:100ED0002AD62ED432D236D03ACE3ECC42CA46C8DA
:100EE00072C676C47AC27EC0EF206020EF206022F6
:100EF000F250E2525253C2533255A2551256825604
:100F00007247E2475248C248324EA24E124F824FB9
:100F1000216173002030411106C622C426C2014659
:100F2000814537950000130545D1EF10D07F23A4EC
:100F3000A184EF1040180565130585BBEF306033C1
:100F4000EF50300FEF403020EF40700DEF50701336
:100F500093060031014685451305C002EF10403D60
:100F60009306100213060002B7150E000945EF1094
:100F7000D037EF40703037040020FD5503A5818441
:100F8000EF10707D13054435EF50C06DEF50B00584
:100F9000EDB7970100209381E1A5174100201301CF
:100FA0006106179500001305E5F397F5FF1F93857C
:100FB00065051386818463FAC5008322050023A09A
:100FC000550011059105E3EAC5FE13858184974517
:100FD00000209385E58C6377B5002320050011057B
:100FE000E36DB5FE9302800873A0023097F2FFFF15
:100FF0009382C20493E2120073905230EF40A070CB
:1010000001458145EF10905E97220000938242DEF9
:1010100073901234730020301C4141677917F98FA7
:101020001CC12320050023220500232405002326BC
:101030000500B7070240A1076304F508B70702409F
:10104000F1076306F508B7070240938707036307B4
:10105000F508B707024093874704630AF508B70706
:10106000024093878705630BF508B7070240938713
:10107000C706630DF508B707024093870708630F9B
:10108000F508B7070240938787406301F50AB70761
:1010900002409387C7416304F50AB707024093876C
:1010A00007436307F50AB707024093874744630C79
:1010B000F50AB707024093878745630FF50A8280D8
:1010C000370702405C4393E7F7005CC38280370731
:1010D00002405C4393E7070F5CC38280B70602407F
:1010E000DC420567130707F0D98FDCC2828037071F
:1010F00002405C43BD66D58F5CC3828037070240E7
:101100005C43B7060F00D58F5CC38280370702406F
:101110005C43B706F000D58F5CC38280370702407E
:101120005C43B706000FD58F5CC38280B7070240CF
:1011300003A747401367F70023A2E7408280B70761
:10114000024003A747401367070F23A2E7408280AE
:10115000B707024003A747408566938606F0558F80
:1011600023A2E7408280B707024003A74740BD663D
:10117000558F23A2E7408280B707024003A747406C
:10118000B7060F00558F23A2E74015BF1C416177BA
:101190003D077D8F9C459451D58F9449D58FD44977
:1011A000D58F944DD58FD44DD58FD451D58F94559F
:1011B000D58FD98F1CC1DC455CC19C411CC5DC416D
:1011C0005CC5828091C51C4193E717001CC18280D9
:1011D0001C4141677917F98F1CC1828009C61C41E7
:1011E000DD8D0CC182801C4193C5F5FFFD8D0CC1C6
:1011F00082809317350063DA0700B707024083A7A0
:1012000007407D8D3335A0008280B70702409C43A4
:10121000CDBF9317350063D70700B707024023A25D
:10122000A7408280B7070240C8C382805C45D9C30B
:10123000B70601409387064003A6064018411347AE
:10124000F7FF718F23A0E64083A64640184113475D
:10125000F7FF758FD8C358413E9714431041D18E84
:1012600014C3944718411347F7FF758F98C7D447A5
:1012700018411347F7FF758FD8C71C454147638C4A
:10128000E7003707014013070740BA979843144116
:10129000558F98C38280B707014003A78740144148
:1012A000558F23A4E74003A7C7401441558F23A6B9
:1012B000E74082805841B7070140938707403E9737
:1012C00014431C4193C7F7FFF58F1CC38280370777
:1012D00001408327074003274741698F09C77D8D58
:1012E0003335A000828001458280B707014023AAE0
:1012F000A74082809C4593F8F700C18B81C7DC41F1
:10130000B3E8F80083C70500A9CB10418147054E1B
:101310003D4F930E8002930F8004214329A054C9AE
:101320008507638B6702B316FE0003D70500758F30
:10133000E398E6FE139727003318EF001348F8FFF1
:101340003376C8003397E800598E9845E309D7FDF6
:10135000E318F7FD14C9E9B710C103D705009307D7
:10136000F00F63FDE7045041A147054EBD4F130F39
:101370008002930E8004414331A054C915A885070B
:10138000638D6702B316FE0003D70500758FE398DF
:10139000E6FE1397270001173398EF001348F8FF74
:1013A0003376C8003397E800598E9845E307E7FD88
:1013B0009845E316D7FD14C9D9B750C1828019C228
:1013C0000CC982804CC982802A8663400504B70715
:1013D0000140DC4393160501C182370730003378A2
:1013E000E5006308E8021317B500635C07041357B0
:1013F00005011378F7000D47331707011347F7FF6F
:101400007D8FB707000FD98F0DA0B7070140DC4FC4
:10141000D1B7370700F17D17F98FB708014003A84E
:1014200048003377E80023A2E80091C555811205F2
:101430003395A600C98F63420602370701405CC39B
:1014400082801357550112073397E6001347F7FFC1
:101450007D8FB707000FD98FC9BF370701405CCF19
:10146000828093F735008A0713F7C50FB70501404F
:10147000BA9594453D473317F7001347F7FF758F2B
:1014800098C598453315F500598D88C58280B7E712
:1014900000E0BC47898B95CF834605008347250034
:1014A000920793F7F70F37E700E036972300F740EE
:1014B0005C41B5C703470500935757008546B3966F
:1014C000E600938707048A0737E700E0BA9794C3DA
:1014D0008280B7E700E0BC47898BF9FB0347150022
:1014E0008547630FF7008346050083472500920771
:1014F00093F7F70F37E700E036972300F7404DBF2B
:101500008346050083472500920793E707F893F782
:10151000F70F37E700E036972300F74051BF034746
:101520000500935757008546B396E6009387070654
:101530008A0737E700E0BA9794C38280B717024062
:10154000DC43B18B11476384E70821476387E708D1
:1015500099C7B7177A00938707201CC131A0B71726
:101560007A00938707201CC1371602405C429183A2
:10157000BD8B3707002013070700BA9783C6070003
:101580001C41B3D7D7005CC15442A1829D8ABA9650
:1015900083C60600B3D6D70014C55442AD829D8AD7
:1015A000369703470700B3D7E7005CC55842398335
:1015B00093763700370700201307071F3697034736
:1015C00007001377F70FB3D7E7021CC98280B7175C
:1015D0007A00938707201CC141BF371702405C4344
:1015E0005843C983BD8B89079316F70063CA060069
:1015F00037173D0013070790B387E7021CC1ADB74B
:101600003717024058439316E70063DA060037178E
:101610003D0013070790B387E7021CC1B1B7371726
:101620007A0013070720B387E7021CC135BF99C5AD
:10163000371702405C4B5D8D48CB8280B717024064
:10164000D84B1345F5FF798DC8CB828099C53717E4
:1016500002401C4F5D8D08CF8280B7170240984F23
:101660001345F5FF798D88CF828099C537170240E1
:101670005C4F5D8D48CF8280B7170240D84F13452D
:10168000F5FF798DC8CF8280035705008D6793875A
:1016900007047D8F83D7050083D62500D58F83D699
:1016A0004500D58F83D66500D58F83D68500D58F2D
:1016B00083D6A500D58F83D6C500D58F83D6E50008
:1016C000D58FD98F2310F5000357C501FD77938778
:1016D000F77FF98F231EF50083D705012318F50046
:1016E000828081C98357050093E707042310F50022
:1016F000828083570500C207C18393F7F7FBC207B7
:10170000C1832310F500828083570500C207C1837F
:1017100037370140130707C06300E504370700406F
:101720006307E506130707406303E5063717004024
:1017300013070780630DE50493F7F7CF03D7650020
:10174000D98F2310F50083D745002316F50283D7E0
:1017500005002314F50285A093F7F7F803D72500B9
:10176000D98F93F7F7CF03D76500D98F2310F500F2
:1017700083D745002316F50283D705002314F5020D
:1017800003C78500B73701402398E7C22DA093F720
:10179000F7F803D72500D98F93F7F7CF03D7650064
:1017A000D98F2310F50083D745002316F50283D780
:1017B00005002314F5028547231AF5008280FD57A2
:1017C0002312F50023100500231305002311050043
:1017D00023040500828081C98357050093E7170021
:1017E0002310F500828083570500C207C183F99B4F
:1017F000C207C1832310F500828019C68357C50034
:10180000DD8D2316B50082808357C50093C5F5FF93
:10181000FD8D2316B50082808357850093F7F70F5F
:10182000A2064D8ED18ED58FC207C1832314F50039
:101830008280411106C622C42A84F93F835784005E
:1018400093E777072314F400B240224441018280D9
:1018500083578500C207C18393F7F7F8DD8D231402
:10186000B5008280035885004208135808010357C9
:1018700085014207418383570502C207C18313785C
:1018800088FFB365B8001377C7CF1367171093F7B6
:10189000D7FD9206558ED18FC207C1832314B500A0
:1018A000231CE5002310F502828083578500C207C0
:1018B000C183E19BC207C1832314F50083578500D0
:1018C000DD8D2314B500828083578500C207C18354
:1018D00093F7F7F7C207C1832314F50083578500F8
:1018E000DD8D2314B5008280835705010355C500A3
:1018F00042054181ED8F89C76D8D3335A00082800F
:101900000145828093C5F5FFC205C1812318B5004A
:101910008280797106D622D426D22A84AE840357D7
:101920000501F577FD17F98F03D76500D98F2318C7
:10193000F5000357C500FD779387379FF98F03D7CD
:101940004500D98F03D78500D98F03D7A500D98F3C
:101950002316F50083574501C207C18393F7F7CFDC
:1019600003D7C500D98F231AF5006800C13EB747D9
:101970000140938707806301F40652478357C400F0
:10198000C207C18763CC070493171700BA978E0765
:10199000BA9798400A07B3D7E70213074006B3D6B1
:1019A000E7029206B3F7E7020357C40042074187F4
:1019B0006340070492079387270313074006B3D7B2
:1019C000E702BD8BD58FC207C1832314F400B25048
:1019D000225492544561828062474DB79317170095
:1019E000BA978E07BA9798400607B3D7E70275B73C
:1019F0001397370013072703930740063357F7025F
:101A00001D8BB367D700C1B781C98357C50009676C
:101A1000D98F2316F50082800357C500F977FD178B
:101A2000F98F2316F500828093F7F50F958305470C
:101A3000B315B700638CE700894613074501638A35
:101A4000D70019CA1C43DD8D0CC382801307C50063
:101A5000CDBF13070501F5B71C4393C5F5FFFD8DF9
:101A60000CC38280035545001375F51F828093F7E0
:101A7000F50F958385463397B6006388D70289466C
:101A80006389D702835745017D8F0355050093175E
:101A90000501C183014509CBA1810545B315B500F9
:101AA00033F5B7003335A00082808357C5007D8FA2
:101AB000E9BF835705017D8FC9BF011106CE22CC36
:101AC00026CAA307A100A56703A44731A16444C89F
:101AD00091675CC8854601469305F1000145EF001A
:101AE000F06F04C8F2406244D24405618280011163
:101AF00006CE22CC26CAA307A100A56703A44731BE
:101B0000A16444C891671CC8854601469305F1004D
:101B10000145EF00B06C04C8F2406244D244056154
:101B20008280011106CE22CC26CAA56703A44731C4
:101B3000A16444C8935785002306F100A306A100C1
:101B400091671CC8894601466C000145EF00106989
:101B500004C8F2406244D24405618280011106CE7D
:101B600022CC26CA4AC84EC6AA89AE843289368497
:101B70001305A00299371385890242054181553723
:101B80001305890242054181693F1305B0023537CB
:101B900013855403420541816937130554034205F7
:101BA000418141371305C002093FF2406244D244EB
:101BB0004249B24905618280011106CE22CC26CA73
:101BC0004AC84EC6AA84930660081306F00E8145E3
:101BD000014569371309000F9309700839A07D1971
:101BE000420913590901630A09004E842685153FED
:101BF0007D14420441807DF8DDB7F2406244D24456
:101C00004249B24905618280411106C622C426C2FA
:101C1000014881471307F0049306300205468145C9
:101C20000145EF00104C930600310546854513052C
:101C30000008EF00E06F930600310146854513056B
:101C4000E004EF00E06E9306003101468545130580
:101C5000D004EF00E06DA56703A44731896444C850
:101C60001305800C8145EF00105B04C81305400686
:101C70008145EF00505A1305600381351305400676
:101C80008145EF0050591305000795351305A00352
:101C90002D351545A93D1305200B05353145813DF1
:101CA0003145B1350145A13513053003893513059B
:101CB0003003353D1305700B093513055003053D01
:101CC0001305B00BDD3B1305700315351305000C30
:101CD000ED331305C002213D1305200CF93B0545EA
:101CE00039351305300CD13B494511351305400CEE
:101CF000E93313050002E53B1305600C7D3B3D45D0
:101D0000FD331305000D553B1305400ACD33130574
:101D1000100AF13B1305000E4D331305000DC13BB6
:101D20001145F1333545E1334545D1334D45C13397
:101D30001305B0026D3B1305F003553B1305400539
:101D40007D331305C004653361455533354545334F
:101D50002D45713B7D45613B13053002493B130521
:101D6000100EA13B1305000D593311454933314580
:101D7000BD3B4545AD3B4D459D3B1305C002853BF5
:101D80001305F003AD331305400495331305100517
:101D9000B93B1305F002A13B7D45913B7D45813B5D
:101DA00013050002A9331305300291331305100205
:101DB000293345451933130580078145EF00B045A8
:101DC00013059002DD3941657D15FD33B240224493
:101DD000924441018280797106D622D426D24AD01B
:101DE0004ECE52CC56CA5AC85EC662C466C22A8C4F
:101DF0001206930A06E0A5679387C7D13389FA00D4
:101E0000930A0901B3852541939B050193DB0B01DF
:101E1000130B7500420B135B0B01A14CC169138AB4
:101E2000F9FF938909800DA05285E53985807D14DD
:101E30001374F40F19C493F71400FDD74E85D531F0
:101E4000F5B70509630E5901B3852B01C205C181A0
:101E5000AE865A8662851933834409006684E1BFE1
:101E6000B250225492540259F249624AD24A424B29
:101E7000B24B224C924C45618280011106CE22CC9D
:101E800026CA4AC84EC6B2890306060015C62A8469
:101E9000920513990501135909018144CA852285C8
:101EA0001D3F8504C204C180B387990003860700E3
:101EB0002104420441807DF2F2406244D24442490E
:101EC000B24905618280411106C622C4138431855E
:101ED0008345040093870185BE950545EF00B05802
:101EE00083470400850793F7F70F2300F4000547A5
:101EF000638EE7000D476397E700A38901840547D8
:101F0000238AE184B24022444101828003C70185D3
:101F10009307500AE308F7FEA3890184E5B77971B6
:101F200006D622D426D24AD04ECEAA89238A01844C
:101F30002E8493844502130950FA23062101835706
:101F40000400A306F1000317240093170701C183BF
:101F5000A1832307F100A307E10011466C004E8521
:101F6000EF00304709458145EF00F02A1104E316E0
:101F700094FC9387418583C7070093F7F70FF5DB40
:101F8000238A01849387018503C7170083C627002E
:101F90009307F00F6310F700E39EF6FEB250225451
:101FA00092540259F24945618280397106DE22DC81
:101FB00026DA4AD84ED652D456D25AD05ECEAA8B02
:101FC000AE84138B0502930A50FA455A1389018592
:101FD00023065101A3064101A68903970400931724
:101FE0000701C183A1832307F100A307E100114684
:101FF0006C005E85EF00F03D9387418583C7070045
:1020000093F7F70FF5DB938741852380070083471C
:102010001900A20703472900D98F2391F9009104E1
:10202000E39864FBF2506254D2544259B259225A96
:10203000925A025BF24B21618280411106C613065F
:102040008004B14505451D298546014685455D4508
:102050007921B24041018280411106C6B145014556
:102060001124B24041018280411106C622C426C219
:1020700013047004930400049146014681452285AF
:10208000452C7D14E31A94FE89669386864B03A63D
:102090008185B7150140A1053705024013054504A8
:1020A000E12085460146814579451529B240224403
:1020B000924441018280411106C622C426C2B7075C
:1020C0000020054723AAE71EB7070020938747355E
:1020D00023ACF184C546414689659385055805457D
:1020E000EF00B02085450545EF003034138441856D
:1020F00023000400B70400209385040105457535CD
:1021000023000400B7050020938505030545013D24
:1021100023000400938504010545413DB1372D3F5F
:10212000293FB2402244924441018280B7070240D5
:1021300009671307874BB8C7F84313671700F8C33D
:102140008280411106C605472386E184B706024016
:10215000FC4241677917F98FFCC203A58184EF0027
:10216000306EB240410182805D7186C6A2C4A6C2B3
:10217000CAC04EDE2A84AE893289B684B7070240CF
:10218000A1076308F508B7070240F1076303F508E4
:10219000B707024093870703630DF506B7070240B0
:1021A000938747046307F506B707024093878705BF
:1021B0006301F506B70702409387C706630BF50472
:1021C000B7070240938707086305F504B707024085
:1021D00093878740630AF502B70702409387C74198
:1021E0006304F502B707024093870743630EF500C7
:1021F000B7070240938747446308F500B7070240DA
:1022000093878745631BF50085450945EFF02FC28D
:1022100029A085450545EFF08FC12285EFE0DFDF7E
:102220004EC24AC402C626C802CA930700083ECC62
:1022300002CE02D002D28D673ED402D64C00228557
:10224000EFE0DFF4054689452285EFE03FF985455B
:102250002285EFE03FF7B640264496440649F259FE
:1022600061618280011106CE22CC26CA2A84AE8406
:1022700085450545EFF08FBD51C48547630BF408D4
:102280008947630DF4088D47630FF40891460146B2
:10229000814526857128FD572314F1002312010082
:1022A0002315010023130100230601000A04A5677A
:1022B0009387C7313E9400404C002285EFF0CFC495
:1022C0008146216681452285EFF0AFD69305000750
:1022D0002285EFF0EFD791452285EFF00FDD9305D2
:1022E00000082285EFF04FDE85452285EFF0AFCE66
:1022F000054691652285EFF04FD0F2406244D2440A
:10230000056182808545056513050580EFF00FB4F2
:10231000B5BF85450545EFF04FB58DBF85450945EE
:10232000EFF0AFB4A5B785451145EFF00FB4B9BFD5
:10233000130700086306E510797106D622D426D269
:102340004AD04ECE52CC9357550013F977001374F0
:10235000F501368AB289AE848DCB05476389E706DD
:102360000947638BE7060D47638DE70611476380D6
:10237000E70815476383E7081947639CE70085452D
:1023800013050010EFF08FAC29A085451145EFF043
:10239000EFAB8547339487004204418023128100CC
:1023A0006383F4069376FA0F36C613172900A567E0
:1023B0009387C730BA974C008843EFE0BFF3B25021
:1023C000225492540259F249624A456182808545FD
:1023D0002145EFF0AFA775BF85454145EFF00FA749
:1023E0004DBF854513050002EFF04FA65DB785454B
:1023F00013050004EFF08FA569BF8545130500089C
:10240000EFF0CFA479B793170A01C183A1839DE7A9
:102410008D473EC49376FA0F36C613172900A5667A
:102420009386C630369704434C002685EFE09FEC38
:102430004E86A2852685EFE09FF851B73EC4D9BFEE
:102440008280935755009D8B7D890547638DE500FC
:102450008A0725671307C730BA979843854733958E
:10246000A70048CB82808A0725671307C730BA9731
:10247000984385473395A70008CB8280011106CE8B
:1024800022CC26CA4AC82A84AE84328985450545AD
:10249000EFF0CF9BCA86014681452285513D1355F9
:1024A00054009375F4011375F50FEFE09FFB85471A
:1024B0003394870022C002C226C43EC60A85EFE0DC
:1024C000FFD6F2406244D244424905618280B7E7B8
:1024D00000E07D5723A0E71823A2E71882800111AE
:1024E00006CE2304A100A304B1002305C10036C613
:1024F0002800EFE0DFF937E600E01842B7370020A8
:10250000FD76F98E03A7C780558F23A6E780584232
:102510009387C78012071183D443558FD8C303C74D
:10252000870085476305F700F240056182804537E3
:10253000E5BF411106C622C42E8415C9894763062A
:10254000F50691476309F5069947630CF506A1471F
:102550006300F508A9476305F508B147631EF50058
:1025600091460146814513056002D93331A0914659
:102570000146814521456D3B8547630BF4068D4738
:10258000630FF40695476303F4089D476308F40856
:10259000A547630CF408AD476301F40AB547630629
:1025A000F40AB240224441018280914601468145AD
:1025B0000145BD3BD1B79146014681453D458D3B27
:1025C00065BF9146014681451945EFF07FD66DB74D
:1025D00091460146814513056004EFF07FD569BF40
:1025E00091460146814513054002EFF07FD469B75B
:1025F0009146014681452545EFF09FD35DB7914651
:10260000014681450545EFF0BFD261BF91460146C5
:10261000814513053002EFF0BFD161B79146014605
:1026200081451D45EFF0DFD0ADBF914601468145A4
:1026300013057004EFF0DFCFADB791460146814539
:1026400013055002EFF0DFCEA9BF91460146814548
:1026500013057002EFF0DFCDA9B7011106CE22CC31
:1026600026CA4AC82A84AE84328929C58547630AA6
:10267000F5048947630CF5048D47630EF504CA859C
:102680002685453D85450545EFE05FFC914763891B
:10269000F404A147638AF40AA9476396F404AD479A
:1026A0006313F904854537151A0013050580EFE01B
:1026B000BFD115A88545056513050580EFE01FF915
:1026C0007DBF85450545EFE05FFA55BF8545094566
:1026D000EFE0BFF96DB785451145EFE01FF945B74C
:1026E0009547630BF9044800EFF06F8D854723127F
:1026F000F100FD572314F1002315010023130100FD
:10270000230601000A04A5679387C7313E94004061
:102710004C002285EFE05FFF814601468945228516
:10272000EFF04F9485452285EFF0EF8AF240624446
:10273000D24442490561828085453705180013055A
:102740000530EFE07FC845B7A547E31EF9F885459A
:1027500037151A00130505C0EFE01FC769B70A0552
:10276000A5679387C731AA979C4303D547024205C3
:10277000418582800A05A5679387C731AA979C4344
:10278000239207028280411106C622C426C24AC093
:10279000AE84328436892DCDC1476303F508930793
:1027A00000026318F5089306803105468545130538
:1027B000D002EFF0FFB78547638CF408C54763810B
:1027C000F40A930710026396F40A930680310546D3
:1027D00085451305F002EFF0BFB58947630AF40A97
:1027E000C947630FF40A930720026304F40C9307AC
:1027F00030026319F40C93060031054685454A857D
:10280000EFF01FB3B240224492440249410182805A
:1028100093068031054685451545EFF07FB161BFD0
:10282000930680310546854513053002EFF05FB011
:1028300059B7B79600009386C63325661306C6328D
:102840009305D0023795000013050534EF4070481A
:1028500093068031054685451D45EFF07FADB5BF38
:10286000930680310546854513055002EFF05FACB5
:10287000ADB7B79600009386C63325661306C632F9
:10288000930520033795000013050534EF4070448D
:1028900093068031054685451945EFF07FA9A1BF14
:1028A000930680310546854513054002EFF05FA889
:1028B00099B793068031054685451305E002EFF090
:1028C0003FA715BFB79600009386C633256613064B
:1028D000C632930580033795000013050534EF4099
:1028E000503F397106DE22DC26DA4AD84ED652D461
:1028F00056D25AD02A84AE89328AB68A3A8BBE849E
:10290000428941C585476308F508DA865686D2852F
:102910004E85953D23160100930740102317F100C3
:102920002318010085476383F40893978401E187A6
:10293000ADCB89476382F4088D476385F40893071C
:102940000020231BF1000E09231C2101231D01007F
:102950009D47231EF1000A04138541822295004100
:102960006C002285EFE05FD2C1476384F90685459C
:102970002285EFE01FD7F2506254D2544259B25927
:10298000225A925A025B21618280854505650505C0
:10299000EFE0DFCB9DBF854511650505EFE0FFCC7E
:1029A000ADB723190100231A010051BF23190100FB
:1029B0008547231AF10061B789472319F100231ACB
:1029C0000100B5BF89472319F1008547231AF1009B
:1029D000BDB785450545EFE03F9F51BFAE96938754
:1029E00041820A053E956387B602184183578700E6
:1029F000898BEDDF850583C7F5FF2316F70065D6C4
:102A000083578700858BEDDF8357C7002300F600CF
:102A10000506D1BF8280411106C6EF109005B24075
:102A200041018280411106C60DE585476385F500A9
:102A3000B24041018280930680310146854525459B
:102A4000EFF01F8F9146014681452945EFF05F8EDB
:102A5000C5B789476309F502C1476306F5049307C3
:102A600000026310F5069306803101468545130583
:102A7000A002EFF0FF8B9146014681451305B0029D
:102A8000EFF01F8B75B7930680310146854513051E
:102A90006002EFF0FF8991460146814513057002FF
:102AA000EFF01F8971B793068031014685450945CE
:102AB000EFF01F889146014681450D45EFF05F8795
:102AC00085BF93072002E315F5F693068031014692
:102AD00085451305A004EFF0BF8591460146814569
:102AE0001305B004EFF0DF84A1B7797106D622D4C4
:102AF00026D24AD04ECE2A84AE89B2843689854504
:102B00000545EFE0BFB4CA852685293F8947638123
:102B1000F402930720026390F40293073002631CCF
:102B2000F9008545370514004105EFE0FF8921A034
:102B30008D47630AF90429CC85476300F406894769
:102B40006303F4064EC02312010023130100231473
:102B5000010023160100B1472315F1000A04A567FF
:102B60009387C7363E9400408A852285EFE07FDA5E
:102B700085452285EFE05FE9B25022549254025914
:102B8000F2494561828085451145EFE0FF8365B7D5
:102B900085451165EFE09FAB75B7854537050200A8
:102BA000EFE0BFAC45B7854537050400EFE0FFAB6C
:102BB00051BF0A05A5679387C736AA9798438357DD
:102BC000070093F70708E5DFC205C1812312B700AC
:102BD00082801DC6411106C622C426C24AC02A8967
:102BE0002E84B384C50005048345F4FF4A85D1379C
:102BF000E39B84FEB2402244924402494101828018
:102C00008280411106C622C426C2AA842E8483C5AE
:102C1000050099C505042685693F83450400FDF933
:102C2000B2402244924441018280411106C622C42E
:102C300026C22A84AE8413172500A5679387C7365A
:102C4000BA970546930550528843EFE0FFDDA6860C
:102C50000146854513055403EFF07F88B2402244B6
:102C60009244410182800A05A5679387C736AA97D7
:102C700098438357070093F7070299E30145828041
:102C8000835747002380F5000545828003A5018610
:102C90008280411106C6938701869843050798C331
:102CA000EF10E0403C41FD173CC191C7EF10F0032D
:102CB000B240410182805C5D3CC1EF10A04BFDB78A
:102CC000634205029307803E3347F5023307F7025C
:102CD0003365F5023305F5021305753E3345F502FC
:102CE0003A9582807D5582800145828001458280AF
:102CF000014582800145828029671307C7E4A967DF
:102D0000938707E5637CF702411106C622C426C2F9
:102D100029649304C4E4A9679387F7E4858FF19B42
:102D20009107BE941304C4E41C4082971104E31D70
:102D300094FEB240224492444101828082802967FD
:102D4000130707E5A967938787E5637CF7024111BD
:102D500006C622C426C22964930404E5A9679387A2
:102D600077E5858FF19B9107BE94130404E51C4021
:102D700082971104E31D94FEB24022449244410123
:102D800082808280411106C65D3FEFE0CF98B2405D
:102D900041018280411106C6D14709479306004090
:102DA0000146B7350000938545D8379500001305D7
:102DB000C537EF102030EF10E051B2404101828062
:102DC000411106C6EFD0CFB7EF202079EF001024D5
:102DD000EF10A07AEF00107C753FEF10A07AF12081
:102DE000EF00707E0145B24041018280411106C66C
:102DF000C13F0145B2404101828003A7C18893874A
:102E0000C188630FF708011106CE22CC26CA4AC832
:102E10004EC652C456C29389C188854A2DA02685C4
:102E2000EF00D076630A5505EF10C0105285EFD041
:102E30008FB14848EF0090512685EF00F07183A7CD
:102E4000C18863863705EFD0AFAF2A8A83A7C188D0
:102E5000638D370303A4C1889304C4FE18405C400B
:102E60005CC3184098C340C000C0EF10A00A7C4C5F
:102E7000DDD72685829765B72685EF00D064EF10F1
:102E8000600B5285EFD02FAC19A0EFD0CFABF24042
:102E90006244D2444249B249224A924A0561828040
:102EA0008280411106C6913FFDBF411106C622C472
:102EB00037340020930800021D489307003037374D
:102EC000002013070789814637360000130626EADB
:102ED000B79500009385453813058481EF102012C3
:102EE00013058481EF10003FB240224441018280EB
:102EF000411106C622C426C24AC02A843289B68439
:102F00002E868945EF001055930744011CCC5CC800
:102F1000231E2401A30494000145B240224492449C
:102F2000024941018280411106C622C426C2AE84F4
:102F30003284AA850945EF00F05B09C99307450172
:102F40001CCD5CC9231E9500A3048500B240224419
:102F5000924441018280797106D622D426D24AD089
:102F60004ECE52CC2A842EC6EFD08F9DAA8983578D
:102F7000C401A1E7B247A9CBEF106013AA842328AC
:102F8000050213094401034A9400EF10A0246301D1
:102F90000A0485476308FA04B2476348F0084E857F
:102FA000EFD06F9AEF0050658858B2502254925477
:102FB0000259F249624A45618280FD17231EF400DE
:102FC000EFD06F980145D5B7EFD0EF977955F1BFA6
:102FD00093874401184C1CC3184C98CC1CCC23AAD2
:102FE00024015DBF5C486308F90283C6540303C72C
:102FF000170263E9E6009C43630FF90003C7170259
:10300000E3FBE6FE13874401D44398C2D44394CC37
:10301000D8C3DCC851B793874401184C1CC3184C63
:1030200098CC1CCC23AA240185BF138444047000CF
:1030300081452285EF1060472285EF10203985B742
:10304000411106C622C426C22A84EFD06F8FAA84FB
:103050004848930744016300F5023115EF108022C0
:103060002685EFD04F8EEF0030590145B240224403
:103070009244410182808357C4018507231EF400D6
:103080002685EFD04F8CD5B7411106C622C426C283
:103090004AC0AE843289AA851545EF00B0452A841E
:1030A0001DC9A3042501930745011CCD5CC923104C
:1030B00095021395040141810A05EF00D01248CC16
:1030C00015C12311040223120402231304029307DF
:1030D00084025CD41CD42285B2402244924402492A
:1030E000410182802285EF0030470144EDB7411154
:1030F00006C6EFD0EF841387418683470700850714
:1031000093F7F70F2300F700EFD0EF83B2404101B0
:103110008280411106C6EFD0AF8213874186834774
:103120000700FD1793F7F70F2300F700EFD0AF81EB
:10313000B24041018280411193780804639F0802E4
:10314000256F130F0F6893780801638C08021378BA
:10315000E8FF930200029378280063840804634B1D
:10316000060293784800930FB002639D0802937F94
:103170008800B33FF001960F35A0256F130FCF5D88
:10318000D9B79378180093020003E39608FC9302E2
:103190000002D1B73306C040930FD0028148A94E38
:1031A00081A8814F65FE930600032300D100854866
:1031B000468E63D3F8003E8E3307C74193761801DD
:1031C000BDE263880F10635EE00E1303E7FF8546E0
:1031D00063C5E6101A87FDA01373F60011828508F7
:1031E000330E11017A9303430300A30F6EFE69D2DD
:1031F000E394D6FF3373D6033356D603CDB7050712
:10320000B306E6406357D000E37BB7FE2300D70147
:10321000FDB71307F3FF1346F3FF7D86B376C300B4
:10322000158F85063695639F0F0813780801631282
:1032300008029306F7FF6357E0042A9721A00505CB
:103240006307E500E37DB5FE23005500CDBF3A8559
:103250007D57B3061E41AA961306000363CFC8012B
:10326000AA86635F10038DCF46830A853306150156
:10327000B68739A80505E306D5FEE37DB5FE230034
:10328000C500CDBF3687F1B785077D166309A60057
:10329000E3FCB7FE0348F6FF23800701F5B79A96D3
:1032A0003385E600930700026348E000368541015C
:1032B00082808506E38DA6FEE3FDB6FE2380F60040
:1032C000CDBF7D176374B5002300F5017D1705059B
:1032D000A9BF1303F7FF6359E0002A87930E00028A
:1032E000130615001A960DB71A8781B78D4763F933
:1032F000C700937735008DC71307F6FFAA8729A06B
:10330000AA871307F6FF01CE05073E978507A38F0F
:10331000B7FEE39DE7FE8280BA874286DDB78280F2
:1033200093F7F50F93968700D58F93960701DD8E5F
:10333000BD4763F1C704930706FFC19BC107AA9766
:103340002A8714C354C314C74107232ED7FEE39A18
:10335000E7FE1378F600318A61D29307C8FFF19B2C
:103360009107BA971107232ED7FEE31DF7FE1376B8
:10337000380041BF2A873288CDB763E0A502B30683
:10338000C500AA8711CA850585070387F5FFA38FA6
:10339000E7FEE39AD7FE828082803387C500E37020
:1033A000E5FEB307C50065DA7D17FD178306070044
:1033B0002380D700E31AF5FE828009CEAA86850510
:1033C000938716000387F5FFA38FE7FE09C77D16D5
:1033D000BE8675F682801307F6FF6DDF3696850789
:1033E000A38F07FEE31DF6FE82808307050089CBCD
:1033F000AA878507038707006DFF3385A740828072
:10340000AA87E5BF5D7186C6A2C4A6C2CAC04EDE49
:1034100052DC56DA5AD85ED662D466D26AD06ECE04
:10342000AA8C2E8D368CB30AB50063F5AA00134D15
:10343000F5FFFD5A83070600E68963820736930B82
:1034400050021309B0022567930DC73841677D17F5
:103450003AC409A8850932841306140083071400AE
:10346000638F073263877701E3F659FF2380F90002
:10347000D5B781441307D0029306000293053002AA
:103480001305000321A093E404012286130416000F
:1034900083071600E389E7FE638B2701638CD7005F
:1034A000638DB700639EA70093E41400F9BF93E413
:1034B0004400E1BF93E48400C9BF93E40402F1B780
:1034C0003E87938607FDA54563F6D5041307A00242
:1034D0007D5A6382E706030704009307E0027D5BE1
:1034E0006309F7068307040013F6B7FF9306800607
:1034F0000147630CD60A834704009387B7FD13F690
:10350000F70F9306300563E8C62093172600EE9761
:103510009C438287014AA546050493172A003E9AD8
:10352000060A3A9A130A0AFD03070400930707FDE7
:10353000E3F4F6FE4DB71304260093074C00032A6C
:103540000C003E8CE3590AF8330A404193E404012D
:1035500059B71307140083071400BE86938507FD2F
:1035600025466379B6009306A0026386D7023A84A3
:10357000014B8DBF014B050793172B00DA97860788
:10358000B697138B07FD83060700938706FDE37448
:10359000F6FE3A8429A00904032B0C00110C934772
:1035A000FBFFFD87337BFB0035BF13F7F70F0504E7
:1035B00099B7C14641AAC1889DC093064C0063F6E5
:1035C000590183270C002380F900938719000547D0
:1035D0006351471D52864E9A130700020DA89307A8
:1035E000FAFF6351F002CE971307000221A085096C
:1035F00063873701E3FD59FF2380E900CDBFBE8912
:10360000014A65BF3E8A55BF850763874701E3FDD1
:1036100057FF2380E700CDBFB299368C35BD9307A5
:103620004C003EC6032C0C0063010C026285EFF0D7
:10363000DFDB635560016353AB005A85C18899C8CD
:103640006350A006B387A900A9A0B7970000138C08
:103650008767E9BF9306FAFF63574503D2852A8738
:10366000B307AA40CE971306000221A085096387FD
:10367000F900E3FD59FF2380C900CDBF330AB740ED
:10368000369ABE8975BF368A65BF8509050C638A7F
:10369000F900E3FC59FF03070C002380E900F5B7AC
:1036A000CE87635B450F3305AA40B389A700130794
:1036B000000221A0850763873701E3FD57FF2380C0
:1036C000E700CDBF324C49BBFD576302FA029307B6
:1036D0004C003EC62688DA875287C14603260C0076
:1036E000D6854E85EFF03FA5AA89324CB5B393E459
:1036F0001400214AE9BF63F6590193075002238061
:10370000F900850991BB93E40404C14625A893E41C
:103710002400A94605A863F65901930750022380A7
:10372000F900138719008307040099C763745701D0
:10373000A380F90089090DB37D14BA8931BBA9466C
:1037400011A0A1469307C0066302F7029307800603
:103750006302F70203260C00110C2688DA875287D1
:10376000D6854E85EFF03F9DAA89FDB103260C005A
:10377000110CE5B793074C0003260C0013F7240047
:1037800009E72247798E3E8CC9BF420641863E8CAE
:10379000E9B7368CBE89C9B1324CBE8975B96306AA
:1037A0000D0063F559032380090033859941B64024
:1037B000264496440649F259625AD25A425BB25B99
:1037C000225C925C025DF24D61618280A38F0AFEF1
:1037D000E9BF397106CE22CC2ED232D436D63AD8B1
:1037E0003EDA42DC46DE541036C6373400202A86E4
:1037F0009305F007130504B9EFF0DFC0130504B912
:10380000EF107062F240624421618280411106C66D
:10381000379500001305055FEFF0BFFB37950000FB
:103820001305C55FEFF0FFFA379700001307076233
:103830008D4605468D45379500001305C562EFF0AE
:103840005FF9379500001305C564EFF09FF8B240AB
:10385000410182800DC59377F50F9DE3C167938782
:1038600007F0E98F95E7B707FF00E98F8DEF6181DA
:10387000A5679387C74D3E95034505006505828082
:1038800025671307C74DBA9703C507000505828052
:1038900021851375F50FA5679387C74D3E950345A1
:1038A00005002505828041851375F50FA56793876F
:1038B000C74D3E95034505004505828003A7C18697
:1038C0005C41BA976304F50283D6270085E283A69C
:1038D0008186638DF60083A60187638BF602D4434D
:1038E00054C1DC43BA97B306E54094C71445B30707
:1038F000D700630EF50003D6270011EA03A601875F
:10390000630BA6005041D0C35C413E9714C7828030
:1039100023A8A186E9B723A8F186EDB7411106C611
:1039200083A58187379500001305056AEFF07FEACC
:1039300083A5C187379500001305456BEFF07FE93C
:1039400083A54187379500001305856CEFF07FE86C
:10395000B24041018280411106C622C413F7C5FF5F
:10396000E14663F9E60093073500F19B930687FE75
:1039700063FEF6002E86AA85379500001305C573F1
:10398000EFF03FE5B2402244410182801D8F1306D3
:1039900087FE23ACC1861384C1861CC089669386CA
:1039A00006EA2390D7005117D8C323A40700239118
:1039B0000700BA9723A4F1862390D7008546239168
:1039C000D700D8C398C781460546B79500009385B0
:1039D000457337350020130505C1EFF06FD118404E
:1039E00023A8E18645B7630A0512411106C622C421
:1039F00026C293043500F19883A7818763E197126B
:103A0000B14763F3F400B144FD5537350020130589
:103A100005C1EFF04FD403A5018783A6C186B30784
:103A2000D54003A881873306984063E4C70637353D
:103A30000020130505C1EFF0AFE00145B24022447C
:103A400092444101828085472311F4009387C18706
:103A50009043329798C383A7418763F0E70A23AA6C
:103A6000E18661A883572500C5C303A78186630D3E
:103A7000E508484136958357250091C7E31BA7FE0B
:103A800023A8A18651A023A8A186BDA85C40E3F08D
:103A9000C7FA3384F600035724006DFB58401D8F8E
:103AA000930547FFE3E495FE13868401E3EDC5F833
:103AB0001386C4003E963387C6008965938505EA60
:103AC0002310B700231107004C404CC31CC750C043
:103AD00085472311F4005C43310863840701B697DE
:103AE00090C71387C1871C43B107BE9404C383A743
:103AF000418763F4970023AA91868967938707EA31
:103B00002310F400E30085F637350020130505C1C6
:103B1000EFF00FD31305C40015B7014582800145AE
:103B200031BF411106C622C426C2B304B5022685A0
:103B3000EFF07FEB2A8409C526868145EFF00FFB65
:103B40002285B240224492444101828009C983A760
:103B5000C1866366F50083A781866363F500828072
:103B6000411106C622C426C22A84930445FFFD558E
:103B700037350020130505C1EFF0EFBD835764FF13
:103B800081CB035744FF8967938707EA6303F702F2
:103B9000379500001305856EEFF0BFC3835644FFD1
:103BA000035664FFA6853795000013054570EFF0B6
:103BB0005FC2231B04FE8967938707EA231AF4FE7A
:103BC00083A7018763F4F40023A891861387C18734
:103BD0001C43832684FF958F83A6C186B386D44079
:103BE000B6971CC32685EFF07FCD3735002013052F
:103BF00005C1EFF0EFC4B2402244924441018280FB
:103C0000AA873707002003274705630CE50237071B
:103C10000020032747066302E50237070020032739
:103C20004707630EE50037070020032747080145D3
:103C30006303F70082800D4531A0054521A00945A9
:103C400011A00145931745003705002013054505D0
:103C50003E95CDB7011106CE22CC26CA4AC84EC623
:103C600052C4AA84AE89328A2E85EFF07FF92A8960
:103C700055248327490013044900638587009C432A
:103C8000E39F87FE452C93E909F8238434012146FC
:103C9000D2852685EFF06FF2EFC08FCA9387C400FC
:103CA000032749005CC303274900D8C42322F90035
:103CB00080C8EFC04FC9F2406244D2444249B24981
:103CC000224A05618280411106C622C42A84230447
:103CD0000500EFC0EFC69307C40054441848D8C28B
:103CE000544414C31CC85CC4EFC0EFC5B2402244A6
:103CF00041018280011106CE22CC26CA4AC84EC696
:103D0000AA892E89EFF0DFEFAA844845EFF0BFCDF6
:103D10002A841DC9D0448145EFF04FDD23043401CE
:103D2000A30404002146CA852285EFF00FE9EFC005
:103D30002FC19307C400D8405CC3D84058C4DCC02E
:103D4000910404C8EFC02FC02285F2406244D244DF
:103D50004249B24905618280411106C622C42A84C3
:103D600023040500EFC0CFBD9307C4005444184896
:103D7000D8C2544414C31CC85CC4EFC0CFBC228555
:103D8000EFF0DFDCB2402244410182800305850070
:103D90007D81828023940188B7370020938707C3F1
:103DA00013870704DCC39CC3A107E39DE7FE1D47FF
:103DB0002380E18823A2018823AA01889387C188F0
:103DC000DCC39CC38280411106C603A54189EFF084
:103DD0007FA87D159317350037350020130505C3DF
:103DE0003E9508411307C5FE23A2E1882105EFC0D7
:103DF000EFB5B24041018280411106C622C4EFC036
:103E00002FB42A8483978188B1E303A54189EFF019
:103E10007FA47D1513173500B7370020938707C39C
:103E2000BA978C439387C5FE03A741886300F702C6
:103E30002380A18823A2F18883C7418693F7F70FD7
:103E400089CFA1051305C701EF00C0782285EFC017
:103E50008FAFB240224441018280A1051305C70102
:103E6000EF0000762285EFC00FAEE5B7411106C620
:103E700022C42A84EFC0CFAC83474403C19B93E79D
:103E80001700230AF402834754039306440113974F
:103E90003700B7370020938707C3BA97D84314C3B6
:103EA000D84318CCD4C35CC893874189185C944329
:103EB000558F98C3EFC02FA9B240224441018280A0
:103EC000411106C622C42A84EFC08FA7930744017C
:103ED0005448184CD8C2544814C31CCC5CC88347FF
:103EE000540313973700B7370020938707C3BA9757
:103EF00098436308F700EFC00FA5B2402244410188
:103F00008280138741891C5C93C7F7FF1443F58FA8
:103F10001CC3D5B7411106C6EFC08FA29387818815
:103F200003D7070005072390E700EFC0CFA1B240F9
:103F300041018280411106C6EFC08FA0138781889E
:103F400083570700FD17C207C1872310F700635787
:103F5000F000EFC04F9FB24041018280239401885E
:103F6000EFC06F9E83A74188FDD7EFF0FFE8E5B76C
:103F7000411106C622C426C203A44188EFC04F9C4B
:103F8000AA842285EFF0DFF39147230AF402130598
:103F90004404C1262285EFF07FDF85476307F502E1
:103FA0001307440183A6C188D8C254C823A6E18858
:103FB0009387C1881CCC2685EFC0EF98EFF0DFE334
:103FC000B24022449244410182803C58F1FB228558
:103FD000EFF07FCFCDB7411106C6795718D9130737
:103FE00045015049144D54C2504990C218CD58C98A
:103FF000EFF0DFE7EFF05FE0B240410182800111B6
:1040000006CE22CC26CA4AC84EC652C456C25AC090
:104010002A84328BB68ABA893E8A4289C6842E8621
:104020008545EFF03FC3930744011CCC5CC82320B7
:104030006403232254032324340323264403528697
:10404000930530024E85EFF06FAA5C54F1171054BF
:10405000B7460000938606F73E964C50085025233D
:1040600048CC230B2403A30A2403232C040244DC9E
:1040700024C023280402230A040223280406232A36
:10408000040681470147A28637460000130666FDF5
:10409000A28513054404BD240145F2406244D24484
:1040A0004249B249224A924A024B0561828003A5E5
:1040B00041888280011106CE22CC26CA4AC84EC64B
:1040C00052C456C2AE8A328AB684BA893E89AA855B
:1040D0000545EFF03FC249CD2A842685EFF0BF9019
:1040E00059C1930744011CCC5CC8232054032322EC
:1040F000440308D444D4268693053002EFF00F9F82
:104100005C54F1171054B7460000938606F73E96AC
:104110004C5008508D2948CC230B3403A30A340398
:10412000232C0402232E2403232024052328040205
:10413000230A040223280406232A04068147014790
:10414000A28637460000130666FDA28513054404C7
:10415000552A2285F2406244D2444249B249224A59
:10416000924A056182802285EFF01FBF0144D5B7D6
:104170000144C5B7411106C6EFB09FFC83A7418833
:1041800003C747033D8B85466316D700D44B984F32
:104190006398E600EFB03FFB0145B24041018280E9
:1041A00013864701D8C2D44B14C390CFD0CB83C65B
:1041B0005703373700208E06130707C3369754433B
:1041C00090C2544394CF50C3D8CBEFB0DFF7EFF099
:1041D000BFC2D9B783474503BD8B05476390E7044A
:1041E000411106C622C426C22A84EFB07FF5AA84F4
:1041F00083474403C19B93E72700230AF4022285E7
:10420000EFF01FCC1305440485242685EFB0BFF3DF
:104210000145B24022449244410182807D55828012
:10422000011106CE22CC26CA4AC82AC6EFB05FF1D9
:104230002A8903A441882285EFF0DFF9930444041E
:104240007000814526859524268549224A85EFB050
:104250009FEFEFF07FBA1858F9576309F70001454F
:10426000F2406244D244424905618280232804021C
:10427000FDB7411106C6EFE0BFA4EFF07FFAB240F0
:104280004101828083474503BD8B09476392E70460
:10429000411106C622C426C22A84EFB07FEAAA844E
:1042A000930744015448184CD8C2544814C31CCC3A
:1042B0005CC8130544044D2A2685EFB0DFE822854B
:1042C000EFF0DFBA0145B2402244924441018280BE
:1042D0007D558280411106C683466503A30AD50237
:1042E00005473317D70018DD0947230AE502EFF029
:1042F0007FF983A7418899C3EFF01FB00145B24011
:1043000041018280011106CE22CC26CA4AC84EC67F
:1043100052C42A84328AB6893A89BE842E86A94537
:10432000EFF05F93F998A3049400232E4401232017
:1043300034032324040223222403930744011CCCC6
:104340005CC8F2406244D2444249B249224A056103
:104350008280411106C622C42A84EFB07FDE930713
:1043600044015448184CD8C2544814C31CCC5CC8EF
:10437000EFB07FDD2285EFF01F950145B24022446A
:1043800041018280011106CE22CC26CA4AC84EC6FF
:10439000AE893289B6843A84AA852945EFF09F9583
:1043A00019CD7998A3048500232E350123202503F8
:1043B0002324050244D1930745011CCD5CC9F2407A
:1043C0006244D2444249B24905618280411106C625
:1043D00022C426C22A84EFB0BFD6930444015848B1
:1043E0001C4C5CC3584898C304CC44C88347940011
:1043F000F99BA304F400EFB01FD5EFE03F895C50B8
:104400003E9508D4EFB0DFD39387C189CC4313879F
:10441000C189370800801348E8FF11A03687638CF4
:10442000E5001443DC4A1054E38AC7FE918F63749D
:10443000F8003687EDB7938781899443850694C346
:104440001C43C4C31C435CC804C318CC83479400FA
:1044500093E71700A304F400EFB0FFCE0145B2408C
:10446000224492444101828083479500858B99E3E1
:104470007D558280411106C622C42A84EFB05FCCEC
:10448000930744015448184CD8C2544814C31CCC58
:104490005CC8EFB05FCB83479400F99BA304F400A2
:1044A0000145B24022444101828085476385F5027F
:1044B00063DFB70089476384F5028D47639FF5008A
:1044C0008347950093E72700A304F50039A091E501
:1044D0001C425CD119A05C511CC2014582808347FB
:1044E0009500F59BA304F500CDBF011106CE22CCAB
:1044F00026CA4AC84EC652C456C2EFE02FF92A8ACD
:10450000EFB01FC4AA899384C189B707008013C97B
:10451000E7FF8D4A8040631E94004E85EFB0BFC216
:10452000F2406244D2444249B249224A924A056169
:1045300082805C48330AFA40E36149FF18405C40DE
:104540005CC3184098C340C000C01C4448448297D4
:10455000EFE0CFF32A8A834754FF13F7370063064F
:104560005701F99BA30AF4FE75B7F99BA30AF4FE61
:104570001305C4FEEFF09FE571BF9387C189DCC3CB
:104580009CC3828082802A881106719A130506F8DE
:10459000AA8737C7ADDE1307F7EE98C39107E31E6E
:1045A000F6FE2322D6F82324B6FA232006F9A167C3
:1045B000938707882324F6F8828023A6018A8280C5
:1045C00023A2A18A23A4B18AB7E700E0116723A040
:1045D000E720828083A7C18A99E323A2A18A23A42A
:1045E000B18A054723A6E18AB7E700E0116723A057
:1045F000E7208280411106C637A50000130585809B
:10460000EFF02F9D0145B24041018280011106CE9D
:1046100022CC26CA4AC84EC6004163088502AA8435
:1046200037A90000B7A9000001A8138549ABEFF036
:104630004F9A0040638B84009305C4FE130509ABB9
:10464000EFF02F991C40E39297FEF2406244D2446F
:104650004249B24905618280411106C6EFF00F9BC5
:104660000145B24041018280011106CE22CC26CA0A
:104670004AC84EC623A80500DC45BDC383C78500D4
:10468000B5C32E892A8483A9050039CDEFB05FAB6D
:104690008347C4FF93F7F7F7034789006391E70265
:1046A0008327490081440040638F89008504910776
:1046B00023AE87FE0327C900E31797FE31A0EFB0B2
:1046C0009FA8014431A00144EFB0FFA7232899001F
:1046D0002285F2406244D2444249B2490561828057
:1046E0000144FDB70144EDB7EFB09FA54E844DBF27
:1046F000517186D7A2D5A6D3CAD1CECFD2CDD6CB33
:10470000DAC9DEC7E2C5E6C3EAC16EDF0545EFF0F0
:104710002FCF11052ACF85472302F10AFC183ED17D
:10472000A1473ED502D737A6000013060691A14542
:1047300037A5000013058591EFF0AF892144B7A498
:1047400000001385C495EFF0CF887D147DF837A560
:10475000000013050596EFF0CF87814AB7AB000044
:1047600037AB0000B7AD0000D5A8130A44FF13060D
:104770008007D2854800EF20D05B4E85EFB0BF9C0C
:1047800003479402D2862146A14513850B9AEFF088
:104790004F8483478402BD8B05476382E70809473E
:1047A0006384E708D9C71147638AE7080D47638C1C
:1047B000E7084C4C03C7050093073002631CF70859
:1047C000AE8613073002850683C70600E38DE7FE39
:1047D0001050B295B386D54093074006B386F602D3
:1047E00008485C505858B3D6C602898D13058B9E75
:1047F000EFE03FFE85041109BA5763DFF404032498
:104800000900EFB0FF93AA898347C4FF93F7F7F736
:104810000347410AE38BE7F4EFB0FF92E1BF138552
:10482000CC9AEFE01FFB71B713058D9BEFE07FFA89
:1048300049B713054C9CEFE0DFF9A5BF13850D9D2B
:10484000EFE03FF9BDB7B7A700001385C79DEFE0C4
:104850005FF885B7AE86ADBF63840A026C095685E2
:10486000EFF09FE0AA8ABA57E358F0FE1309C10798
:10487000814437AC000037AD0000B7AC000041B751
:104880000145BE502E549E540E59FE496E4ADE4AD2
:104890004E4BBE4B2E4C9E4C0E4DFA5D6D61828090
:1048A000011106CE22CC26CA4AC84EC652C437A52C
:1048B00000001305C581EFE0DFF103A4018B83A79E
:1048C000418B637AF402B7A9000037AA000031A037
:1048D000210483A7418B6370F40204400946938549
:1048E00009832685EF30A04165D5A68513054A8347
:1048F000EFE03FEEF1BF0145F2406244D24442494D
:10490000B249224A056182801D7186CEA2CCA6CA18
:10491000CAC8CEC6D2C4D6C2DAC02945EFF04FAE5F
:1049200011052AD6A947230AF1027C003ED8A147E7
:104930003EDC02DE37A60000130606A1A14537A51E
:104940000000130585A1EFE0DFE82144B7A40000D3
:104950001385C495EFE0FFE77D147DF837A50000CF
:10496000130505A4EFE0FFE6014AB7A9000037AB45
:104970000000B7AA000085A0EFB0EFFC8504110984
:10498000F25763D8F40403240900EFB06FFB8347A8
:10499000C4FF93F7F7F703474103E39FE7FCEFB04A
:1049A0008FFA5C4C184C930644FF2146A1451385B1
:1049B00049A6EFE01FE28347D4FF858B91C713859B
:1049C000CAA7EFE01FE15DBF13058BA8EFE07FE012
:1049D00075B7630E0A006C105285EFF0FFC82A8A83
:1049E000F257E358F0FE1309C100814469BFEFE0BC
:1049F000EFA9AA8537A50000130585A9EFE07FDDA3
:104A00000145F6406644D6444649B649264A964A88
:104A1000064B25618280597186D6A2D4A6D2CAD00F
:104A2000CECED2CCD6CADAC8DEC61545EFF04F9D41
:104A300011052AD69547230AF1027C003ED8A147EA
:104A40003EDC02DE37A6000013068683A14537A5AB
:104A5000000013050584EFE0DFD72144B7A4000070
:104A60001385C495EFE0FFD67D147DF837A50000CF
:104A700013054586EFE0FFD5014AB7AB000037AB21
:104A80000000B7AA000061A0EFB0EFEB05099109A3
:104A9000F257635CF90603A40900EFB06FEA83479D
:104AA000C4FF93F7F7F703474103E39FE7FCEFB039
:104AB0008FE9930484001044638BC402930644FF7F
:104AC0000357640183574401014805081042E39EDF
:104AD000C4FE2146A14513050B88EFE09FCF268534
:104AE000EFF0DFB213858A81EFE0BFCE45B7014812
:104AF0008357440103576401930644FF2146A145AF
:104B000013858B89EFE0FFCC51B7630E0A006C1060
:104B10005285EFF07FB52A8AF257E358F0FE9309E9
:104B2000C10001498DBF0145B6502654965406591F
:104B3000F649664AD64A464BB64B65618280597142
:104B400086D6A2D4A6D2CAD0CECED2CCD6CADAC805
:104B5000DEC60945EFF0CF8A11052AD68947230A18
:104B6000F1027C003ED8A1473EDC02DE37A6000001
:104B70001306068BA14537A500001305C58BEFE092
:104B80005FC52144B7A400001385C495EFE07FC43E
:104B90007D147DF837A500001305858DEFE07FC3F8
:104BA000014AB7AB000037AB0000B7AA000041A034
:104BB000EFB06FD905099109F2576358F90683A43C
:104BC0000900EFB0EFD783C7C4FF93F7F7F70347A8
:104BD0004103E39FE7FCEFB00FD7138484009044B8
:104BE0006309C402938644FF03D704018147850704
:104BF0001042E31EC4FE2146A14513050B8FEFE0D2
:104C00005FBD2285EFF09FA013858A81EFE07FBC16
:104C100055B7814703D70401938644FF2146A14538
:104C200013850B90EFE0FFBA71B7630E0A006C10AA
:104C30005285EFF07FA32A8AF257E358F0FE9309DA
:104C4000C1000149ADBF0145B650265496540659DE
:104C5000F649664AD64A464BB64B656182800111D9
:104C600006CE22CC26CA4AC84EC652C437A500007A
:104C7000130545B1EFE0FFB503A4018B83A7418B7A
:104C8000637BF402B7A9000037AA000031A0210419
:104C900083A7418B6371F40204401946938509B3DD
:104CA0002685EF30C00565F59385640013058AB34A
:104CB000EFE03FB2E9BF37A5000013058581EFE0C3
:104CC0005FB10145F2406244D2444249B249224AAE
:104CD00005618280411106C6EFF09FA10145B240F7
:104CE00041018280411106C6EFE05FC30145B24039
:104CF00041018280054582805D7186C6A2C4A6C23C
:104D0000CAC04EDE52DC56DA5AD85ED62A84AA953C
:104D100013070002A54611A00504B384854083074C
:104D20000400E38BE7FEE389D7FE014581ECB64042
:104D3000264496440649F259625AD25A425BB25B03
:104D400061618280814A13070002A54611A0D28AC0
:104D5000138A1A00B3074401838707006388E700BA
:104D60006386D700E3159AFE268A19A063010A1408
:104D700003A9018B03AB418B637B6913B7AB0000C5
:104D800021A02109637569138329090019469385B8
:104D90000BB34E85EF20B0766DF55286A285138554
:104DA0006900EF20D07571FDD69983877900F1FBFA
:104DB000032A4900630D0A0E02C002C202C402C6E1
:104DC00002C802CA02CC02CE8A890A8E2287014911
:104DD000014613080002A548A14F930E2002130FAD
:104DE000C00539A0637C960E230007000507050661
:104DF00083070700E38807FFE38617FF630DF903C6
:104E00006374960A638BD7032320EE001305190001
:104E10003383C4403A93BA878507B386C700998E17
:104E200083850700638B050763891507E39667FE93
:104E30008A85029AEDBD21496DA09307170093065C
:104E400016002320FE001305190003071700630D49
:104E5000D70363EF9600E9BF138617008506930713
:104E600016008506030716006300D703E3F296FCDD
:104E70003E86E316E7FF03871700E30FD7FD85069D
:104E8000038717008507DDB7E3F496FA2380070050
:104E90008507850663E5960061BFE3FB96F8050983
:104EA000110E3E873686A9B74A85E31309F88307B2
:104EB000040093F7F7FD228799C7050783070700CA
:104EC00093F7F7FDFDFB23000700A28537A500003F
:104ED0001305C5AFEFE0FF8F7D5591BD9D47E3F50D
:104EE00027FD37A500001305C5ADEFE09F8E0144F7
:104EF000B7A4000083A50900138584B3EFE07F8D7C
:104F000005049109E36824FF37A500001305858196
:104F1000EFE03F8C4A8529BF797106D622D426D28C
:104F20004AD04ECE52CC56CA5AC85EC662C4830717
:104F3000050099CF2A8903A4018B83A7418B63794C
:104F4000F40A8149014A37AB0000B7AB000035A035
:104F500081450145EFF0BFD061A8CE87B3873741C7
:104F600063D347013E8AA68513854B83EFE07F8696
:104F7000210483A7418B6376F406032C04001946B1
:104F800093050BB36285EF2090577DF193046C007D
:104F90004A85EF20B0552A86A6854A85EF203056EF
:104FA00061F963170A002685EF2050542A8AA689E2
:104FB00083870900DDD303076C0005C36391E70213
:104FC0002687CE87850705070386070041DA830613
:104FD0000700C9D6E308D6FE51B7CE8741B7CE87C2
:104FE000B5BF638709005286CE854A85EFE0EFBCE6
:104FF000B250225492540259F249624AD24A424B68
:10500000B24B224C45618280411106C622C426C2A1
:10501000A9679387C7E523A8F18AA9679387C7ED96
:1050200023AAF18AA9679387C7ED23ACF18AA96700
:105030009387C7ED23AEF18A9305C0070545EFE0DE
:105040005FAE23A2A18C31CDA9471947930600601A
:105050000146B75500009385A51537A50000130537
:1050600045B5EFF02F85AA841384418C8146014613
:10507000B7A500009385C5B50840EFD07FE718407D
:105080008347470293E727002302F702014589C4BB
:105090002685EFF02FA40145B240224492444101FD
:1050A000828037A500001305C5B3EFE08FF27D5570
:1050B000E5B783A7418C83C74702898B9DC7411100
:1050C00006C622C483A5018C95C91306000837358E
:1050D0000020130505C7EF20504537350020130584
:1050E00005C7B240224441018280B737002023889F
:1050F00007C637350020130505C78280EFF09FBF34
:1051000005CDB7370020938707C737776820130787
:10511000D73698C32382070037350020130405C70C
:10512000130505C7EF20903C22959307E003230069
:10513000F500A300050055B7B7370020938707C7D0
:1051400037776E731307679698C309671307870647
:105150002392E70023830700C1B7797106D622D4D2
:1051600026D24AD04ECE52CC56CA5AC85EC662C467
:1051700003A7418C8347470293E717002302F702F6
:10518000EFF03FF3EFE0EFE4B7A90000B7AB0000AA
:1051900037A9000037AA0000B7AA000037AC00000A
:1051A00037AB000029A083A7418C054798D3652918
:1051B0002A84AA85E34D05FEED47E306F5FE83A7A5
:1051C000418C98538546630ED70689466305D708F8
:1051D000F9DD25476387E50E1307F0076386E514BD
:1051E00021476383E5143547638BE51C29476388B2
:1051F000E51C03D767079306F00463FDE620239BB5
:10520000070601473E97A302870283C74702858BA3
:105210006398072603A7418C835767078507C20752
:10522000C183231BF706835687078506231CD706F1
:105230009306F004E3FDF6F6231B0706231C07067E
:10524000BDB71307B0056305E50023A0070249B702
:10525000094798D3A9BF23A007021307F5FB1377CB
:10526000F70F8546E3F5E6F413074004630BE50208
:1052700013073004E31EE5F403D7870783D66707D7
:10528000E377D7F2BA978385570213858AB6EFE0A2
:105290004FD403A7418C835787078507231CF70644
:1052A00039B783D78707E38407F0130549B6EFE0E2
:1052B0004FD203A7418C83578707FD17231CF7069E
:1052C000FDB503D7870709CF0144130549B6EFE0C1
:1052D0004FD0050483A7418C03D78707E347E4FE3B
:1052E0001384570213058A81EFE0AFCEEFF09FA041
:1052F00085476307F502EFF0DFDB2286AA851305F9
:10530000CBB6EFE00FCD03A4418C13055402EF2080
:10531000F01D42054181231BA406231CA40641BDA8
:105320002285EFF07FBFC1BF03D78707E30107E8FE
:1053300003D667077D1642064182239BC7067D1769
:1053400042074183239CE706636EC7001385C9B7F4
:10535000EFE02FC883A7418C03D76707BA97A382D2
:105360000702B1B59305670213055702198EBE9562
:105370003E95EFE08F801384418C1C4003D7670774
:105380003E97A302070283D5870793855502BE95F2
:1053900013854BB7EFE0EFC31C4003D4870783D7D7
:1053A0006707E3C687E0130549B6EFE08FC205043F
:1053B00083A7418C83D76707E3D787FECDBBEFF088
:1053C0007F9385476304F502EFF0BFCEEFE06FC037
:1053D00003A4418C13060005814513055402EFA078
:1053E0001FE3231B0406231C0406D1B383A7418CAF
:1053F00083C74702858B91EB03A5418C83556507D5
:1054000013055502EFF05F8FC1B713058A81EFE0F6
:105410004FBCDDB703D68707E376E6DE9305560279
:10542000130566023306C740BE953E95EFD0FFF4E4
:1054300083A5418C83D685073387D500A3028702D5
:1054400003C74502058B0DE783A7418C03D487076B
:1054500083D76707E350F4DC130549B6EFE06FB775
:10546000050483A7418C83D76707E347F4FE5DB348
:1054700093865602B69513050CABEFE08FB5E9B7EE
:1054800013858AB6EFE0EFB471B33735002013050A
:1054900045CF8280374500201305456582803971EC
:1054A00006DE16DC1ADA1ED82AD62ED432D236D030
:1054B0003ACE3ECC42CA46C872C676C47AC27EC0D4
:1054C000EFD0FFC2B7F700E023820700A3820700F6
:1054D00023830700A383070023840700A384070016
:1054E00023850700A3850700EFD0AFFAEFD07FC276
:1054F000F250E2525253C2533255A25512568256BE
:105500007247E2475248C248324EA24E124F824F73
:10551000216173002030411106C6B7170240DC43F9
:10552000C983BD8B37177A0013070720B387E702BB
:105530003727F40013070740BA9723AEF184854656
:105540000146B7150E000145EFD02FDA854501451C
:10555000EFD0AFEDB24041018280411106C622C4B6
:1055600026C24AC0EFF03FFB03A7C1858967938736
:1055700007F43357F7027D17B7F700E023820700DF
:10558000A382070023830700A38307002384070067
:10559000A384070023850700A38507009376F70FF0
:1055A0002386D7009356870093F6F60FA386D7007D
:1055B0009356070193F6F60F2387D7006183A387DD
:1055C000E70023880700A388070023890700A38931
:1055D000070037E400E0FD542306944005672320CC
:1055E000E410054798C3EFD02FF1EFF01FEA2A89A6
:1055F000EFF05FEAAA854A85EFE0EFB50146A945DD
:1056000037A50000130505B8EFD01FA823A4A18C6F
:1056100091672320F41023079440B240224492441F
:10562000024941018280830705008DCF411106C6E2
:1056300022C426C22A84A94431A8B5450145EFD029
:105640004FD705048345F4FF0145EFD08FD683077C
:10565000040081C7E39797FECDB7B240224492443D
:1056600041018280828001458280397106DE16DC2C
:105670001ADA1ED82AD62ED432D236D03ACE3ECC22
:1056800042CA46C872C676C47AC27EC0EFD03FA670
:10569000930550523745014013050580EFC02FBDDB
:1056A00015E5EFD01FA7F250E2525253C2533255C4
:1056B000A255125682567247E2475248C248324EAD
:1056C000A24E124F824F21617300203037450140B6
:1056D00013050580EFC00FB91375F50F83D74195FA
:1056E00093861700239AD194375700201307878594
:1056F000BA972380A700A947E315F5FA03A5418DC2
:10570000EFD01F9479BF4111B71702409843136738
:10571000170098C3D843B706FFF8758FD8C39843CE
:10572000B706F7FEFD16758F98C39843B706FCFFC2
:10573000FD16758F98C3D843B70681FFFD16758F88
:10574000D8C337079F0098C702C402C69843C166F2
:10575000558F98C337160240B70602001307005052
:105760001C42F58F3EC6A24785073EC4B24781E77B
:10577000A247E397E7FEB71702409C431397E70061
:105780006350070285473EC632478547630CF700E2
:1057900037E700E0B70705FA85073CC7410182807B
:1057A00002C6DDB7B727024098431367070198C3C5
:1057B0009843719B98C398431367270098C3B71702
:1057C0000240D843D8C3D843D8C3D843D8C3D8435A
:1057D000B706C1FFFD16758FD8C3D843B70625009D
:1057E000558FD8C39843B7060001558F98C3371714
:1057F00002401C4393966700E3DD06FEB7170240A4
:10580000D843719BD8C3D84313672700D8C3B716B2
:1058100002402147DC42B18BE39EE7FE95BF411178
:1058200006C6154691450545EFC03FE32D46A945FF
:105830000945EFC09FE2B24041018280411106C696
:105840000945EFC0DFF12396A18C0945EFC09FF217
:105850000545EFC0DFF02397A18C0545EFC09FF110
:10586000B2404101828083A6818E13970601418751
:105870002398E18CB747002093874765130680FD86
:105880002380C700130600FBA380C7000396C18CCA
:10589000935586402381B700A381C700130610FBF0
:1058A0002382C7000396E18C93558640A382B700FC
:1058B0002383C700130620FBA383C700218723840B
:1058C000E700A384D70039572385E70082807971E8
:1058D00006D602C002C202C402C602C802CA02CC74
:1058E00002CE0396C18CB7A50000938505B90A8541
:1058F000EF20603B0A8685450145EFC00FD803962F
:10590000E18CB7A50000938545BA0A85EF20A03940
:105910000A8689450145EFC04FD603A6818EB7A5FB
:105920000000938585BB0A85EF20E0370A868D4508
:105930000145EFC08FD4B25045618280411106C647
:10594000EFF0FFF8F5BF411106C6EFC0EFAB9307CC
:1059500020031547930600400146B7650000938574
:10596000C59337A50000130585B8EFE0AFF419C162
:10597000EFE05F96B24041018280411106C61306F6
:10598000000481453755002013058585EFA03F8829
:10599000239A0194B24041018280411106C69306C8
:1059A0000031054685452D45EFC09F9881452D4521
:1059B000EFC03FA91305A00F8145EFD0CF858545E6
:1059C0002D45EFC01FA81305401F8145EFD0AF84C0
:1059D000EFF0BFFAB2404101828083D7419537573B
:1059E000002013078785BA9703C7F7FFA9476319F4
:1059F000F706411106C6B7A500009385C5BC37550B
:105A0000002013058585EFA01F8B0DC1B7A50000F1
:105A10009385C5BE3755002013058585EFA0BF8946
:105A20000DC5EFF09FF5B2404101828037A600001E
:105A3000130646BD9545EFC04FC4B7A5000093853A
:105A400005BE0145EFD0EF9BE9BF23900190238174
:105A50000190B7A500009385C5BFEFD08F9AD1B74D
:105A60008280411106C622C4FD5503A5418DEFD0A9
:105A70008FCEEFF09FF6CDBF411106C622C4EFF0E6
:105A8000DFF10146814537A400001305C4C0EFD003
:105A90008FC923AAA18C9307800C09479306004065
:105AA0000146B7650000938525A61305C4C0EFE045
:105AB0006FE009C9EFE01F8237A50000130545C15B
:105AC000EFD03FD1B2402244410182801D7186CE89
:105AD000A2CCA6CACAC8CEC6D2C4D6C2DAC05EDEBE
