:100000006F10A01F13000000130000001300000079
:100010001300000013000000130000001300000094
:100020001300000013000000130000001300000084
:08003000130000007300100032
:100038006FF09FFC000000006F00105E6F00D06240
:1000480000000000000000000000000000000000A8
:100058000000000000000000000000000000000098
:100068006F50F052000000006F00000F0000000009
:100078006F0010626FF05FF86F0090666F00706736
:100088006F0050686F0030696F0040346F00403A6D
:100098006F0040406F00A05E6F00A0646F00D068E2
:1000A8006F00906D6F0050726F0010516F00D07626
:1000B8006F00907B6F1040006F007002000000001E
:1000C8000000000000000000000000006F00A067B2
:1000D8006F00F0056F00F00C6F00B0136F00F01C9C
:1000E8006F00B0296F00102C6F00D0326FF0DFF076
:1000F8006FF09FF06FF05FF06FF01FF06FF0DFEFC1
:100108006FF09FEF6F50D06B6F00D0376F00504289
:100118006F00C06F6FF05FEE6FF01FEE6FF0DFEDF6
:1001280000000000000000000000000000000000C7
:080138000000000000000000BF
:1001400073750430828073100530828097520020CE
:10015000938242EB739002340321050095A00100C5
:10016000197106C212C816CA1ACC1ECE22D026D2C7
:100170002AD42ED632D836DA3ADC3EDEC2C0C6C227
:10018000CAC4CEC6D2C8D6CADACCDECEE2D0E6D257
:10019000EAD4EED6F2D8F6DAFADCFEDEF32200304C
:1001A00016C483A2018B23A02200F322103416C0B0
:1001B000EF40F05183A2418B03A1020011A0010086
:1001C000824273901234A2427390023092404242B3
:1001D000D2426243F243025492542255B2554256DF
:1001E000D2566257F257064896482649B649464ABB
:1001F000D64A664BF64B065C965C265DB65D465E5F
:10020000D65E665FF65F09617300203000003D43F3
:100210002A876373C3029377F700BDEFADE593764A
:1002200006FF3D8ABA960CC34CC30CC74CC74107A6
:10023000E36BD7FE11E28280B306C3408A069702C1
:10024000000096966780A6002307B700A306B700B4
:100250002306B700A305B7002305B700A304B70022
:100260002304B700A303B7002303B700A302B7001A
:100270002302B700A301B7002301B700A300B70012
:100280002300B700828093F5F50F93968500D58DF6
:1002900093960501D58D61B79396270097020000CC
:1002A00096968682E78086FA9680C1171D8F3E96C5
:1002B000E374C3F8A5B73367B500FD530D8B79E739
:1002C000B7877F7F9387F7F710419441B372F600A9
:1002D0003363F600BE92B3E262006397720C631858
:1002E000D6065041D441B372F6003363F600BE9295
:1002F000B3E262006398720A631BD604104594450A
:10030000B372F6003363F600BE92B3E2620063910B
:10031000720A631ED6025045D445B372F6003363A9
:10032000F600BE92B3E26200639A72086311D602CD
:1003300010499449B372F6003363F600BE92B3E2FB
:100340006200639372085105D105E30FD6F61317C7
:10035000060193970601631CF7001357060193D714
:1003600006013305F7409375F50F91E982804183CB
:10037000C1833305F7409375F50F91E182801377C0
:10038000F70F93F7F70F3305F74082800346050018
:1003900083C60500050585056313D60065FA330598
:1003A000D640828011059105E312D6FE0145828078
:1003B0002105A105E31CD6FC014582803105B1056C
:1003C000E316D6FC014582804105C105E310D6FC49
:1003D00001458280397106DE16DC1ADA1ED82AD66B
:1003E0002ED432D236D03ACE3ECC42CA46C872C69D
:1003F00076C47AC27EC0EF3000640545EF00107607
:1004000085476307F502EF304065F250E2525253E0
:10041000C2533255A255125682567247E24752488D
:10042000C248324EA24E124F824F216173002030DB
:100430000545EF007074C1BF397106DE16DC1ADAAB
:100440001ED82AD62ED432D236D03ACE3ECC42CA8C
:1004500046C872C676C47AC27EC0EF30C05D094518
:10046000EF00D06F85476307F502EF30005FF25071
:10047000E2525253C2533255A25512568256724717
:10048000E2475248C248324EA24E124F824F21617B
:10049000730020300945EF00306EC1BF5D7186C624
:1004A00096C49AC29EC022DE26DC2ADA2ED832D624
:1004B00036D43AD23ED042CE46CC4ACA4EC872C694
:1004C00076C47AC27EC0EF3000571145EF00106944
:1004D0008547630BF502EF304058B640A6421643FD
:1004E00086437254E2545255C2553256A2561257A0
:1004F00082577248E2485249C249324EA24E124FC8
:10050000824F61617300203083C7418E93F7F70FEC
:1005100005476388E70E03C7019085476300F7101E
:100520000147014681463285B685EF60C0391384A4
:10053000C18E8317640013D5F7013E950585EF80C2
:10054000D0372A890395818FEF80303737260020F6
:100550001306461DCA85EF60204EEF80F02FEF6036
:1005600080268317440013D5F7013E950585330592
:10057000A040EF8090342A890395C18FEF80F0333B
:10058000372600201306461FCA85EF60E04AEF8039
:10059000B02CEF6040278317240013D5F7013E9558
:1005A0000585EF8090312A840395E18FEF80F0304C
:1005B0003726002013064623A285EF60E047EF8030
:1005C000B029EF60402C8397C18E13D5F7013E957B
:1005D00005853305A040EF80502E2A840395A18F16
:1005E000EF80B02D3726002013064621A285EF604C
:1005F000A044EF807026EF6000251145EF00D05732
:10060000D9BDEF60E00F3725002013058518EF50A6
:10061000D0552382018EEF50B06BF5BD0395A190AC
:100620003305A040EF8070293726002013064625A9
:10063000AA8513050000EF608057EF80F0211314A6
:10064000050141842392819003956190EF70707051
:100650002A89AE8903958190EF803026AA8422856D
:10066000EF80B025372600201306C626A685EF604A
:100670006048EF80701E2A874A86CE8601458145F4
:10068000EF6060246DB5397106DE16DC1ADA1ED80B
:100690002AD62ED432D236D03ACE3ECC42CA46C822
:1006A00072C676C47AC27EC0EF30E0382145EF00D2
:1006B000F04A85476307F502EF30203AF250E252E4
:1006C0005253C2533255A255125682567247E247D0
:1006D0005248C248324EA24E124F824F21617300DF
:1006E00020302145EF005049C1BF397106DE16DCCC
:1006F0001ADA1ED82AD62ED432D236D03ACE3ECCF2
:1007000042CA46C872C676C47AC27EC0EF30A032F2
:100710004145EF00B04485476307F502EF30E03311
:10072000F250E2525253C2533255A25512568256DB
:100730007247E2475248C248324EA24E124F824F91
:100740002161730020304145EF001043C1BF397172
:1007500006DE16DC1ADA1ED82AD62ED432D236D0CD
:100760003ACE3ECC42CA46C872C676C47AC27EC071
:10077000EF30602C13050020EF00503E85476303E7
:10078000F50413050010EF00703D85476305F5067D
:1007900013050008EF00903C85476303F506130539
:1007A0000004EF00B03B85476301F5061305000226
:1007B000EF00D03A8547631BF50013050002EF00F8
:1007C000B03B29A013050020EF00103BEF30E028DC
:1007D000F250E2525253C2533255A255125682562B
:1007E0007247E2475248C248324EA24E124F824FE1
:1007F00021617300203013050010EF00F037F9B7C6
:1008000013050008EF005037D1B713050004EF00BF
:10081000B0366DBF397106DE16DC1ADA1ED82AD65C
:100820002ED432D236D03ACE3ECC42CA46C872C658
:1008300076C47AC27EC0EF3000202165EF0010320E
:1008400085476308F5041165EF0050318547630A59
:10085000F5060965EF00903085476308F5060565E4
:10086000EF00D02F85476306F50605651305058063
:10087000EF00D02E85476302F50613050040EF0018
:10088000F02D8547631AF50013050040EF00D02EC8
:1008900021A02165EF00502EEF30201CF250E252D3
:1008A0005253C2533255A255125682567247E247EE
:1008B0005248C248324EA24E124F824F21617300FD
:1008C00020301165EF00502BC1BF0965EF00D02A21
:1008D000E1B70565EF00502AC1B70565130505802E
:1008E000EF00902955BF397106DE16DC1ADA1ED8E2
:1008F0002AD62ED432D236D03ACE3ECC42CA46C8C0
:1009000072C676C47AC27EC0EF30E012EF30E014D7
:10091000F250E2525253C2533255A25512568256E9
:100920007247E2475248C248324EA24E124F824F9F
:10093000216173002030397106DE16DC1ADA1ED808
:100940002AD62ED432D236D03ACE3ECC42CA46C86F
:1009500072C676C47AC27EC0EF30E00D93050008FF
:1009600037350140130505C0EF10602815E5EF305D
:10097000C00EF250E2525253C2533255A255125693
:1009800082567247E2475248C248324EA24E124F38
:10099000824F2161730020309305000837350140F4
:1009A000130505C0EF106026D9B7397106DE16DCD5
:1009B0001ADA1ED82AD62ED432D236D03ACE3ECC2F
:1009C00042CA46C872C676C47AC27EC0EF30A0065C
:1009D000854537350140130505C0EF10402115E569
:1009E000EF30A007F250E2525253C2533255A25593
:1009F000125682567247E2475248C248324EA24EC1
:100A0000124F824F216173002030854537350140F8
:100A1000130505C0EF10601FE1B7397106DE16DC63
:100A20001ADA1ED82AD62ED432D236D03ACE3ECCBE
:100A300042CA46C872C676C47AC27EC0EF20B07F72
:100A40009305000437350140130505C0EF10201A47
:100A50001DED9305000237350140130505C0EF1069
:100A600000191DEDEF20707FF250E2525253C25335
:100A70003255A255125682567247E2475248C24832
:100A8000324EA24E124F824F2161730020309305E7
:100A9000000437350140130505C0EF10001755BF9E
:100AA0009305000237350140130505C0EF10E0152E
:100AB00055BF397106DE16DC1ADA1ED82AD62ED4B6
:100AC00032D236D03ACE3ECC42CA46C872C676C47E
:100AD0007AC27EC0EF203076894537350140130554
:100AE00005C0EF10C01031ED9145373501401305B9
:100AF00005C0EF10C00F31EDA1453735014013059A
:100B000005C0EF10C00E31EDC1453735014013056A
:100B100005C0EF10C00D31EDEF203074F250E252FD
:100B20005253C2533255A255125682567247E2476B
:100B30005248C248324EA24E124F824F216173007A
:100B40002030894537350140130505C0EF10E00B13
:100B500061BF914537350140130505C0EF10E00A2C
:100B600061BFA14537350140130505C0EF10E0090D
:100B700061BFC14537350140130505C0EF10E008DE
:100B800061BF411106C6EF20106B85453705004057
:100B9000EF10E00511E5EF20506CB240410182807A
:100BA000854537050040EF104006F5B7397106DE80
:100BB00016DC1ADA1ED82AD62ED432D236D03ACE45
:100BC0003ECC42CA46C872C676C47AC27EC0EF2006
:100BD000906685453705004013050540EF1020015C
:100BE00015E5EF209067F250E2525253C25332554E
:100BF000A255125682567247E2475248C248324EB8
:100C0000A24E124F824F2161730020308545370577
:100C1000004013050540EF00507FE1B7397106DE53
:100C200016DC1ADA1ED82AD62ED432D236D03ACED4
:100C30003ECC42CA46C872C676C47AC27EC0EF2095
:100C4000905F85453715004013050580EF00307A29
:100C500015E5EF209060F250E2525253C2533255E4
:100C6000A255125682567247E2475248C248324E47
:100C7000A24E124F824F21617300203085453715F7
:100C8000004013050580EF005078E1B75D7186C61E
:100C900096C49AC29EC022DE2ADC2EDA32D836D61C
:100CA0003AD43ED242D046CE72CC76CA7AC87EC6FC
:100CB000EF2070589305505237450040130505400A
:100CC000EF10C00C1DE5EF205059B640A642164368
:100CD000864372546255D2554256B25622579257A5
:100CE0000258F248624ED24E424FB24F61617300D9
:100CF0002030930550523744004013050440EF1054
:100D0000A00D13050440EF1000071375F50F83D7EE
:100D10002190938617002391D19037270020130745
:100D20004719BA972380A700A947E31EF5F803A542
:100D3000418FEF20101041BF5D7186C696C49AC2E4
:100D40009EC022DE2ADC2EDA32D836D63AD43ED203
:100D500042D046CE72CC76CA7AC87EC6EF20B04D5D
:100D6000930550523755004013050580EF100002DF
:100D70001DE5EF20904EB640A642164386437254BE
:100D80006255D2554256B256225792570258F248EF
:100D9000624ED24E424FB24F6161730020309305D4
:100DA00050523754004013050480EF10E002130541
:100DB0000480EF00507C1375F50FEF50C05355BF02
:100DC000397106DE16DC1ADA1ED82AD62ED432D2B3
:100DD00036D03ACE3ECC42CA46C872C676C47AC233
:100DE0007EC0EF2050450965612985476307F502FC
:100DF000EF20B046F250E2525253C2533255A25540
:100E0000125682567247E2475248C248324EA24EAC
:100E1000124F824F21617300203009655121C9BFF3
:100E2000397106DE16DC1ADA1ED82AD62ED432D252
:100E300036D03ACE3ECC42CA46C872C676C47AC2D2
:100E40007EC0EF20503FEF205041F250E25252530B
:100E5000C2533255A255125682567247E247524843
:100E6000C248324EA24E124F824F21617300203091
:100E7000397106DE16DC1ADA1ED82AD62ED432D202
:100E800036D03ACE3ECC42CA46C872C676C47AC282
:100E90007EC0EF20503A01A0397106DE16DC1ADA66
:100EA0001ED82AD62ED432D236D03ACE3ECC42CA22
:100EB00046C872C676C47AC27EC0EF20D037EF2013
:100EC000D039F250E2525253C2533255A255125603
:100ED00082567247E2475248C248324EA24E124FE3
:100EE000824F216173002030411106C6EF20B034DB
:100EF000EF20B036B24041018280411106C6EF209A
:100F00009033EF209035B24041018280411106C6F6
:100F1000EF207032EF207034B240410182804111E5
:100F200006C6EF205031EF205033B240410182809D
:100F3000397106DE16DC1ADA1ED82AD62ED432D241
:100F400036D03ACE3ECC42CA46C872C676C47AC2C1
:100F50007EC0EF20502EEF205030F250E25252531C
:100F6000C2533255A255125682567247E247524832
:100F7000C248324EA24E124F824F21617300203080
:100F8000397106DE16DC1ADA1ED82AD62ED432D2F1
:100F900036D03ACE3ECC42CA46C872C676C47AC271
:100FA0007EC0EF205029EF20502BF250E2525253D6
:100FB000C2533255A255125682567247E2475248E2
:100FC000C248324EA24E124F824F21617300203030
:100FD000397106DE16DC1ADA1ED82AD62ED432D2A1
:100FE00036D03ACE3ECC42CA46C872C676C47AC221
:100FF0007EC0EF205024EF205026F250E252525390
:10100000C2533255A255125682567247E247524891
:10101000C248324EA24E124F824F216173002030DF
:10102000397106DE16DC1ADA1ED82AD62ED432D250
:1010300036D03ACE3ECC42CA46C872C676C47AC2D0
:101040007EC0EF20501FEF205021F250E252525349
:10105000C2533255A255125682567247E247524841
:10106000C248324EA24E124F824F2161730020308F
:10107000397106DE16DC1ADA1ED82AD62ED432D200
:1010800036D03ACE3ECC42CA46C872C676C47AC280
:101090007EC0EF20501AEF20501CF250E252525303
:1010A000C2533255A255125682567247E2475248F1
:1010B000C248324EA24E124F824F2161730020303F
:1010C000397106DE16DC1ADA1ED82AD62ED432D2B0
:1010D00036D03ACE3ECC42CA46C872C676C47AC230
:1010E0007EC0EF205015EF205017F250E2525253BD
:1010F000C2533255A255125682567247E2475248A1
:10110000C248324EA24E124F824F216173002030EE
:10111000797106D622D426D24AD04ECE52CC56CAA7
:101120005AC85EC6EF504014EF00505AEF502035B9
:10113000EF502038EF50A0601306A028930520033D
:101140000145EF102077EF506056EF50B000930646
:10115000100213060002B7150E000945EF10307B90
:1011600085450945EF20E00B85460146814513057D
:101170007003EF10804513068004A145130520027B
:10118000EF10803E8546054685456145EF10E043FA
:101190000549894A854B19A0238001909384818554
:1011A0007D569385818503A5018EEF20A06E9C401E
:1011B000E38427FF638157030D476387E7021147E5
:1011C000638AE7021547E39BE7FC83D76190D91751
:1011D0002393F190E1B783C7019081E72380719158
:1011E00075BF238001905DBF83D76190A9072393CA
:1011F000F1906DB72380019055B79701002093813E
:101200006182174100201301E1DF17C500001305BB
:10121000659797F5FF1F9385E5DE1386818563FA51
:10122000C5008322050023A0550011059105E3EABE
:10123000C5FE13858185971500209385A5056377E5
:10124000B500232005001105E36DB5FE930280086B
:1012500073A0023097F2FFFF938242DE93E2120006
:1012600073905230EF40F05D01458145EF206017EB
:10127000972200009382221773901234730020305B
:101280009317350063DA0700B707024083A70740CA
:101290007D8D3335A0008280B70702409C43CDBFCF
:1012A0009317350063D70700B707024023A2A74072
:1012B0008280B7070240C8C382805C45D9C3B706A5
:1012C00001409387064003A6064018411347F7FFE5
:1012D000718F23A0E64083A6464018411347F7FFCD
:1012E000758FD8C358413E9714431041D18E14C313
:1012F000944718411347F7FF758F98C7D447184193
:101300001347F7FF758FD8C71C454147638CE7002B
:101310003707014013070740BA9798431441558F88
:1013200098C38280B707014003A787401441558FB7
:1013300023A4E74003A7C7401441558F23A6E740E5
:1013400082805841B7070140938707403E97144376
:101350001C4193C7F7FFF58F1CC3828037070140FC
:101360008327074003274741698F09C77D8D3335A0
:10137000A000828001458280B707014023AAA740D0
:1013800082809C4593F8F700C18B81C7DC41B3E8AC
:10139000F80083C70500A9CB10418147054E3D4F9A
:1013A000930E8002930F8004214329A054C985071E
:1013B000638B6702B316FE0003D70500758FE398B1
:1013C000E6FE139727003318EF001348F8FF337633
:1013D000C8003397E800598E9845E309D7FDE31814
:1013E000F7FD14C9E9B710C103D705009307F00F43
:1013F00063FDE7045041A147054EBD4F130F800226
:10140000930E8004414331A054C915A88507638D0C
:101410006702B316FE0003D70500758FE398E6FE5A
:101420001397270001173398EF001348F8FF33761E
:10143000C8003397E800598E9845E307E7FD9845C3
:10144000E316D7FD14C9D9B750C1828019C20CC99F
:1014500082804CC982802A8663400504B707014018
:10146000DC4393160501C182370730003378E5006D
:101470006308E8021317B500635C070413570501FE
:101480001378F7000D47331707011347F7FF7D8FD8
:10149000B707000FD98F0DA0B7070140DC4FD1B7B8
:1014A000370700F17D17F98FB708014003A84800FE
:1014B0003377E80023A2E80091C5558112053395E2
:1014C000A600C98F63420602370701405CC38280D1
:1014D0001357550112073397E6001347F7FF7D8F27
:1014E000B707000FD98FC9BF370701405CCF828093
:1014F00093F735008A0713F7C50FB7050140BA9572
:1015000094453D473317F7001347F7FF758F98C58C
:1015100098453315F500598D88C58280B7E700E0FE
:10152000BC47898B95CF83460500834725009207EA
:1015300093F7F70F37E700E036972300F7405C4159
:10154000B5C703470500935757008546B396E60095
:10155000938707048A0737E700E0BA9794C382802D
:10156000B7E700E0BC47898BF9FB034715008547C7
:10157000630FF7008346050083472500920793F722
:10158000F70F37E700E036972300F7404DBF83465B
:10159000050083472500920793E707F893F7F70FB5
:1015A00037E700E036972300F74051BF03470500B7
:1015B000935757008546B396E600938707068A0738
:1015C00037E700E0BA9794C38280B7170240DC4344
:1015D000B18B11476384E70821476387E70899C700
:1015E000B7177A00938707201CC131A0B7177A007C
:1015F000938707201CC1371602405C429183BD8B44
:101600003707002013070700BA9783C607001C415D
:10161000B3D7D7005CC15442A1829D8ABA9683C6D3
:101620000600B3D6D70014C55442AD829D8A3697C2
:1016300003470700B3D7E7005CC558423983937668
:1016400037003707002013070722369703470700A4
:101650001377F70FB3D7E7021CC98280B7177A0058
:10166000938707201CC141BF371702405C43584392
:10167000C983BD8B89079316F70063CA0600371725
:101680003D0013070790B387E7021CC1ADB73717BA
:10169000024058439316E70063DA060037173D000F
:1016A00013070790B387E7021CC1B1B737177A0059
:1016B00013070720B387E7021CC135BF99C5371749
:1016C00002401C4F5D8D08CF8280B7170240984FB3
:1016D0001345F5FF798D88CF828099C53717024071
:1016E0005C4F5D8D48CF8280B7170240D84F1345BD
:1016F000F5FF798DC8CF8280035705008D679387EA
:1017000007047D8F83D7050083D62500D58F83D628
:101710004500D58F83D66500D58F83D68500D58FBC
:1017200083D6A500D58F83D6C500D58F83D6E50097
:10173000D58FD98F2310F5000357C501FD77938707
:10174000F77FF98F231EF50083D705012318F500D5
:10175000828081C98357050093E707042310F500B1
:10176000828083570500C207C18393F7F7FBC20746
:10177000C1832310F500828083570500C207C1830F
:1017800037370140130707C06300E50437070040FF
:101790006307E506130707406303E50637170040B4
:1017A00013070780630DE50493F7F7CF03D76500B0
:1017B000D98F2310F50083D745002316F50283D770
:1017C00005002314F50285A093F7F7F803D7250049
:1017D000D98F93F7F7CF03D76500D98F2310F50082
:1017E00083D745002316F50283D705002314F5029D
:1017F00003C78500B73701402398E7C22DA093F7B0
:10180000F7F803D72500D98F93F7F7CF03D76500F3
:10181000D98F2310F50083D745002316F50283D70F
:1018200005002314F5028547231AF50082808357AB
:101830000502C207C183F99BC207C1832310F502C9
:1018400083570502C207C18383564500C206C18281
:1018500003578501420741831377C7F803D6050074
:10186000518FF59B03D6850003D82500336606010A
:10187000D18F37360140130606C0630DC500231211
:10188000D500231CE50003D76500231AE5022310C9
:10189000F5028280DD9B03D6A500D18FED9B03D698
:1018A0004500D18F93F6F6CF03D6C50003D8E500E7
:1018B00033660601D18EE1B783570502C207C183A3
:1018C000BD9BC207C1832310F50283570502C207DF
:1018D000C1830356450042064182835685016577E0
:1018E0001307F7CF758F83D60500A206558F4207E1
:1018F000418393F7F7FD03D8850083D62500B3E62F
:1019000006019206D58FC207C183B7360140938680
:1019100006C0630DD5002312C500231CE50003D7C4
:101920006500231CE5022310F502828093F7F7F788
:1019300083D6A5009206D58FC207C18393F7F7FB24
:1019400083D645009206D58FC207C183FD76938664
:10195000F63F758E03D8C50083D6E500B3E60601D1
:101960008A06558E420641827DB783570502C2071B
:10197000C18393F7F7EFC207C1832310F5028357A2
:101980000502C207C1830356450042064182035740
:10199000C501420741831377C7F883D60500558FE9
:1019A00093F7F7DF03D8850083D62500B3E6060159
:1019B000A206D58FC207C183B7360140938606C001
:1019C000630DD5002312C500231EE50003D7650073
:1019D000231EE5022310F5028280FD769386F67FB2
:1019E000F58F83D6A500A206D58FC207C18393F7D2
:1019F000F7BF83D64500A206D58FC207C183F5760F
:101A0000FD16758E03D8C50083D6E500B3E6060142
:101A10009206558E4206418275B703570502FD773F
:101A2000FD17F98F2310F5020358050203564500F0
:101A3000420641828357C50165771307F7CF7D8F33
:101A400083D60500A206558F42074183F977FD171B
:101A5000B3F7070103D8850083D62500B3E6060156
:101A6000B206D58FC207C183B7360140938606C040
:101A7000630DD5002312C500231EE50003D76500C2
:101A80002310E5042310F5028280F176FD16758E91
:101A900083D6C5009A06558E42064182E1BFFD57A6
:101AA0002312F50023100500231305002311050060
:101AB00023040500828081C98357050093E717003E
:101AC0002310F500828083570500C207C183F99B6C
:101AD000C207C1832310F500828081C98357450462
:101AE0002167D98F2312F504828083574504C607E6
:101AF000C5832312F50482800358850042081358D9
:101B00000801035785014207418383570502C20735
:101B1000C183137888FFB365B8001377C7CF136705
:101B2000171093F7D7FD9206558ED18FC207C18348
:101B30002314B500231CE5002310F502828083578F
:101B40008501C207C183DD9BDD8D231CB50082802A
:101B500003578501FD779387F77FF98FA205CD8F16
:101B6000C207C183231CF50082808357C501C207C9
:101B7000C183DD9BDD8D231EB50082800357C50127
:101B8000FD779387F77FF98FA205CD8FC207C183B9
:101B9000231EF500828083578501C207C183ED9B18
:101BA000DD8D231CB500828083578501C207C18368
:101BB00093F7F7BFA205CD8FC207C183231CF500A1
:101BC00082808357C501C207C183ED9BDD8D231E33
:101BD000B50082808357C501C207C18393F7F7BF61
:101BE000A205CD8FC207C183231EF50082808357D3
:101BF00005010355C50042054181ED8F89C76D8DF3
:101C00003335A00082800145828093C5F5FFC2056F
:101C1000C1812318B5008280797106D622D426D2DC
:101C20002A84AE8403570501F577FD17F98F03D792
:101C30006500D98F2318F5000357C500FD779387FA
:101C4000379FF98F03D74500D98F03D78500D98FE8
:101C500003D7A500D98F2316F50083574501C20786
:101C6000C18393F7F7CF03D7C500D98F231AF500A7
:101C70006800EFF09F95B7470140938707806301A5
:101C8000F40652478357C400C207C18763CC0704D8
:101C900093171700BA978E07BA9798400A07B3D7D9
:101CA000E70213074006B3D6E7029206B3F7E7024E
:101CB0000357C40042074187634007049207938794
:101CC000270313074006B3D7E702BD8BD58FC207A2
:101CD000C1832314F400B25022549254456182808F
:101CE00062474DB793171700BA978E07BA97984077
:101CF0000607B3D7E70275B7139737001307270313
:101D0000930740063357F7021D8BB367D700C1B75F
:101D100081C98357C5000967D98F2316F5008280D2
:101D20000357C500F977FD17F98F2316F500828058
:101D300093F7F50F95830547B315B700638CE7005C
:101D4000894613074501638AD70019CA1C43DD8DF4
:101D50000CC382801307C500CDBF13070501F5B77B
:101D60001C4393C5F5FFFD8D0CC3828093F5F51FD1
:101D70002312B5008280035545001375F51F82803C
:101D8000035505006D8D3335A000828093F7F50F64
:101D9000958385463397B6006388D7028946638961
:101DA000D702835745017D8F035505009317050121
:101DB000C183014509CBA1810545B315B50033F5B4
:101DC000B7003335A00082808357C5007D8FE9BFFF
:101DD000835705017D8FC9BFA1818547B397B700A0
:101DE00093C7F7FFC207C1832310F500828001115A
:101DF00006CE22CC26CAB16783A447D70564130454
:101E00000480C0C82306A100A306B1008946700063
:101E1000B2850545EF10C01E80C8F2406244D2442E
:101E200005618280011106CE22CC26CA4AC82E89BD
:101E3000B16783A447D7056413040480C0C8136541
:101E400005F82306A10083C70500A306F100894613
:101E50007000B2850545EF10A01A8347D10023001A
:101E6000F90080C8F2406244D24442490561828050
:101E7000411106C622C426C2B16783A447D70564B0
:101E800013040480C0C8AE862A86AA850545EF10D3
:101E9000201780C8B240224492444101828001113F
:101EA00006CE22CCA307010049449305F100130597
:101EB00050078D3F15458145EF1020188347F100ED
:101EC000E39587FEF240624405618280011106CEEF
:101ED00022CCA307010029458145EF1000160948CF
:101EE00081472D4793062002130610029305000236
:101EF0000545EF1020016537930500081305B0066E
:101F0000FD3509458145EF10401313041004930576
:101F1000F1001305B006393729458145EF10E0116E
:101F20008347F100E39587FE85451305B006C1356B
:101F300081451305C006653D854569454D3D9D4577
:101F400065457535E1456D455D35C145714545359D
:101F50008D457545693DF2406244056182800111FD
:101F600006CE9307B0FB2304F1009D4528000937F6
:101F700083479100A2070347A100D98F239EF184D4
:101F80008347B100A2070347C100D98F239FF18483
:101F90008347D100A2070347E100D98F2390F18640
:101FA000F24005618280011106CE930730FC2304C4
:101FB000F1009D4528006D3D83479100A20703472E
:101FC000A100D98F2391F1868347B100A20703476F
:101FD000C100D98F2392F1868347D100A20703471E
:101FE000E100D98F2393F186F240056182800111CF
:101FF00006CE22CC26CAA307A100B16703A4C7D787
:10200000A16444C891675CC8854601469305F10008
:102010000145EF00F07E04C8F2406244D2440561FD
:102020008280011106CE22CC26CAA307A100B16787
:1020300003A4C7D7A16444C891671CC8854601465C
:102040009305F1000145EF00B07B04C8F240624403
:10205000D24405618280011106CE22CC26CAB16726
:1020600003A4C7D7A16444C8935785002306F10091
:10207000A306A10091671CC8894601466C00014572
:10208000EF00107804C8F2406244D24405618280B7
:10209000011106CE22CC26CA4AC84EC6AA89AE84F1
:1020A000328936841305A0029937138589024205C7
:1020B000418155371305890242054181693F130566
:1020C000B002353713854403420541816937130552
:1020D00044034205418141371305C002093FF240E4
:1020E0006244D2444249B24905618280011106CE60
:1020F00022CC26CA4AC84EC6AA8493066008130694
:10210000F00E8145014569371309000F93097008E6
:1021100039A07D19420913590901630A09004E8447
:102120002685153F7D14420441807DF8DDB7F240DD
:102130006244D2444249B24905618280411106C6D7
:1021400022C426C2014881471307F00493063002D7
:10215000054681450145EF00F05A930600310546DA
:10216000854513050008512C93060031014685452D
:102170001305E004592493060031014685451305F3
:10218000D004A52CB16703A4C7D7896444C813053C
:10219000800C8145EF00706A04C813054006814534
:1021A000EF00B069130560039935130540068145BA
:1021B000EF00B0681305000AAD351305A003053D17
:1021C000154585351305200B1D353145993D3145A4
:1021D000893D0145B93513053003A1351305300399
:1021E00089351305700B2135130550031D3D13056B
:1021F000B00BF53B130570032D351305000CC53BE3
:102200001305C002393D1305200CD5330545113D9A
:102210001305300CE93B494529351305400CC13BFA
:1022200013050002FD3B1305600CD1333D45D53B42
:102230001305000D6D3B1305400AE5331305100A25
:10224000CD331305000E65331305000DD93B114541
:10225000C93B3545F9334545E9334D45D933130578
:10226000B002C1331305F0036D3B13054005553B28
:102270001305C0047D3361456D3335455D332D4510
:102280004D337D45793B13053002613B1305100E3C
:10229000B93B1305000D713311456133314551339D
:1022A000454541334D45B53B1305C0029D3B1305E4
:1022B000F003853B13054004AD331305100595333A
:1022C0001305F002B93B7D45A93B7D45993B1305BC
:1022D0000002813B13053002A93313051002013BB4
:1022E00045453133130580078145EF00105513052F
:1022F0009002F53941657D15D53BB24022449244A8
:1023000041018280797106D622D426D24AD04ECE9F
:1023100052CC56CA5AC85EC662C466C22A8C12061D
:10232000930A06E0AD67938747783389FA00930AEA
:102330000901B3852541939B050193DB0B01130B29
:102340007500420B135B0B01A14CC169138AF9FFA5
:10235000938909801DA05285EFF0FFCF85807D1401
:102360001374F40F01C893F71400F5D74E85EFF0FE
:102370009FCEEDB70509630F5901B3852B01C20547
:10238000C181AE865A866285EFF09FD083440900F2
:102390006684D1BFB250225492540259F249624A23
:1023A000D24A424BB24B224C924C45618280011181
:1023B00006CE22CC26CA4AC84EC6B28903060600FB
:1023C00015C62A8492051399050113590901814400
:1023D000CA852285053F8504C204C180B387990060
:1023E000038607002104420441807DF2F2406244EA
:1023F000D2444249B249056182801307000863064E
:10240000E510797106D622D426D24AD04ECE52CCCF
:102410009357550013F977001374F501368AB28982
:10242000AE848DCB05476389E7060947638BE706D2
:102430000D47638DE70611476380E70815476383FF
:10244000E7081947639CE700854513050010EFF086
:10245000EFA629A085451145EFF04FA68547339497
:10246000870042044180231281006383F40693763F
:10247000FA0F36C613172900B167938747D7BA9763
:102480004C008843EFE0FFEFB250225492540259BF
:10249000F249624A4561828085452145EFF00FA2ED
:1024A00075BF85454145EFF06FA14DBF85451305CB
:1024B0000002EFF0AFA05DB7854513050004EFF013
:1024C000EF9F69BF854513050008EFF02F9F79B78F
:1024D00093170A01C183A1839DE78D473EC493767C
:1024E000FA0F36C613172900B166938646D736977A
:1024F00004434C002685EFE0DFE84E86A285268562
:10250000EFE0DFF451B73EC4D9BF82809357550046
:102510009D8B7D890547638DE5008A073167130729
:1025200047D7BA97984385473395A70048CB828011
:102530008A073167130747D7BA979843854733957A
:10254000A70008CB8280135735009376C701316707
:10255000130747D736971C43984785473395A700FD
:10256000798D3335A0008280011106CE22CC26CA97
:102570004AC82A84AE84328985450545EFF00F9418
:10258000CA860146814522858D3D135554009375B9
:10259000F4011375F50FEFE0BFF58547339487001D
:1025A00022C002C226C43EC60A85EFE01FD1F24017
:1025B0006244D244424905618280B7E700E07D571A
:1025C00023A0E71823A2E7188280011106CE230476
:1025D000A100A304B1002305C10036C62800EFE026
:1025E000FFF337E600E01842FD76F98E03A701926B
:1025F000558F23A0E19258429387019212071183CD
:10260000D443558FD8C303C7870085476305F700B8
:10261000F240056182805537E5BF411106C6930738
:1026200000206301F51E63F1A704930730216306C0
:10263000F52263EBA70E930730206305F51E63F4C4
:10264000A70C930710216308F51E63EFA71E9307DD
:102650000021631CF5129306803101468545130560
:102660006004EFF09FD915A2930710106302F514D0
:1026700063FBA70293070011630CF51463F5A7062B
:10268000930720116307F516636CF5149307301157
:10269000631DF50E93068031014685451305B00292
:1026A000EFF0BFD5DDA089476304F50E63F1A70203
:1026B0008D476307F50E930700106318F50C93061A
:1026C0008031014685450145EFF03FD37DA85DC5CA
:1026D0008547631CF50A93068031014685452545EB
:1026E000EFF0BFD15DA093072010630BF50C9307AB
:1026F0003010631CF50893068031014685450D4571
:10270000EFF0BFCF59A0930710206305F510930792
:102710002020631CF506930680310146854513058C
:102720000002EFF09FCD95A0930700306309F514E8
:1027300063F5A702930720306305F516636AF51465
:10274000930730306313F5049306803101468545C5
:1027500013059002EFF07FCA0DA8930700226307CC
:10276000F510930710226312F5029306803101469B
:10277000854513055002EFF05FC801A8930680312C
:10278000014685452145EFF05FC7B2404101828097
:1027900093068031014685452945EFF01FC6F5B700
:1027A00093068031014685452D45EFF01FC5F1BFE9
:1027B00093068031014685450545EFF01FC4F1B70A
:1027C00093068031014685450945EFF01FC375BF6B
:1027D00093068031014685453D45EFF01FC275B730
:1027E000930680310146854513053002EFF0FFC0A6
:1027F00069BF93068031014685451305A002EFF0BD
:10280000DFBF61B793068031014685451945EFF07A
:10281000DFBEA5BF93068031014685451D45EFF01B
:10282000DFBDA5B79306803101468545130510022B
:10283000EFF0BFBC99BF9306803101468545130573
:102840007004EFF09FBB91B7930680310146854538
:1028500013058004EFF07FBA0DBF93068031014667
:10286000854513059004EFF05FB905B793068031F5
:102870000146854513054002EFF03FB839B793068E
:1028800080310146854513056002EFF01FB7F5BDA5
:10289000930680310146854513057002EFF0FFB5C0
:1028A000EDB5930680310146854513058002EFF0B2
:1028B000DFB4E1BD397106DE22DC26DA4AD84ED615
:1028C000AA84AE893289EFF05FD513D4840075C035
:1028D00085476307F40E8947630CF4108D47630F37
:1028E000F41285450545EFE07FDDB7170240DC4374
:1028F000C983BD8B37177A0013070720B387E70218
:102900003727F40013070740BA9723A4F18633D77B
:102910003703418393051700B3853503B3D7B70257
:102920009386F7FF231CD100231AE100231D010029
:10293000231B0100230E0100130700072312E100EF
:1029400005472313E10023140100C207C183B387A5
:102950002703096713070771B3D7E7022315F100AF
:1029600089472316F1002317F100231801002319CA
:1029700001000A04B167938747D83E9400404C0891
:102980002285EFE07FDF8D88F9C08547638CF40EE8
:1029900089476387F4104C002285EFF00F88A1452A
:1029A0002285EFF0AF9D930500402285EFF08FA2C6
:1029B0005DA88545056513050580EFE03FD015B797
:1029C00085450545EFE07FD185450545EFE01FCF03
:1029D00093D7440041476388E7044547E397E7F00E
:1029E00085453705180013050530EFE0DFA6F5BD76
:1029F00085450945EFE07FCE85450545EFE01FCCD5
:102A000093D74400130710026397E70285453715F3
:102A10001A00130505C0EFE01FA4C1BD854511458F
:102A2000EFE0BFCB7DBD85453705160013050504D6
:102A3000EFE07FA25DBD13072002E398E7EA85453A
:102A400037151A0013050580EFE0FFA079BD4C0093
:102A50002285EFE0DFDDA1452285EFF04F8E914525
:102A60002285EFF04F9385452285EFF0CF84854591
:102A70002285EFF08F86F2506254D2544259B259F7
:102A8000216182804C002285EFE01FE3A145228571
:102A9000EFF00F8C930500402285EFF0EF90E1B747
:102AA0004C002285EFE07FECA1452285EFF0EF8B13
:102AB00091452285EFF0EF907DB71357850093176E
:102AC0002700B166938646D8B6979C4383D7C70242
:102AD000B385F502896793870771B3D5F50201EFD6
:102AE0000D89B75700109387D7B03E950A05C205E8
:102AF000C1810CC1828085476309F7008947630063
:102B0000F7028D476308F70282800D89B70700102E
:102B1000B5073E950A05C205C1810CC182800D89A9
:102B2000B70700109387D7103E950A05C205C181EB
:102B30000CC182800D89B70700109387D7203E957E
:102B40000A05C205C1810CC1C1B7411106C622C424
:102B50002E841DC989476308F5069147630CF50665
:102B600099476300F508A1476304F508A94763097D
:102B7000F508B1476310F5029146014681451305FA
:102B80006002EFF09F8739A09146014681452145BB
:102B9000EFF0BF868547630DF4068D476301F408A7
:102BA00095476305F4089D47630AF408A547630E3B
:102BB000F408AD476303F40AB5476308F40AB2406A
:102BC0002244410182809146014681450145EFF052
:102BD000DF82C9B79146014681453D45EFF0FF814F
:102BE00055BF9146014681451945EFF01F815DB7FC
:102BF00091460146814513056004EFF01F8059BFDF
:102C000091460146814513054002EFF00FFF59B789
:102C10009146014681452545EFF02FFE4DB791467F
:102C2000014681450545EFF04FFD51BF91460146F4
:102C3000814513053002EFF04FFC51B79146014634
:102C400081451D45EFF06FFB9DBF914601468145D3
:102C500013057004EFF06FFA9DB791460146814568
:102C600013055002EFF06FF999BF91460146814577
:102C700013057002EFF06FF899B7011106CE22CC60
:102C800026CA4AC82A84AE84328931C58547630B77
:102C9000F5048947630DF5048D47630FF504CA8574
:102CA0002685EFF09FEA85450545EFE03FA1914776
:102CB0006389F404A147638AF40AA9476396F4047C
:102CC000AD476313F904854537151A0013050580D0
:102CD000EFE06FF815A88545056513050580EFE061
:102CE000FF9D75BF85450545EFE03F9F4DBF85457D
:102CF0000945EFE09F9E65B785451145EFE0FF9DD3
:102D000079BF9547630BF9044800EFE05FD9854729
:102D10002312F100FD572314F100231501002313A2
:102D20000100230601000A04B167938747D83E9447
:102D300000404C002285EFE03FA4814601468945D2
:102D40002285EFE07FDB85452285EFE0DFD6F2408C
:102D50006244D244424905618280854537051800A6
:102D600013050530EFE02FEF45B7A547E31EF9F84F
:102D7000854537151A00130505C0EFE0CFED69B79B
:102D80000A05B167938747D8AA979C4303D54702A2
:102D90004205418582800A05B167938747D8AA9783
:102DA0009C43239207028280411106C622C426C298
:102DB0004AC0AE84328436892DCDC1476303F508FD
:102DC000930700026318F508930680310546854590
:102DD0001305D002EFF06FE28547638CF408C54716
:102DE0006381F40A930710026396F40A9306803114
:102DF000054685451305F002EFF02FE08947630A89
:102E0000F40AC947630FF40A930720026304F40C21
:102E1000930730026319F40C93060031054685458B
:102E20004A85EFF08FDDB2402244924402494101CD
:102E3000828093068031054685451545EFF0EFDB2E
:102E400061BF930680310546854513053002EFF0DA
:102E5000CFDA59B7B7C60000938646DA3166130653
:102E600046D99305D00237C50000130585DAEF6017
:102E7000604593068031054685451D45EFF0EFD747
:102E8000B5BF930680310546854513055002EFF026
:102E9000CFD6ADB7B7C60000938646DA31661306C3
:102EA00046D99305200337C50000130585DAEF6086
:102EB000604193068031054685451945EFF0EFD313
:102EC000A1BF930680310546854513054002EFF00A
:102ED000CFD299B793068031054685451305E002A8
:102EE000EFF0AFD115BFB7C60000938646DA316662
:102EF000130646D99305800337C50000130585DA0C
:102F0000EF60403C397106DE22DC26DA4AD84ED624
:102F100052D456D25AD02A84AE89328AB68A3A8B93
:102F2000BE84428949C585476309F508DA86568615
:102F3000D2854E85EFF05FE723160100930740101E
:102F40002317F1002318010085476383F408939742
:102F50008401E187ADCB89476382F4088D4763859F
:102F6000F40893070020231BF1000E09231C210104
:102F7000231D01009D47231EF1000A0413850183D0
:102F8000229500416C002285EFE00FF7C147638472
:102F9000F90685452285EFE0CFFBF2506254D2540A
:102FA0004259B259225A925A025B21618280854568
:102FB00005650505EFE08FF095BF854511650505B1
:102FC000EFE0AFF1A5B723190100231A010051BFAB
:102FD000231901008547231AF10061B78947231996
:102FE000F100231A0100B5BF89472319F100854775
:102FF000231AF100BDB785450545EFE0CFC551BFA8
:10300000AE96938701830A053E956387B602184101
:1030100083578700898BEDDF850583C7F5FF23166E
:10302000F70065D683578700858BEDDF8357C70090
:103030002300F6000506D1BF8280411106C6EF10BD
:103040009034B24041018280411106C60DE58547AA
:103050006385F500B24041018280930680310146CC
:1030600085452545EFF06FB99146014681452945D3
:10307000EFF0AFB8C5B789476309F502C1476306EA
:10308000F504930700026310F506930680310146AC
:1030900085451305A002EFF04FB6914601468145E4
:1030A0001305B002EFF06FB575B793068031014696
:1030B000854513056002EFF04FB491460146814506
:1030C00013057002EFF06FB371B7930680310146BC
:1030D00085450945EFF06FB29146014681450D45A2
:1030E000EFF0AFB185BF93072002E315F5F6930625
:1030F0008031014685451305A004EFF00FB09146DD
:10310000014681451305B004EFF02FAFA1B77971E7
:1031100006D622D426D24AD04ECE2A84AE89B28494
:10312000368985450545EFE06FD9CA852685EFF0DC
:10313000BFF189476381F402930720026390F40290
:1031400093073002631CF9008545370514004105DB
:10315000EFE06FB021A08D47630AF90429CC8547C1
:103160006300F40689476303F4064EC0231201008E
:10317000231301002314010023160100B147231576
:10318000F1000A04B167938747DD3E9400408A85C9
:103190002285EFE07FA885452285EFE07FB7B2501A
:1031A000225492540259F249456182808545114565
:1031B000EFE06FAA65B785451165EFE02FD075B7D1
:1031C000854537050200EFE04FD145B78545370506
:1031D0000400EFE08FD051BF0A05B167938747DD48
:1031E000AA9798438357070093F70708E5DFC205BE
:1031F000C1812312B7008280411106C622C426C2B3
:10320000AA842E8483C5050081C905042685EFF0B4
:10321000BFFC83450400F5F9B240224492444101C9
:103220008280411106C622C426C22A84AE841317A6
:103230002500B167938747DDBA970546930550523D
:103240008843EFE0FFAEA68601468545130554038B
:10325000EFF0AFB7B24022449244410182800A05A8
:10326000B167938747DDAA9798438357070093F781
:103270000702E5DF835747002380F500828003A51E
:10328000C1868280411106C69387C186984305078F
:1032900098C3EF1040733C41FD173CC191C7EF103C
:1032A0001036B240410182805C5D3CC1EF10007E6F
:1032B000FDB7634205029307803E3347F5023307AB
:1032C000F7023365F5023305F5021305753E334504
:1032D000F5023A9582807D558280014582800145C4
:1032E0008280014582800145828035671307C7AE21
:1032F000B567938707AF637CF702411106C622C406
:1033000026C235649304C4AEB5679387F7AE858F44
:10331000F19B9107BE941304C4AE1C408297110424
:10332000E31D94FEB2402244924441018280828097
:103330003567130707AFB567938787AF637CF702DD
:10334000411106C622C426C23564930404AFB56792
:10335000938777AF858FF19B9107BE94130404AFD9
:103360001C4082971104E31D94FEB2402244924413
:10337000410182808280411106C6EFF07FFBEFD0D1
:103380003FD9B24041018280411106C6D1470D4765
:10339000930600400146B73500009385653737C571
:1033A0000000130545DEEF106062EF10F003B2403D
:1033B00041018280411106C6EFC09FD8EF209029BD
:1033C000EF001059EF10B02CEF10802FEFF0DFFB63
:1033D000EF10902CC128EF1080310145B24041011F
:1033E0008280411106C6EFF0FFFC0145B240410169
:1033F000828003A7818993878189630FF708011170
:1034000006CE22CC26CA4AC84EC652C456C293899A
:103410008189854A2DA02685EF10002A630A55056B
:10342000EF10C0425285EFC01FD24848EF10400550
:103430002685EF10202583A7818963863705EFC095
:103440003FD02A8A83A78189638D370303A48189AA
:103450009304C4FE18405C405CC3184098C340C04D
:1034600000C0EF10A03C7C4CDDD72685829765B765
:103470002685EF100018EF10603D5285EFC0BFCCDD
:1034800019A0EFC05FCCF2406244D2444249B24935
:10349000224A924A056182808280411106C6EFF07D
:1034A0005FF5F5BF411106C622C4930800021D480E
:1034B000930700301387419A814637360000130680
:1034C000A649B7C500009385C5DE1385C192EF10EC
:1034D00080441385C192EF102071B2402244410113
:1034E0008280411106C622C426C24AC02A8432897B
:1034F000B6842E868945EF10A008930744011CCCA2
:103500005CC8231E2401A30494000145B240224458
:103510009244024941018280411106C622C426C25A
:10352000AE843284AA850945EF10800F09C993073C
:1035300045011CCD5CC9231E9500A3048500B24043
:103540002244924441018280797106D622D426D247
:103550004AD04ECE52CC2A842EC6EFC07FBEAA8956
:103560008357C401A1E7B247A9CBEF10C045AA8495
:103570002328050213094401034A9400EF10C056A2
:1035800063010A0485476308FA04B2476348F008F8
:103590004E85EFC05FBBEF1060188858B2502254C0
:1035A00092540259F249624A45618280FD17231EF6
:1035B000F400EFC05FB90145D5B7EFC0DFB879556A
:1035C000F1BF93874401184C1CC3184C98CC1CCCF9
:1035D00023AA24015DBF5C486308F90283C6540333
:1035E00003C7170263E9E6009C43630FF90003C7B2
:1035F0001702E3FBE6FE13874401D44398C2D44389
:1036000094CCD8C3DCC851B793874401184C1CC371
:10361000184C98CC1CCC23AA240185BF13844404E5
:10362000700081452285EF1080792285EF10406B74
:1036300085B7411106C622C426C22A84EFC05FB0F6
:10364000AA844848930744016300F5023115EF103E
:10365000A0542685EFC03FAFEF10400C0145B240AB
:1036600022449244410182808357C4018507231E6E
:10367000F4002685EFC03FADD5B7411106C622C480
:1036800026C24AC0AE843289AA851545EF0050791A
:103690002A841DC9A3042501930745011CCD5CC9DB
:1036A000231095021395040141810A05EF00B047EC
:1036B00048CC15C12311040223120402231304026F
:1036C000930784025CD41CD42285B24022449244E5
:1036D0000249410182802285EF00D07A0144EDB792
:1036E000397106DE22DC26DA4AD84ED652D456D2BA
:1036F0005AD05ECE62CC66CA2A842E8C32C6EF10B7
:10370000802CAA84EFC0DFA3AA8903572402835721
:1037100004026309F704035744025C4C0A07BA9792
:1037200023A08701835744028507C207C183231260
:10373000F4020357040263E4E700231204028357F0
:10374000240285072311F4024848510463078512B7
:103750003115EF1060444E85EFC0FF9EEF00107CE6
:10376000014525A0B247814C89CB130A8402938A74
:103770004401054B938B4404B9A8EFC0DF9C7555F9
:1037800029A04E85EFC03F9C7555F2506254D2542B
:103790004259B259225A925A025BF24B624CD24CB5
:1037A000216182805C5423A057015C549CCC232669
:1037B000540323AA4401B2476345F0084E85EFC085
:1037C0009F98EF00B075885869F1EFC07F97AA897C
:1037D000B2476344F0080357240283570402E31CF2
:1037E000F7F223A80402B247C9DF034994002685F3
:1037F000EF10802FE30809FAE31F69FB1C546308EC
:10380000FA0283C6540303C7170263E9E6009C4328
:10381000630FFA0003C71702E3FBE6FED843232039
:103820005701D84398CC23A25701DCC869B75C5430
:1038300023A057015C549CCC2326540323AA4401A3
:103840009DBFEFF0DFA3AA8C700081455E85EF106D
:1038500000575E85EF10C04895B7EFF05FA23307C1
:103860009541B247E6973385A740634505002AC6D0
:10387000BA8C95B702C6BA8CB9BF4E85EFC0BF8C63
:10388000014521B7411106C60146EFF07FE5B24080
:1038900041018280397106DE22DC26DA4AD84ED612
:1038A00052D456D25AD05ECE62CC66CAAA842E8C2E
:1038B00032C6EF1040112A84EFC09F88AA8983D7AF
:1038C0002402639C0710B247814C89CB138A4401C0
:1038D000930A4401054B930B44048DA0EFC0BF86AF
:1038E000795539A04E85EFC01F86F9571CD87955F8
:1038F000F2506254D2544259B259225A925A025B3F
:10390000F24B624CD24C216182809C4C23A0570127
:103910009C4C1CCC23AC5401232A4401B247634283
:10392000F0084E85EFC03F82EF00505F085869F104
:10393000EFC01F81AA89B2476341F00883D72402F0
:10394000C9EF23280402B247D1DF03C994002285BE
:10395000EF108019E30B09FAE31269FDDC486308F4
:10396000FA028346540303C7170263E9E6009C4347
:10397000630FFA0003C71702E3FBE6FED8432320D8
:103980005701D84318CC23A257015CC841BF9C4CB7
:1039900023A057019C4C1CCC23AC5401232A440186
:1039A000B5BFEFF0DF8DAA8C700081455E85EF100A
:1039B00000415E85EF10C032ADB7EFF05F8C33078A
:1039C0009541B247E6973385A740634505002AC66F
:1039D000BA8CADB702C6BA8C95B703D76402DC4C7B
:1039E0000A07BA979C432320FC0083D7640285070B
:1039F000C207C1832393F40203D7040263E4E70000
:103A00002393040283D72402FD172391F4028854E0
:103A100093848402630C95003115EF10E0174E85F6
:103A2000EFC06FF2EF00904F0145D9B54E85EFC062
:103A30008FF1014575BD411106C6EFC06FF01387C8
:103A4000018783470700850793F7F70F2300F700E7
:103A5000EFC06FEFB24041018280411106C6EFC056
:103A60002FEE1387018783470700FD1793F7F70FA2
:103A70002300F700EFC02FEDB240410182804111D9
:103A800093780804639F0802316F130F8F0E9378A9
:103A90000801638C08021378E8FF93020002937810
:103AA000280063840804634B060293784800930F50
:103AB000B002639D0802937F8800B33FF001960F28
:103AC00035A0316F130F4F04D9B7937818009302C4
:103AD0000003E39608FC93020002D1B73306C0400E
:103AE000930FD0028148A94E81A8814F65FE9306AD
:103AF00000032300D1008548468E63D3F8003E8E34
:103B00003307C74193761801BDE263880F10635EE7
:103B1000E00E1303E7FF854663C5E6101A87FDA094
:103B20001373F60011828508330E11017A93034353
:103B30000300A30F6EFE69D2E394D6FF3373D6035E
:103B40003356D603CDB70507B306E6406357D0001A
:103B5000E37BB7FE2300D701FDB71307F3FF13463E
:103B6000F3FF7D86B376C300158F85063695639F78
:103B70000F0813780801631208029306F7FF6357D2
:103B8000E0042A9721A005056307E500E37DB5FE63
:103B900023005500CDBF3A857D57B3061E41AA9636
:103BA0001306000363CFC801AA86635F10038DCF9D
:103BB00046830A8533061501B68739A80505E3064D
:103BC000D5FEE37DB5FE2300C500CDBF3687F1B736
:103BD00085077D166309A600E3FCB7FE0348F6FFE0
:103BE00023800701F5B79A963385E6009307000214
:103BF0006348E0003685410182808506E38DA6FE9C
:103C0000E3FDB6FE2380F600CDBF7D176374B500DB
:103C10002300F5017D170505A9BF1303F7FF6359BD
:103C2000E0002A87930E0002130615001A960DB7BE
:103C30001A8781B78D4763F9C700937735008DC721
:103C40001307F6FFAA8729A0AA871307F6FF01CE5C
:103C500005073E978507A38FB7FEE39DE7FE8280A9
:103C6000BA874286DDB7828093F7F50F9396870077
:103C7000D58F93960701DD8EBD4763F1C704930787
:103C800006FFC19BC107AA972A8714C354C314C750
:103C90004107232ED7FEE39AE7FE1378F600318A18
:103CA00061D29307C8FFF19B9107BA971107232EA2
:103CB000D7FEE31DF7FE1376380041BF2A8732880E
:103CC000CDB763E0A502B306C500AA8711CA850572
:103CD00085070387F5FFA38FE7FEE39AD7FE82806F
:103CE00082803387C500E370E5FEB307C50065DA5F
:103CF0007D17FD17830607002380D700E31AF5FE22
:103D0000828009CEAA868505938716000387F5FF72
:103D1000A38FE7FE09C77D16BE8675F6828013075E
:103D2000F6FF6DDF36968507A38F07FEE31DF6FECF
:103D300082808307050089CBAA8785070387070050
:103D40006DFF3385A7408280AA87E5BF5D7186C677
:103D5000A2C4A6C2CAC04EDE52DC56DA5AD85ED61B
:103D600062D466D26AD06ECEAA8C2E8D368CB30AFF
:103D7000B50063F5AA00134DF5FFFD5A8307060051
:103D8000E68963820736930B50021309B00231674C
:103D9000930D47DF41677D173AC409A8850932842E
:103DA0001306140083071400638F073263877701BB
:103DB000E3F659FF2380F900D5B781441307D002F9
:103DC00093060002930530021305000321A093E43B
:103DD000040122861304160083071600E389E7FE18
:103DE000638B2701638CD700638DB700639EA700A8
:103DF00093E41400F9BF93E44400E1BF93E484002A
:103E0000C9BF93E40402F1B73E87938607FDA54539
:103E100063F6D5041307A0027D5A6382E706030701
:103E200004009307E0027D5B6309F7068307040043
:103E300013F6B7FF930680060147630CD60A834743
:103E400004009387B7FD13F6F70F9306300563E878
:103E5000C62093172600EE979C438287014AA54609
:103E6000050493172A003E9A060A3A9A130A0AFD95
:103E700003070400930707FDE3F4F6FE4DB71304B0
:103E8000260093074C00032A0C003E8CE3590AF8E5
:103E9000330A404193E4040159B713071400830720
:103EA0001400BE86938507FD25466379B600930608
:103EB000A0026386D7023A84014B8DBF014B0507F0
:103EC00093172B00DA978607B697138B07FD8306A7
:103ED0000700938706FDE374F6FE3A8429A00904DF
:103EE000032B0C00110C9347FBFFFD87337BFB007A
:103EF00035BF13F7F70F050499B7C14641AAC1882A
:103F00009DC093064C0063F6590183270C00238063
:103F1000F9009387190005476351471D52864E9A51
:103F2000130700020DA89307FAFF6351F002CE9722
:103F30001307000221A0850963873701E3FD59FFBC
:103F40002380E900CDBFBE89014A65BF3E8A55BFC7
:103F5000850763874701E3FD57FF2380E700CDBF57
:103F6000B299368C35BD93074C003EC6032C0C002D
:103F700063010C026285EFF0DFDB63556001635380
:103F8000AB005A85C18899C86350A006B387A900C1
:103F9000A9A0B7C70000138C070EE9BF9306FAFF6C
:103FA00063574503D2852A87B307AA40CE971306E5
:103FB000000221A085096387F900E3FD59FF2380F2
:103FC000C900CDBF330AB740369ABE8975BF368A5D
:103FD00065BF8509050C638AF900E3FC59FF0307F7
:103FE0000C002380E900F5B7CE87635B450F3305EE
:103FF000AA40B389A7001307000221A085076387A1
:104000003701E3FD57FF2380E700CDBF324C49BBAA
:10401000FD576302FA0293074C003EC62688DA87F2
:104020005287C14603260C00D6854E85EFF03FA58A
:10403000AA89324CB5B393E41400214AE9BF63F670
:104040005901930750022380F900850991BB93E43D
:104050000404C14625A893E42400A94605A863F6F4
:104060005901930750022380F90013871900830731
:10407000040099C763745701A380F90089090DB33F
:104080007D14BA8931BBA94611A0A1469307C00689
:104090006302F702930780066302F70203260C000F
:1040A000110C2688DA875287D6854E85EFF03F9D22
:1040B000AA89FDB103260C00110CE5B793074C004B
:1040C00003260C0013F7240009E72247798E3E8C63
:1040D000C9BF420641863E8CE9B7368CBE89C9B15C
:1040E000324CBE8975B963060D0063F55903238010
:1040F000090033859941B640264496440649F25951
:10410000625AD25A425BB25B225C925C025DF24D13
:1041100061618280A38F0AFEE9BF397106CE22CC8D
:104120002ED232D436D63AD83EDA42DC46DE5410AD
:1041300036C62A869305F007138541CAEFF01FC1E2
:10414000138541CAEF10B062F2406244216182805F
:10415000411106C637C5000013058505EFF0FFFBCA
:1041600037C5000013054506EFF03FFB37C70000D9
:10417000130787088D4605468D4537C50000130592
:104180004509EFF09FF937C500001305450BEFF027
:10419000DFF8B240410182800DC59377F50F9DE3B2
:1041A000C167938707F0E98F95E7B707FF00E98FAD
:1041B0008DEF6181B167938747F43E950345050014
:1041C000650582803167130747F4BA9703C5070076
:1041D0000505828021851375F50FB167938747F434
:1041E0003E95034505002505828041851375F50F31
:1041F000B167938747F43E950345050045058280E6
:1042000003A781875C41BA976304F50283D6270030
:1042100085E283A64187638DF60083A6C187638B01
:10422000F602D44354C1DC43BA97B306E54094C7C1
:104230001445B307D700630EF50003D6270011EA33
:1042400003A6C187630BA6005041D0C35C413E97D3
:1042500014C7828023AEA186E9B723AEF186EDB7FD
:10426000411106C683A5418837C500001305851096
:10427000EFF0BFEA83A5818837C500001305C5119B
:10428000EFF0BFE983A5018837C5000013050513CA
:10429000EFF0BFE8B24041018280411106C622C45E
:1042A00013F7C5FFE14663F9E60093073500F19B7C
:1042B000930687FE63FEF6002E86AA8537C50000AA
:1042C0001305451AEFF07FE5B24022444101828098
:1042D0001D8F130687FE23A2C188138481871CC00B
:1042E0008966938606EA2390D7005117D8C323A482
:1042F000070023910700BA9723AAF1862390D700DD
:1043000085462391D700D8C398C781460546B7C5CF
:1043100000009385C519138541D2EFF08F9C18409A
:1043200023AEE18655B763040512411106C622C4C7
:1043300026C293043500F19883A7418863EB971058
:10434000B14763F3F400B144FD55138541D2EFF05A
:10435000AF9F03A5C18783A68187B307D54003A874
:1043600041883306984063E2C706138541D2EFF0D7
:104370004FAC0145B24022449244410182808547BE
:104380002311F400938781889043329798C383A7C1
:10439000018863F0E70A23A0E18861A8835725001C
:1043A000C5C303A74187630DE50848413695835788
:1043B000250091C7E31BA7FE23AEA18651A023AE23
:1043C000A186BDA85C40E3F2C7FA3384F600035728
:1043D00024006DFB58401D8F930547FFE3E495FED5
:1043E00013868401E3EDC5F81386C4003E96338737
:1043F000C6008965938505EA2310B70023110700DD
:104400004C404CC31CC750C085472311F4005C438B
:10441000310863840701B69790C7138781881C43CE
:10442000B107BE9404C383A7018863F4970023A057
:1044300091888967938707EA2310F400E30085F6E3
:10444000138541D2EFF0EF9E1305C40025B7014557
:104450008280014505B7411106C622C426C2B304B5
:10446000B5022685EFF03FEC2A8409C526868145F2
:10447000EFF04FFC2285B2402244924441018280F9
:1044800009C983A781876366F50083A741876363B2
:10449000F5008280411106C622C426C22A849304F4
:1044A00045FFFD55138541D2EFF00F8A835764FF16
:1044B00081CB035744FF8967938707EA6303F702B9
:1044C00037C5000013050515EFF03FC5835644FFBF
:1044D000035664FFA68537C500001305C516EFF027
:1044E000DFC3231B04FE8967938707EA231AF4FEC0
:1044F00083A7C18763F4F40023AE91861387818874
:104500001C43832684FF958F83A68187B386D4407E
:10451000B6971CC32685EFF0BFCE138541D2EFF0CE
:104520004F91B2402244924441018280AA873707CA
:10453000002003270701630CE5023707002003274B
:1045400007026302E5023707002003270703630E13
:10455000E500370700200327070401456303F70040
:1045600082800D4531A0054521A0094511A00145D6
:104570009317450037050020130505013E95CDB77B
:10458000011106CE22CC26CA4AC84EC652C4AA84FD
:10459000AE89328A2E85EFF07FF92A89412C832754
:1045A000490013044900638587009C43E39F87FE0D
:1045B000712C93E909F8238434012146D28526859C
:1045C000EFF02FF4EFB0DFB79387C4000327490063
:1045D0005CC303274900D8C42322F90080C8EFB088
:1045E0009FB6F2406244D2444249B249224A056130
:1045F0008280411106C622C42A8423040500EFB03C
:104600003FB49307C40054441848D8C2544414C358
:104610001CC85CC4EFB03FB3B24022444101828069
:10462000011106CE22CC26CA4AC84EC6AA892E89B6
:10463000EFF0DFEFAA844845EFF0FFCE2A841DC9D2
:10464000D0448145EFF00FDF23043401A3040400BC
:104650002146CA852285EFF0CFEAEFB07FAE9307FF
:10466000C400D8405CC3D84058C4DCC0910404C81E
:10467000EFB07FAD2285F2406244D2444249B24954
:1046800005618280411106C622C42A8423040500E4
:10469000EFB01FAB9307C40054441848D8C2544429
:1046A00014C31CC85CC4EFB01FAA2285EFF05FDD05
:1046B000B240224441018280030585007D818280D1
:1046C000239A0188938741D413870704DCC39CC3D2
:1046D000A107E39DE7FE1D472386E18823A8018803
:1046E00023A0018A93878189DCC39CC38280411106
:1046F00006C603A5018AEFF03FAA7D159317350082
:10470000138541D43E9508411307C5FE23A8E188CF
:104710002105EFB0BFA3B24041018280411106C61E
:1047200022C4EFB0FFA12A8483974189A1E303A5A6
:10473000018AEFF07FA67D1513173500938741D4CA
:10474000BA978C439387C5FE03A701896300F702DC
:104750002386A18823A8F18883C7018793F7F70FE1
:1047600089CFA1051305C701EF0000782285EFB0BE
:104770009F9DB240224441018280A1051305C701DB
:10478000EF0040752285EFB01F9CE5B7411106C6CA
:1047900022C42A84EFB0DF9A83474403C19B93E786
:1047A0001700230AF4028347540393064401139726
:1047B0003700938741D4BA97D84314C3D84318CC51
:1047C000D4C35CC89387018A185C9443558F98C3FF
:1047D000EFB07F97B240224441018280411106C66A
:1047E00022C42A84EFB0DF95930744015448184C43
:1047F000D8C2544814C31CCC5CC8834754031397D5
:104800003700938741D4BA9798436308F700EFB015
:104810009F93B2402244410182801387018A1C5C2D
:1048200093C7F7FF1443F58F1CC3D5B7411106C6D4
:10483000EFB01F919387418903D7070005072390A5
:10484000E700EFB05F90B24041018280411106C69F
:10485000EFB01F8F1387418983570700FD17C207E9
:10486000C1872310F7006357F000EFB0DF8DB2402F
:1048700041018280239A0188EFB0FF8C83A70189D0
:10488000FDD7EFF0BFE9E5B7411106C622C426C245
:1048900003A40189EFB0DF8AAA842285EFF01FF418
:1048A0009147230AF40213054404752E2285EFF084
:1048B000BFE085476307F5021307440183A681899A
:1048C000D8C254C823ACE188938781891CCC268543
:1048D000EFB07F87EFF09FE4B24022449244410161
:1048E00082803C58F1FB2285EFF0BFD0CDB741115B
:1048F00006C6795718D9130745015049144D54C2BB
:10490000504990C218CD58C9EFF05FE8EFF01FE1B1
:10491000B24041018280011106CE22CC26CA4AC88B
:104920004EC652C456C25AC02A84328BB68ABA893D
:104930003E8A4289C6842E868545EFF07FC4930760
:1049400044011CCC5CC82320640323225403232489
:104950003403232644035286930530024E85EFF03C
:104960006FAD5C54F1171054B756000093868688DB
:104970003E964C500850152348CC230B2403A30A21
:104980002403232C040244DC24C023280402230A29
:10499000040223280406232A040681470147A2862D
:1049A000375600001306E68EA28513054404AD2495
:1049B0000145F2406244D2444249B249224A924AF5
:1049C000024B0561828003A501898280011106CE18
:1049D00022CC26CA4AC84EC652C456C2AE8A328AB1
:1049E000B684BA893E89AA850545EFF07FC349CDD3
:1049F0002A842685EFF03F9359C1930744011CCCCC
:104A00005CC8232054032322440308D444D42686BC
:104A100093053002EFF00FA25C54F1171054B75613
:104A20000000938686883E964C500850BD2148CCA5
:104A3000230B3403A30A3403232C0402232E240360
:104A40002320240523280402230A04022328040621
:104A5000232A040681470147A28637560000130621
:104A6000E68EA28513054404452A2285F24062445D
:104A7000D2444249B249224A924A05618280228543
:104A8000EFF05FC00144D5B70144C5B7411106C678
:104A9000EFB00FEB83A7018903C747033D8B854622
:104AA0006316D700D44B984F6398E600EFB0AFE998
:104AB0000145B2404101828013864701D8C2D44BE0
:104AC00014C390CFD0CB83C657038E06138741D42F
:104AD0003697544390C2544394CF50C3D8CBEFB0D1
:104AE0008FE6EFF0BFC3E9B783474503BD8B0547AA
:104AF0006390E704411106C622C426C22A84EFB09F
:104B00002FE4AA8483474403C19B93E72700230A29
:104B1000F4022285EFF09FCC1305440485242685FA
:104B2000EFB06FE20145B2402244924441018280DD
:104B30007D558280011106CE22CC26CA4AC82AC6DB
:104B4000EFB00FE02A8903A401892285EFF0DFF995
:104B500093044404700081452685952426854922C6
:104B60004A85EFB04FDEEFF07FBB1858F957630965
:104B7000F7000145F2406244D24442490561828017
:104B800023280402FDB7411106C6EFE08FF2EFF0D3
:104B90007FFAB2404101828083474503BD8B0947BC
:104BA0006392E704411106C622C426C22A84EFB0EC
:104BB0002FD9AA84930744015448184CD8C25448AA
:104BC00014C31CCC5CC8130544044D2A2685EFB0E1
:104BD0008FD72285EFF09FBB0145B240224492441B
:104BE000410182807D558280411106C6834665035E
:104BF000A30AD50205473317D70018DD0947230A52
:104C0000E502EFF07FF983A7018999C3EFF01FB1A7
:104C10000145B24041018280011106CE22CC26CA54
:104C20004AC84EC652C42A84328AB6893A89BE849A
:104C30002E86A945EFF0DF94F998A3049400232E63
:104C40004401232034032324040223222403930752
:104C500044011CCC5CC8F2406244D2444249B2498F
:104C6000224A05618280411106C622C42A84EFB01F
:104C70002FCD930744015448184CD8C2544814C34C
:104C80001CCC5CC8EFB02FCC2285EFF09F9601457D
:104C9000B240224441018280011106CE22CC26CAB4
:104CA0004AC84EC6AE893289B6843A84AA85294557
:104CB000EFF01F9719CD7998A3048500232E3501B5
:104CC000232025032324050244D1930745011CCD4D
:104CD0005CC9F2406244D2444249B24905618280D3
:104CE000411106C622C426C22A84EFB06FC59304C0
:104CF000440158481C4C5CC3584898C304CC44C871
:104D000083479400F99BA304F400EFB0CFC3EFE016
:104D10000FD75C503E9508D4EFB08FC29387818A3D
:104D2000CC431387818A370800801348E8FF11A01D
:104D30003687638CE5001443DC4A1054E38AC7FECF
:104D4000918F6374F8003687EDB79387418A944357
:104D5000850694C31C43C4C31C435CC804C318CC5D
:104D60008347940093E71700A304F400EFB0AFBDAE
:104D70000145B2402244924441018280834795001C
:104D8000858B99E37D558280411106C622C42A8411
:104D9000EFB00FBB930744015448184CD8C2544895
:104DA00014C31CCC5CC8EFB00FBA83479400F99BC6
:104DB000A304F4000145B2402244410182808547AA
:104DC0006385F50263DFB70089476384F5028D4789
:104DD000639FF5008347950093E72700A304F50040
:104DE00039A091E51C425CD119A05C511CC201455F
:104DF000828083479500F59BA304F500CDBF011188
:104E000006CE22CC26CA4AC84EC652C456C2EFE0CD
:104E10000FC72A8AEFB0CFB2AA899384818AB707D5
:104E2000008013C9E7FF8D4A8040631E94004E85C1
:104E3000EFB06FB1F2406244D2444249B249224AD3
:104E4000924A056182805C48330AFA40E36149FF77
:104E500018405C405CC3184098C340C000C01C446C
:104E600048448297EFE0AFC12A8A834754FF13F783
:104E7000370063065701F99BA30AF4FE75B7F99B47
:104E8000A30AF4FE1305C4FEEFF09FE571BF9387FC
:104E9000818ADCC39CC3828082802A881106719A31
:104EA000130506F8AA8737C7ADDE1307F7EE98C3D8
:104EB0009107E31EF6FE2322D6F82324B6FA232018
:104EC00006F9A167938707882324F6F8828023AC2C
:104ED000018A828023A8A18A23AAB18AB7E700E0C9
:104EE000116723A0E720828083A7818B99E323A801
:104EF000A18A23AAB18A054723ACE18AB7E700E07B
:104F0000116723A0E7208280411106C637C5000043
:104F100013050527EFF06FA00145B24041018280E3
:104F2000011106CE22CC26CA4AC84EC600416308EB
:104F30008502AA8437C90000B7C9000001A81385FB
:104F4000C951EFF08F9D0040638B84009305C4FE30
:104F500013058951EFF06F9C1C40E39297FEF240DD
:104F60006244D2444249B24905618280411106C679
:104F7000EFF00F9E0145B24041018280011106CE43
:104F800022CC26CA4AC84EC623A80500DC45BDC3AC
:104F900083C78500B5C32E892A8483A9050039CD2E
:104FA000EFB00F9A8347C4FF93F7F7F703478900E1
:104FB0006391E7028327490081440040638F8900A1
:104FC0008504910723AE87FE0327C900E31797FEE8
:104FD00031A0EFB04F97014431A00144EFB0AF963C
:104FE000232899002285F2406244D2444249B249C2
:104FF000056182800144FDB70144EDB7EFB04F94E5
:105000004E844DBF517186D7A2D5A6D3CAD1CECF7B
:10501000D2CDD6CBDAC9DEC7E2C5E6C3EAC16EDFC0
:105020000545EFF0AFD011052ACF85472302F10ADD
:10503000FC183ED1A1473ED502D737C60000130663
:105040008637A14537C5000013050538EFF0EF8C12
:105050002144B7C400001385443CEFF00F8C7D144D
:105060007DF837C500001305853CEFF00F8B814AB2
:10507000B7CB000037CB0000B7CD0000D5A8130A8E
:1050800044FF13068007D2854800EF40A0294E85D3
:10509000EFB06F8B03479402D2862146A14513855A
:1050A0008B40EFF08F8783478402BD8B0547638277
:1050B000E70809476384E708D9C71147638AE70807
:1050C0000D47638CE7084C4C03C70500930730027B
:1050D000631CF708AE8613073002850683C70600F7
:1050E000E38DE7FE1050B295B386D5409307400696
:1050F000B386F60208485C505858B3D6C602898D6C
:1051000013050B45EFF06F8185041109BA5763DF72
:10511000F40403240900EFB0AF82AA898347C4FFD7
:1051200093F7F7F70347410AE38BE7F4EFB0AF815A
:10513000E1BF13854C41EFE05FFE71B713050D42EF
:10514000EFE0BFFD49B71305CC42EFE01FFDA5BF5F
:1051500013858D43EFE07FFCBDB7B7C70000138513
:105160004744EFE09FFB85B7AE86ADBF63840A027C
:105170006C095685EFF09FE0AA8ABA57E358F0FE13
:105180001309C107814437CC000037CD0000B7CCEC
:10519000000041B70145BE502E549E540E59FE49A1
:1051A0006E4ADE4A4E4BBE4B2E4C9E4C0E4DFA5D67
:1051B0006D618280011106CE22CC26CA4AC84EC635
:1051C00052C437C5000013054528EFE01FF503A4BE
:1051D000C18B83A7018C637AF402B7C9000037CA78
:1051E000000031A0210483A7018C6370F402044005
:1051F0000946938589292685EF40F02065D5A68547
:105200001305CA29EFE07FF1F1BF0145F240624486
:10521000D2444249B249224A056182801D7186CE3C
:10522000A2CCA6CACAC8CEC6D2C4D6C2DAC0294544
:10523000EFF0CFAF11052AD6A947230AF1027C006F
:105240003ED8A1473EDC02DE37C600001306864783
:10525000A14537C5000013050548EFE01FEC2144C8
:10526000B7C400001385443CEFE03FEB7D147DF8AC
:1052700037C500001305854AEFE03FEA014AB7C988
:10528000000037CB0000B7CA000085A0EFA0BFEB3D
:1052900085041109F25763D8F40403240900EFA030
:1052A0003FEA8347C4FF93F7F7F703474103E39FC0
:1052B000E7FCEFA05FE95C4C184C930644FF2146E5
:1052C000A1451385C94CEFE05FE58347D4FF858B8B
:1052D00091C713854A4EEFE05FE45DBF13050B4FA6
:1052E000EFE0BFE375B7630E0A006C105285EFF074
:1052F000FFC82A8AF257E358F0FE1309C10081441F
:1053000069BFEFD0DFF7AA8537C500001305055048
:10531000EFE0BFE00145F6406644D6444649B64951
:10532000264A964A064B25618280597186D6A2D4B8
:10533000A6D2CAD0CECED2CCD6CADAC8DEC61545E1
:10534000EFF0CF9E11052AD69547230AF1027C0083
:105350003ED8A1473EDC02DE37C600001306062A0F
:10536000A14537C500001305852AEFE01FDB214466
:10537000B7C400001385443CEFE03FDA7D147DF8AC
:1053800037C500001305C52CEFE03FD9014AB7CB64
:10539000000037CB0000B7CA000061A0EFA0BFDA61
:1053A00005099109F257635CF90603A40900EFA00F
:1053B0003FD98347C4FF93F7F7F703474103E39FC0
:1053C000E7FCEFA05FD8930484001044638BC40211
:1053D000930644FF035764018357440101480508BD
:1053E0001042E39EC4FE2146A14513058B2EEFE03B
:1053F000DFD22685EFF0DFB213850A28EFE0FFD178
:1054000045B701488357440103576401930644FF9D
:105410002146A14513850B30EFE03FD051B7630E15
:105420000A006C105285EFF07FB52A8AF257E358D4
:10543000F0FE9309C10001498DBF0145B6502654C5
:1054400096540659F649664AD64A464BB64B6561AC
:105450008280597186D6A2D4A6D2CAD0CECED2CC62
:10546000D6CADAC8DEC60945EFF04F8C11052AD638
:105470008947230AF1027C003ED8A1473EDC02DEC8
:1054800037C6000013068631A14537C50000130555
:105490004532EFE09FC82144B7C400001385443C67
:1054A000EFE0BFC77D147DF837C500001305053454
:1054B000EFE0BFC6014AB7CB000037CB0000B7CA48
:1054C000000041A0EFA03FC805099109F2576358B9
:1054D000F90683A40900EFA0BFC683C7C4FF93F7F2
:1054E000F7F703474103E39FE7FCEFA0DFC5138411
:1054F000840090446309C402938644FF03D70401E7
:10550000814785071042E31EC4FE2146A1451305CD
:105510008B35EFE09FC02285EFF09FA013850A280E
:10552000EFE0BFBF55B7814703D70401938644FF1F
:105530002146A14513858B36EFE03FBE71B7630E60
:105540000A006C105285EFF07FA32A8AF257E358C5
:10555000F0FE9309C1000149ADBF0145B650265484
:1055600096540659F649664AD64A464BB64B65618B
:105570008280011106CE22CC26CA4AC84EC652C429
:1055800037C500001305C557EFE03FB903A4C18B31
:1055900083A7018C637BF402B7C9000037CA0000FF
:1055A00031A0210483A7018C6371F40204401946E1
:1055B000938589592685EF40006565F593856400DC
:1055C00013050A5AEFE07FB5E9BF37C500001305A0
:1055D0000528EFE09FB40145F2406244D2444249BD
:1055E000B249224A05618280411106C6EFF09FA1AF
:1055F0000145B24041018280411106C6EFE05FC61D
:105600000145B24041018280054582805D7186C6B8
:10561000A2C4A6C2CAC04EDE52DC56DA5AD85ED642
:105620002A84AA9513070002A54611A00504B38495
:10563000854083070400E38BE7FEE389D7FE01453D
:1056400081ECB640264496440649F259625AD25A31
:10565000425BB25B61618280814A13070002A5460A
:1056600011A0D28A138A1A00B30744018387070066
:105670006388E7006386D700E3159AFE268A19A09F
:1056800063010A1403A9C18B03AB018C637B69130B
:10569000B7CB000021A02109637569138329090094
:1056A000194693858B594E85EF40E0556DF552862E
:1056B000A28513856900EF40005571FDD699838757
:1056C0007900F1FB032A4900630D0A0E02C002C2F1
:1056D00002C402C602C802CA02CC02CE8A890A8E5D
:1056E00022870149014613080002A548A14F930EE5
:1056F0002002130FC00539A0637C960E230007001B
:105700000507050683070700E38807FFE38617FF01
:10571000630DF9036374960A638BD7032320EE00AD
:10572000130519003383C4403A93BA878507B386BB
:10573000C700998E83850700638B0507638915076A
:10574000E39667FE8A85029AEDBD21496DA0930715
:105750001700930616002320FE0013051900030707
:105760001700630DD70363EF9600E9BF1386170098
:105770008506930716008506030716006300D70306
:10578000E3F296FC3E86E316E7FF03871700E30F7C
:10579000D7FD8506038717008507DDB7E3F496FA82
:1057A000238007008507850663E5960061BFE3FB5C
:1057B00096F80509110E3E873686A9B74A85E31388
:1057C00009F88307040093F7F7FD228799C70507B7
:1057D0008307070093F7F7FDFDFB23000700A28571
:1057E00037C5000013054556EFE03F937D5591BD49
:1057F0009D47E3F527FD37C5000013054554EFE04D
:10580000DF910144B7C4000083A509001385045A41
:10581000EFE0BF9005049109E36824FF37C500005D
:1058200013050528EFE07F8F4A8529BF797106D6D9
:1058300022D426D24AD04ECE52CC56CA5AC85EC6C0
:1058400062C48307050099CF2A8903A4C18B83A76B
:10585000018C6379F40A8149014A37CB0000B7CB48
:10586000000035A081450145EFF0BFD061A8CE878B
:10587000B387374163D347013E8AA6851385CB2979
:10588000EFE0BF89210483A7018C6376F406032C23
:105890000400194693058B596285EF40C0367DF1AF
:1058A00093046C004A85EF40E0342A86A6854A8539
:1058B000EF40603561F963170A002685EF408033B9
:1058C0002A8AA68983870900DDD303076C0005C3F4
:1058D0006391E7022687CE878507050703860700C1
:1058E00041DA83060700C9D6E308D6FE51B7CE8752
:1058F00041B7CE87B5BF638709005286CE854A85FA
:10590000EFE02FC0B250225492540259F249624A39
:10591000D24A424BB24B224C45618280411106C6AD
:1059200022C426C2B5679387C7AF23AEF18AB56795
:105930009387C7B723A0F18CB5679387C7B723A216
:10594000F18CB5679387C7B723A4F18C9305C00783
:105950000545EFE05FB023A8A18C31CDA9471147E1
:10596000930600600146B7650000938525A537C5FD
:1059700000001305C55BEFF06F85AA841384018DC9
:1059800081460146B7C500009385455C0840EFD0CD
:105990005FB518408347470293E727002302F702C9
:1059A000014589C42685EFF02FA40145B240224469
:1059B00092444101828037C500001305455AEFE04B
:1059C000CFF57D55E5B783A7018D83C74702898B46
:1059D0009DC3411106C622C483A5C18C95C113067F
:1059E0000008138541D8EF40C024138541D8B24048
:1059F000224441018280238201D8138541D88280CC
:105A0000EFF09FC005C9938741D837776820130707
:105A1000D73698C323820700138441D8138541D811
:105A2000EF40401D22959307E0032300F500A300FB
:105A3000050065BF938741D837776E731307679664
:105A400098C30967130787062392E700238307009B
:105A5000E1B7797106D622D426D24AD04ECE52CCA6
:105A600056CA5AC85EC662C403A7018D834747025F
:105A700093E717002302F702EFF0FFF4EFE0EFE9FE
:105A8000B7C90000B7CB000037C9000037CA000013
:105A9000B7CA000037CC000037CB000029A083A78D
:105AA000018D054798D321232A84AA85E34D05FE5D
:105AB000ED47E306F5FE83A7018D98538546630EF7
:105AC000D70689466305D708F9DD25476387E50EC4
:105AD0001307F0076386E51421476383E514354710
