:100000006F00306F130000001300000013000000A9
:100010001300000013000000130000001300000094
:100020001300000013000000130000001300000084
:08003000130000007300100032
:100038006FF09FFC000000006F0090326F00503797
:1000480000000000000000000000000000000000A8
:100058000000000000000000000000000000000098
:100068006F50E07F000000006F00000F00000000EC
:100078006F0090366FF05FF86F00103B6F00F03B39
:100088006F00D03C6F00B03D6F0060226F006028A9
:100098006F00602E6F00A0366F00A03C6F00503DCF
:1000A8006F0010426F00D0466F0090256F00504BD4
:1000B8006F0010506F00D0546F00605A00000000AD
:1000C8000000000000000000000000006F00A03FDA
:1000D8006F00E05D6F00E0646F00A06B6F00E0747C
:1000E8006F00B0016F0010046F00D00A6FF0DFF0EE
:1000F8006FF09FF06FF05FF06FF01FF06FF0DFEFC1
:100108006FF09FEF6F50D0186F00D00F6F00D016B0
:100118006F00C0476FF05FEE6FF01FEE6FF0DFED1E
:1001280000000000000000000000000000000000C7
:080138000000000000000000BF
:1001400073750430828073100530828097520020CE
:10015000938242EB739002340321050095A00100C5
:10016000197106C212C816CA1ACC1ECE22D026D2C7
:100170002AD42ED632D836DA3ADC3EDEC2C0C6C227
:10018000CAC4CEC6D2C8D6CADACCDECEE2D0E6D257
:10019000EAD4EED6F2D8F6DAFADCFEDEF32200304C
:1001A00016C483A2018823A02200F322103416C0B3
:1001B000EF40E07E83A2418803A1020011A001006C
:1001C000824273901234A2427390023092404242B3
:1001D000D2426243F243025492542255B2554256DF
:1001E000D2566257F257064896482649B649464ABB
:1001F000D64A664BF64B065C965C265DB65D465E5F
:10020000D65E665FF65F09617300203000003D43F3
:100210002A876373C3029377F700BDEFADE593764A
:1002200006FF3D8ABA960CC34CC30CC74CC74107A6
:10023000E36BD7FE11E28280B306C3408A069702C1
:10024000000096966780A6002307B700A306B700B4
:100250002306B700A305B7002305B700A304B70022
:100260002304B700A303B7002303B700A302B7001A
:100270002302B700A301B7002301B700A300B70012
:100280002300B700828093F5F50F93968500D58DF6
:1002900093960501D58D61B79396270097020000CC
:1002A00096968682E78086FA9680C1171D8F3E96C5
:1002B000E374C3F8A5B7397106DE16DC1ADA1ED866
:1002C0002AD62ED432D236D03ACE3ECC42CA46C8F6
:1002D00072C676C47AC27EC0EF30E0220545EF00D8
:1002E000705785476307F502EF302024F250E25241
:1002F0005253C2533255A255125682567247E247A4
:100300005248C248324EA24E124F824F21617300B2
:1003100020300545EF00D055C1BF397106DE16DC2F
:100320001ADA1ED82AD62ED432D236D03ACE3ECCC5
:1003300042CA46C872C676C47AC27EC0EF30A01CDC
:100340000945EF00305185476307F502EF30E01DA6
:10035000F250E2525253C2533255A25512568256AF
:100360007247E2475248C248324EA24E124F824F65
:100370002161730020300945EF00904FC1BF3971F2
:1003800006DE16DC1ADA1ED82AD62ED432D236D0A1
:100390003ACE3ECC42CA46C872C676C47AC27EC045
:1003A000EF3060161145EF00F04A85476307F5020C
:1003B000EF30A017F250E2525253C2533255A255B9
:1003C000125682567247E2475248C248324EA24EF7
:1003D000124F824F21617300203083C7618D93F7E4
:1003E000F70F05476386E7001145EF007048C9B76E
:1003F00037250020130585FEEF509035238B018CA7
:10040000EF503045D5B7397106DE16DC1ADA1ED842
:100410002AD62ED432D236D03ACE3ECC42CA46C8A4
:1004200072C676C47AC27EC0EF30E00D2145EF007F
:10043000704285476307F502EF30200FF250E25219
:100440005253C2533255A255125682567247E24752
:100450005248C248324EA24E124F824F2161730061
:1004600020302145EF00D040C1BF397106DE16DCD7
:100470001ADA1ED82AD62ED432D236D03ACE3ECC74
:1004800042CA46C872C676C47AC27EC0EF30A007A0
:100490004145EF00303C85476307F502EF30E00847
:1004A000F250E2525253C2533255A255125682565E
:1004B0007247E2475248C248324EA24E124F824F14
:1004C0002161730020304145EF00903AC1BF39717E
:1004D00006DE16DC1ADA1ED82AD62ED432D236D050
:1004E0003ACE3ECC42CA46C872C676C47AC27EC0F4
:1004F000EF30600113050020EF00D035854763031E
:10050000F50413050010EF00F03485476305F50688
:1005100013050008EF00103485476303F506130543
:100520000004EF00303385476301F5061305000230
:10053000EF0050328547631BF50013050002EF0002
:10054000303329A013050020EF009032EF20F07D1A
:10055000F250E2525253C2533255A25512568256AD
:100560007247E2475248C248324EA24E124F824F63
:1005700021617300203013050010EF00702FF9B7D0
:1005800013050008EF00D02ED1B713050004EF00CB
:10059000302E6DBF397106DE16DC1ADA1ED82AD667
:1005A0002ED432D236D03ACE3ECC42CA46C872C6DB
:1005B00076C47AC27EC0EF2010752165EF009029C5
:1005C00085476308F5041165EF00D0288547630A65
:1005D000F5060965EF00102885476308F5060565EF
:1005E000EF00502785476306F5060565130505806E
:1005F000EF00502685476302F50613050040EF0023
:1006000070258547631AF50013050040EF0050265A
:1006100021A02165EF00D025EF203071F250E25289
:100620005253C2533255A255125682567247E24770
:100630005248C248324EA24E124F824F216173007F
:1006400020301165EF00D022C1BF0965EF005022B4
:10065000E1B70565EF00D021C1B705651305058039
:10066000EF00102155BF397106DE16DC1ADA1ED8EC
:100670002AD62ED432D236D03ACE3ECC42CA46C842
:1006800072C676C47AC27EC0EF20F067EF20F069B0
:10069000F250E2525253C2533255A255125682566C
:1006A0007247E2475248C248324EA24E124F824F22
:1006B000216173002030397106DE16DC1ADA1ED88B
:1006C0002AD62ED432D236D03ACE3ECC42CA46C8F2
:1006D00072C676C47AC27EC0EF20F062930500082D
:1006E00037350140130505C0EF10E01F15E5EF2079
:1006F000D063F250E2525253C2533255A2551256B1
:1007000082567247E2475248C248324EA24E124FBA
:10071000824F216173002030930500083735014076
:10072000130505C0EF10E01DD9B7397106DE16DCE0
:100730001ADA1ED82AD62ED432D236D03ACE3ECCB1
:1007400042CA46C872C676C47AC27EC0EF20B05B89
:10075000854537350140130505C0EF10C01815E574
:10076000EF20B05CF250E2525253C2533255A255C0
:10077000125682567247E2475248C248324EA24E43
:10078000124F824F2161730020308545373501407B
:10079000130505C0EF10E016E1B7397106DE16DC6F
:1007A0001ADA1ED82AD62ED432D236D03ACE3ECC41
:1007B00042CA46C872C676C47AC27EC0EF20B05420
:1007C0009305000437350140130505C0EF10A01153
:1007D0001DED9305000237350140130505C0EF10EC
:1007E00080101DEDEF207054F250E2525253C2536C
:1007F0003255A255125682567247E2475248C248B5
:10080000324EA24E124F824F216173002030930569
:10081000000437350140130505C0EF10800E55BFA9
:100820009305000237350140130505C0EF10600D38
:1008300055BF397106DE16DC1ADA1ED82AD62ED438
:1008400032D236D03ACE3ECC42CA46C872C676C400
:100850007AC27EC0EF20304B894537350140130501
:1008600005C0EF10400831ED9145373501401305C3
:1008700005C0EF10400731EDA145373501401305A4
:1008800005C0EF10400631EDC14537350140130575
:1008900005C0EF10400531EDEF203049F250E25233
:1008A0005253C2533255A255125682567247E247EE
:1008B0005248C248324EA24E124F824F21617300FD
:1008C0002030894537350140130505C0EF1060031E
:1008D00061BF914537350140130505C0EF10600237
:1008E00061BFA14537350140130505C0EF10600118
:1008F00061BFC14537350140130505C0EF106000E9
:1009000061BF411106C6EF20104085453705004004
:10091000EF00707D11E5EF205041B240410182802F
:10092000854537050040EF00D07DF5B7397106DE0B
:1009300016DC1ADA1ED82AD62ED432D236D03ACEC7
:100940003ECC42CA46C872C676C47AC27EC0EF2088
:10095000903B85453705004013050540EF00B07812
:1009600015E5EF20903CF250E2525253C2533255FB
:10097000A255125682567247E2475248C248324E3A
:10098000A24E124F824F21617300203085453705FA
:10099000004013050540EF00D076E1B7397106DE5F
:1009A00016DC1ADA1ED82AD62ED432D236D03ACE57
:1009B0003ECC42CA46C872C676C47AC27EC0EF2018
:1009C000903485453715004013050580EF00B07160
:1009D00015E5EF209035F250E2525253C253325592
:1009E000A255125682567247E2475248C248324ECA
:1009F000A24E124F824F216173002030854537157A
:100A0000004013050580EF00D06FE1B7397106DEB5
:100A100016DC1ADA1ED82AD62ED432D236D03ACEE6
:100A20003ECC42CA46C872C676C47AC27EC0EF20A7
:100A3000902D930550523745004013050540EF10A7
:100A4000600415E5EF20702EF250E2525253C2536B
:100A50003255A255125682567247E2475248C24852
:100A6000324EA24E124F824F216173002030930507
:100A700050523745004013050540EF106005D9B7C7
:100A8000397106DE16DC1ADA1ED82AD62ED432D2F6
:100A900036D03ACE3ECC42CA46C872C676C47AC276
:100AA0007EC0EF2050269305505237550040130565
:100AB0000580EF00307D15E5EF203027F250E2523F
:100AC0005253C2533255A255125682567247E247CC
:100AD0005248C248324EA24E124F824F21617300DB
:100AE0002030930550523745004013050540EF0074
:100AF000307E3755004013050580EF0050771375A1
:100B0000F50FEF50A03D4DBF397106DE16DC1ADA45
:100B10001ED82AD62ED432D236D03ACE3ECC42CAB5
:100B200046C872C676C47AC27EC0EF20D01D096561
:100B3000A12185476307F502EF20301FF250E252F2
:100B40005253C2533255A255125682567247E2474B
:100B50005248C248324EA24E124F824F216173005A
:100B6000203009651529C9BF397106DE16DC1ADA8D
:100B70001ED82AD62ED432D236D03ACE3ECC42CA55
:100B800046C872C676C47AC27EC0EF20D017EF2066
:100B9000D019F250E2525253C2533255A255125656
:100BA00082567247E2475248C248324EA24E124F16
:100BB000824F216173002030397106DE16DC1ADAAB
:100BC0001ED82AD62ED432D236D03ACE3ECC42CA05
:100BD00046C872C676C47AC27EC0EF20D01201A089
:100BE000397106DE16DC1ADA1ED82AD62ED432D295
:100BF00036D03ACE3ECC42CA46C872C676C47AC215
:100C00007EC0EF205010EF205012F250E2525253AB
:100C1000C2533255A255125682567247E247524885
:100C2000C248324EA24E124F824F216173002030D3
:100C3000411106C6EF20300DEF20300FB2404101C8
:100C40008280411106C6EF20100CEF20100EB2403A
:100C500041018280411106C6EF20F00AEF20F00C1E
:100C6000B24041018280411106C6EF20D009EF2039
:100C7000D00BB24041018280397106DE16DC1ADAEF
:100C80001ED82AD62ED432D236D03ACE3ECC42CA44
:100C900046C872C676C47AC27EC0EF20D006EF2066
:100CA000D008F250E2525253C2533255A255125656
:100CB00082567247E2475248C248324EA24E124F05
:100CC000824F216173002030397106DE16DC1ADA9A
:100CD0001ED82AD62ED432D236D03ACE3ECC42CAF4
:100CE00046C872C676C47AC27EC0EF20D001EF201B
:100CF000D003F250E2525253C2533255A25512560B
:100D000082567247E2475248C248324EA24E124FB4
:100D1000824F216173002030397106DE16DC1ADA49
:100D20001ED82AD62ED432D236D03ACE3ECC42CAA3
:100D300046C872C676C47AC27EC0EF20C07CEF205F
:100D4000C07EF250E2525253C2533255A25512564F
:100D500082567247E2475248C248324EA24E124F64
:100D6000824F216173002030397106DE16DC1ADAF9
:100D70001ED82AD62ED432D236D03ACE3ECC42CA53
:100D800046C872C676C47AC27EC0EF20C077EF2014
:100D9000C079F250E2525253C2533255A255125604
:100DA00082567247E2475248C248324EA24E124F14
:100DB000824F216173002030397106DE16DC1ADAA9
:100DC0001ED82AD62ED432D236D03ACE3ECC42CA03
:100DD00046C872C676C47AC27EC0EF20C072EF20C9
:100DE000C074F250E2525253C2533255A2551256B9
:100DF00082567247E2475248C248324EA24E124FC4
:100E0000824F216173002030397106DE16DC1ADA58
:100E10001ED82AD62ED432D236D03ACE3ECC42CAB2
:100E200046C872C676C47AC27EC0EF20C06DEF207D
:100E3000C06FF250E2525253C2533255A25512566D
:100E400082567247E2475248C248324EA24E124F73
:100E5000824F216173002030411106C6EF50401AC5
:100E6000EF50401DEF506002EF407071EF50C02511
:100E70001306A028930520030145EF104054930664
:100E80000031054685451305F002EF102006930654
:100E9000100213060002B7150E000945EF10705737
:100EA00085450945EF107065854601468145130566
:100EB0007003EF10E02213068004A1451305200201
:100EC000EF10E01B8546054685456145EF10402142
:100ED00037860000130646A099450145EF00507C77
:100EE0001305C012EF3020771305F002EF10E01663
:100EF000C5BF970100209381E19B1741002013019A
:100F00006110178500001305E5B397F5FF1F938562
:100F1000650F1386818363FAC5008322050023A031
:100F2000550011059105E3EAC5FE138581839715E8
:100F300000209385A50C6377B500232005001105DB
:100F4000E36DB5FE9302800873A0023097F2FFFFB5
:100F50009382C20E93E2120073905230EF40703BC6
:100F600001458145EF103075972200009382E2F42D
:100F700073901234730020309317350063DA070042
:100F8000B707024083A707407D8D3335A0008280DC
:100F9000B70702409C43CDBF9317350063D70700C6
:100FA000B707024023A2A7408280B7070240C8C308
:100FB00082805C45D9C3B70601409387064003A6EB
:100FC000064018411347F7FF718F23A0E64083A620
:100FD000464018411347F7FF758FD8C358413E97D5
:100FE00014431041D18E14C3944718411347F7FF9F
:100FF000758F98C7D44718411347F7FF758FD8C727
:101000001C454147638CE700370701401307074041
:10101000BA9798431441558F98C38280B70701400F
:1010200003A787401441558F23A4E74003A7C74077
:101030001441558F23A6E74082805841B7070140ED
:10104000938707403E9714431C4193C7F7FFF58FE2
:101050001CC382803707014083270740032747418D
:10106000698F09C77D8D3335A0008280014582805C
:10107000B707014023AAA74082809C4593F8F70058
:10108000C18B81C7DC41B3E8F80083C70500A9CB59
:1010900010418147054E3D4F930E8002930F80040F
:1010A000214329A054C98507638B6702B316FE004C
:1010B00003D70500758FE398E6FE139727003318D2
:1010C000EF001348F8FF3376C8003397E800598ED5
:1010D0009845E309D7FDE318F7FD14C9E9B710C136
:1010E00003D705009307F00F63FDE7045041A147C4
:1010F000054EBD4F130F8002930E8004414331A073
:1011000054C915A88507638D6702B316FE0003D77F
:101110000500758FE398E6FE1397270001173398B3
:10112000EF001348F8FF3376C8003397E800598E74
:101130009845E307E7FD9845E316D7FD14C9D9B7ED
:1011400050C1828019C20CC982804CC982802A8613
:1011500063400504B7070140DC4393160501C182D3
:10116000370730003378E5006308E8021317B5004D
:10117000635C0704135705011378F7000D47331715
:1011800007011347F7FF7D8FB707000FD98F0DA019
:10119000B7070140DC4FD1B7370700F17D17F98F52
:1011A000B708014003A848003377E80023A2E8000D
:1011B00091C5558112053395A600C98F6342060279
:1011C000370701405CC382801357550112073397DC
:1011D000E6001347F7FF7D8FB707000FD98FC9BF10
:1011E000370701405CCF828093F735008A0713F7F9
:1011F000C50FB7050140BA9594453D473317F70031
:101200001347F7FF758F98C598453315F500598D2D
:1012100088C58280B7E700E0BC47898B95CF8346BD
:10122000050083472500920793F7F70F37E700E0A3
:1012300036972300F7405C41B5C703470500935735
:1012400057008546B396E600938707048A0737E779
:1012500000E0BA9794C38280B7E700E0BC47898B6F
:10126000F9FB034715008547630FF7008346050028
:1012700083472500920793F7F70F37E700E036978B
:101280002300F7404DBF83460500834725009207A2
:1012900093E707F893F7F70F37E700E03697230057
:1012A000F74051BF03470500935757008546B39653
:1012B000E600938707068A0737E700E0BA9794C3EA
:1012C0008280B7170240DC43B18B11476384E70883
:1012D00021476387E70899C7B7177A0093870720E4
:1012E0001CC131A0B7177A00938707201CC137169D
:1012F00002405C429183BD8B370700201307070033
:10130000BA9783C607001C41B3D7D7005CC15442CB
:10131000A1829D8ABA9683C60600B3D6D70014C5AB
:101320005442AD829D8A369703470700B3D7E70042
:101330005CC558423983937637003707002013077E
:10134000070B3697034707001377F70FB3D7E7026A
:101350001CC98280B7177A00938707201CC141BF40
:10136000371702405C435843C983BD8B89079316E6
:10137000F70063CA060037173D0013070790B387CD
:10138000E7021CC1ADB73717024058439316E70078
:1013900063DA060037173D0013070790B387E702AB
:1013A0001CC1B1B737177A0013070720B387E702CC
:1013B0001CC135BF99C5371702401C4F5D8D08CF42
:1013C0008280B7170240984F1345F5FF798D88CF7B
:1013D000828099C5371702405C4F5D8D48CF82806F
:1013E000B7170240D84F1345F5FF798DC8CF8280DB
:1013F000035705008D67938707047D8F83D705000A
:1014000083D62500D58F83D64500D58F83D665003A
:10141000D58F83D68500D58F83D6A500D58F83D66B
:10142000C500D58F83D6E500D58FD98F2310F50061
:101430000357C501FD779387F77FF98F231EF500CA
:1014400083D705012318F500828081C983570500E1
:1014500093E707042310F500828083570500C20735
:10146000C18393F7F7FBC207C1832310F500828085
:1014700083570500C207C18337370140130707C0F0
:101480006300E504370700406307E50613070740DC
:101490006303E5063717004013070780630DE50473
:1014A00093F7F7CF03D76500D98F2310F50083D7C3
:1014B00045002316F50283D705002314F50285A005
:1014C00093F7F7F803D72500D98F93F7F7CF03D712
:1014D0006500D98F2310F50083D745002316F50248
:1014E00083D705002314F50203C78500B7370140F1
:1014F0002398E7C22DA093F7F7F803D72500D98FDB
:1015000093F7F7CF03D76500D98F2310F50083D762
:1015100045002316F50283D705002314F5028547FD
:10152000231AF500828083570502C207C183F99B05
:10153000C207C1832310F50283570502C207C18386
:1015400083564500C206C182035785014207418385
:101550001377C7F803D60500518FF59B03D6850096
:1015600003D8250033660601D18F373601401306B4
:1015700006C0630DC5002312D500231CE50003D768
:101580006500231AE5022310F5028280DD9B03D655
:10159000A500D18FED9B03D64500D18F93F6F6CFF2
:1015A00003D6C50003D8E50033660601D18EE1B746
:1015B00083570502C207C183BD9BC207C1832310A5
:1015C000F50283570502C207C18303564500420650
:1015D00041828356850165771307F7CF758F83D6D0
:1015E0000500A206558F4207418393F7F7FD03D804
:1015F000850083D62500B3E606019206D58FC20783
:10160000C183B7360140938606C0630DD50023120F
:10161000C500231CE50003D76500231CE502231049
:10162000F502828093F7F7F783D6A5009206D58F4F
:10163000C207C18393F7F7FB83D645009206D58F87
:10164000C207C183FD769386F63F758E03D8C50029
:1016500083D6E500B3E606018A06558E420641822E
:101660007DB783570502C207C18393F7F7EFC2071F
:10167000C1832310F50283570502C207C1830356B5
:101680004500420641820357C50142074183137753
:10169000C7F883D60500558F93F7F7DF03D8850089
:1016A00083D62500B3E60601A206D58FC207C18303
:1016B000B7360140938606C0630DD5002312C500DE
:1016C000231EE50003D76500231EE5022310F50263
:1016D0008280FD769386F67FF58F83D6A500A206DD
:1016E000D58FC207C18393F7F7BF83D64500A20603
:1016F000D58FC207C183F576FD16758E03D8C50058
:1017000083D6E500B3E606019206558E4206418275
:1017100075B703570502FD77FD17F98F2310F50202
:101720000358050203564500420641828357C5010E
:1017300065771307F7CF7D8F83D60500A206558FF7
:1017400042074183F977FD17B3F7070103D88500F6
:1017500083D62500B3E60601B206D58FC207C18342
:10176000B7360140938606C0630DD5002312C5002D
:10177000231EE50003D765002310E5042310F502BE
:101780008280F176FD16758E83D6C5009A06558E39
:1017900042064182E1BFFD572312F50023100500E8
:1017A000231305002311050023040500828081C94D
:1017B0008357050093E717002310F50082808357B5
:1017C0000500C207C183F99BC207C1832310F5003E
:1017D000828081C9835745042167D98F2312F5047C
:1017E000828083574504C607C5832312F50482808F
:1017F0000358850042081358080103578501420722
:10180000418383570502C207C183137888FFB365FC
:10181000B8001377C7CF1367171093F7D7FD920659
:10182000558ED18FC207C1832314B500231CE50058
:101830002310F502828083578501C207C183DD9B97
:10184000DD8D231CB500828003578501FD779387CA
:10185000F77FF98FA205CD8FC207C183231CF50046
:1018600082808357C501C207C183DD9BDD8D231EA6
:10187000B50082800357C501FD779387F77FF98F05
:10188000A205CD8FC207C183231EF5008280835736
:101890008501C207C183ED9BDD8D231CB5008280CD
:1018A00083578501C207C18393F7F7BFA205CD8F88
:1018B000C207C183231CF50082808357C501C2077C
:1018C000C183ED9BDD8D231EB50082808357C5014A
:1018D000C207C18393F7F7BFA205CD8FC207C183AB
:1018E000231EF5008280835705010355C50042057C
:1018F0004181ED8F89C76D8D3335A0008280014510
:10190000828093C5F5FFC205C1812318B50082808E
:10191000797106D622D426D22A84AE8403570501D3
:10192000F577FD17F98F03D76500D98F2318F500D8
:101930000357C500FD779387379FF98F03D745007D
:10194000D98F03D78500D98F03D7A500D98F231648
:10195000F50083574501C207C18393F7F7CF03D73B
:10196000C500D98F231AF5006800EFF09F95B7479F
:101970000140938707806301F40652478357C400F0
:10198000C207C18763CC070493171700BA978E0765
:10199000BA9798400A07B3D7E70213074006B3D6B1
:1019A000E7029206B3F7E7020357C40042074187F4
:1019B0006340070492079387270313074006B3D7B2
:1019C000E702BD8BD58FC207C1832314F400B25048
:1019D000225492544561828062474DB79317170095
:1019E000BA978E07BA9798400607B3D7E70275B73C
:1019F0001397370013072703930740063357F7025F
:101A00001D8BB367D700C1B781C98357C50009676C
:101A1000D98F2316F50082800357C500F977FD178B
:101A2000F98F2316F500828093F7F50F958305470C
:101A3000B315B700638CE700894613074501638A35
:101A4000D70019CA1C43DD8D0CC382801307C50063
:101A5000CDBF13070501F5B71C4393C5F5FFFD8DF9
:101A60000CC3828093F5F51F2312B50082800355C5
:101A700045001375F51F8280035505006D8D3335C4
:101A8000A000828093F7F50F958385463397B600C3
:101A90006388D70289466389D702835745017D8FC2
:101AA0000355050093170501C183014509CBA181A9
:101AB0000545B315B50033F5B7003335A000828076
:101AC0008357C5007D8FE9BF835705017D8FC9BF4F
:101AD000A1818547B397B70093C7F7FFC207C183BA
:101AE0002310F5008280011106CE22CC26CAA3075E
:101AF000A100A16703A4C700A16444C891675CC8A2
:101B0000854601469305F1000145EF00B07F04C80A
:101B1000F2406244D24405618280011106CE22CC9B
:101B200026CAA307A100A16703A4C700A16444C8F3
:101B300091671CC8854601469305F1000145EF00F9
:101B4000707C04C8F2406244D24405618280011175
:101B500006CE22CC26CAA16703A4C700A16444C84C
:101B6000935785002306F100A306A10091671CC8C6
:101B7000894601466C000145EF00D07804C8F24068
:101B80006244D24405618280011106CE22CC26CA6D
:101B90004AC84EC6AA89AE84328936841305A0028B
:101BA000993713858902420541815537130589020A
:101BB00042054181693F1305B0023537138544035F
:101BC000420541816937130544034205418141378C
:101BD0001305C002093FF2406244D2444249B2496F
:101BE00005618280011106CE22CC26CA4AC84EC6A3
:101BF000AA84930660081306F00E814501456937F3
:101C00001309000F9309700839A07D19420913596F
:101C10000901630A09004E842685153F7D1442049C
:101C200041807DF8DDB7F2406244D2444249B24976
:101C300005618280411106C622C426C2014881473F
:101C40001307F00493063002054681450145EF0075
:101C5000D05B9306003105468545130500087924BD
:101C600093060031014685451305E004412493069F
:101C70000031014685451305D0048D2CA16703A4CE
:101C8000C700896444C81305800C8145EF00306BA0
:101C900004C8130540068145EF00706A1305600310
:101CA0009935130540068145EF0070691305000A58
:101CB000AD351305A003053D154585351305200BEE
:101CC0001D353145993D3145893D0145B9351305EE
:101CD0003003A1351305300389351305700B213509
:101CE000130550031D3D1305B00BF53B13057003A1
:101CF0002D351305000CC53B1305C002393D1305F6
:101D0000200CD5330545113D1305300CE93B494501
:101D100029351305400CC13B13050002FD3B13059B
:101D2000600CD1333D45D53B1305000D6D3B1305CC
:101D3000400AE5331305100ACD331305000E653351
:101D40001305000DD93B1145C93B3545F9334545D0
:101D5000E9334D45D9331305B002C1331305F00300
:101D60006D3B13054005553B1305C0047D336145AC
:101D70006D3335455D332D454D337D45793B130539
:101D80003002613B1305100EB93B1305000D713392
:101D90001145613331455133454541334D45B53BDF
:101DA0001305C0029D3B1305F003853B130540045A
:101DB000AD331305100595331305F002B93B7D458E
:101DC000A93B7D45993B13050002813B1305300279
:101DD000A93313051002013B454531331305800734
:101DE0008145EF00D05513059002F53941657D1509
:101DF000D53BB2402244924441018280797106D69B
:101E000022D426D24AD04ECE52CC56CA5AC85EC62A
:101E100062C466C22A8C1206930A06E0A167938701
:101E200047A13389FA00930A0901B3852541939BA1
:101E3000050193DB0B01130B7500420B135B0B01C8
:101E4000A14CC169138AF9FF938909800DA05285BD
:101E5000FD3985807D141374F40F19C493F71400B1
:101E6000FDD74E85ED31F5B70509630E5901B385F0
:101E70002B01C205C181AE865A8662853133834407
:101E800009006684E1BFB250225492540259F249CB
:101E9000624AD24A424BB24B224C924C45618280FC
:101EA000011106CE22CC26CA4AC84EC6B289030604
:101EB000060015C62A8492051399050113590901D4
:101EC0008144CA8522851D3F8504C204C180B38731
:101ED0009900038607002104420441807DF2F2400C
:101EE0006244D2444249B249056182801307000826
:101EF0006306E510797106D622D426D24AD04ECE9A
:101F000052CC9357550013F977001374F501368AB4
:101F1000B289AE848DCB05476389E7060947638B99
:101F2000E7060D47638DE70611476380E70815470D
:101F30006383E7081947639CE70085451305001094
:101F4000EFF04FC729A085451145EFF0AFC6854793
:101F50003394870042044180231281006383F40696
:101F60009376FA0F36C613172900A16793874700A7
:101F7000BA974C008843EFF04F90B25022549254DD
:101F80000259F249624A4561828085452145EFF058
:101F90006FC275BF85454145EFF0CFC14DBF854547
:101FA00013050002EFF00FC15DB78545130500046E
:101FB000EFF04FC069BF854513050008EFF08FBFF4
:101FC00079B793170A01C183A1839DE78D473EC46A
:101FD0009376FA0F36C613172900A166938646003A
:101FE000369704434C002685EFF02F894E86A28554
:101FF0002685EFF02F9551B73EC4D9BF8280935705
:1020000055009D8B7D890547638DE5008A07216713
:1020100013074700BA97984385473395A70048CBE5
:1020200082808A07216713074700BA97984385473C
:102030003395A70008CB8280135735009376C701EC
:1020400021671307470036971C4398478547339508
:10205000A700798D3335A000828013573500937621
:10206000C701216713074700369718435447854730
:10207000B397A700C207C183B58F5CC782800111E7
:1020800006CE22CC26CA4AC82A84AE843289854527
:102090000545EFF02FB2CA86014681452285B93544
:1020A000135554009375F4011375F50FEFF0CF93AA
:1020B00085473394870022C002C226C43EC60A85E3
:1020C000EFE03FEFF2406244D24442490561828032
:1020D000B7E700E07D5723A0E71823A2E718828026
:1020E000011106CE2304A100A304B1002305C10001
:1020F00036C62800EFF00F9237E600E01842FD7672
:10210000F98E03A7018F558F23A8E18E584293873C
:10211000018F12071183D443558FD8C303C787009B
:1021200085476305F700F240056182805537E5BFBA
:10213000411106C693070020630BF51C63F0A7044A
:10214000930730216300F52263E5A70E9307302043
:10215000630FF51C63FFA70A930710216302F51EA6
:1021600063E9A71E930700216316F51293068031D9
:102170000146854513056004953B29AA9307101075
:10218000630DF51263FAA702930700116307F514B4
:1021900063F2A706930720116302F5166367F5142F
:1021A000930730116318F50E93068031014685457B
:1021B0001305B002253BF9A889476300F50E63F0CB
:1021C000A7028D476303F50E930700106314F50C07
:1021D00093068031014685450145093B65A845C503
:1021E00085476319F50A93068031014685452545E3
:1021F000F5394DA0930720106309F50C93073010B3
:10220000631AF50893068031014685450D45F93975
:1022100051A0930710206304F51093072020631B3F
:10222000F5069306803101468545130500027D3988
:1022300095A0930700306309F51463F5A70293078F
:1022400020306305F516636AF51493073030631385
:10225000F504930680310146854513059002EFF0A1
:10226000FFC80DA8930700226307F51093071022FB
:102270006312F5029306803101468545130550022D
:10228000EFF0DFC601A89306803101468545214560
:10229000EFF0DFC5B24041018280930680310146F4
:1022A00085452945EFF09FC4F5B793068031014677
:1022B00085452D45EFF09FC3F1BF93068031014660
:1022C00085450545EFF09FC2F1B793068031014681
:1022D00085450945EFF09FC175BF930680310146E2
:1022E00085453D45EFF09FC075B7930680310146A7
:1022F000854513053002EFF07FBF69BF930680313B
:10230000014685451305A002EFF05FBE61B7930655
:102310008031014685451945EFF05FBDA5BF9306A5
:102320008031014685451D45EFF05FBCA5B793069A
:1023300080310146854513051002EFF03FBB99BF80
:10234000930680310146854513057004EFF01FBAEE
:1023500091B7930680310146854513058004EFF05F
:10236000FFB80DBF930680310146854513059004E3
:10237000EFF0DFB705B793068031014685451305B9
:102380004002EFF0BFB639B793068031014685456C
:1023900013056002EFF09FB5F5BD9306803101464D
:1023A000854513057002EFF07FB4EDB593068031DB
:1023B0000146854513058002EFF05FB3E1BD397139
:1023C00006DE22DC26DA4AD84ED6AA84AE893289C5
:1023D000853313D4840075C085476307F40E89479D
:1023E000630CF4108D47630FF41285450545EFE04B
:1023F0007FFCB7170240DC43C983BD8B37177A00D7
:1024000013070720B387E7023727F40013070740B5
:10241000BA9723ACF18233D7370341839305170072
:10242000B3853503B3D7B7029386F7FF231CD100DA
:10243000231AE100231D0100231B0100230E0100CC
:10244000130700072312E10005472313E1002314BB
:102450000100C207C183B387270309671307077108
:10246000B3D7E7022315F10089472316F10023179C
:10247000F10023180100231901000A04A1679387C2
:1024800047013E9400404C082285EFE07FFE8D8896
:10249000F9C08547638CF40E89476387F4104C00BC
:1024A0002285EFF00FA7A1452285EFF0AFBC930581
:1024B00000402285EFF08FC15DA8854505651305B5
:1024C0000580EFE03FEF15B785450545EFE07FF06C
:1024D00085450545EFE01FEE93D7440041476388EB
:1024E000E7044547E397E7F08545370518001305EE
:1024F0000530EFE0DFC5F5BD85450945EFE07FED2F
:1025000085450545EFE01FEB93D744001307100204
:102510006397E702854537151A00130505C0EFE0FC
:102520001FC3C1BD85451145EFE0BFEA7DBD8545AF
:102530003705160013050504EFE07FC15DBD1307E5
:102540002002E398E7EA854537151A001305058050
:10255000EFE0FFBF79BD4C002285EFE0DFFCA14535
:102560002285EFF04FAD91452285EFF04FB28545C2
:102570002285EFF0CFA385452285EFF08FA5F2509D
:102580006254D2544259B259216182804C00228552
:10259000EFF00F82A1452285EFF00FAB93050040CD
:1025A0002285EFF0EFAFE1B74C002285EFF06F8BA3
:1025B000A1452285EFF0EFAA91452285EFF0EFAF1C
:1025C0007DB71357850093172700A16693864601B0
:1025D000B6979C4383D7C702B385F5028967938773
:1025E0000771B3D5F50201EF0D89B7570010938736
:1025F000D7B03E950A05C205C1810CC182808547CE
:102600006309F70089476300F7028D476308F70203
:1026100082800D89B7070010B5073E950A05C205EF
:10262000C1810CC182800D89B70700109387D71034
:102630003E950A05C205C1810CC182800D89B7078C
:1026400000109387D7203E950A05C205C1810CC1B1
:10265000C1B7411106C622C42E841DC9894763082B
:10266000F5069147630CF50699476300F508A14705
:102670006304F508A9476309F508B1476310F5023B
:1026800091460146814513056002EFF03F8639A06F
:102690009146014681452145EFF05F858547630DF1
:1026A000F4068D476301F40895476305F4089D47D8
:1026B000630AF408A547630EF408AD476303F40A00
:1026C000B5476308F40AB240224441018280914632
:1026D000014681450145EFF07F81C9B7914601462A
:1026E00081453D45EFF09F8055BF914601468145AC
:1026F0001945EFF0AFFF5DB79146014681451305DF
:102700006004EFF0AFFE59BF9146014681451305C5
:102710004002EFF0AFFD59B791460146814525458E
:10272000EFF0CFFC4DB79146014681450545EFF0EE
:10273000EFFB51BF91460146814513053002EFF092
:10274000EFFA51B79146014681451D45EFF00FFA6A
:102750009DBF91460146814513057004EFF00FF9C6
:102760009DB791460146814513055002EFF00FF8E1
:1027700099BF91460146814513057002EFF00FF7AE
:1027800099B7011106CE22CC26CA4AC82A84AE8443
:10279000328929C58547630AF5048947630CF50426
:1027A0008D47630EF504CA85268565358545054543
:1027B000EFE05FC091476389F404A147638AF40A9C
:1027C000A9476396F404AD476313F90485453715AB
:1027D0001A0013050580EFE09F9715A8854505654C
:1027E00013050580EFE01FBD7DBF85450545EFE082
:1027F0005FBE55BF85450945EFE0BFBD6DB7854557
:102800001145EFE01FBD45B79547630BF90448003C
:10281000EFE07FF885472312F100FD572314F10004
:102820002315010023130100230601000A04A167F8
:10283000938747013E9400404C002285EFE05FC340
:102840008146014689452285EFE09FFA854522852C
:10285000EFE0FFF5F2406244D244424905618280D4
:1028600085453705180013050530EFE05F8E45B745
:10287000A547E31EF9F8854537151A00130505C06D
:10288000EFE0FF8C69B70A05A16793874701AA9714
:102890009C4303D547024205418582800A05A16712
:1028A00093874701AA979C43239207028280411194
:1028B00006C622C426C24AC0AE84328436892DCDD3
:1028C000C1476303F508930700026318F5089306F0
:1028D0008031054685451305D002EFF02FE185478D
:1028E000638CF408C5476381F40A9307100263966A
:1028F000F40A93068031054685451305F002EFF092
:10290000EFDE8947630AF40AC947630FF40A9307A5
:1029100020026304F40C930730026319F40C93064D
:102920000031054685454A85EFF04FDCB240224430
:1029300092440249410182809306803105468545D3
:102940001545EFF0AFDA61BF930680310546854546
:1029500013053002EFF08FD959B7B7860000938680
:1029600046032166130646029305D0023785000010
:1029700013058503EF30D005930680310546854564
:102980001D45EFF0AFD6B5BF9306803105468545AE
:1029900013055002EFF08FD5ADB7B78600009386D0
:1029A000460321661306460293052003378500007F
:1029B00013058503EF30D001930680310546854528
:1029C0001945EFF0AFD2A1BF93068031054685458A
:1029D00013054002EFF08FD199B793068031054679
:1029E00085451305E002EFF06FD015BFB7860000F4
:1029F00093864603216613064602930580033785B6
:102A0000000013058503EF30A07C397106DE22DC5F
:102A100026DA4AD84ED652D456D25AD02A84AE8913
:102A2000328AB68A3A8BBE84428941C5854763089B
:102A3000F508DA865686D2854E85953D2316010027
:102A4000930740102317F100231801008547638383
:102A5000F40893978401E187ADCB89476382F4083A
:102A60008D476385F40893070020231BF1000E09AE
:102A7000231C2101231D01009D47231EF1000A0490
:102A800013850181229500416C002285EFE05F965D
:102A9000C1476384F90685452285EFE01F9BF2500C
:102AA0006254D2544259B259225A925A025B21615D
:102AB0008280854505650505EFE0DF8F9DBF854573
:102AC00011650505EFE0FF90ADB723190100231A4A
:102AD000010051BF231901008547231AF10061B796
:102AE00089472319F100231A0100B5BF894723192B
:102AF000F1008547231AF100BDB785450545EFE094
:102B00000FE551BFAE96938701810A053E95638715
:102B1000B602184183578700898BEDDF850583C78F
:102B2000F5FF2316F70065D683578700858BEDDF09
:102B30008357C7002300F6000506D1BF82804111EC
:102B400006C6EF105031B24041018280411106C6E5
:102B50000DE585476385F500B2404101828093060B
:102B60008031014685452545EFF04FB89146014635
:102B700081452945EFF08FB7C5B789476309F5024D
:102B8000C1476306F504930700026310F506930638
:102B90008031014685451305A002EFF02FB591461F
:102BA000014681451305B002EFF04FB475B79306A7
:102BB00080310146854513056002EFF02FB3914641
:102BC0000146814513057002EFF04FB271B79306CD
:102BD0008031014685450945EFF04FB191460146E8
:102BE00081450D45EFF08FB085BF93072002E315B7
:102BF000F5F693068031014685451305A004EFF0F4
:102C0000EFAE9146014681451305B004EFF00FAEDB
:102C1000A1B7797106D622D426D24AD04ECE2A84C4
:102C2000AE89B284368985450545EFE0AFF8CA859F
:102C30002685293F89476381F40293072002639028
:102C4000F40293073002631CF90085453705140030
:102C50004105EFE0CFCF21A08D47630AF90429CCCD
:102C600085476300F40689476303F4064EC02312C8
:102C70000100231301002314010023160100B147B2
:102C80002315F1000A04A167938747063E9400408C
:102C90008A852285EFE0DFC785452285EFE0DFD614
:102CA000B250225492540259F249456182808545BE
:102CB0001145EFE0CFC965B785451165EFE08FEFAE
:102CC00075B7854537050200EFE0AFF045B785459C
:102CD00037050400EFE0EFEF51BF0A05A1679387C6
:102CE0004706AA9798438357070093F70708E5DF3D
:102CF000C205C1812312B7008280411106C622C4D9
:102D000026C22A84AE8413172500A167938747063D
:102D1000BA970546930550528843EFE0FFD0A68648
:102D20000146854513055403EFF08FBBB2402244A2
:102D30009244410182800A05A16793874706AA97BA
:102D400098438357070093F70702E5DF835747004F
:102D50002380F500828003A5C1838280411106C6CD
:102D60009387C1839843050798C3EF10C0723C4115
:102D7000FD173CC191C7EF109035B24041018280F0
:102D80005C5D3CC1EF10807DFDB763420502930797
:102D9000803E3347F5023307F7023365F50233050A
:102DA000F5021305753E3345F5023A9582807D554F
:102DB00082800145828001458280014582800145F3
:102DC000828025671307C79AA5679387079B637C53
:102DD000F702411106C622C426C225649304C49A90
:102DE000A5679387F79A858FF19B9107BE9413048B
:102DF000C49A1C4082971104E31D94FEB240224401
:102E0000924441018280828025671307079BA56752
:102E10009387879B637CF702411106C622C426C2B2
:102E200025649304049BA5679387779B858FF19B0B
:102E30009107BE941304049B1C4082971104E31D68
:102E400094FEB2402244924441018280828041112A
:102E500006C65D3FEFE04F80B240410182804111E4
:102E600006C6D1470947930600400146B735000022
:102E70009385E5E43785000013054507EF100062F0
:102E8000EF109003B24041018280411106C6EFD09D
:102E90002FABEF203029EF00B058EF10502CEF107F
:102EA000202F753FEF10502CF120EF1040310145DD
:102EB000B24041018280411106C6C13F0145B24086
:102EC0004101828003A7818693878186630FF7087B
:102ED000011106CE22CC26CA4AC84EC652C456C2DA
:102EE00093898186854A2DA02685EF10E029630A03
:102EF0005505EF10A0425285EFD0EFA44848EF10DF
:102F000020052685EF10002583A781866386370577
:102F1000EFD00FA32A8A83A78186638D370303A48A
:102F200081869304C4FE18405C405CC3184098C37B
:102F300040C000C0EF10803C7C4CDDD726858297D6
:102F400065B72685EF10E017EF10403D5285EFD0B2
:102F50008F9F19A0EFD02F9FF2406244D244424984
:102F6000B249224A924A056182808280411106C696
:102F7000913FFDBF411106C622C4930800021D48BF
:102F800093070030138741978146373600001306B8
:102F9000C6F6B78500009385C5071385C18FEF106E
:102FA00080441385C18FEF102071B240224441014B
:102FB0008280411106C622C426C24AC02A843289B0
:102FC000B6842E868945EF10A008930744011CCCD7
:102FD0005CC8231E2401A30494000145B24022448E
:102FE0009244024941018280411106C622C426C290
:102FF000AE843284AA850945EF10800F09C9930772
:1030000045011CCD5CC9231E9500A3048500B24078
:103010002244924441018280797106D622D426D27C
:103020004AD04ECE52CC2A842EC6EFD06F91AA89B8
:103030008357C401A1E7B247A9CBEF10C045AA84CA
:103040002328050213094401034A9400EF10C056D7
:1030500063010A0485476308FA04B2476348F0082D
:103060004E85EFD04F8EEF1060188858B250225422
:1030700092540259F249624A45618280FD17231E2B
:10308000F400EFD04F8C0145D5B7EFD0CF8B7955F9
:10309000F1BF93874401184C1CC3184C98CC1CCC2E
:1030A00023AA24015DBF5C486308F90283C6540368
:1030B00003C7170263E9E6009C43630FF90003C7E7
:1030C0001702E3FBE6FE13874401D44398C2D443BE
:1030D00094CCD8C3DCC851B793874401184C1CC3A7
:1030E000184C98CC1CCC23AA240185BF138444041B
:1030F000700081452285EF1080792285EF10406BAA
:1031000085B7411106C622C426C22A84EFD04F8358
:10311000AA844848930744016300F5023115EF1073
:10312000A0542685EFD02F82EF10400C0145B2400D
:1031300022449244410182808357C4018507231EA3
:10314000F4002685EFD02F80D5B7411106C622C4E2
:1031500026C24AC0AE843289AA851545EF0050794F
:103160002A841DC9A3042501930745011CCD5CC910
:10317000231095021395040141810A05EF00B04721
:1031800048CC15C1231104022312040223130402A4
:10319000930784025CD41CD42285B240224492441A
:1031A0000249410182802285EF00D07A0144EDB7C7
:1031B000397106DE22DC26DA4AD84ED652D456D2EF
:1031C0005AD05ECE62CC66CA2A842E8C32C6EF10EC
:1031D000802CAA84EFC0DFF6AA8903572402835704
:1031E00004026309F704035744025C4C0A07BA97C8
:1031F00023A08701835744028507C207C183231296
:10320000F4020357040263E4E70023120402835725
:10321000240285072311F4024848510463078512EC
:103220003115EF1060444E85EFC0FFF1EF00107CC8
:10323000014525A0B247814C89CB130A8402938AA9
:103240004401054B938B4404B9A8EFC0DFEF7555DB
:1032500029A04E85EFC03FEF7555F2506254D2540D
:103260004259B259225A925A025BF24B624CD24CEA
:10327000216182805C5423A057015C549CCC23269E
:10328000540323AA4401B2476345F0084E85EFC0BA
:103290009FEBEF00B075885869F1EFC07FEAAA890B
:1032A000B2476344F0080357240283570402E31C27
:1032B000F7F223A80402B247C9DF03499400268528
:1032C000EF10802FE30809FAE31F69FB1C54630821
:1032D000FA0283C6540303C7170263E9E6009C435E
:1032E000630FFA0003C71702E3FBE6FED84323206F
:1032F0005701D84398CC23A25701DCC869B75C5466
:1033000023A057015C549CCC2326540323AA4401D8
:103310009DBFEFF05FA4AA8C700081455E85EF1021
:1033200000575E85EF10C04895B7EFF0DFA2330776
:103330009541B247E6973385A740634505002AC605
:10334000BA8C95B702C6BA8CB9BF4E85EFC0BFDF45
:10335000014521B7411106C60146EFF07FE5B240B5
:1033600041018280397106DE22DC26DA4AD84ED647
:1033700052D456D25AD05ECE62CC66CAAA842E8C63
:1033800032C6EF1040112A84EFC09FDBAA8983D791
:103390002402639C0710B247814C89CB138A4401F5
:1033A000930A4401054B930B44048DA0EFC0BFD991
:1033B000795539A04E85EFC01FD9F9571CD87955DA
:1033C000F2506254D2544259B259225A925A025B74
:1033D000F24B624CD24C216182809C4C23A057015D
:1033E0009C4C1CCC23AC5401232A4401B2476342B9
:1033F000F0084E85EFC03FD5EF00505F085869F1E7
:10340000EFC01FD4AA89B2476341F00883D72402D2
:10341000C9EF23280402B247D1DF03C994002285F3
:10342000EF108019E30B09FAE31269FDDC48630829
:10343000FA028346540303C7170263E9E6009C437C
:10344000630FFA0003C71702E3FBE6FED84323200D
:103450005701D84318CC23A257015CC841BF9C4CEC
:1034600023A057019C4C1CCC23AC5401232A4401BB
:10347000B5BFEFF05F8EAA8C700081455E85EF10BE
:1034800000415E85EF10C032ADB7EFF0DF8C33073F
:103490009541B247E6973385A740634505002AC6A4
:1034A000BA8CADB702C6BA8C95B703D76402DC4CB0
:1034B0000A07BA979C432320FC0083D76402850740
:1034C000C207C1832393F40203D7040263E4E70035
:1034D0002393040283D72402FD172391F402885416
:1034E00093848402630C95003115EF10E0174E852C
:1034F000EFC07FC5EF00904F0145D9B54E85EFC0B5
:103500009FC4014575BD411106C6EFC07FC3138737
:10351000018483470700850793F7F70F2300F7001F
:10352000EFC07FC2B24041018280411106C6EFC0A8
:103530003FC11387018483470700FD1793F7F70FF7
:103540002300F700EFC03FC0B2404101828041112B
:1035500093780804639F0802216F130F8F379378C5
:103560000801638C08021378E8FF93020002937845
:10357000280063840804634B060293784800930F85
:10358000B002639D0802937F8800B33FF001960F5D
:1035900035A0216F130F4F2DD9B7937818009302E0
:1035A0000003E39608FC93020002D1B73306C04043
:1035B000930FD0028148A94E81A8814F65FE9306E2
:1035C00000032300D1008548468E63D3F8003E8E69
:1035D0003307C74193761801BDE263880F10635E1D
:1035E000E00E1303E7FF854663C5E6101A87FDA0CA
:1035F0001373F60011828508330E11017A93034389
:103600000300A30F6EFE69D2E394D6FF3373D60393
:103610003356D603CDB70507B306E6406357D0004F
:10362000E37BB7FE2300D701FDB71307F3FF134673
:10363000F3FF7D86B376C300158F85063695639FAD
:103640000F0813780801631208029306F7FF635707
:10365000E0042A9721A005056307E500E37DB5FE98
:1036600023005500CDBF3A857D57B3061E41AA966B
:103670001306000363CFC801AA86635F10038DCFD2
:1036800046830A8533061501B68739A80505E30682
:10369000D5FEE37DB5FE2300C500CDBF3687F1B76B
:1036A00085077D166309A600E3FCB7FE0348F6FF15
:1036B00023800701F5B79A963385E6009307000249
:1036C0006348E0003685410182808506E38DA6FED1
:1036D000E3FDB6FE2380F600CDBF7D176374B50011
:1036E0002300F5017D170505A9BF1303F7FF6359F3
:1036F000E0002A87930E0002130615001A960DB7F4
:103700001A8781B78D4763F9C700937735008DC756
:103710001307F6FFAA8729A0AA871307F6FF01CE91
:1037200005073E978507A38FB7FEE39DE7FE8280DE
:10373000BA874286DDB7828093F7F50F93968700AC
:10374000D58F93960701DD8EBD4763F1C7049307BC
:1037500006FFC19BC107AA972A8714C354C314C785
:103760004107232ED7FEE39AE7FE1378F600318A4D
:1037700061D29307C8FFF19B9107BA971107232ED7
:10378000D7FEE31DF7FE1376380041BF2A87328843
:10379000CDB763E0A502B306C500AA8711CA8505A7
:1037A00085070387F5FFA38FE7FEE39AD7FE8280A4
:1037B00082803387C500E370E5FEB307C50065DA94
:1037C0007D17FD17830607002380D700E31AF5FE57
:1037D000828009CEAA868505938716000387F5FFA8
:1037E000A38FE7FE09C77D16BE8675F68280130794
:1037F000F6FF6DDF36968507A38F07FEE31DF6FE05
:1038000082808307050089CBAA8785070387070085
:103810006DFF3385A7408280AA87E5BF5D7186C6AC
:10382000A2C4A6C2CAC04EDE52DC56DA5AD85ED650
:1038300062D466D26AD06ECEAA8C2E8D368CB30A34
:10384000B50063F5AA00134DF5FFFD5A8307060086
:10385000E68963820736930B50021309B002216791
:10386000930D470841677D173AC409A8850932843A
:103870001306140083071400638F073263877701F0
:10388000E3F659FF2380F900D5B781441307D0022E
:1038900093060002930530021305000321A093E470
:1038A000040122861304160083071600E389E7FE4D
:1038B000638B2701638CD700638DB700639EA700DD
:1038C00093E41400F9BF93E44400E1BF93E484005F
:1038D000C9BF93E40402F1B73E87938607FDA5456F
:1038E00063F6D5041307A0027D5A6382E706030737
:1038F00004009307E0027D5B6309F7068307040079
:1039000013F6B7FF930680060147630CD60A834778
:1039100004009387B7FD13F6F70F9306300563E8AD
:10392000C62093172600EE979C438287014AA5463E
:10393000050493172A003E9A060A3A9A130A0AFDCA
:1039400003070400930707FDE3F4F6FE4DB71304E5
:10395000260093074C00032A0C003E8CE3590AF81A
:10396000330A404193E4040159B713071400830755
:103970001400BE86938507FD25466379B60093063D
:10398000A0026386D7023A84014B8DBF014B050725
:1039900093172B00DA978607B697138B07FD8306DC
:1039A0000700938706FDE374F6FE3A8429A0090414
:1039B000032B0C00110C9347FBFFFD87337BFB00AF
:1039C00035BF13F7F70F050499B7C14641AAC1885F
:1039D0009DC093064C0063F6590183270C00238099
:1039E000F9009387190005476351471D52864E9A87
:1039F000130700020DA89307FAFF6351F002CE9758
:103A00001307000221A0850963873701E3FD59FFF1
:103A10002380E900CDBFBE89014A65BF3E8A55BFFC
:103A2000850763874701E3FD57FF2380E700CDBF8C
:103A3000B299368C35BD93074C003EC6032C0C0062
:103A400063010C026285EFF0DFDB635560016353B5
:103A5000AB005A85C18899C86350A006B387A900F6
:103A6000A9A0B7870000138C0737E9BF9306FAFFB8
:103A700063574503D2852A87B307AA40CE9713061A
:103A8000000221A085096387F900E3FD59FF238027
:103A9000C900CDBF330AB740369ABE8975BF368A92
:103AA00065BF8509050C638AF900E3FC59FF03072C
:103AB0000C002380E900F5B7CE87635B450F330523
:103AC000AA40B389A7001307000221A085076387D6
:103AD0003701E3FD57FF2380E700CDBF324C49BBE0
:103AE000FD576302FA0293074C003EC62688DA8728
:103AF0005287C14603260C00D6854E85EFF03FA5C0
:103B0000AA89324CB5B393E41400214AE9BF63F6A5
:103B10005901930750022380F900850991BB93E472
:103B20000404C14625A893E42400A94605A863F629
:103B30005901930750022380F90013871900830766
:103B4000040099C763745701A380F90089090DB374
:103B50007D14BA8931BBA94611A0A1469307C006BE
:103B60006302F702930780066302F70203260C0044
:103B7000110C2688DA875287D6854E85EFF03F9D57
:103B8000AA89FDB103260C00110CE5B793074C0080
:103B900003260C0013F7240009E72247798E3E8C98
:103BA000C9BF420641863E8CE9B7368CBE89C9B191
:103BB000324CBE8975B963060D0063F55903238045
:103BC000090033859941B640264496440649F25986
:103BD000625AD25A425BB25B225C925C025DF24D49
:103BE00061618280A38F0AFEE9BF397106CE22CCC3
:103BF0002ED232D436D63AD83EDA42DC46DE5410E3
:103C000036C62A869305F007138541C7EFF01FC11A
:103C1000138541C7EF10B062F24062442161828097
:103C2000411106C6378500001305852EEFF0FFFB16
:103C3000378500001305452FEFF03FFB3787000065
:103C4000130787318D4605468D45378500001305DE
:103C50004532EFF09FF93785000013054534EFF04A
:103C6000DFF8B240410182800DC59377F50F9DE3E7
:103C7000C167938707F0E98F95E7B707FF00E98FE2
:103C80008DEF6181A1679387471D3E950345050030
:103C90006505828021671307471DBA9703C5070092
:103CA0000505828021851375F50FA1679387471D50
:103CB0003E95034505002505828041851375F50F66
:103CC000A1679387471D3E95034505004505828002
:103CD00003A781845C41BA976304F50283D6270069
:103CE00085E283A64184638DF60083A6C184638B3D
:103CF000F602D44354C1DC43BA97B306E54094C7F7
:103D00001445B307D700630EF50003D6270011EA68
:103D100003A6C184630BA6005041D0C35C413E970B
:103D200014C7828023A6A184E9B723A6F184EDB746
:103D3000411106C683A541853785000013058539E5
:103D4000EFF0BFEA83A58185378500001305C53AEA
:103D5000EFF0BFE983A50185378500001305053C19
:103D6000EFF0BFE8B24041018280411106C622C493
:103D700013F7C5FFE14663F9E60093073500F19BB1
:103D8000930687FE63FEF6002E86AA85378500001F
:103D900013054543EFF07FE5B240224441018280A4
:103DA0001D8F130687FE23AAC184138481841CC03F
:103DB0008966938606EA2390D7005117D8C323A4B7
:103DC000070023910700BA9723A2F1842390D7001C
:103DD00085462391D700D8C398C781460546B78545
:103DE00000009385C542138541CFEFF08F9C1840AA
:103DF00023A6E18455B763040512411106C622C407
:103E000026C293043500F19883A7418563EB971090
:103E1000B14763F3F400B144FD55138541CFEFF092
:103E2000AF9F03A5C18483A68184B307D54003A8AF
:103E300041853306984063E2C706138541CFEFF012
:103E40004FAC0145B24022449244410182808547F3
:103E50002311F400938781859043329798C383A7F9
:103E6000018563F0E70A23A8E18461A88357250050
:103E7000C5C303A74184630DE508484136958357C0
:103E8000250091C7E31BA7FE23A6A18451A023A66A
:103E9000A184BDA85C40E3F2C7FA3384F60003575F
:103EA00024006DFB58401D8F930547FFE3E495FE0A
:103EB00013868401E3EDC5F81386C4003E9633876C
:103EC000C6008965938505EA2310B7002311070012
:103ED0004C404CC31CC750C085472311F4005C43C1
:103EE000310863840701B69790C7138781851C4307
:103EF000B107BE9404C383A7018563F4970023A888
:103F000091848967938707EA2310F400E30085F61C
:103F1000138541CFEFF0EF9E1305C40025B701458F
:103F20008280014505B7411106C622C426C2B304EA
:103F3000B5022685EFF03FEC2A8409C52686814527
:103F4000EFF04FFC2285B24022449244410182802E
:103F500009C983A781846366F50083A741846363ED
:103F6000F5008280411106C622C426C22A84930429
:103F700045FFFD55138541CFEFF00F8A835764FF4E
:103F800081CB035744FF8967938707EA6303F702EE
:103F9000378500001305053EEFF03FC5835644FF0B
:103FA000035664FFA685378500001305C53FEFF073
:103FB000DFC3231B04FE8967938707EA231AF4FEF5
:103FC00083A7C18463F4F40023A6918413878185B9
:103FD0001C43832684FF958F83A68184B386D440B7
:103FE000B6971CC32685EFF0BFCE138541CFEFF007
:103FF0004F91B2402244924441018280AA87370700
:10400000002003270701630CE50237070020032780
:1040100007026302E5023707002003270703630E48
:10402000E500370700200327070401456303F70075
:1040300082800D4531A0054521A0094511A001450B
:104040009317450037050020130505013E95CDB7B0
:10405000011106CE22CC26CA4AC84EC652C4AA8432
:10406000AE89328A2E85EFF07FF92A89412C832789
:10407000490013044900638587009C43E39F87FE42
:10408000712C93E909F8238434012146D2852685D1
:10409000EFF02FF4EFC0CF8A9387C40003274900C5
:1040A0005CC303274900D8C42322F90080C8EFC0AD
:1040B0008F89F2406244D2444249B249224A0561A2
:1040C0008280411106C622C42A8423040500EFC061
:1040D0002F879307C40054441848D8C2544414C3CB
:1040E0001CC85CC4EFC02F86B240224441018280CC
:1040F000011106CE22CC26CA4AC84EC6AA892E89EC
:10410000EFF0DFEFAA844845EFF0FFCE2A841DC907
:10411000D0448145EFF00FDF23043401A3040400F1
:104120002146CA852285EFF0CFEAEFC06F81930761
:10413000C400D8405CC3D84058C4DCC0910404C853
:10414000EFC06F802285F2406244D2444249B249B6
:1041500005618280411106C622C42A842304050019
:10416000EFB01FFE9307C40054441848D8C254440B
:1041700014C31CC85CC4EFB01FFD2285EFF05FDDE7
:10418000B240224441018280030585007D81828006
:1041900023920186938741D113870704DCC39CC314
:1041A000A107E39DE7FE1D47238EE18423A001863E
:1041B00023A8018693878186DCC39CC3828041113A
:1041C00006C603A50187EFF03FAA7D1593173500BA
:1041D000138541D13E9508411307C5FE23A0E18612
:1041E0002105EFB0BFF6B24041018280411106C601
:1041F00022C4EFB0FFF42A8483974186A1E303A58C
:104200000187EFF07FA67D1513173500938741D105
:10421000BA978C439387C5FE03A701866300F70214
:10422000238EA18423A0F18683C7018493F7F70F1F
:1042300089CFA1051305C701EF0000782285EFB0F3
:104240009FF0B240224441018280A1051305C701BD
:10425000EF0040752285EFB01FEFE5B7411106C6AC
:1042600022C42A84EFB0DFED83474403C19B93E768
:104270001700230AF402834754039306440113975B
:104280003700938741D1BA97D84314C3D84318CC89
:10429000D4C35CC893870187185C9443558F98C337
:1042A000EFB07FEAB240224441018280411106C64C
:1042B00022C42A84EFB0DFE8930744015448184C25
:1042C000D8C2544814C31CCC5CC88347540313970A
:1042D0003700938741D1BA9798436308F700EFB04E
:1042E0009FE6B240224441018280138701871C5C13
:1042F00093C7F7FF1443F58F1CC3D5B7411106C60A
:10430000EFB01FE49387418603D70700050723908A
:10431000E700EFB05FE3B24041018280411106C681
:10432000EFB01FE21387418683570700FD17C207CE
:10433000C1872310F7006357F000EFB0DFE0B24011
:104340004101828023920186EFB0FFDF83A70186BF
:10435000FDD7EFF0BFE9E5B7411106C622C426C27A
:1043600003A40186EFB0DFDDAA842285EFF01FF4FD
:104370009147230AF40213054404752E2285EFF0B9
:10438000BFE085476307F5021307440183A68186D2
:10439000D8C254C823A4E186938781861CCC268585
:1043A000EFB07FDAEFF09FE4B24022449244410143
:1043B00082803C58F1FB2285EFF0BFD0CDB7411190
:1043C00006C6795718D9130745015049144D54C2F0
:1043D000504990C218CD58C9EFF05FE8EFF01FE1E7
:1043E000B24041018280011106CE22CC26CA4AC8C1
:1043F0004EC652C456C25AC02A84328BB68ABA8973
:104400003E8A4289C6842E868545EFF07FC4930795
:1044100044011CCC5CC823206403232254032324BE
:104420003403232644035286930530024E85EFF071
:104430006FAD5C54F1171054B74600009386863573
:104440003E964C500850152348CC230B2403A30A56
:104450002403232C040244DC24C023280402230A5E
:10446000040223280406232A040681470147A28662
:10447000374600001306E63BA28513054404AD242D
:104480000145F2406244D2444249B249224A924A2A
:10449000024B0561828003A501868280011106CE50
:1044A00022CC26CA4AC84EC652C456C2AE8A328AE6
:1044B000B684BA893E89AA850545EFF07FC349CD08
:1044C0002A842685EFF03F9359C1930744011CCC01
:1044D0005CC8232054032322440308D444D42686F2
:1044E00093053002EFF00FA25C54F1171054B74659
:1044F0000000938686353E964C500850BD2148CC2E
:10450000230B3403A30A3403232C0402232E240395
:104510002320240523280402230A04022328040656
:10452000232A040681470147A28637460000130666
:10453000E63BA28513054404452A2285F2406244E5
:10454000D2444249B249224A924A05618280228578
:10455000EFF05FC00144D5B70144C5B7411106C6AD
:10456000EFB01FBE83A7018603C747033D8B854677
:104570006316D700D44B984F6398E600EFB0BFBCEA
:104580000145B2404101828013864701D8C2D44B15
:1045900014C390CFD0CB83C657038E06138741D167
:1045A0003697544390C2544394CF50C3D8CBEFB006
:1045B0009FB9EFF0BFC3E9B783474503BD8B0547FC
:1045C0006390E704411106C622C426C22A84EFB0D4
:1045D0003FB7AA8483474403C19B93E72700230A7C
:1045E000F4022285EFF09FCC130544048524268530
:1045F000EFB07FB50145B240224492444101828030
:104600007D558280011106CE22CC26CA4AC82AC610
:10461000EFB01FB32A8903A401862285EFF0DFF9EA
:1046200093044404700081452685952426854922FB
:104630004A85EFB05FB1EFF07FBB1858F9576309B7
:10464000F7000145F2406244D2444249056182804C
:1046500023280402FDB7411106C6EFE00FF3EFF087
:104660007FFAB2404101828083474503BD8B0947F1
:104670006392E704411106C622C426C22A84EFB021
:104680003FACAA84930744015448184CD8C25448FC
:1046900014C31CCC5CC8130544044D2A2685EFB016
:1046A0009FAA2285EFF09FBB0145B240224492446D
:1046B000410182807D558280411106C68346650393
:1046C000A30AD50205473317D70018DD0947230A87
:1046D000E502EFF07FF983A7018699C3EFF01FB1E0
:1046E0000145B24041018280011106CE22CC26CA8A
:1046F0004AC84EC652C42A84328AB6893A89BE84D0
:104700002E86A945EFF0DF94F998A3049400232E98
:104710004401232034032324040223222403930787
:1047200044011CCC5CC8F2406244D2444249B249C4
:10473000224A05618280411106C622C42A84EFB054
:104740003FA0930744015448184CD8C2544814C39E
:104750001CCC5CC8EFB03F9F2285EFF09F960145CF
:10476000B240224441018280011106CE22CC26CAE9
:104770004AC84EC6AE893289B6843A84AA8529458C
:10478000EFF01F9719CD7998A3048500232E3501EA
:10479000232025032324050244D1930745011CCD82
:1047A0005CC9F2406244D2444249B2490561828008
:1047B000411106C622C426C22A84EFB07F98930412
:1047C000440158481C4C5CC3584898C304CC44C8A6
:1047D00083479400F99BA304F400EFB0DF96EFE069
:1047E0008FD75C503E9508D4EFB09F959387818713
:1047F000CC4313878187370800801348E8FF11A056
:104800003687638CE5001443DC4A1054E38AC7FE04
:10481000918F6374F8003687EDB79387418794438F
:10482000850694C31C43C4C31C435CC804C318CC92
:104830008347940093E71700A304F400EFB0BF9000
:104840000145B24022449244410182808347950051
:10485000858B99E37D558280411106C622C42A8446
:10486000EFB01F8E930744015448184CD8C25448E7
:1048700014C31CCC5CC8EFB01F8D83479400F99B18
:10488000A304F4000145B2402244410182808547DF
:104890006385F50263DFB70089476384F5028D47BE
:1048A000639FF5008347950093E72700A304F50075
:1048B00039A091E51C425CD119A05C511CC2014594
:1048C000828083479500F59BA304F500CDBF0111BD
:1048D00006CE22CC26CA4AC84EC652C456C2EFE003
:1048E0008FC72A8AEFB0DF85AA8993848187B707AB
:1048F000008013C9E7FF8D4A8040631E94004E85F7
:10490000EFB07F84F2406244D2444249B249224A25
:10491000924A056182805C48330AFA40E36149FFAC
:1049200018405C405CC3184098C340C000C01C44A1
:1049300048448297EFE02FC22A8A834754FF13F737
:10494000370063065701F99BA30AF4FE75B7F99B7C
:10495000A30AF4FE1305C4FEEFF09FE571BF938731
:104960008187DCC39CC3828082802A881106719A69
:10497000130506F8AA8737C7ADDE1307F7EE98C30D
:104980009107E31EF6FE2322D6F82324B6FA23204D
:1049900006F9A167938707882324F6F8828023A469
:1049A0000188828023A0A18823A2B188B7E700E014
:1049B000116723A0E720828083A7818899E323A041
:1049C000A18823A2B188054723A4E188B7E700E0C6
:1049D000116723A0E7208280411106C637850000B9
:1049E00013050550EFF06FA00145B24041018280F0
:1049F000011106CE22CC26CA4AC84EC60041630821
:104A00008502AA8437890000B789000001A81385B0
:104A1000C97AEFF08F9D0040638B84009305C4FE3C
:104A20001305897AEFF06F9C1C40E39297FEF240E9
:104A30006244D2444249B24905618280411106C6AE
:104A4000EFF00F9E0145B24041018280011106CE78
:104A500022CC26CA4AC84EC623A80500DC45BDC3E1
:104A600083C78500B5C32E892A8483A9050039CD63
:104A7000EFB00FED8347C4FF93F7F7F703478900C3
:104A80006391E7028327490081440040638F8900D6
:104A90008504910723AE87FE0327C900E31797FE1D
:104AA00031A0EFB04FEA014431A00144EFB0AFE9CB
:104AB000232899002285F2406244D2444249B249F7
:104AC000056182800144FDB70144EDB7EFB04FE7C7
:104AD0004E844DBF517186D7A2D5A6D3CAD1CECFB1
:104AE000D2CDD6CBDAC9DEC7E2C5E6C3EAC16EDFF6
:104AF0000545EFF0AFD011052ACF85472302F10A13
:104B0000FC183ED1A1473ED502D7378600001306D8
:104B10008660A1453785000013050561EFF0EF8C35
:104B20002144B784000013854465EFF00F8C7D1499
:104B30007DF83785000013058565EFF00F8B814AFE
:104B4000B78B0000378B0000B78D0000D5A8130A83
:104B500044FF13068007D2854800EF10606D4E8534
:104B6000EFB06FDE03479402D2862146A14513853C
:104B70008B69EFF08F8783478402BD8B0547638283
:104B8000E70809476384E708D9C71147638AE7083C
:104B90000D47638CE7084C4C03C7050093073002B0
:104BA000631CF708AE8613073002850683C706002C
:104BB000E38DE7FE1050B295B386D54093074006CB
:104BC000B386F60208485C505858B3D6C602898DA1
:104BD00013050B6EEFF06F8185041109BA5763DF7F
:104BE000F40403240900EFB0AFD5AA898347C4FFBA
:104BF00093F7F7F70347410AE38BE7F4EFB0AFD43D
:104C0000E1BF13854C6AEFE05FFE71B713050D6BD2
:104C1000EFE0BFFD49B71305CC6BEFE01FFDA5BF6B
:104C200013858D6CEFE07FFCBDB7B787000013855F
:104C3000476DEFE09FFB85B7AE86ADBF63840A0288
:104C40006C095685EFF09FE0AA8ABA57E358F0FE48
:104C50001309C1078144378C0000378D0000B78CE1
:104C6000000041B70145BE502E549E540E59FE49D6
:104C70006E4ADE4A4E4BBE4B2E4C9E4C0E4DFA5D9C
:104C80006D618280011106CE22CC26CA4AC84EC66A
:104C900052C43785000013054551EFE01FF503A40A
:104CA000C18883A70189637AF402B7890000378A33
:104CB000000031A0210483A701896370F40204403D
:104CC0000946938589522685EF10505365D5A685F0
:104CD0001305CA52EFE07FF1F1BF0145F240624493
:104CE000D2444249B249224A056182801D7186CE72
:104CF000A2CCA6CACAC8CEC6D2C4D6C2DAC029457A
:104D0000EFF0CFAF11052AD6A947230AF1027C00A4
:104D10003ED8A1473EDC02DE3786000013068670CF
:104D2000A1453785000013050571EFE01FEC214414
:104D3000B784000013854465EFE03FEB7D147DF8F8
:104D40003785000013058573EFE03FEA014AB78914
:104D50000000378B0000B78A000085A0EFB0AFBE1F
:104D600085041109F25763D8F40403240900EFB055
:104D70002FBD8347C4FF93F7F7F703474103E39F32
:104D8000E7FCEFB04FBC5C4C184C930644FF214647
:104D9000A1451385C975EFE05FE58347D4FF858B97
:104DA00091C713854A77EFE05FE45DBF13050B7889
:104DB000EFE0BFE375B7630E0A006C105285EFF0A9
:104DC000FFC82A8AF257E358F0FE1309C100814454
:104DD00069BFEFD05FF8AA85378500001305057914
:104DE000EFE0BFE00145F6406644D6444649B64987
:104DF000264A964A064B25618280597186D6A2D4EE
:104E0000A6D2CAD0CECED2CCD6CADAC8DEC6154516
:104E1000EFF0CF9E11052AD69547230AF1027C00B8
:104E20003ED8A1473EDC02DE37860000130606535B
:104E3000A1453785000013058553EFE01FDB2144B2
:104E4000B784000013854465EFE03FDA7D147DF8F8
:104E5000378500001305C555EFE03FD9014AB78BF0
:104E60000000378B0000B78A000061A0EFB0AFAD43
:104E700005099109F257635CF90603A40900EFB034
:104E80002FAC8347C4FF93F7F7F703474103E39F32
:104E9000E7FCEFB04FAB930484001044638BC40273
:104EA000930644FF035764018357440101480508F2
:104EB0001042E39EC4FE2146A14513058B57EFE047
:104EC000DFD22685EFF0DFB213850A51EFE0FFD184
:104ED00045B701488357440103576401930644FFD3
:104EE0002146A14513850B59EFE03FD051B7630E22
:104EF0000A006C105285EFF07FB52A8AF257E3580A
:104F0000F0FE9309C10001498DBF0145B6502654FA
:104F100096540659F649664AD64A464BB64B6561E1
:104F20008280597186D6A2D4A6D2CAD0CECED2CC97
:104F3000D6CADAC8DEC60945EFF04F8C11052AD66D
:104F40008947230AF1027C003ED8A1473EDC02DEFD
:104F5000378600001306865AA145378500001305E1
:104F6000455BEFE09FC82144B7840000138544658A
:104F7000EFE0BFC77D147DF8378500001305055DA0
:104F8000EFE0BFC6014AB78B0000378B0000B78A3D
:104F9000000041A0EFB02F9B05099109F25763581B
:104FA000F90683A40900EFB0AF9983C7C4FF93F754
:104FB000F7F703474103E39FE7FCEFB0CF98138473
:104FC000840090446309C402938644FF03D704011C
:104FD000814785071042E31EC4FE2146A145130503
:104FE0008B5EEFE09FC02285EFF09FA013850A51F2
:104FF000EFE0BFBF55B7814703D70401938644FF55
:105000002146A14513858B5FEFE03FBE71B7630E6C
:105010000A006C105285EFF07FA32A8AF257E358FA
:10502000F0FE9309C1000149ADBF0145B6502654B9
:1050300096540659F649664AD64A464BB64B6561C0
:105040008280011106CE22CC26CA4AC84EC652C45E
:10505000379500001305C580EFE03FB903A4C18870
:1050600083A70189637BF402B7990000379A000097
:1050700031A0210483A701896371F4020440194619
:10508000938589822685EF10701765F593856400F6
:1050900013050A83EFE07FB5E9BF378500001305EC
:1050A0000551EFE09FB40145F2406244D2444249C9
:1050B000B249224A05618280411106C6EFF09FA1E4
:1050C0000145B24041018280411106C6EFE05FC652
:1050D0000145B24041018280054582805D7186C6EE
:1050E000A2C4A6C2CAC04EDE52DC56DA5AD85ED678
:1050F0002A84AA9513070002A54611A00504B384CB
:10510000854083070400E38BE7FEE389D7FE014572
:1051100081ECB640264496440649F259625AD25A66
:10512000425BB25B61618280814A13070002A5463F
:1051300011A0D28A138A1A00B3074401838707009B
:105140006388E7006386D700E3159AFE268A19A0D4
:1051500063010A1403A9C18803AB0189637B691346
:10516000B79B000021A021096375691383290900F9
:10517000194693858B824E85EF1050086DF5528647
:10518000A28513856900EF10700771FDD69983879A
:105190007900F1FB032A4900630D0A0E02C002C226
:1051A00002C402C602C802CA02CC02CE8A890A8E92
:1051B00022870149014613080002A548A14F930E1A
:1051C0002002130FC00539A0637C960E2300070050
:1051D0000507050683070700E38807FFE38617FF37
:1051E000630DF9036374960A638BD7032320EE00E3
:1051F000130519003383C4403A93BA878507B386F1
:10520000C700998E83850700638B0507638915079F
:10521000E39667FE8A85029AEDBD21496DA093074A
:105220001700930616002320FE001305190003073C
:105230001700630DD70363EF9600E9BF13861700CD
:105240008506930716008506030716006300D7033B
:10525000E3F296FC3E86E316E7FF03871700E30FB1
:10526000D7FD8506038717008507DDB7E3F496FAB7
:10527000238007008507850663E5960061BFE3FB91
:1052800096F80509110E3E873686A9B74A85E313BD
:1052900009F88307040093F7F7FD228799C70507EC
:1052A0008307070093F7F7FDFDFB23000700A285A6
:1052B000378500001305457FEFE03F937D5591BD95
:1052C0009D47E3F527FD378500001305457DEFE099
:1052D000DF910144B794000083A50900138504837E
:1052E000EFE0BF9005049109E36824FF37850000D3
:1052F00013050551EFE07F8F4A8529BF797106D6E6
:1053000022D426D24AD04ECE52CC56CA5AC85EC6F5
:1053100062C48307050099CF2A8903A4C18883A7A3
:1053200001896379F40A8149014A379B0000B78BF0
:10533000000035A081450145EFF0BFD061A8CE87C0
:10534000B387374163D347013E8AA6851385CB5285
:10535000EFE0BF89210483A701896376F406032C5B
:105360000400194693058B826285EF1020697DF158
:1053700093046C004A85EF1040672A86A6854A850B
:10538000EF10C06761F963170A002685EF10E0652A
:105390002A8AA68983870900DDD303076C0005C329
:1053A0006391E7022687CE878507050703860700F6
:1053B00041DA83060700C9D6E308D6FE51B7CE8787
:1053C00041B7CE87B5BF638709005286CE854A852F
:1053D000EFE02FC0B250225492540259F249624A6F
:1053E000D24A424BB24B224C45618280411106C6E3
:1053F00022C426C2A5679387C79B23A6F188A56709
:105400009387C7A323A8F188A5679387C7A323AA77
:10541000F188A5679387C7A323ACF1889305C007DC
:105420000545EFE05FB023A0A18A31CDA947194718
:10543000930600600146B7550000938525523795C5
:1054400000001305C584EFF06F85AA841384018AD8
:1054500081460146B7950000938545850840EFD009
:105460005FB518408347470293E727002302F702FE
:10547000014589C42685EFF02FA40145B24022449E
:105480009244410182803795000013054583EFE087
:10549000CFF57D55E5B783A7018A83C74702898B7E
:1054A0009DC3411106C622C483A5C18995C11306B7
:1054B0000008138541D5EF102057138541D5B24020
:1054C000224441018280238A01D4138541D5828000
:1054D000EFF09FC005C9938741D537776820130740
:1054E000D73698C323820700138441D5138541D54D
:1054F000EF10A04F22959307E0032300F500A300CF
:10550000050065BF938741D537776E73130767969C
:1055100098C30967130787062392E70023830700D0
:10552000E1B7797106D622D426D24AD04ECE52CCDB
:1055300056CA5AC85EC662C403A7018A8347470297
:1055400093E717002302F702EFF0FFF4EFE0EFE933
:10555000B7990000B79B000037990000378A000018
:10556000B79A0000378C0000379B000029A083A762
:10557000018A054798D321232A84AA85E34D05FE95
:10558000ED47E306F5FE83A7018A98538546630E2F
:10559000D70689466305D708F9DD25476387E50EF9
:1055A0001307F0076386E51421476383E514354745
:1055B000638BE51C29476388E51C03D767079306BF
:1055C000F00463FDE620239B070601473E97A302F4
:1055D000870283C74702858B6398072603A7018A42
:1055E000835767078507C207C183231BF7068356C6
:1055F00087078506231CD7069306F004E3FDF6F61D
:10560000231B0706231C0706BDB71307B005630558
:10561000E50023A0070249B7094798D3A9BF23A0F3
:1056200007021307F5FB1377F70F8546E3F5E6F45A
:1056300013074004630BE50213073004E31EE5F48F
:1056400003D7870783D66707E377D7F2BA978385AF
:10565000570213850A86EFE04FD903A7018A8357C3
:1056600087078507231CF70639B783D78707E384A5
:1056700007F01305C985EFE04FD703A7018A8357C9
:105680008707FD17231CF706FDB503D7870709CF4A
:1056900001441305C985EFE04FD5050483A7018AAE
:1056A00003D78707E347E4FE1384570213050A5123
:1056B000EFE0AFD3EFF05FA285476307F502EFF0AD
:1056C0009FDD2286AA8513054B86EFE00FD203A447
:1056D000018A13055402EF10403142054181231B1A
:1056E000A406231CA40641BD2285EFF03FC1C1BF23
:1056F00003D78707E30107E803D667077D1642064D
:105700004182239BC7067D1742074183239CE706FE
:10571000636EC70013854987EFE02FCD83A7018A09
:1057200003D76707BA97A3820702B1B5930567024B
:1057300013055702198EBE953E95EFE08F851384B1
:10574000018A1C4003D767073E97A302070283D54F
:10575000870793855502BE951385CB86EFE0EFC88A
:105760001C4003D4870783D76707E3C687E0130588
:10577000C985EFE08FC7050483A7018A83D7670730
:10578000E3D787FECDBBEFF03F9585476304F50275
:10579000EFF07FD0EFE06FC503A4018A1306000588
:1057A000814513055402EFA09FA6231B0406231C6A
:1057B0000406D1B383A7018A83C74702858B91EB87
:1057C00003A5018A8355650713055502EFF01F9164
:1057D000C1B713050A51EFE04FC1DDB703D6870704
:1057E000E376E6DE93055602130566023306C740EC
:1057F000BE953E95EFD0FFF983A5018A83D6850734
:105800003387D500A302870203C74502058B0DE746
:1058100083A7018A03D4870783D76707E350F4DCA3
:105820001305C985EFE06FBC050483A7018A83D700
:105830006707E347F4FE5DB393865602B6951305FA
:105840008C7AEFE08FBAE9B713850A86EFE0EFB9FB
:1058500071B3370500201305856882803725002045
:10586000130585FE8280397106DE16DC1ADA1ED831
:105870002AD62ED432D236D03ACE3ECC42CA46C8F0
:1058800072C676C47AC27EC0EFD0FFC7B7F700E019
:1058900023820700A382070023830700A383070056
:1058A00023840700A384070023850700A38507003E
:1058B000EFD0CFCAEFD07FC7F250E2525253C2535B
:1058C0003255A255125682567247E2475248C24894
:1058D000324EA24E124F824F21617300203041118F
:1058E00006C6B7170240DC43C983BD8B37177A0061
:1058F00013070720B387E7023727F4001307074091
:10590000BA9723ACF18285460146F165938505205F
:105910000145EFD00FB085450145EFD00FBEB24035
:1059200041018280411106C622C426C24AC0EFF05E
:105930001FFB03A781838967938707F43357F70217
:105940007D17B7F700E023820700A38207002383B7
:105950000700A383070023840700A384070023858F
:105960000700A38507009376F70F2386D700935689
:10597000870093F6F60FA386D7009356070193F698
:10598000F60F2387D7006183A387E70023880700EA
:10599000A388070023890700A389070037E400E0F4
:1059A000FD542306944005672320E410054798C35F
:1059B000EFD02FC1EFF0FFE92A89EFF03FEAAA8587
:1059C0004A85EFE08FBA0146A945379500001305D7
:1059D0008587EFD08FF723A2A18A91672320F41047
:1059E00023079440B24022449244024941018280FC
:1059F000011106CE22CC26CA4AC84EC6B2896358C7
:105A0000C002AE843389C500A16703A4470693058D
:105A100000042285EFC04F867DD985048385F4FF7D
:105A2000C205C1812285EFC0EF83E31299FE4E8546
:105A3000F2406244D2444249B24905618280830700
:105A400005008DCF411106C622C426C22A84A9446E
:105A500031A8B5450145EFD04FA805048345F4FFB3
:105A60000145EFD08FA78307040081C7E39797FE16
:105A7000CDB7B2402244924441018280828001111C
:105A800006CE7D566C0003A5418AEFD0BF8D03057D
:105A9000C100F240056182805D7186C696C49AC2DB
:105AA0009EC02ADE2EDC32DA36D83AD63ED442D236
:105AB00046D072CE76CC7ACA7EC8EFD0DFA49305EA
:105AC00050523745014013050580EFB0BFFB15E587
:105AD000EFD0BFA5B640A642164386437255E255A5
