:100000006F106010130000001300000013000000C8
:100010001300000013000000130000001300000094
:100020001300000013000000130000001300000084
:08003000130000007300100032
:100038006FF09FFC000000006F00F0556F00B05A91
:1000480000000000000000000000000000000000A8
:100058000000000000000000000000000000000098
:100068006F606015000000006F00000F00000000C6
:100078006F00F0596FF05FF86F00705E6F00505FAF
:100088006F0030606F0010616F0040346F00403ABD
:100098006F0040406F0020576F00205D6F00B06018
:1000A8006F0070656F00306A6F00F0486F00B06EC7
:1000B8006F0070736F0030786F00E07A0000000006
:1000C8000000000000000000000000006F00206039
:1000D8006F00607E6F0070056F00300C6F00701548
:1000E8006F0030226F0090246F00502B6FF0DFF00C
:1000F8006FF09FF06FF05FF06FF01FF06FF0DFEFC1
:100108006FF09FEF6F60402E6F0050306F00303AF5
:100118006F0040686FF05FEE6FF01FEE6FF0DFED7D
:1001280000000000000000000000000000000000C7
:080138000000000000000000BF
:1001400073750430828073100530828097520020CE
:10015000938242EB739002340321050095A00100C5
:10016000197106C212C816CA1ACC1ECE22D026D2C7
:100170002AD42ED632D836DA3ADC3EDEC2C0C6C227
:10018000CAC4CEC6D2C8D6CADACCDECEE2D0E6D257
:10019000EAD4EED6F2D8F6DAFADCFEDEF32200304C
:1001A00016C483A2C18A23A02200F322103416C0F1
:1001B000EF50601483A2018B03A1020011A0010083
:1001C000824273901234A2427390023092404242B3
:1001D000D2426243F243025492542255B2554256DF
:1001E000D2566257F257064896482649B649464ABB
:1001F000D64A664BF64B065C965C265DB65D465E5F
:10020000D65E665FF65F09617300203000003D43F3
:100210002A876373C3029377F700BDEFADE593764A
:1002200006FF3D8ABA960CC34CC30CC74CC74107A6
:10023000E36BD7FE11E28280B306C3408A069702C1
:10024000000096966780A6002307B700A306B700B4
:100250002306B700A305B7002305B700A304B70022
:100260002304B700A303B7002303B700A302B7001A
:100270002302B700A301B7002301B700A300B70012
:100280002300B700828093F5F50F93968500D58DF6
:1002900093960501D58D61B79396270097020000CC
:1002A00096968682E78086FA9680C1171D8F3E96C5
:1002B000E374C3F8A5B73367B500FD530D8B79E739
:1002C000B7877F7F9387F7F710419441B372F600A9
:1002D0003363F600BE92B3E262006397720C631858
:1002E000D6065041D441B372F6003363F600BE9295
:1002F000B3E262006398720A631BD604104594450A
:10030000B372F6003363F600BE92B3E2620063910B
:10031000720A631ED6025045D445B372F6003363A9
:10032000F600BE92B3E26200639A72086311D602CD
:1003300010499449B372F6003363F600BE92B3E2FB
:100340006200639372085105D105E30FD6F61317C7
:10035000060193970601631CF7001357060193D714
:1003600006013305F7409375F50F91E982804183CB
:10037000C1833305F7409375F50F91E182801377C0
:10038000F70F93F7F70F3305F74082800346050018
:1003900083C60500050585056313D60065FA330598
:1003A000D640828011059105E312D6FE0145828078
:1003B0002105A105E31CD6FC014582803105B1056C
:1003C000E316D6FC014582804105C105E310D6FC49
:1003D00001458280397106DE16DC1ADA1ED82AD66B
:1003E0002ED432D236D03ACE3ECC42CA46C872C69D
:1003F00076C47AC27EC0EF3090260545EF00D06605
:1004000085476307F502EF30D027F250E25252538E
:10041000C2533255A255125682567247E24752488D
:10042000C248324EA24E124F824F216173002030DB
:100430000545EF003065C1BF397106DE16DC1ADAFA
:100440001ED82AD62ED432D236D03ACE3ECC42CA8C
:1004500046C872C676C47AC27EC0EF3050200945C5
:10046000EF00906085476307F502EF309021F2506E
:10047000E2525253C2533255A25512568256724717
:10048000E2475248C248324EA24E124F824F21617B
:10049000730020300945EF00F05EC1BF5D7186C674
:1004A00096C49AC29EC022DE26DC2ADA2ED832D624
:1004B00036D43AD23ED042CE46CC4ACA72C876C66C
:1004C0007AC47EC2EF30B0191145EF00F05985476C
:1004D000630AF502EF30F01AB640A642164386438F
:1004E0007254E2545255C2553256A2561257825790
:1004F0007248E2485249424EB24E224F924F6161D9
:100500007300203083C7019093F7F70F054763838B
:10051000E70E0147014681463285B685EF60D0116E
:10052000138481908317640013D5F7013E950585E8
:10053000EF9000102A8903954191EF90600F3726C4
:1005400000201306C61ECA85EF603026EF902008F3
:10055000EF60807E8317440013D5F7013E95058533
:100560003305A040EF90C00C2A8903958191EF904C
:10057000200C372600201306C620CA85EF60F02223
:10058000EF90E004EF60407F8317240013D5F7015C
:100590003E950585EF90C0092A840395A191EF90BF
:1005A0002009372600201306C624A285EF60F01F1D
:1005B000EF90E001EF6050048397819013D5F7012D
:1005C0003E9505853305A040EF9080062A8403956B
:1005D0006191EF90E005372600201306C622A28520
:1005E000EF60B01CEF80B07EEF60007D1145EF0042
:1005F0007049CDB5EF60E067372500201305051A77
:10060000EF60802223800190EF60203919B73971A3
:1006100006DE16DC1ADA1ED82AD62ED432D236D00E
:100620003ACE3ECC42CA46C872C676C47AC27EC0B2
:10063000EF30F0022145EF00304385476307F502B4
:10064000EF303004F250E2525253C2533255A255A9
:10065000125682567247E2475248C248324EA24E64
:10066000124F824F2161730020302145EF009041ED
:10067000C1BF397106DE16DC1ADA1ED82AD62ED48E
:1006800032D236D03ACE3ECC42CA46C872C676C4C2
:100690007AC27EC0EF30A07C4145EF00F03C854738
:1006A0006307F502EF30E07DF250E2525253C2533D
:1006B0003255A255125682567247E2475248C248F6
:1006C000324EA24E124F824F2161730020304145BD
:1006D000EF00503BC1BF397106DE16DC1ADA1ED8B6
:1006E0002AD62ED432D236D03ACE3ECC42CA46C8D2
:1006F00072C676C47AC27EC0EF30607613050020E1
:10070000EF00903685476303F50413050010EF00F2
:10071000B03585476305F50613050008EF00D034B2
:1007200085476303F50613050004EF00F0338547A2
:100730006301F50613050002EF0010338547631BC4
:10074000F50013050002EF00F03329A01305002087
:10075000EF005033EF30E072F250E2525253C25386
:100760003255A255125682567247E2475248C24845
:10077000324EA24E124F824F21617300203013057A
:100780000010EF003030F9B713050008EF00902F8C
:10079000D1B713050004EF00F02E6DBF397106DEEE
:1007A00016DC1ADA1ED82AD62ED432D236D03ACE59
:1007B0003ECC42CA46C872C676C47AC27EC0EF300A
:1007C000006A2165EF00502A85476308F50411652A
:1007D000EF0090298547630AF5060965EF00D028E8
:1007E00085476308F5060565EF0010288547630611
:1007F000F506056513050580EF00102785476302A0
:10080000F50613050040EF0030268547631AF50012
:1008100013050040EF00102721A02165EF0090266E
:10082000EF302066F250E2525253C2533255A25575
:10083000125682567247E2475248C248324EA24E82
:10084000124F824F2161730020301165EF00902319
:10085000C1BF0965EF001023E1B70565EF009022E5
:10086000C1B7056513050580EF00D02155BF39716B
:1008700006DE16DC1ADA1ED82AD62ED432D236D0AC
:100880003ACE3ECC42CA46C872C676C47AC27EC050
:10089000EF30E05CEF30E05EF250E2525253C25370
:1008A0003255A255125682567247E2475248C24804
:1008B000324EA24E124F824F2161730020303971A7
:1008C00006DE16DC1ADA1ED82AD62ED432D236D05C
:1008D0003ACE3ECC42CA46C872C676C47AC27EC000
:1008E000EF30E0579305000837350140130505C088
:1008F000EF10A02015E5EF30C058F250E2525253ED
:10090000C2533255A255125682567247E247524898
:10091000C248324EA24E124F824F216173002030E6
:100920009305000837350140130505C0EF10A01EE0
:10093000D9B7397106DE16DC1ADA1ED82AD62ED4BB
:1009400032D236D03ACE3ECC42CA46C872C676C4FF
:100950007AC27EC0EF30A05085453735014013057F
:1009600005C0EF10801915E5EF30A051F250E252AA
:100970005253C2533255A255125682567247E2471D
:100980005248C248324EA24E124F824F216173002C
:100990002030854537350140130505C0EF10A017FD
:1009A000E1B7397106DE16DC1ADA1ED82AD62ED443
:1009B00032D236D03ACE3ECC42CA46C872C676C48F
:1009C0007AC27EC0EF30A04993050004373501405C
:1009D000130505C0EF1060121DED930500023735B9
:1009E0000140130505C0EF1040111DEDEF306049C7
:1009F000F250E2525253C2533255A2551256825609
:100A00007247E2475248C248324EA24E124F824FBE
:100A10002161730020309305000437350140130530
:100A200005C0EF10400F55BF930500023735014058
:100A3000130505C0EF10200E55BF397106DE16DC18
:100A40001ADA1ED82AD62ED432D236D03ACE3ECC9E
:100A500042CA46C872C676C47AC27EC0EF30204011
:100A6000894537350140130505C0EF10000931ED08
:100A7000914537350140130505C0EF10000831EDF1
:100A8000A14537350140130505C0EF10000731EDD2
:100A9000C14537350140130505C0EF10000631EDA3
:100AA000EF30203EF250E2525253C2533255A2551B
:100AB000125682567247E2475248C248324EA24E00
:100AC000124F824F21617300203089453735014034
:100AD000130505C0EF10200461BF91453735014073
:100AE000130505C0EF10200361BFA1453735014054
:100AF000130505C0EF10200261BFC1453735014025
:100B0000130505C0EF10200161BF411106C6EF308B
:100B10000035854537050040EF00307E11E5EF30A8
:100B20004036B24041018280854537050040EF00E4
:100B3000907EF5B7397106DE16DC1ADA1ED82AD691
:100B40002ED432D236D03ACE3ECC42CA46C872C635
:100B500076C47AC27EC0EF308030854537050040CC
:100B600013050540EF00707915E5EF308031F25044
:100B7000E2525253C2533255A25512568256724710
:100B8000E2475248C248324EA24E124F824F216174
:100B90007300203085453705004013050540EF0000
:100BA0009077E1B7397106DE16DC1ADA1ED82AD63C
:100BB0002ED432D236D03ACE3ECC42CA46C872C6C5
:100BC00076C47AC27EC0EF30802985453715004053
:100BD00013050580EF00707215E5EF30802AF250A2
:100BE000E2525253C2533255A255125682567247A0
:100BF000E2475248C248324EA24E124F824F216104
:100C00007300203085453715004013050580EF003F
:100C10009070E1B75D7186C696C49AC29EC022DE0E
:100C20002ADC2EDA32D836D63AD43ED242D046CE5C
:100C300072CC76CA7AC87EC6EF30602293055052D5
:100C40003745004013050540EF1000051DE5EF3066
:100C50004023B640A6421643864372546255D2558D
:100C60004256B256225792570258F248624ED24E1E
:100C7000424FB24F616173002030930550523744A8
:100C8000004013050440EF10E00513050440EF0099
:100C9000507F83D7C19193861700239ED190372729
:100CA00000201307C71ABA972380A70003A5019154
:100CB000EF20B05A69BF5D7186C696C49AC29EC0C5
:100CC00022DE2ADC2EDA32D836D63AD43ED242D0D0
:100CD00046CE72CC76CA7AC87EC6EF3040189305ED
:100CE00050523755004013050580EF00F07A1DE59E
:100CF000EF302019B640A64216438643725462551F
:100D0000D2554256B256225792570258F248624E76
:100D1000D24E424FB24F6161730020309305505262
:100D20003754004013050480EF00D07B1305048086
:100D3000EF0030751375F50FEF50D02755BF39719F
:100D400006DE16DC1ADA1ED82AD62ED432D236D0D7
:100D50003ACE3ECC42CA46C872C676C47AC27EC07B
:100D6000EF30E00F09651D2185476307F502EF307D
:100D70004011F250E2525253C2533255A25512560C
:100D800082567247E2475248C248324EA24E124F34
:100D9000824F21617300203009650929C9BF39716B
:100DA00006DE16DC1ADA1ED82AD62ED432D236D077
:100DB0003ACE3ECC42CA46C872C676C47AC27EC01B
:100DC000EF30E009EF30E00BF250E2525253C253E1
:100DD0003255A255125682567247E2475248C248CF
:100DE000324EA24E124F824F216173002030397172
:100DF00006DE16DC1ADA1ED82AD62ED432D236D027
:100E00003ACE3ECC42CA46C872C676C47AC27EC0CA
:100E1000EF30E00401A0397106DE16DC1ADA1ED8C4
:100E20002AD62ED432D236D03ACE3ECC42CA46C88A
:100E300072C676C47AC27EC0EF306002EF306004C2
:100E4000F250E2525253C2533255A25512568256B4
:100E50007247E2475248C248324EA24E124F824F6A
:100E6000216173002030411106C6EF20507FEF3022
:100E70004001B24041018280411106C6EF20307E20
:100E8000EF302000B24041018280411106C6EF20C0
:100E9000107DEF20107FB24041018280411106C6D3
:100EA000EF20F07BEF20F07DB2404101828039716C
:100EB00006DE16DC1ADA1ED82AD62ED432D236D066
:100EC0003ACE3ECC42CA46C872C676C47AC27EC00A
:100ED000EF20F078EF20F07AF250E2525253C253F2
:100EE0003255A255125682567247E2475248C248BE
:100EF000324EA24E124F824F216173002030397161
:100F000006DE16DC1ADA1ED82AD62ED432D236D015
:100F10003ACE3ECC42CA46C872C676C47AC27EC0B9
:100F2000EF20F073EF20F075F250E2525253C253AB
:100F30003255A255125682567247E2475248C2486D
:100F4000324EA24E124F824F216173002030397110
:100F500006DE16DC1ADA1ED82AD62ED432D236D0C5
:100F60003ACE3ECC42CA46C872C676C47AC27EC069
:100F7000EF20F06EEF20F070F250E2525253C25365
:100F80003255A255125682567247E2475248C2481D
:100F9000324EA24E124F824F2161730020303971C0
:100FA00006DE16DC1ADA1ED82AD62ED432D236D075
:100FB0003ACE3ECC42CA46C872C676C47AC27EC019
:100FC000EF20F069EF20F06BF250E2525253C2531F
:100FD0003255A255125682567247E2475248C248CD
:100FE000324EA24E124F824F216173002030397170
:100FF00006DE16DC1ADA1ED82AD62ED432D236D025
:101000003ACE3ECC42CA46C872C676C47AC27EC0C8
:10101000EF20F064EF20F066F250E2525253C253D8
:101020003255A255125682567247E2475248C2487C
:10103000324EA24E124F824F21617300203039711F
:1010400006DE16DC1ADA1ED82AD62ED432D236D0D4
:101050003ACE3ECC42CA46C872C676C47AC27EC078
:10106000EF20F05FEF20F061F250E2525253C25392
:101070003255A255125682567247E2475248C2482C
:10108000324EA24E124F824F216173002030411127
:1010900006C6EF007054EF501063EF50F00AEF50A7
:1010A000F00DEF504063EF50B0401306A0289305B9
:1010B00020030145EF109042EF5070369306100266
:1010C00013060002B7150E000945EF20C0468545FE
:1010D0000945EF2080578546014681451305700379
:1010E000EF10301113068004A14513052002EF1004
:1010F000300A8546054685456145EF10900F294524
:10110000EF30F06AEDBF970100209381A191174164
:101110000020130121EF17C500001305A52097F546
:10112000FF1F938525EE1386818563FAC500832210
:10113000050023A0550011059105E3EAC5FE1385BE
:10114000818597150020938565166377B500232068
:1011500005001105E36DB5FE9302800873A002300F
:1011600097F2FFFF938282ED93E212007390523068
:10117000EF50A02F01458145EF2020699722000004
:101180009382E26873901234730020309317350015
:1011900063DA0700B707024083A707407D8D333528
:1011A000A0008280B70702409C43CDBF9317350053
:1011B00063D70700B707024023A2A7408280B70782
:1011C0000240C8C382805C45D9C3B70601409387FB
:1011D000064003A6064018411347F7FF718F23A06E
:1011E000E64083A6464018411347F7FF758FD8C3E2
:1011F00058413E9714431041D18E14C3944718416F
:101200001347F7FF758F98C7D44718411347F7FF67
:10121000758FD8C71C454147638CE70037070140ED
:1012200013070740BA9798431441558F98C382809B
:10123000B707014003A787401441558F23A4E74017
:1012400003A7C7401441558F23A6E7408280584129
:10125000B7070140938707403E9714431C4193C74B
:10126000F7FFF58F1CC382803707014083270740B3
:1012700003274741698F09C77D8D3335A0008280E0
:1012800001458280B707014023AAA74082809C4580
:1012900093F8F700C18B81C7DC41B3E8F80083C73E
:1012A0000500A9CB10418147054E3D4F930E8002AA
:1012B000930F8004214329A054C98507638B6702DB
:1012C000B316FE0003D70500758FE398E6FE13976B
:1012D00027003318EF001348F8FF3376C800339720
:1012E000E800598E9845E309D7FDE318F7FD14C9C6
:1012F000E9B710C103D705009307F00F63FDE704BA
:101300005041A147054EBD4F130F8002930E80043C
:10131000414331A054C915A88507638D6702B316F0
:10132000FE0003D70500758FE398E6FE13972700AC
:1013300001173398EF001348F8FF3376C80033974E
:10134000E800598E9845E307E7FD9845E316D7FD79
:1013500014C9D9B750C1828019C20CC982804CC946
:1013600082802A8663400504B7070140DC43931658
:101370000501C182370730003378E5006308E802D1
:101380001317B500635C0704135705011378F700C2
:101390000D47331707011347F7FF7D8FB707000F7E
:1013A000D98F0DA0B7070140DC4FD1B7370700F147
:1013B0007D17F98FB708014003A848003377E8008C
:1013C00023A2E80091C5558112053395A600C98F67
:1013D00063420602370701405CC382801357550100
:1013E00012073397E6001347F7FF7D8FB707000F0B
:1013F000D98FC9BF370701405CCF828093F7350092
:101400008A0713F7C50FB7050140BA9594453D47C4
:101410003317F7001347F7FF758F98C598453315B5
:10142000F500598D88C58280B7E700E0BC47898BFD
:1014300095CF8346050083472500920793F7F70F62
:1014400037E700E036972300F7405C41B5C7034714
:101450000500935757008546B396E6009387070427
:101460008A0737E700E0BA9794C38280B7E700E0C5
:10147000BC47898BF9FB034715008547630FF700CD
:101480008346050083472500920793F7F70F37E758
:1014900000E036972300F7404DBF834605008347A1
:1014A0002500920793E707F893F7F70F37E700E077
:1014B00036972300F74051BF034705009357570065
:1014C0008546B396E600938707068A0737E700E06C
:1014D000BA9794C38280B7170240DC43B18B11479F
:1014E0006384E70821476387E70899C7B7177A003D
:1014F000938707201CC131A0B7177A009387072074
:101500001CC1371602405C429183BD8B3707002017
:1015100013070700BA9783C607001C41B3D7D7004B
:101520005CC15442A1829D8ABA9683C60600B3D696
:10153000D70014C55442AD829D8A369703470700F1
:10154000B3D7E7005CC55842398393763700370735
:101550000020130707223697034707001377F70F7A
:10156000B3D7E7021CC98280B7177A009387072098
:101570001CC141BF371702405C435843C983BD8B30
:1015800089079316F70063CA060037173D00130753
:101590000790B387E7021CC1ADB737170240584325
:1015A0009316E70063DA060037173D00130707902C
:1015B000B387E7021CC1B1B737177A0013070720BA
:1015C000B387E7021CC135BF99C5371702401C4FCE
:1015D0005D8D08CF8280B7170240984F1345F5FF05
:1015E000798D88CF828099C5371702405C4F5D8D19
:1015F00048CF8280B7170240D84F1345F5FF798D49
:10160000C8CF8280035705008D67938707047D8FBD
:1016100083D7050083D62500D58F83D64500D58F87
:1016200083D66500D58F83D68500D58F83D6A50058
:10163000D58F83D6C500D58F83D6E500D58FD98FBA
:101640002310F5000357C501FD779387F77FF98FC6
:10165000231EF50083D705012318F500828081C978
:101660008357050093E707042310F5008280835712
:101670000500C207C18393F7F7FBC207C18323109C
:10168000F500828083570500C207C18337370140C8
:10169000130707C06300E504370700406307E5064A
:1016A000130707406303E506371700401307078059
:1016B000630DE50493F7F7CF03D76500D98F2310A7
:1016C000F50083D745002316F50283D705002314C0
:1016D000F50285A093F7F7F803D72500D98F93F784
:1016E000F7CF03D76500D98F2310F50083D74500C6
:1016F0002316F50283D705002314F50203C78500DE
:10170000B73701402398E7C22DA093F7F7F803D726
:101710002500D98F93F7F7CF03D76500D98F231012
:10172000F50083D745002316F50283D7050023145F
:10173000F5028547231AF500828083570502C20708
:10174000C183F99BC207C1832310F50283570502A9
:10175000C207C18383564500C206C1820357850173
:10176000420741831377C7F803D60500518FF59BD5
:1017700003D6850003D8250033660601D18F37369E
:101780000140130606C0630DC5002312D500231CBB
:10179000E50003D76500231AE5022310F5028280D5
:1017A000DD9B03D6A500D18FED9B03D64500D18FDD
:1017B00093F6F6CF03D6C50003D8E50033660601DD
:1017C000D18EE1B783570502C207C183BD9BC20713
:1017D000C1832310F50283570502C207C183035654
:1017E0004500420641828356850165771307F7CF8E
:1017F000758F83D60500A206558F4207418393F764
:10180000F7FD03D8850083D62500B3E606019206CE
:10181000D58FC207C183B7360140938606C0630DDA
:10182000D5002312C500231CE50003D76500231C47
:10183000E5022310F502828093F7F7F783D6A5001F
:101840009206D58FC207C18393F7F7FB83D6450075
:101850009206D58FC207C183FD769386F63F758EBB
:1018600003D8C50083D6E500B3E606018A06558E87
:10187000420641827DB783570502C207C18393F7B1
:10188000F7EFC207C1832310F50283570502C20791
:10189000C18303564500420641820357C5014207F2
:1018A00041831377C7F883D60500558F93F7F7DF89
:1018B00003D8850083D62500B3E60601A206D58F9E
:1018C000C207C183B7360140938606C0630DD500B9
:1018D0002312C500231EE50003D76500231EE50281
:1018E0002310F5028280FD769386F67FF58F83D6EE
:1018F000A500A206D58FC207C18393F7F7BF83D691
:101900004500A206D58FC207C183F576FD16758EF8
:1019100003D8C50083D6E500B3E606019206558ECE
:101920004206418275B703570502FD77FD17F98F0F
:101930002310F50203580502035645004206418272
:101940008357C50165771307F7CF7D8F83D60500D1
:10195000A206558F42074183F977FD17B3F70701B8
:1019600003D8850083D62500B3E60601B206D58FDD
:10197000C207C183B7360140938606C0630DD50008
:101980002312C500231EE50003D765002310E504DC
:101990002310F5028280F176FD16758E83D6C50080
:1019A0009A06558E42064182E1BFFD572312F5008B
:1019B000231005002313050023110500230405004F
:1019C000828081C98357050093E717002310F50033
:1019D000828083570500C207C183F99BC207C18378
:1019E0002310F500828081C9835745042167D98F70
:1019F0002312F504828083574504C607C58323124A
:101A0000F5048280035885004208135808010357E3
:101A100085014207418383570502C207C1831378BA
:101A200088FFB365B8001377C7CF1367171093F714
:101A3000D7FD9206558ED18FC207C1832314B500FE
:101A4000231CE5002310F502828083578501C2071D
:101A5000C183DD9BDD8D231CB5008280035785018A
:101A6000FD779387F77FF98FA205CD8FC207C183DA
:101A7000231CF50082808357C501C207C183DD9B0B
:101A8000DD8D231EB50082800357C501FD77938746
:101A9000F77FF98FA205CD8FC207C183231EF50002
:101AA000828083578501C207C183ED9BDD8D231C96
:101AB000B500828083578501C207C18393F7F7BFC2
:101AC000A205CD8FC207C183231CF50082808357F6
:101AD000C501C207C183ED9BDD8D231EB500828049
:101AE0008357C501C207C18393F7F7BFA205CD8F06
:101AF000C207C183231EF500828083570501035569
:101B0000C50042054181ED8F89C76D8D3335A00039
:101B100082800145828093C5F5FFC205C1812318EB
:101B2000B5008280797106D622D426D22A84AE846A
:101B300003570501F577FD17F98F03D76500D98F96
:101B40002318F5000357C500FD779387379FF98F5A
:101B500003D74500D98F03D78500D98F03D7A500B8
:101B6000D98F2316F50083574501C207C18393F728
:101B7000F7CF03D7C500D98F231AF5006800EFF01F
:101B80009F95B7470140938707806301F40652474A
:101B90008357C400C207C18763CC0704931717009B
:101BA000BA978E07BA9798400A07B3D7E702130788
:101BB0004006B3D6E7029206B3F7E7020357C40024
:101BC000420741876340070492079387270313075F
:101BD0004006B3D7E702BD8BD58FC207C18323145C
:101BE000F400B250225492544561828062474DB74E
:101BF00093171700BA978E07BA9798400607B3D77E
:101C0000E70275B7139737001307270393074006BA
:101C10003357F7021D8BB367D700C1B781C983570C
:101C2000C5000967D98F2316F50082800357C500C8
:101C3000F977FD17F98F2316F500828093F7F50FDA
:101C400095830547B315B700638CE70089461307F2
:101C50004501638AD70019CA1C43DD8D0CC38280FD
:101C60001307C500CDBF13070501F5B71C4393C586
:101C7000F5FFFD8D0CC3828093F5F51F2312B5008F
:101C80008280035545001375F51F828003550500BA
:101C90006D8D3335A000828093F7F50F95838546CF
:101CA0003397B6006388D70289466389D702835782
:101CB00045017D8F0355050093170501C18301453B
:101CC00009CBA1810545B315B50033F5B700333510
:101CD000A00082808357C5007D8FE9BF835705012F
:101CE0007D8FC9BFA1818547B397B70093C7F7FF21
:101CF000C207C1832310F5008280011106CE22CCD9
:101D000026CAB16783A4074F056413040480C0C8C2
:101D10002306A100A306B10089467000B2850545DF
:101D2000EF10807080C8F2406244D2440561828026
:101D3000011106CE22CC26CA4AC82E89B16783A4D7
:101D4000074F056413040480C0C8136505F8230613
:101D5000A10083C70500A306F10089467000B28583
:101D60000545EF10606C8347D1002300F90080C85F
:101D7000F2406244D244424905618280411106C664
:101D800022C426C2B16783A4074F056413040480EC
:101D9000C0C8AE862A86AA850545EF10E06880C8CF
:101DA000B2402244924441018280011106CE22CCED
:101DB000A307010049449305F100130550078D3F27
:101DC00015458145EF10E0698347F100E39587FEF3
:101DD000F240624405618280011106CE22CCA30745
:101DE000010029458145EF10C067094881472D470B
:101DF0009306200213061002930500020545EF101A
:101E0000E0526537930500081305B006FD35094516
:101E10008145EF100065130410049305F1001305CC
:101E2000B006393729458145EF10A0638347F1009B
:101E3000E39587FE85451305B006C1358145130539
:101E4000C006653D854569454D3D9D4565457535F2
:101E5000E1456D455D35C145714545358D45754556
:101E6000693DF240624405618280011106CE93070C
:101E7000B0FB2304F1009D452800093783479100FA
:101E8000A2070347A100D98F239CF1848347B100A7
:101E9000A2070347C100D98F239DF1848347D10056
:101EA000A2070347E100D98F239EF184F240056128
:101EB0008280011106CE930730FC2304F1009D457A
:101EC00028006D3D83479100A2070347A100D98FE9
:101ED000239FF1848347B100A2070347C100D98F34
:101EE0002390F1868347D100A2070347E100D98FF1
:101EF0002391F186F24005618280011106CE22CC49
:101F000026CAA307A100B16703A4874FA16444C8F0
:101F100091675CC8854601469305F1000145EF10C5
:101F2000A05004C8F2406244D2440561828001118D
:101F300006CE22CC26CAA307A100B16703A4874F0F
:101F4000A16444C891671CC8854601469305F10009
:101F50000145EF10604D04C8F2406244D24405616F
:101F60008280011106CE22CC26CAB16703A4874F16
:101F7000A16444C8935785002306F100A306A1007D
:101F800091671CC8894601466C000145EF10C049A5
:101F900004C8F2406244D24405618280011106CE39
:101FA00022CC26CA4AC84EC6AA89AE843289368453
:101FB0001305A002993713858902420541815537DF
:101FC0001305890242054181693F1305B002353787
:101FD00013854403420541816937130544034205D3
:101FE000418141371305C002093FF2406244D244A7
:101FF0004249B24905618280011106CE22CC26CA2F
:102000004AC84EC6AA84930660081306F00E81459E
:10201000014569371309000F9309700839A07D192C
:10202000420913590901630A09004E842685153FA8
:102030007D14420441807DF8DDB7F2406244D24411
:102040004249B24905618280411106C622C426C2B6
:10205000014881471307F004930630020546814585
:102060000145EF10A02C9306003105468545130568
:102070000008EF00007B93060031014685451305FB
:10208000E004EF00007A9306003101468545130510
:10209000D004EF000079B16703A4874F896444C876
:1020A0001305800C8145EF10C03B04C813054006A2
:1020B0008145EF10003B1305600381351305400691
:1020C0008145EF10003A1305000A95351305A0036A
:1020D0002D351545A93D1305200B05353145813DAD
:1020E0003145B1350145A135130530038935130557
:1020F0003003353D1305700B093513055003053DBD
:102100001305B00BDD3B1305700315351305000CEB
:10211000ED331305C002213D1305200CF93B0545A5
:1021200039351305300CD13B494511351305400CA9
:10213000E93313050002E53B1305600C7D3B3D458B
:10214000FD331305000D553B1305400ACD33130530
:10215000100AF13B1305000E4D331305000DC13B72
:102160001145F1333545E1334545D1334D45C13353
:102170001305B0026D3B1305F003553B13054005F5
:102180007D331305C004653361455533354545330B
:102190002D45713B7D45613B13053002493B1305DD
:1021A000100EA13B1305000D59331145493331453C
:1021B000BD3B4545AD3B4D459D3B1305C002853BB1
:1021C0001305F003AD3313054004953313051005D3
:1021D000B93B1305F002A13B7D45913B7D45813B19
:1021E00013050002A93313053002913313051002C1
:1021F000293345451933130580078145EF106026C3
:1022000013059002DD3941657D15FD33B24022444E
:10221000924441018280797106D622D426D24AD0D6
:102220004ECE52CC56CA5AC85EC662C466C22A8C0A
:102230001206930A06E0B167938747DA3389FA00FA
:10224000930A0901B3852541939B050193DB0B019B
:10225000130B7500420B135B0B01A14CC169138A70
:10226000F9FF938909801DA05285EFF09FCF8580EB
:102270007D141374F40F01C893F71400F5D74E853D
:10228000EFF03FCEEDB70509630F5901B3852B0180
:10229000C205C181AE865A866285EFF03FD0834485
:1022A00009006684D1BFB250225492540259F249B7
:1022B000624AD24A424BB24B224C924C45618280D8
:1022C000011106CE22CC26CA4AC84EC6B2890306E0
:1022D000060015C62A8492051399050113590901B0
:1022E0008144CA852285053F8504C204C180B38725
:1022F0009900038607002104420441807DF2F240E8
:102300006244D2444249B249056182805D7186C609
:10231000A2C4A6C2CAC04EDE52DC56DAAA892E8AF0
:102320003284B684BE8A994663F3F600994A93FADA
:10233000FA0FBA87A94663F3E600A94713F9F70F26
:10234000014681462285A685EF50D026634D050AB9
:102350002286A686B7C50000938545391305D100AE
:1023600075229306A5FF93F6F60F1346F9FF3696EE
:102370001376F60F1319860113598941850AD696EB
:1023800093F6F60F939A860193DA8A41635E090207
:10239000918E93F6F60FD6879305000218183E9794
:1023A000230EB7FC850713F7F70F93178701E18713
:1023B000E396E6FEB38ACA40E20A93DA8A41330919
:1023C000C940620913598941014681462285A68583
:1023D000EF50501E634805061C183E9993070002F3
:1023E000230EF9FC1C18BE9A238E0AFC7000D285BD
:1023F0004E85F935B640264496440649F259625A4C
:10240000D25A616182802286A686B7C50000938574
:1024100045396800E528930695FF93F6F60F1346B5
:10242000F9FF36961376F60F131986011359894171
:10243000850AD69693F6F60F939A860193DA8A4127
:10244000E34809F41C183E999307D002230EF9FCC7
:1024500051BFAA8729C21357F541B347A700998FE7
:10246000368633E7D702130707032380E500B3C698
:10247000D702B5C2AE87850733E7C6021307070345
:102480002380E700B3C6C602138517000D8D1375B0
:10249000F50FF5F282802E86B68825480547B305EC
:1024A000B7400DA0130707031377F70F2300E600CB
:1024B00033D7D7023305B6001375F50F63EE170156
:1024C0000506BA8733F7D702E37EE8FC13077703E4
:1024D0001377F70FE1BF0545828013D815008547B4
:1024E00063F5B7029387F5FFAA972A872E9583860F
:1024F0000700030607002380C7002300D700050755
:10250000B306F540FD17E3E406FF8280757186D6B9
:10251000A2D4A6D2CAD0CECED2CCD6CADAC8DEC613
:10252000E2C4E6C2EAC06EDEB2DCB6DE3AC13EC349
:1025300042C546C7BC183ED6838705006382072C78
:102540002A84814C93045002930A3005316A130A9D
:102550008A3937C700000329874E8329C74E41A413
:10256000B257138747003AD69C432300F400050472
:10257000850C8DA4B257138747003AD683AB07006A
:10258000A94605462C005E85E9352A8B63CD0B00F4
:10259000DA85280099375A862C002285EF70A03AF8
:1025A0005A94DA9C05AC1C18AA971307D002238C06
:1025B000E7FC130B1500137BFB0FD9BFB2579D0728
:1025C000E19B138787003AD603AB070083AB470034
:1025D0005A85DE85EF60C0482A8DA94605462C0045
:1025E0008D3DAA8D014681465A85DE85EF50807C5F
:1025F00063400506EE852800CD356E862C002285C9
:10260000EF7060346E94EE9C6A85EF60E04B2A8632
:10261000AE865A85DE85EF50D0504A86CE86EF5082
:10262000D0042A8BAE8B01468146EF5000721DE923
:1026300093070003A306F1002306F100A305F100B0
:102640002305F100A304F1002304F100194581A83A
:102650001C18EE971307D002238CE7FC850D93FD21
:10266000FD0F49BF5A85DE85EF60803FA9460546CC
:102670002C00C533954763E4A7023C00AA971307D3
:1026800091002A979546898E93F6F60F3697930612
:1026900000032380D7008507E31DF7FE19451C18AA
:1026A000AA971307E002238CE7FC0505137BF50FBF
:1026B000DA8528001D355A862C002285EF70A02867
:1026C000DA9C09AAB257138747003AD6A9460146B1
:1026D0002C008843BD3B2A8BAA852800FD3B5A86E7
:1026E0002C002285EF7020265A94DA9CE5A0B25780
:1026F000138747003AD6A14601462C008843913BF8
:102700002A8BAA852800D13B5A862C002285EF709F
:1027100080235A94DA9C7DA8B257138747003AD693
:10272000C14601462C008843EFF0BFD22A8BAA8510
:10273000280065335A862C002285EF70C0205A94F9
:10274000DA9C49A8B257138747003AD694430387C7
:10275000060049C3A28733848C402380E7008507A5
:10276000B38C870085060387060065FB3E849DA029
:10277000A14528009D33834881000348910003450B
:10278000A1008345B1000346C1008346D100034741
:10279000E1008347F10023001401A3000401230199
:1027A000A400A301B4002302C400A302D4002303A5
:1027B000E400A303F4002104A10C29A8930750020C
:1027C0002300F4000504850C31A02300F400050467
:1027D000850C2E8C93051C0083071C009DC3E3967B
:1027E00097FE138C150083C715009387B7FD13F769
:1027F000F70FE3E1EAFE93172700D2979C43828705
:10280000814C6685B650265496540659F649664A58
:10281000D64A464BB64B264C964C064DF25D496166
:102820008280130700086306E510797106D622D46A
:1028300026D24AD04ECE52CC9357550013F977008A
:102840001374F501368AB289AE848DCB054763894E
:10285000E7060947638BE7060D47638DE7061147D7
:102860006380E70815476383E7081947639CE7001F
:10287000854513050010EFE03FD529A0854511459A
:10288000EFE09FD4854733948700420441802312B0
:1028900081006383F4069376FA0F36C61317290076
:1028A000B1679387074FBA974C008843EFE03F9E8C
:1028B000B250225492540259F249624A45618280D0
:1028C00085452145EFE05FD075BF85454145EFE087
:1028D000BFCF4DBF854513050002EFE0FFCE5DB7CA
:1028E000854513050004EFE03FCE69BF854513051C
:1028F0000008EFE07FCD79B793170A01C183A18368
:102900009DE78D473EC49376FA0F36C6131729000C
:10291000B1669386064F369704434C002685EFE058
:102920001F974E86A2852685EFE01FA351B73EC4B0
:10293000D9BF8280935755009D8B7D890547638D54
:10294000E5008A0731671307074FBA979843854711
:102950003395A70048CB82808A0731671307074F5A
:10296000BA97984385473395A70008CB82801357C1
:1029700035009376C70131671307074F36971C431D
:10298000984785473395A700798D3335A00082801D
:10299000011106CE22CC26CA4AC82A84AE843289C6
:1029A00085450545EFE05FC2CA860146814522851F
:1029B0008D3D135554009375F4011375F50FEFE039
:1029C000FFA385473394870022C002C226C43EC6B7
:1029D0000A85EFE04FFFF2406244D244424905616C
:1029E0008280B7E700E07D5723A0E71823A2E7180D
:1029F0008280011106CE2304A100A304B1002305A7
:102A0000C10036C62800EFE03FA237E600E01842DA
:102A1000FD76F98E03A78193558F23ACE19258423E
:102A20009387819312071183D443558FD8C303C76B
:102A3000870085476305F700F240056182805537BE
:102A4000E5BF411106C6930700206301F51E63F13F
:102A5000A704930730216306F52263EBA70E9307C3
:102A600030206305F51E63F4A70C9307102163085B
:102A7000F51E63EFA71E93070021631CF512930652
:102A800080310146854513056004EFF09FD915A2FA
:102A9000930710106302F51463FBA702930700115C
:102AA000630CF51463F5A706930720116307F51669
:102AB000636CF51493073011631DF50E9306803196
:102AC000014685451305B002EFF0BFD5DDA089476B
:102AD0006304F50E63F1A7028D476307F50E9307B4
:102AE00000106318F50C93068031014685450145B9
:102AF000EFF03FD37DA85DC58547631CF50A9306BB
:102B00008031014685452545EFF0BFD15DA0930793
:102B10002010630BF50C93073010631CF508930627
:102B20008031014685450D45EFF0BFCF59A0930791
:102B300010206305F51093072020631CF50693060B
:102B400080310146854513050002EFF09FCD95A029
:102B5000930700306309F51463F5A702930720304B
:102B60006305F516636AF514930730306313F504B3
:102B7000930680310146854513059002EFF07FCA28
:102B80000DA8930700226307F51093071022631224
:102B9000F502930680310146854513055002EFF09A
:102BA0005FC801A893068031014685452145EFF0B5
:102BB0005FC7B2404101828093068031014685455E
:102BC0002945EFF01FC6F5B79306803101468545CC
:102BD0002D45EFF01FC5F1BF9306803101468545B5
:102BE0000545EFF01FC4F1B79306803101468545D6
:102BF0000945EFF01FC375BF930680310146854537
:102C00003D45EFF01FC275B79306803101468545FB
:102C100013053002EFF0FFC069BF93068031014613
:102C200085451305A002EFF0DFBF61B79306803141
:102C3000014685451945EFF0DFBEA5BF93068031FB
:102C4000014685451D45EFF0DFBDA5B793068031F0
:102C50000146854513051002EFF0BFBC99BF9306EE
:102C600080310146854513057004EFF09FBB91B795
:102C7000930680310146854513058004EFF07FBA45
:102C80000DBF930680310146854513059004EFF092
:102C90005FB905B7930680310146854513054002AB
:102CA000EFF03FB839B793068031014685451305EB
:102CB0006002EFF01FB7F5BD9306803101468545F0
:102CC00013057002EFF0FFB5EDB5930680310146B4
:102CD000854513058002EFF0DFB4E1BD397106DEF2
:102CE00022DC26DA4AD84ED6AA84AE893289EFF0A1
:102CF0005FD513D4840075C085476307F40E8947F8
:102D0000630CF4108D47630FF41285450545EFE021
:102D1000BF8BB7170240DC43C983BD8B37177A00DE
:102D200013070720B387E7023727F400130707408C
:102D3000BA9723A2F18633D737034183930517004F
:102D4000B3853503B3D7B7029386F7FF231CD100B1
:102D5000231AE100231D0100231B0100230E0100A3
:102D6000130700072312E10005472313E100231492
:102D70000100C207C183B3872703096713070771DF
:102D8000B3D7E7022315F10089472316F100231773
:102D9000F10023180100231901000A04B167938789
:102DA00007503E9400404C082285EFE0BF8D8D888F
:102DB000F9C08547638CF40E89476387F4104C0093
:102DC0002285EFE05FB6A1452285EFE0FFCB9305BA
:102DD00000402285EFE0DFD05DA88545056513053D
:102DE0000580EFE06FFE15B785450545EFE0AFFFC5
:102DF00085450545EFE04FFD93D744004147638883
:102E0000E7044547E397E7F08545370518001305C4
:102E10000530EFE00FD5F5BD85450945EFE0AFFC86
:102E200085450545EFE04FFA93D74400130710029C
:102E30006397E702854537151A00130505C0EFE0D3
:102E40004FD2C1BD85451145EFE0EFF97DBD854508
:102E50003705160013050504EFE0AFD05DBD13077D
:102E60002002E398E7EA854537151A001305058027
:102E7000EFE02FCF79BD4C002285EFE01F8CA145FC
:102E80002285EFE09FBC91452285EFE09FC18545FB
:102E90002285EFE01FB385452285EFE0DFB4F250D5
:102EA0006254D2544259B259216182804C00228529
:102EB000EFE05F91A1452285EFE05FBA9305004006
:102EC0002285EFE03FBFE1B74C002285EFE0BF9ADB
:102ED000A1452285EFE03FBA91452285EFE03FBF53
:102EE0007DB71357850093172700B1669386065068
:102EF000B6979C4383D7C702B385F502896793874A
:102F00000771B3D5F50201EF0D89B757001093870C
:102F1000D7B03E950A05C205C1810CC182808547A4
:102F20006309F70089476300F7028D476308F702DA
:102F300082800D89B7070010B5073E950A05C205C6
:102F4000C1810CC182800D89B70700109387D7100B
:102F50003E950A05C205C1810CC182800D89B70763
:102F600000109387D7203E950A05C205C1810CC188
:102F7000C1B7411106C622C42E841DC98947630802
:102F8000F5069147630CF50699476300F508A147DC
:102F90006304F508A9476309F508B1476310F50212
:102FA00091460146814513056002EFF09F8739A0E5
:102FB0009146014681452145EFF0BF868547630D67
:102FC000F4068D476301F40895476305F4089D47AF
:102FD000630AF408A547630EF408AD476303F40AD7
:102FE000B5476308F40AB240224441018280914609
:102FF000014681450145EFF0DF82C9B791460146A0
:1030000081453D45EFF0FF8155BF91460146814521
:103010001945EFF01F815DB79146014681451305C3
:103020006004EFF01F8059BF9146014681451305AA
:103030004002EFF00FFF59B7914601468145254503
:10304000EFF02FFE4DB79146014681450545EFF063
:103050004FFD51BF91460146814513053002EFF007
:103060004FFC51B79146014681451D45EFF06FFB7E
:103070009DBF91460146814513057004EFF06FFA3C
:103080009DB791460146814513055002EFF06FF957
:1030900099BF91460146814513057002EFF06FF824
:1030A00099B7011106CE22CC26CA4AC82A84AE841A
:1030B000328931C58547630BF5048947630DF504F3
:1030C0008D47630FF504CA852685EFF09FEA854595
:1030D0000545EFE06FCF91476389F404A147638A08
:1030E000F40AA9476396F404AD476313F9048545D0
:1030F00037151A0013050580EFE0AFA615A8854522
:10310000056513050580EFE02FCC75BF85450545A6
:10311000EFE06FCD4DBF85450945EFE0CFCC65B7FA
:1031200085451145EFE02FCC79BF9547630BF90436
:103130004800EFE09F8785472312F100FD572314D5
:10314000F1002315010023130100230601000A04E6
:10315000B167938707503E9400404C002285EFE012
:103160006FD28146014689452285EFE0BF898545BA
:103170002285EFE01F85F2406244D2444249056156
:10318000828085453705180013050530EFE06F9DF7
:1031900045B7A547E31EF9F8854537151A0013050D
:1031A00005C0EFE00F9C69B70A05B1679387075028
:1031B000AA979C4303D547024205418582800A05B0
:1031C000B16793870750AA979C4323920702828096
:1031D000411106C622C426C24AC0AE843284368952
:1031E0002DCDC1476303F508930700026318F50866
:1031F00093068031054685451305D002EFF06FE256
:103200008547638CF408C5476381F40A930710026D
:103210006396F40A93068031054685451305F0024E
:10322000EFF02FE08947630AF40AC947630FF40AF5
:10323000930720026304F40C930730026319F40C23
:1032400093060031054685454A85EFF08FDDB24093
:10325000224492440249410182809306803105460E
:1032600085451545EFF0EFDB61BF930680310546DC
:10327000854513053002EFF0CFDA59B7B7C6000025
:10328000938606523166130606519305D00237C560
:10329000000013054552EF60006593068031054636
:1032A00085451D45EFF0EFD7B5BF93068031054644
:1032B000854513055002EFF0CFD6ADB7B7C6000075
:1032C000938606523166130606519305200337C5CF
:1032D000000013054552EF600061930680310546FA
:1032E00085451945EFF0EFD3A1BF93068031054620
:1032F000854513054002EFF0CFD299B79306803190
:10330000054685451305E002EFF0AFD115BFB7C6FE
:10331000000093860652316613060651930580031A
:1033200037C5000013054552EF60E05B397106DEDA
:1033300022DC26DA4AD84ED652D456D25AD02A8423
:10334000AE89328AB68A3A8BBE84428949C585479E
:103350006309F508DA865686D2854E85EFF05FE779
:1033600023160100930740102317F10023180100D2
:1033700085476383F40893978401E187ADCB894740
:103380006382F4088D476385F40893070020231BAC
:10339000F1000E09231C2101231D01009D47231E5E
:1033A000F1000A0413850183229500416C002285F7
:1033B000EFE04FA5C1476384F90685452285EFE01C
:1033C0000FAAF2506254D2544259B259225A925A18
:1033D000025B21618280854505650505EFE0CF9E92
:1033E00095BF854511650505EFE0EF9FA5B723194A
:1033F0000100231A010051BF231901008547231A38
:10340000F10061B789472319F100231A0100B5BF04
:1034100089472319F1008547231AF100BDB7854577
:103420000545EFD01FF451BFAE96938701830A057F
:103430003E956387B602184183578700898BEDDF7D
:10344000850583C7F5FF2316F70065D683578700E8
:10345000858BEDDF8357C7002300F6000506D1BF3B
:103460008280411106C6EF109034B2404101828043
:10347000411106C60DE585476385F500B24041015F
:10348000828093068031014685452545EFF06FB96E
:103490009146014681452945EFF0AFB8C5B7894748
:1034A0006309F502C1476306F50493070002631040
:1034B000F50693068031014685451305A002EFF01D
:1034C0004FB69146014681451305B002EFF06FB546
:1034D00075B7930680310146854513056002EFF00C
:1034E0004FB491460146814513057002EFF06FB36A
:1034F00071B793068031014685450945EFF06FB2FB
:103500009146014681450D45EFF0AFB185BF930768
:103510002002E315F5F69306803101468545130533
:10352000A004EFF00FB09146014681451305B004A9
:10353000EFF02FAFA1B7797106D622D426D24AD0A8
:103540004ECE2A84AE89B284368985450545EFE0A2
:10355000AF87CA852685EFF0BFF189476381F40202
:10356000930720026390F40293073002631CF90072
:103570008545370514004105EFD0BFDE21A08D47FA
:10358000630AF90429CC85476300F406894763037D
:10359000F4064EC02312010023130100231401007E
:1035A00023160100B1472315F1000A04B167938780
:1035B00007553E9400408A852285EFE0AFD68545C9
:1035C0002285EFE0AFE5B250225492540259F249FD
:1035D0004561828085451145EFD0BFD865B78545E7
:1035E0001165EFD07FFE75B7854537050200EFD036
:1035F0009FFF45B7854537050400EFD0DFFE51BF7B
:103600000A05B16793870755AA9798438357070020
:1036100093F70708E5DFC205C1812312B700828056
:10362000411106C622C426C2AA842E8483C5050081
:1036300081C905042685EFF0BFFC83450400F5F938
:10364000B2402244924441018280411106C622C404
:1036500026C22A84AE8413172500B16793870755C5
:10366000BA970546930550528843EFE02FDDA686B2
:103670000146854513055403EFF0AFB7B24022442D
:103680009244410182800A05B16793870755AA9742
:1036900098438357070093F70702E5DF83574700F6
:1036A0002380F500828003A581868280411106C6B1
:1036B000938781869843050798C3EF1040733C4178
:1036C000FD173CC191C7EF101036B2404101828016
:1036D0005C5D3CC1EF10007EFDB7634205029307BD
:1036E000803E3347F5023307F7023365F5023305B1
:1036F000F5021305753E3345F5023A9582807D55F6
:103700008280014582800145828001458280014599
:10371000828035671307C728B56793870729637CBD
:10372000F702411106C622C426C235649304C42898
:10373000B5679387F728858FF19B9107BE94130493
:10374000C4281C4082971104E31D94FEB240224419
:103750009244410182808280356713070729B5674B
:1037600093878729637CF702411106C622C426C2CB
:10377000356493040429B56793877729858FF19B76
:103780009107BE94130404291C4082971104E31D81
:1037900094FEB240224492444101828082804111D1
:1037A00006C6EFF07FFBEFD09F8EB24041018280D2
:1037B000411106C6D1470D47930600400146B73573
:1037C00000009385E57937C5000013050556EF1015
:1037D0006062EF10F003B24041018280411106C6E1
:1037E000EFC01F96EF209029EF001059EF10B02C7A
:1037F000EF10802FEFF0DFFBEF10902CC128EF10BF
:1038000080310145B24041018280411106C6EFF08E
:10381000FFFC0145B2404101828003A741899387A3
:103820004189630FF708011106CE22CC26CA4AC887
:103830004EC652C456C293894189854A2DA0268519
:10384000EF10002A630A5505EF10C0425285EFC001
:103850009F8F4848EF1040052685EF10202583A74D
:10386000418963863705EFC0BF8D2A8A83A74189C6
:10387000638D370303A441899304C4FE18405C4060
:103880005CC3184098C340C000C0EF10A03C7C4C03
:10389000DDD72685829765B72685EF100018EF10D3
:1038A000603D5285EFC03F8A19A0EFC0DF89F2402A
:1038B0006244D2444249B249224A924A0561828016
:1038C0008280411106C6EFF05FF5F5BF411106C6D3
:1038D00022C4930800021D48930700301387C19B40
:1038E0008146374600001306268CB7C50000938535
:1038F000855613854194EF10804413854194EF1051
:103900002071B240224441018280411106C622C486
:1039100026C24AC02A843289B6842E868945EF1091
:10392000A008930744011CCC5CC8231E2401A304F7
:1039300094000145B24022449244024941018280F0
:10394000411106C622C426C2AE843284AA85094526
:10395000EF10800F09C9930745011CCD5CC9231ED8
:103960009500A3048500B240224492444101828024
:10397000797106D622D426D24AD04ECE52CC2A8491
:103980002EC6EFC0EFFBAA898357C401A1E7B24757
:10399000A9CBEF10C045AA842328050213094401CE
:1039A000034A9400EF10C05663010A048547630878
:1039B000FA04B2476348F0084E85EFC0CFF8EF1025
:1039C00060188858B250225492540259F249624AFF
:1039D00045618280FD17231EF400EFC0CFF601453C
:1039E000D5B7EFC04FF67955F1BF93874401184C16
:1039F0001CC3184C98CC1CCC23AA24015DBF5C4886
:103A00006308F90283C6540303C7170263E9E6009B
:103A10009C43630FF90003C71702E3FBE6FE13871D
:103A20004401D44398C2D44394CCD8C3DCC851B722
:103A300093874401184C1CC3184C98CC1CCC23AA67
:103A4000240185BF13844404700081452285EF1052
:103A500080792285EF10406B85B7411106C622C4DC
:103A600026C22A84EFC0CFEDAA84484893074401B8
:103A70006300F5023115EF10A0542685EFC0AFECBE
:103A8000EF10400C0145B240224492444101828033
:103A90008357C4018507231EF4002685EFC0AFEAD3
:103AA000D5B7411106C622C426C24AC0AE843289A7
:103AB000AA851545EF0050792A841DC9A304250164
:103AC000930745011CCD5CC9231095021395040191
:103AD00041810A05EF00B04748CC15C1231104020B
:103AE0002312040223130402930784025CD41CD41F
:103AF0002285B240224492440249410182802285BB
:103B0000EF00D07A0144EDB7397106DE22DC26DA07
:103B10004AD84ED652D456D25AD05ECE62CC66CA5D
:103B20002A842E8C32C6EF10802CAA84EFC04FE17D
:103B3000AA8903572402835704026309F704035731
:103B400044025C4C0A07BA9723A0870183574402BA
:103B50008507C207C1832312F4020357040263E4FA
:103B6000E700231204028357240285072311F4027D
:103B700048485104630785123115EF1060444E85A3
:103B8000EFC06FDCEF00107C014525A0B247814CEF
:103B900089CB130A8402938A4401054B938B440416
:103BA000B9A8EFC04FDA755529A04E85EFC0AFD93F
:103BB0007555F2506254D2544259B259225A925A0F
:103BC000025BF24B624CD24C216182805C5423A098
:103BD00057015C549CCC2326540323AA4401B247CA
:103BE0006345F0084E85EFC00FD6EF00B0758858DA
:103BF00069F1EFC0EFD4AA89B2476344F0080357D4
:103C0000240283570402E31CF7F223A80402B247FC
:103C1000C9DF034994002685EF10802FE30809FAD5
:103C2000E31F69FB1C546308FA0283C6540303C7ED
:103C3000170263E9E6009C43630FFA0003C717020B
:103C4000E3FBE6FED84323205701D84398CC23A2B8
:103C50005701DCC869B75C5423A057015C549CCC65
:103C60002326540323AA44019DBFEFF0DFA3AA8CAF
:103C7000700081455E85EF1000575E85EF10C048EB
:103C800095B7EFF05FA233079541B247E6973385CA
:103C9000A740634505002AC6BA8C95B702C6BA8C00
:103CA000B9BF4E85EFC02FCA014521B7411106C6E5
:103CB0000146EFF07FE5B24041018280397106DEB6
:103CC00022DC26DA4AD84ED652D456D25AD05ECE0C
:103CD00062CC66CAAA842E8C32C6EF1040112A84A8
:103CE000EFC00FC6AA8983D72402639C0710B2478E
:103CF000814C89CB138A4401930A4401054B930BF1
:103D000044048DA0EFC02FC4795539A04E85EFC073
:103D10008FC3F9571CD87955F2506254D254425986
:103D2000B259225A925A025BF24B624CD24C216138
:103D300082809C4C23A057019C4C1CCC23AC54018A
:103D4000232A4401B2476342F0084E85EFC0AFBF5B
:103D5000EF00505F085869F1EFC08FBEAA89B247E3
:103D60006341F00883D72402C9EF23280402B24735
:103D7000D1DF03C994002285EF108019E30B09FA03
:103D8000E31269FDDC486308FA028346540303C763
:103D9000170263E9E6009C43630FFA0003C71702AA
:103DA000E3FBE6FED84323205701D84318CC23A2D7
:103DB00057015CC841BF9C4C23A057019C4C1CCCB4
:103DC00023AC5401232A4401B5BFEFF0DF8DAA8C48
:103DD000700081455E85EF1000415E85EF10C032B6
:103DE000ADB7EFF05F8C33079541B247E697338567
:103DF000A740634505002AC6BA8CADB702C6BA8C87
:103E000095B703D76402DC4C0A07BA979C4323207A
:103E1000FC0083D764028507C207C1832393F402A1
:103E200003D7040263E4E7002393040283D7240248
:103E3000FD172391F402885493848402630C950047
:103E40003115EF10E0174E85EFC0EFAFEF00904F48
:103E50000145D9B54E85EFC00FAF014575BD411184
:103E600006C6EFC0EFAD1387C186834707008507FD
:103E700093F7F70F2300F700EFC0EFACB24041011A
:103E80008280411106C6EFC0AFAB1387C18683475E
:103E90000700FD1793F7F70F2300F700EFC0AFAA55
:103EA000B24041018280411193780804639F080267
:103EB000356F130F4F8693780801638C08021378CF
:103EC000E8FF930200029378280063840804634BA0
:103ED000060293784800930FB002639D0802937F17
:103EE0008800B33FF001960F35A0316F130F0F7CA0
:103EF000D9B79378180093020003E39608FC930265
:103F00000002D1B73306C040930FD0028148A94EBA
:103F100081A8814F65FE930600032300D1008548E8
:103F2000468E63D3F8003E8E3307C741937618015F
:103F3000BDE263880F10635EE00E1303E7FF854662
:103F400063C5E6101A87FDA01373F6001182850879
:103F5000330E11017A9303430300A30F6EFE69D25F
:103F6000E394D6FF3373D6033356D603CDB7050794
:103F7000B306E6406357D000E37BB7FE2300D701CA
:103F8000FDB71307F3FF1346F3FF7D86B376C30037
:103F9000158F85063695639F0F0813780801631205
:103FA00008029306F7FF6357E0042A9721A005054E
:103FB0006307E500E37DB5FE23005500CDBF3A85DC
:103FC0007D57B3061E41AA961306000363CFC801AE
:103FD000AA86635F10038DCF46830A8533061501D9
:103FE000B68739A80505E306D5FEE37DB5FE2300B7
:103FF000C500CDBF3687F1B785077D166309A600DA
:10400000E3FCB7FE0348F6FF23800701F5B79A9655
:104010003385E600930700026348E00036854101DE
:1040200082808506E38DA6FEE3FDB6FE2380F600C2
:10403000CDBF7D176374B5002300F5017D1705051D
:10404000A9BF1303F7FF6359E0002A87930E00020C
:10405000130615001A960DB71A8781B78D4763F9B5
:10406000C700937735008DC71307F6FFAA8729A0ED
:10407000AA871307F6FF01CE05073E978507A38F92
:10408000B7FEE39DE7FE8280BA874286DDB7828075
:1040900093F7F50F93968700D58F93960701DD8EE2
:1040A000BD4763F1C704930706FFC19BC107AA97E9
:1040B0002A8714C354C314C74107232ED7FEE39A9B
:1040C000E7FE1378F600318A61D29307C8FFF19BAF
:1040D0009107BA971107232ED7FEE31DF7FE13763B
:1040E000380041BF2A873288CDB763E0A502B30606
:1040F000C500AA8711CA850585070387F5FFA38F29
:10410000E7FEE39AD7FE828082803387C500E370A2
:10411000E5FEB307C50065DA7D17FD1783060700C6
:104120002380D700E31AF5FE828009CEAA86850592
:10413000938716000387F5FFA38FE7FE09C77D1657
:10414000BE8675F682801307F6FF6DDF369685070B
:10415000A38F07FEE31DF6FE82808307050089CB4F
:10416000AA878507038707006DFF3385A7408280F4
:10417000AA87E5BF5D7186C6A2C4A6C2CAC04EDECC
:1041800052DC56DA5AD85ED662D466D26AD06ECE87
:10419000AA8C2E8D368CB30AB50063F5AA00134D98
:1041A000F5FFFD5A83070600E68963820736930B05
:1041B00050021309B0023167930D075741677D170D
:1041C0003AC409A885093284130614008307140031
:1041D000638F073263877701E3F659FF2380F90085
:1041E000D5B781441307D00293060002930530022D
:1041F0001305000321A093E4040122861304160092
:1042000083071600E389E7FE638B2701638CD700E1
:10421000638DB700639EA70093E41400F9BF93E495
:104220004400E1BF93E48400C9BF93E40402F1B702
:104230003E87938607FDA54563F6D5041307A002C4
:104240007D5A6382E706030704009307E0027D5B63
:104250006309F7068307040013F6B7FF9306800689
:104260000147630CD60A834704009387B7FD13F612
:10427000F70F9306300563E8C62093172600EE97E4
:104280009C438287014AA546050493172A003E9A5B
:10429000060A3A9A130A0AFD03070400930707FD6A
:1042A000E3F4F6FE4DB71304260093074C00032AEF
:1042B0000C003E8CE3590AF8330A404193E40401B0
:1042C00059B71307140083071400BE86938507FDB2
:1042D00025466379B6009306A0026386D7023A8426
:1042E000014B8DBF014B050793172B00DA9786070B
:1042F000B697138B07FD83060700938706FDE374CB
:10430000F6FE3A8429A00904032B0C00110C9347F4
:10431000FBFFFD87337BFB0035BF13F7F70F050469
:1043200099B7C14641AAC1889DC093064C0063F667
:10433000590183270C002380F90093871900054752
:104340006351471D52864E9A130700020DA893072A
:10435000FAFF6351F002CE971307000221A08509EE
:1043600063873701E3FD59FF2380E900CDBFBE8994
:10437000014A65BF3E8A55BF850763874701E3FD54
:1043800057FF2380E700CDBFB299368C35BD930728
:104390004C003EC6032C0C0063010C026285EFF05A
:1043A000DFDB635560016353AB005A85C18899C850
:1043B0006350A006B387A900A9A0B7D70000138C4B
:1043C000C785E9BF9306FAFF63574503D2852A875D
:1043D000B307AA40CE971306000221A08509638780
:1043E000F900E3FD59FF2380C900CDBF330AB74070
:1043F000369ABE8975BF368A65BF8509050C638A02
:10440000F900E3FC59FF03070C002380E900F5B72E
:10441000CE87635B450F3305AA40B389A700130716
:10442000000221A0850763873701E3FD57FF238042
:10443000E700CDBF324C49BBFD576302FA02930738
:104440004C003EC62688DA875287C14603260C00F8
:10445000D6854E85EFF03FA5AA89324CB5B393E4DB
:104460001400214AE9BF63F65901930750022380E3
:10447000F900850991BB93E40404C14625A893E49F
:104480002400A94605A863F659019307500223802A
:10449000F900138719008307040099C76374570153
:1044A000A380F90089090DB37D14BA8931BBA946EF
:1044B00011A0A1469307C0066302F7029307800686
:1044C0006302F70203260C00110C2688DA87528754
:1044D000D6854E85EFF03F9DAA89FDB103260C00DD
:1044E000110CE5B793074C0003260C0013F72400CA
:1044F00009E72247798E3E8CC9BF420641863E8C31
:10450000E9B7368CBE89C9B1324CBE8975B963062C
:104510000D0063F559032380090033859941B640A6
:10452000264496440649F259625AD25A425BB25B1B
:10453000225C925C025DF24D61618280A38F0AFE73
:10454000E9BF397106CE22CC2ED232D436D63AD833
:104550003EDA42DC46DE541036C62A869305F00762
:104560001385C1CBEFF01FC11385C1CBEF10B06233
:10457000F240624421618280411106C637C50000C5
:104580001305457DEFF0FFFB37C500001305057EE1
:10459000EFF03FFB37D70000130747808D460546F5
:1045A0008D4537D5000013050581EFF09FF937D50C
:1045B000000013050583EFF0DFF8B240410182806F
:1045C0000DC59377F50F9DE3C167938707F0E98FDA
:1045D00095E7B707FF00E98F8DEF6181B16793879A
:1045E000076C3E950345050065058280316713071A
:1045F000076CBA9703C507000505828021851375EE
:10460000F50FB1679387076C3E95034505002505B7
:10461000828041851375F50FB1679387076C3E95CE
:10462000034505004505828003A741875C41BA9791
:104630006304F50283D6270085E283A60187638D94
:10464000F60083A68187638BF602D44354C1DC4312
:10465000BA97B306E54094C71445B307D700630E75
:10466000F50003D6270011EA03A68187630BA60095
:104670005041D0C35C413E9714C7828023ACA186D1
:10468000E9B723ACF186EDB7411106C683A50188D1
:1046900037D5000013054588EFF0BFEA83A54188B0
:1046A00037D5000013058589EFF0BFE983A5C187E1
:1046B00037D500001305C58AEFF0BFE8B2404101CD
:1046C0008280411106C622C413F7C5FFE14663F993
:1046D000E60093073500F19B930687FE63FEF60024
:1046E0002E86AA8537D5000013050592EFF07FE5E9
:1046F000B2402244410182801D8F130687FE23A011
:10470000C188138441871CC08966938606EA23907A
:10471000D7005117D8C323A4070023910700BA97E5
:1047200023A8F1862390D70085462391D700D8C3CC
:1047300098C781460546B7D50000938585911385B6
:10474000C1D3EFF08F9C184023ACE18655B76304CA
:104750000512411106C622C426C293043500F19801
:1047600083A7018863EB9710B14763F3F400B1446A
:10477000FD551385C1D3EFF0AF9F03A5818783A6B5
:104780004187B307D54003A801883306984063E208
:10479000C7061385C1D3EFF04FAC0145B2402244A8
:1047A00092444101828085472311F4009387418818
:1047B0009043329798C383A7C18763F0E70A23AE7B
:1047C000E18661A883572500C5C303A70187630D50
:1047D000E508484136958357250091C7E31BA7FE9E
:1047E00023ACA18651A023ACA186BDA85C40E3F216
:1047F000C7FA3384F600035724006DFB58401D8F21
:10480000930547FFE3E495FE13868401E3EDC5F8C5
:104810001386C4003E963387C6008965938505EAF2
:104820002310B700231107004C404CC31CC750C0D5
:1048300085472311F4005C43310863840701B69770
:1048400090C7138741881C43B107BE9404C383A754
:10485000C18763F4970023AE91868967938707EA3F
:104860002310F400E30085F61385C1D3EFF0EF9E2B
:104870001305C40025B701458280014505B74111E4
:1048800006C622C426C2B304B5022685EFF03FEC6B
:104890002A8409C526868145EFF04FFC2285B24067
:1048A000224492444101828009C983A741876366FB
:1048B000F50083A701876363F5008280411106C676
:1048C00022C426C22A84930445FFFD551385C1D313
:1048D000EFF00F8A835764FF81CB035744FF89674A
:1048E000938707EA6303F70237D500001305C58CE9
:1048F000EFF03FC5835644FF035664FFA68537D5C6
:1049000000001305858EEFF0DFC3231B04FE8967CB
:10491000938707EA231AF4FE83A7818763F4F400E0
:1049200023AC9186138741881C43832684FF958F8F
:1049300083A64187B386D440B6971CC32685EFF083
:10494000BFCE1385C1D3EFF04F91B24022449244C1
:1049500041018280AA873707002003270701630CE3
:10496000E50237070020032707026302E502370745
:10497000002003270703630EE50037070020032705
:10498000070401456303F70082800D4531A005450A
:1049900021A0094511A001459317450037050020C6
:1049A000130505013E95CDB7011106CE22CC26CACE
:1049B0004AC84EC652C4AA84AE89328A2E85EFF008
:1049C0007FF92A89412C8327490013044900638514
:1049D00087009C43E39F87FE712C93E909F82384A9
:1049E00034012146D2852685EFF02FF4EFB04FF544
:1049F0009387C400032749005CC303274900D8C438
:104A00002322F90080C8EFB00FF4F2406244D24490
:104A10004249B249224A05618280411106C622C438
:104A20002A8423040500EFB0AFF19307C400544477
:104A30001848D8C2544414C31CC85CC4EFB0AFF0CB
:104A4000B240224441018280011106CE22CC26CA06
:104A50004AC84EC6AA892E89EFF0DFEFAA844845DE
:104A6000EFF0FFCE2A841DC9D0448145EFF00FDF5F
:104A700023043401A30404002146CA852285EFF0F3
:104A8000CFEAEFB0EFEB9307C400D8405CC3D84047
:104A900058C4DCC0910404C8EFB0EFEA2285F240AC
:104AA0006244D2444249B24905618280411106C63E
:104AB00022C42A8423040500EFB08FE89307C400C2
:104AC00054441848D8C2544414C31CC85CC4EFB042
:104AD0008FE72285EFF05FDDB24022444101828002
:104AE000030585007D818280239801889387C1D545
:104AF00013870704DCC39CC3A107E39DE7FE1D47A2
:104B00002384E18823A6018823AE01889387418905
:104B1000DCC39CC38280411106C603A5C189EFF0A6
:104B20003FAA7D15931735001385C1D53E950841E1
:104B30001307C5FE23A6E1882105EFB02FE1B2409F
:104B400041018280411106C622C4EFB06FDF2A8482
:104B500083970189A1E303A5C189EFF07FA67D15A5
:104B6000131735009387C1D5BA978C439387C5FE39
:104B700003A7C1886300F7022384A18823A6F188D4
:104B800083C7C18693F7F70F89CFA1051305C70126
:104B9000EF0000782285EFB00FDBB24022444101E4
:104BA0008280A1051305C701EF0040752285EFB093
:104BB0008FD9E5B7411106C622C42A84EFB04FD879
:104BC00083474403C19B93E71700230AF4028347FA
:104BD000540393064401139737009387C1D5BA97BE
:104BE000D84314C3D84318CCD4C35CC89387C189B5
:104BF000185C9443558F98C3EFB0EFD4B240224471
:104C000041018280411106C622C42A84EFB04FD3ED
:104C1000930744015448184CD8C2544814C31CCCC0
:104C20005CC883475403139737009387C1D5BA975D
:104C300098436308F700EFB00FD1B240224441011E
:104C400082801387C1891C5C93C7F7FF1443F58FDB
:104C50001CC3D5B7411106C6EFB08FCE938701892B
:104C600003D7070005072390E700EFB0CFCDB24090
:104C700041018280411106C6EFB08FCC13870189B4
:104C800083570700FD17C207C1872310F70063573A
:104C9000F000EFB04FCBB2404101828023980188F1
:104CA000EFB06FCA83A7C188FDD7EFF0BFE9E5B7C2
:104CB000411106C622C426C203A4C188EFB04FC862
:104CC000AA842285EFF01FF49147230AF40213050A
:104CD0004404752E2285EFF0BFE085476307F50297
:104CE0001307440183A64189D8C254C823AAE18886
:104CF000938741891CCC2685EFB0EFC4EFF09FE489
:104D0000B24022449244410182803C58F1FB22850A
:104D1000EFF0BFD0CDB7411106C6795718D91307A8
:104D200045015049144D54C2504990C218CD58C93C
:104D3000EFF05FE8EFF01FE1B24041018280011126
:104D400006CE22CC26CA4AC84EC652C456C25AC043
:104D50002A84328BB68ABA893E8A4289C6842E86D4
:104D60008545EFF07FC4930744011CCC5CC8232029
:104D7000640323225403232434032326440352864A
:104D8000930530024E85EFF06FAD5C54F11710546F
:104D9000B7560000938606CB3E964C50085015231C
:104DA00048CC230B2403A30A2403232C040244DC51
:104DB00024C023280402230A040223280406232AE9
:104DC000040681470147A28637560000130666D1C4
:104DD000A28513054404AD240145F2406244D24447
:104DE0004249B249224A924A024B0561828003A598
:104DF000C1888280011106CE22CC26CA4AC84EC67E
:104E000052C456C2AE8A328AB684BA893E89AA850D
:104E10000545EFF07FC349CD2A842685EFF03F9307
:104E200059C1930744011CCC5CC82320540323229E
:104E3000440308D444D4268693053002EFF00FA231
:104E40005C54F1171054B7560000938606CB3E967B
:104E50004C500850BD2148CC230B3403A30A340323
:104E6000232C0402232E24032320240523280402B8
:104E7000230A040223280406232A04068147014743
:104E8000A28637560000130666D1A2851305440496
:104E9000452A2285F2406244D2444249B249224A1C
:104EA000924A056182802285EFF05FC00144D5B748
:104EB0000144C5B7411106C6EFB08FA883A7C188CA
:104EC00003C747033D8B85466316D700D44B984FE5
:104ED0006398E600EFB02FA70145B2404101828000
:104EE00013864701D8C2D44B14C390CFD0CB83C60E
:104EF00057038E061387C1D53697544390C2544347
:104F000094CF50C3D8CBEFB00FA4EFF0BFC3E9B735
:104F100083474503BD8B05476390E704411106C6EF
:104F200022C426C22A84EFB0AFA1AA8483474403D7
:104F3000C19B93E72700230AF4022285EFF09FCC60
:104F40001305440485242685EFB0EF9F0145B24048
:104F500022449244410182807D558280011106CE17
:104F600022CC26CA4AC82AC6EFB08F9D2A8903A43C
:104F7000C1882285EFF0DFF9930444047000814575
:104F800026859524268549224A85EFB0CF9BEFF0F0
:104F90007FBB1858F9576309F7000145F240624496
:104FA000D24442490561828023280402FDB74111A1
:104FB00006C6EFE08FF2EFF07FFAB2404101828047
:104FC00083474503BD8B09476392E704411106C639
:104FD00022C426C22A84EFB0AF96AA849307440164
:104FE0005448184CD8C2544814C31CCC5CC8130590
:104FF00044044D2A2685EFB00F952285EFF09FBB24
:105000000145B24022449244410182807D55828014
:10501000411106C683466503A30AD5020547331727
:10502000D70018DD0947230AE502EFF07FF983A7CF
:10503000C18899C3EFF01FB10145B24041018280A0
:10504000011106CE22CC26CA4AC84EC652C42A84B2
:10505000328AB6893A89BE842E86A945EFF0DF945C
:10506000F998A3049400232E44012320340323241D
:10507000040223222403930744011CCC5CC8F240A1
:105080006244D2444249B249224A056182804111B8
:1050900006C622C42A84EFB0AF8A9307440154485D
:1050A000184CD8C2544814C31CCC5CC8EFB0AF89AC
:1050B0002285EFF09F960145B24022444101828053
:1050C000011106CE22CC26CA4AC84EC6AE89328904
:1050D000B6843A84AA852945EFF01F9719CD7998AF
:1050E000A3048500232E3501232025032324050254
:1050F00044D1930745011CCD5CC9F2406244D244BF
:105100004249B24905618280411106C622C426C2C5
:105110002A84EFB0EF829304440158481C4C5CC3CE
:10512000584898C304CC44C883479400F99BA3040F
:10513000F400EFB04F81EFE00FD75C503E9508D4FC
:10514000EFB00F809387418ACC431387418A370899
:1051500000801348E8FF11A03687638CE5001443F4
:10516000DC4A1054E38AC7FE918F6374F8003687D7
:10517000EDB79387018A9443850694C31C43C4C347
:105180001C435CC804C318CC8347940093E7170002
:10519000A304F400EFA03FFB0145B2402244924437
:1051A0004101828083479500858B99E37D558280FC
:1051B000411106C622C42A84EFA09FF89307440138
:1051C0005448184CD8C2544814C31CCC5CC8EFA037
:1051D0009FF783479400F99BA304F4000145B24074
:1051E00022444101828085476385F50263DFB70071
:1051F00089476384F5028D47639FF50083479500D7
:1052000093E72700A304F50039A091E51C425CD187
:1052100019A05C511CC20145828083479500F59B13
:10522000A304F500CDBF011106CE22CC26CA4AC880
:105230004EC652C456C2EFE00FC72A8AEFA05FF0F5
:10524000AA899384418AB707008013C9E7FF8D4A72
:105250008040631E94004E85EFA0FFEEF240624452
:10526000D2444249B249224A924A056182805C484E
:10527000330AFA40E36149FF18405C405CC31840C0
:1052800098C340C000C01C4448448297EFE0AFC1BF
:105290002A8A834754FF13F7370063065701F99BA7
:1052A000A30AF4FE75B7F99BA30AF4FE1305C4FE26
:1052B000EFF09FE571BF9387418ADCC39CC3828076
:1052C00082802A881106719A130506F8AA8737C7C3
:1052D000ADDE1307F7EE98C39107E31EF6FE232217
:1052E000D6F82324B6FA232006F9A1679387078806
:1052F0002324F6F8828023AA018A828023A6A18A29
:1053000023A8B18AB7E700E0116723A0E7208280D5
:1053100083A7418B99E323A6A18A23A8B18A0547D5
:1053200023AAE18AB7E700E0116723A0E720828083
:10533000411106C637D500001305C59EEFF06FA0DA
:105340000145B24041018280011106CE22CC26CA1D
:105350004AC84EC6004163088502AA8437D90000B6
:10536000B7D9000001A8138589C9EFF08F9D0040CF
:10537000638B84009305C4FE130549C9EFF06F9C4D
:105380001C40E39297FEF2406244D2444249B24943
:1053900005618280411106C6EFF00F9E0145B240C3
:1053A00041018280011106CE22CC26CA4AC84EC6CF
:1053B00023A80500DC45BDC383C78500B5C32E897E
:1053C0002A8483A9050039CDEFA09FD78347C4FF66
:1053D00093F7F7F7034789006391E70283274900B2
:1053E00081440040638F89008504910723AE87FEC6
:1053F0000327C900E31797FE31A0EFA0DFD40144D3
:1054000031A00144EFA03FD4232899002285F24027
:105410006244D2444249B249056182800144FDB7E9
:105420000144EDB7EFA0DFD14E844DBF517186D757
:10543000A2D5A6D3CAD1CECFD2CDD6CBDAC9DEC7BC
:10544000E2C5E6C3EAC16EDF0545EFF0AFD0110556
:105450002ACF85472302F10AFC183ED1A1473ED549
:1054600002D737D60000130646AFA14537D5000056
:105470001305C5AFEFF0EF8C2144B7D400001385BE
:1054800004B4EFF00F8C7D147DF837D500001305C0
:1054900045B4EFF00F8B814AB7DB000037DB00002B
:1054A000B7DD0000D5A8130A44FF13068007D28594
:1054B0004800EF4040494E85EFA0FFC803479402E3
:1054C000D2862146A14513854BB8EFF08F878347DD
:1054D0008402BD8B05476382E70809476384E708B8
:1054E000D9C71147638AE7080D47638CE7084C4C1E
:1054F00003C7050093073002631CF708AE86130745
:105500003002850683C70600E38DE7FE1050B29592
:10551000B386D54093074006B386F60208485C5030
:105520005858B3D6C602898D1305CBBCEFF06F81F6
:1055300085041109BA5763DFF40403240900EFA0BE
:105540003FC0AA898347C4FF93F7F7F70347410A8F
:10555000E38BE7F4EFA03FBFE1BF13850CB9EFE0A9
:105560005FFE71B71305CDB9EFE0BFFD49B7130575
:105570008CBAEFE01FFDA5BF13854DBBEFE07FFCAC
:10558000BDB7B7D70000138507BCEFE09FFB85B719
:10559000AE86ADBF63840A026C095685EFF09FE0CA
:1055A000AA8ABA57E358F0FE1309C107814437DCD1
:1055B000000037DD0000B7DC000041B70145BE50F8
:1055C0002E549E540E59FE496E4ADE4A4E4BBE4B37
:1055D0002E4C9E4C0E4DFA5D6D618280011106CEFF
:1055E00022CC26CA4AC84EC652C437D5000013057D
:1055F00005A0EFE01FF503A4818B83A7C18B637A1D
:10560000F402B7D9000037DA000031A0210483A7E3
:10561000C18B6370F40204400946938549A1268535
:10562000EF40904065D5A68513058AA1EFE07FF194
:10563000F1BF0145F2406244D2444249B249224A94
:10564000056182801D7186CEA2CCA6CACAC8CEC60C
:10565000D2C4D6C2DAC02945EFF0CFAF11052AD6A1
:10566000A947230AF1027C003ED8A1473EDC02DEB6
:1056700037D60000130646BFA14537D500001305F5
:10568000C5BFEFE01FEC2144B7D40000138504B47C
:10569000EFE03FEB7D147DF837D50000130545C2E0
:1056A000EFE03FEA014AB7D9000037DB0000B7DA84
:1056B000000085A0EFA03FA985041109F25763D827
:1056C000F40403240900EFA0BFA78347C4FF93F7A6
:1056D000F7F703474103E39FE7FCEFA0DFA65C4C2D
:1056E000184C930644FF2146A145138589C4EFE079
:1056F0005FE58347D4FF858B91C713850AC6EFE02A
:105700005FE45DBF1305CBC6EFE0BFE375B7630E83
:105710000A006C105285EFF0FFC82A8AF257E3584E
:10572000F0FE1309C100814469BFEFD0DFF7AA85FD
:1057300037D500001305C5C7EFE0BFE00145F640CF
:105740006644D6444649B649264A964A064B2561E0
:105750008280597186D6A2D4A6D2CAD0CECED2CC5F
:10576000D6CADAC8DEC61545EFF0CF9E11052AD697
:105770009547230AF1027C003ED8A1473EDC02DEB9
:1057800037D600001306C6A1A14537D50000130582
:1057900045A2EFE01FDB2144B7D40000138504B419
:1057A000EFE03FDA7D147DF837D50000130585A4BE
:1057B000EFE03FD9014AB7DB000037DB0000B7DA82
:1057C000000061A0EFA03F9805099109F257635CC2
:1057D000F90603A40900EFA0BF968347C4FF93F71F
:1057E000F7F703474103E39FE7FCEFA0DF9593043E
:1057F00084001044638BC402930644FF0357640182
:1058000083574401014805081042E39EC4FE214627
:10581000A14513054BA6EFE0DFD22685EFF0DFB2FE
:105820001385CA9FEFE0FFD145B701488357440174
:1058300003576401930644FF2146A1451385CBA776
:10584000EFE03FD051B7630E0A006C105285EFF0C5
:105850007FB52A8AF257E358F0FE9309C100014947
:105860008DBF0145B650265496540659F649664AEE
:10587000D64A464BB64B65618280597186D6A2D412
:10588000A6D2CAD0CECED2CCD6CADAC8DEC6094598
:10589000EFF04F8C11052AD68947230AF1027C00CC
:1058A0003ED8A1473EDC02DE37D60000130646A9EB
:1058B000A14537D50000130505AAEFE09FC8214494
:1058C000B7D40000138504B4EFE0BFC77D147DF8A2
:1058D00037D500001305C5ABEFE0BFC6014AB7DB03
:1058E000000037DB0000B7DA000041A0EFA0BF8561
:1058F00005099109F2576358F90683A40900EFA03E
:105900003F8483C7C4FF93F7F7F703474103E39F3F
:10591000E7FCEFA05F831384840090446309C40212
:10592000938644FF03D70401814785071042E31E95
:10593000C4FE2146A14513054BADEFE09FC0228573
:10594000EFF09FA01385CA9FEFE0BFBF55B7814717
:1059500003D70401938644FF2146A14513854BAE2E
:10596000EFE03FBE71B7630E0A006C105285EFF096
:105970007FA32A8AF257E358F0FE9309C100014938
:10598000ADBF0145B650265496540659F649664AAD
:10599000D64A464BB64B65618280011106CE22CCB9
:1059A00026CA4AC84EC652C437D50000130585CF53
:1059B000EFE03FB903A4818B83A7C18B637BF40223
:1059C000B7D9000037DA000031A0210483A7C18BCA
:1059D0006371F40204401946938549D12685EF404E
:1059E000B00465F5938564001305CAD1EFE07FB577
:1059F000E9BF37D500001305C59FEFE09FB401450F
:105A0000F2406244D2444249B249224A056182804E
:105A1000411106C6EFF09FA10145B24041018280CD
:105A2000411106C6EFE05FC60145B24041018280E8
:105A3000054582805D7186C6A2C4A6C2CAC04EDE7C
:105A400052DC56DA5AD85ED62A84AA951307000289
:105A5000A54611A00504B384854083070400E38BA9
:105A6000E7FEE389D7FE014581ECB6402644964423
:105A70000649F259625AD25A425BB25B6161828036
:105A8000814A13070002A54611A0D28A138A1A0080
:105A9000B3074401838707006388E7006386D70064
:105AA000E3159AFE268A19A063010A1403A9818BC3
:105AB00003ABC18B637B6913B7DB000021A0210915
:105AC0006375691383290900194693854BD14E8567
:105AD000EF4080756DF55286A28513856900EF4011
