:100000006F10C01013000000130000001300000068
:100010001300000013000000130000001300000094
:100020001300000013000000130000001300000084
:08003000130000007300100032
:100038006FF09FFC000000006F0070536F00305895
:1000480000000000000000000000000000000000A8
:100058000000000000000000000000000000000098
:100068006F50D024000000006F00000F0000000057
:100078006F0070576FF05FF86F00F05B6F00D05C37
:100088006F00B05D6F00905E6F0040346F00403AC3
:100098006F0040406F0020556F00205B6F00305E9E
:1000A8006F00F0626F00B0676F0070466F00306CD1
:1000B8006F00F0706F00B0756F00E078000000000E
:1000C8000000000000000000000000006F00205E3B
:1000D8006F00607C6F0070036F00300A6F00701350
:1000E8006F0030206F0090226F0050296FF0DFF012
:1000F8006FF09FF06FF05FF06FF01FF06FF0DFEFC1
:100108006FF09FEF6F50B03D6F00502E6F00B0370B
:100118006F0040666FF05FEE6FF01FEE6FF0DFED7F
:1001280000000000000000000000000000000000C7
:080138000000000000000000BF
:1001400073750430828073100530828097520020CE
:10015000938242EB739002340321050095A00100C5
:10016000197106C212C816CA1ACC1ECE22D026D2C7
:100170002AD42ED632D836DA3ADC3EDEC2C0C6C227
:10018000CAC4CEC6D2C8D6CADACCDECEE2D0E6D257
:10019000EAD4EED6F2D8F6DAFADCFEDEF32200304C
:1001A00016C483A2018A23A02200F322103416C0B1
:1001B000EF40D02383A2418A03A1020011A00100D5
:1001C000824273901234A2427390023092404242B3
:1001D000D2426243F243025492542255B2554256DF
:1001E000D2566257F257064896482649B649464ABB
:1001F000D64A664BF64B065C965C265DB65D465E5F
:10020000D65E665FF65F09617300203000003D43F3
:100210002A876373C3029377F700BDEFADE593764A
:1002200006FF3D8ABA960CC34CC30CC74CC74107A6
:10023000E36BD7FE11E28280B306C3408A069702C1
:10024000000096966780A6002307B700A306B700B4
:100250002306B700A305B7002305B700A304B70022
:100260002304B700A303B7002303B700A302B7001A
:100270002302B700A301B7002301B700A300B70012
:100280002300B700828093F5F50F93968500D58DF6
:1002900093960501D58D61B79396270097020000CC
:1002A00096968682E78086FA9680C1171D8F3E96C5
:1002B000E374C3F8A5B73367B500FD530D8B79E739
:1002C000B7877F7F9387F7F710419441B372F600A9
:1002D0003363F600BE92B3E262006397720C631858
:1002E000D6065041D441B372F6003363F600BE9295
:1002F000B3E262006398720A631BD604104594450A
:10030000B372F6003363F600BE92B3E2620063910B
:10031000720A631ED6025045D445B372F6003363A9
:10032000F600BE92B3E26200639A72086311D602CD
:1003300010499449B372F6003363F600BE92B3E2FB
:100340006200639372085105D105E30FD6F61317C7
:10035000060193970601631CF7001357060193D714
:1003600006013305F7409375F50F91E982804183CB
:10037000C1833305F7409375F50F91E182801377C0
:10038000F70F93F7F70F3305F74082800346050018
:1003900083C60500050585056313D60065FA330598
:1003A000D640828011059105E312D6FE0145828078
:1003B0002105A105E31CD6FC014582803105B1056C
:1003C000E316D6FC014582804105C105E310D6FC49
:1003D00001458280397106DE16DC1ADA1ED82AD66B
:1003E0002ED432D236D03ACE3ECC42CA46C872C69D
:1003F00076C47AC27EC0EF30E0350545EF00306745
:1004000085476307F502EF302037F250E25252532E
:10041000C2533255A255125682567247E24752488D
:10042000C248324EA24E124F824F216173002030DB
:100430000545EF009065C1BF397106DE16DC1ADA9A
:100440001ED82AD62ED432D236D03ACE3ECC42CA8C
:1004500046C872C676C47AC27EC0EF30A02F094566
:10046000EF00F06085476307F502EF30E030F250AF
:10047000E2525253C2533255A25512568256724717
:10048000E2475248C248324EA24E124F824F21617B
:10049000730020300945EF00505FC1BF5D7186C613
:1004A00096C49AC29EC022DE26DC2ADA2ED832D624
:1004B00036D43AD23ED042CE46CC4ACA72C876C66C
:1004C0007AC47EC2EF3000291145EF00505A8547AB
:1004D000630AF502EF30402AB640A642164386432F
:1004E0007254E2545255C2553256A2561257825790
:1004F0007248E2485249424EB24E224F924F6161D9
:100500007300203083C7618F93F7F70F054763852A
:10051000E70C0147014681463285B685EF60C00988
:100520001384C18F03156400EF80601D2A89039531
:100530004190EF80C01C3726002013068606CA852E
:10054000EF60C020EF808015EF5010770315440056
:100550003305A040EF80A01A2A8903958190EF808F
:10056000001A3726002013068608CA85EF60001E91
:10057000EF80C012EF505078031524003305A040DF
:10058000EF80E0172A840395A190EF80401737266B
:1005900000201306860CA285EF60401BEF80001040
:1005A000EF50907D0395C18F3305A040EF8020155B
:1005B0002A8403956190EF8080143726002013066B
:1005C000860AA285EF608018EF80400DEF50D0764C
:1005D0001145EF00904BFDBD372500201305C501E7
:1005E000EF50F03B238B018EEF5050501DB7397107
:1005F00006DE16DC1ADA1ED82AD62ED432D236D02F
:100600003ACE3ECC42CA46C872C676C47AC27EC0D2
:10061000EF3040142145EF00904585476307F50210
:10062000EF308015F250E2525253C2533255A25568
:10063000125682567247E2475248C248324EA24E84
:10064000124F824F2161730020302145EF00F043AB
:10065000C1BF397106DE16DC1ADA1ED82AD62ED4AE
:1006600032D236D03ACE3ECC42CA46C872C676C4E2
:100670007AC27EC0EF30000E4145EF00503F854703
:100680006307F502EF30400FF250E2525253C2536B
:100690003255A255125682567247E2475248C24816
:1006A000324EA24E124F824F2161730020304145DD
:1006B000EF00B03DC1BF397106DE16DC1ADA1ED874
:1006C0002AD62ED432D236D03ACE3ECC42CA46C8F2
:1006D00072C676C47AC27EC0EF30C0071305002010
:1006E000EF00F03885476303F50413050010EF00B1
:1006F000103885476305F50613050008EF0030370D
:1007000085476303F50613050004EF00503685475F
:100710006301F50613050002EF0070358547631B82
:10072000F50013050002EF00503629A01305002044
:10073000EF00B035EF304004F250E2525253C25352
:100740003255A255125682567247E2475248C24865
:10075000324EA24E124F824F21617300203013059A
:100760000010EF009032F9B713050008EF00F031E8
:10077000D1B713050004EF0050316DBF397106DEAB
:1007800016DC1ADA1ED82AD62ED432D236D03ACE79
:100790003ECC42CA46C872C676C47AC27EC0EF203A
:1007A000707B2165EF00B02C85476308F504116567
:1007B000EF00F02B8547630AF5060965EF00302B43
:1007C00085476308F5060565EF00702A85476306CF
:1007D000F506056513050580EF007029854763025E
:1007E000F50613050040EF0090288547631AF500D1
:1007F00013050040EF00702921A02165EF00F028CB
:10080000EF209077F250E2525253C2533255A25524
:10081000125682567247E2475248C248324EA24EA2
:10082000124F824F2161730020301165EF00F025D7
:10083000C1BF0965EF007025E1B70565EF00F02441
:10084000C1B7056513050580EF00302455BF397128
:1008500006DE16DC1ADA1ED82AD62ED432D236D0CC
:100860003ACE3ECC42CA46C872C676C47AC27EC070
:10087000EF20506EEF205070F250E2525253C253AC
:100880003255A255125682567247E2475248C24824
:10089000324EA24E124F824F2161730020303971C7
:1008A00006DE16DC1ADA1ED82AD62ED432D236D07C
:1008B0003ACE3ECC42CA46C872C676C47AC27EC020
:1008C000EF2050699305000837350140130505C036
:1008D000EF10002315E5EF20306AF250E252525338
:1008E000C2533255A255125682567247E2475248B9
:1008F000C248324EA24E124F824F21617300203007
:100900009305000837350140130505C0EF1000219D
:10091000D9B7397106DE16DC1ADA1ED82AD62ED4DB
:1009200032D236D03ACE3ECC42CA46C872C676C41F
:100930007AC27EC0EF20106285453735014013052D
:1009400005C0EF10E01B15E5EF201063F250E252F6
:100950005253C2533255A255125682567247E2473D
:100960005248C248324EA24E124F824F216173004C
:100970002030854537350140130505C0EF10001ABA
:10098000E1B7397106DE16DC1ADA1ED82AD62ED463
:1009900032D236D03ACE3ECC42CA46C872C676C4AF
:1009A0007AC27EC0EF20105B93050004373501400A
:1009B000130505C0EF10C0141DED93050002373577
:1009C0000140130505C0EF10A0131DEDEF20D05A14
:1009D000F250E2525253C2533255A2551256825629
:1009E0007247E2475248C248324EA24E124F824FDF
:1009F0002161730020309305000437350140130551
:100A000005C0EF10A01155BF930500023735014016
:100A1000130505C0EF10801055BF397106DE16DCD6
:100A20001ADA1ED82AD62ED432D236D03ACE3ECCBE
:100A300042CA46C872C676C47AC27EC0EF209051C0
:100A4000894537350140130505C0EF10600B31EDC6
:100A5000914537350140130505C0EF10600A31EDAF
:100A6000A14537350140130505C0EF10600931ED90
:100A7000C14537350140130505C0EF10600831ED61
:100A8000EF20904FF250E2525253C2533255A255CA
:100A9000125682567247E2475248C248324EA24E20
:100AA000124F824F21617300203089453735014054
:100AB000130505C0EF10800661BF91453735014031
:100AC000130505C0EF10800561BFA1453735014012
:100AD000130505C0EF10800461BFC14537350140E3
:100AE000130505C0EF10800361BF411106C6EF205A
:100AF0007046854537050040EF10800011E5EF2076
:100B0000B047B24041018280854537050040EF1073
:100B1000E000F5B7397106DE16DC1ADA1ED82AD6DF
:100B20002ED432D236D03ACE3ECC42CA46C872C655
:100B300076C47AC27EC0EF20F0418545370500407B
:100B400013050540EF00D07B15E5EF20F042F25091
:100B5000E2525253C2533255A25512568256724730
:100B6000E2475248C248324EA24E124F824F216194
:100B70007300203085453705004013050540EF0020
:100B8000F079E1B7397106DE16DC1ADA1ED82AD6FA
:100B90002ED432D236D03ACE3ECC42CA46C872C6E5
:100BA00076C47AC27EC0EF20F03A85453715004002
:100BB00013050580EF00D07415E5EF20F03BF250EF
:100BC000E2525253C2533255A255125682567247C0
:100BD000E2475248C248324EA24E124F824F216124
:100BE0007300203085453715004013050580EF0060
:100BF000F072E1B75D7186C696C49AC29EC022DECD
:100C00002ADC2EDA32D836D63AD43ED242D046CE7C
:100C100072CC76CA7AC87EC6EF20D0339305505284
:100C20003745004013050540EF1060071DE5EF2034
:100C3000B034B640A6421643864372546255D2552C
:100C40004256B256225792570258F248624ED24E3E
:100C5000424FB24F616173002030930550523744C8
:100C6000004013050440EF10400813050440EF1046
:100C7000A00183D7C190938617002396D190372780
:100C8000002013078702BA972380A7004DB7397158
:100C900006DE16DC1ADA1ED82AD62ED432D236D088
:100CA0003ACE3ECC42CA46C872C676C47AC27EC02C
:100CB000EF20502A93055052375500401305058008
:100CC000EF00F07D15E5EF20302BF250E252525349
:100CD000C2533255A255125682567247E2475248C5
:100CE000C248324EA24E124F824F21617300203013
:100CF000930550523745004013050540EF00F07E44
:100D00003755004013050580EF0010781375F50F77
:100D1000EF50A0414DBF397106DE16DC1ADA1ED83D
:100D20002AD62ED432D236D03ACE3ECC42CA46C88B
:100D300072C676C47AC27EC0EF20D021096591299F
:100D400085476307F502EF203023F250E2525253F9
:100D5000C2533255A255125682567247E247524844
:100D6000C248324EA24E124F824F21617300203092
:100D700009658121C9BF397106DE16DC1ADA1ED871
:100D80002AD62ED432D236D03ACE3ECC42CA46C82B
:100D900072C676C47AC27EC0EF20D01BEF20D01D71
:100DA000F250E2525253C2533255A2551256825655
:100DB0007247E2475248C248324EA24E124F824F0B
:100DC000216173002030397106DE16DC1ADA1ED874
:100DD0002AD62ED432D236D03ACE3ECC42CA46C8DB
:100DE00072C676C47AC27EC0EF20D01601A03971D7
:100DF00006DE16DC1ADA1ED82AD62ED432D236D027
:100E00003ACE3ECC42CA46C872C676C47AC27EC0CA
:100E1000EF205014EF205016F250E2525253C253BA
:100E20003255A255125682567247E2475248C2487E
:100E3000324EA24E124F824F216173002030411179
:100E400006C6EF203011EF203013B24041018280FE
:100E5000411106C6EF201010EF201012B2404101E0
:100E60008280411106C6EF20F00EEF20F010B24054
:100E700041018280411106C6EF20D00DEF20D00F36
:100E8000B24041018280397106DE16DC1ADA1ED8C2
:100E90002AD62ED432D236D03ACE3ECC42CA46C81A
:100EA00072C676C47AC27EC0EF20D00AEF20D00C82
:100EB000F250E2525253C2533255A2551256825644
:100EC0007247E2475248C248324EA24E124F824FFA
:100ED000216173002030397106DE16DC1ADA1ED863
:100EE0002AD62ED432D236D03ACE3ECC42CA46C8CA
:100EF00072C676C47AC27EC0EF20D005EF20D0073C
:100F0000F250E2525253C2533255A25512568256F3
:100F10007247E2475248C248324EA24E124F824FA9
:100F2000216173002030397106DE16DC1ADA1ED812
:100F30002AD62ED432D236D03ACE3ECC42CA46C879
:100F400072C676C47AC27EC0EF20D000EF20D002F5
:100F5000F250E2525253C2533255A25512568256A3
:100F60007247E2475248C248324EA24E124F824F59
:100F7000216173002030397106DE16DC1ADA1ED8C2
:100F80002AD62ED432D236D03ACE3ECC42CA46C829
:100F900072C676C47AC27EC0EF20C07BEF20C07DCF
:100FA000F250E2525253C2533255A2551256825653
:100FB0007247E2475248C248324EA24E124F824F09
:100FC000216173002030397106DE16DC1ADA1ED872
:100FD0002AD62ED432D236D03ACE3ECC42CA46C8D9
:100FE00072C676C47AC27EC0EF20C076EF20C07889
:100FF000F250E2525253C2533255A2551256825603
:101000007247E2475248C248324EA24E124F824FB8
:10101000216173002030397106DE16DC1ADA1ED821
:101020002AD62ED432D236D03ACE3ECC42CA46C888
:1010300072C676C47AC27EC0EF20C071EF20C07342
:10104000F250E2525253C2533255A25512568256B2
:101050007247E2475248C248324EA24E124F824F68
:10106000216173002030411106C6EF500023EF507C
:101070000026EF506006EF407075EF50603BEF5078
:10108000A05EEF5000301306A02893052003014511
:10109000EF10E05493060031054685451305F00234
:1010A000EF1060069306100213060002B7150E003B
:1010B0000945EF10505885450945EF10D068854621
:1010C0000146814513057003EF10202313068004A9
:1010D000A14513052002EF10201C854605468545D5
:1010E0006145EF10802137A600001306C61399450D
:1010F0000145EF00907C1305C012EF30A07A130574
:10110000F002EF102017EF50E02CF5B797F1FF1F1A
:101110009381417A174100201301C1EE17A5000009
:101120001305452497F5FF1F9385C5ED138681852B
:1011300063FAC5008322050023A05500110591051F
:10114000E3EAC5FE13858185971500209385C5FDCB
:101150006377B500232005001105E36DB5FE93020A
:10116000800873A0023097F2FFFF938222ED93E292
:10117000120073905230EF40B03E01458145EF10B0
:10118000507897220000938202F873901234730013
:1011900020309317350063DA0700B707024083A7B2
:1011A00007407D8D3335A0008280B70702409C4305
:1011B000CDBF9317350063D70700B707024023A2BE
:1011C000A7408280B7070240C8C382805C45D9C36C
:1011D000B70601409387064003A60640184113470F
:1011E000F7FF718F23A0E64083A6464018411347BE
:1011F000F7FF758FD8C358413E9714431041D18EE5
:1012000014C3944718411347F7FF758F98C7D44705
:1012100018411347F7FF758FD8C71C454147638CAA
:10122000E7003707014013070740BA979843144176
:10123000558F98C38280B707014003A787401441A8
:10124000558F23A4E74003A7C7401441558F23A619
:10125000E74082805841B7070140938707403E9797
:1012600014431C4193C7F7FFF58F1CC382803707D7
:1012700001408327074003274741698F09C77D8DB8
:101280003335A000828001458280B707014023AA40
:10129000A74082809C4593F8F700C18B81C7DC4151
:1012A000B3E8F80083C70500A9CB10418147054E7C
:1012B0003D4F930E8002930F8004214329A054C90F
:1012C0008507638B6702B316FE0003D70500758F91
:1012D000E398E6FE139727003318EF001348F8FF52
:1012E0003376C8003397E800598E9845E309D7FD57
:1012F000E318F7FD14C9E9B710C103D70500930738
:10130000F00F63FDE7045041A147054EBD4F130F99
:101310008002930E8004414331A054C915A885076B
:10132000638D6702B316FE0003D70500758FE3983F
:10133000E6FE1397270001173398EF001348F8FFD4
:101340003376C8003397E800598E9845E307E7FDE8
:101350009845E316D7FD14C9D9B750C1828019C288
:101360000CC982804CC982802A8663400504B70775
:101370000140DC4393160501C18237073000337802
:10138000E5006308E8021317B500635C0704135710
:1013900005011378F7000D47331707011347F7FFCF
:1013A0007D8FB707000FD98F0DA0B7070140DC4F25
:1013B000D1B7370700F17D17F98FB708014003A8AF
:1013C00048003377E80023A2E80091C55581120553
:1013D0003395A600C98F63420602370701405CC3FC
:1013E00082801357550112073397E6001347F7FF22
:1013F0007D8FB707000FD98FC9BF370701405CCF7A
:10140000828093F735008A0713F7C50FB7050140AF
:10141000BA9594453D473317F7001347F7FF758F8B
:1014200098C598453315F500598D88C58280B7E772
:1014300000E0BC47898B95CF834605008347250094
:10144000920793F7F70F37E700E036972300F7404E
:101450005C41B5C703470500935757008546B396CF
:10146000E600938707048A0737E700E0BA9794C33A
:101470008280B7E700E0BC47898BF9FB0347150082
:101480008547630FF70083460500834725009207D1
:1014900093F7F70F37E700E036972300F7404DBF8B
:1014A0008346050083472500920793E707F893F7E3
:1014B000F70F37E700E036972300F74051BF0347A7
:1014C0000500935757008546B396E60093870706B5
:1014D0008A0737E700E0BA9794C38280B7170240C3
:1014E000DC43B18B11476384E70821476387E70832
:1014F00099C7B7177A00938707201CC131A0B71787
:101500007A00938707201CC1371602405C42918302
:10151000BD8B3707002013070700BA9783C6070063
:101520001C41B3D7D7005CC15442A1829D8ABA96B0
:1015300083C60600B3D6D70014C55442AD829D8A37
:10154000369703470700B3D7E7005CC55842398395
:1015500093763700370700201307070B36970347AA
:1015600007001377F70FB3D7E7021CC98280B717BC
:101570007A00938707201CC141BF371702405C43A4
:101580005843C983BD8B89079316F70063CA0600C9
:1015900037173D0013070790B387E7021CC1ADB7AB
:1015A0003717024058439316E70063DA06003717EF
:1015B0003D0013070790B387E7021CC1B1B7371787
:1015C0007A0013070720B387E7021CC135BF99C50E
:1015D000371702401C4F5D8D08CF8280B71702403D
:1015E000984F1345F5FF798D88CF828099C53717BD
:1015F00002405C4F5D8D48CF8280B7170240D84FC4
:101600001345F5FF798DC8CF8280035705008D679C
:10161000938707047D8F83D7050083D62500D58F58
:1016200083D64500D58F83D66500D58F83D68500B8
:10163000D58F83D6A500D58F83D6C500D58F83D609
:10164000E500D58FD98F2310F5000357C501FD772D
:101650009387F77FF98F231EF50083D705012318A1
:10166000F500828081C98357050093E707042310A2
:10167000F500828083570500C207C18393F7F7FB0B
:10168000C207C1832310F500828083570500C2077B
:10169000C18337370140130707C06300E5043707EC
:1016A00000406307E506130707406303E5063717A5
:1016B000004013070780630DE50493F7F7CF03D7C6
:1016C0006500D98F2310F50083D745002316F50256
:1016D00083D705002314F50285A093F7F7F803D705
:1016E0002500D98F93F7F7CF03D76500D98F231043
:1016F000F50083D745002316F50283D70500231490
:10170000F50203C78500B73701402398E7C22DA033
:1017100093F7F7F803D72500D98F93F7F7CF03D7BF
:101720006500D98F2310F50083D745002316F502F5
:1017300083D705002314F5028547231AF50082801C
:1017400083570502C207C183F99BC207C1832310D7
:10175000F50283570502C207C18383564500C206BE
:10176000C18203578501420741831377C7F803D627
:101770000500518FF59B03D6850003D825003366FD
:101780000601D18F37360140130606C0630DC50030
:101790002312D500231CE50003D76500231AE502B8
:1017A0002310F5028280DD9B03D6A500D18FED9B2F
:1017B00003D64500D18F93F6F6CF03D6C50003D8E4
:1017C000E50033660601D18EE1B783570502C207F3
:1017D000C183BD9BC207C1832310F5028357050255
:1017E000C207C183035645004206418283568501E4
:1017F00065771307F7CF758F83D60500A206558F3F
:101800004207418393F7F7FD03D8850083D625006F
:10181000B3E606019206D58FC207C183B7360140F1
:10182000938606C0630DD5002312C500231CE50076
:1018300003D76500231CE5022310F502828093F78D
:10184000F7F783D6A5009206D58FC207C18393F719
:10185000F7FB83D645009206D58FC207C183FD767C
:101860009386F63F758E03D8C50083D6E500B3E6B0
:1018700006018A06558E420641827DB783570502CE
:10188000C207C18393F7F7EFC207C1832310F502A4
:1018900083570502C207C1830356450042064182B1
:1018A0000357C501420741831377C7F883D6050064
:1018B000558F93F7F7DF03D8850083D62500B3E66D
:1018C0000601A206D58FC207C183B73601409386B1
:1018D00006C0630DD5002312C500231EE50003D703
:1018E0006500231EE5022310F5028280FD769386B3
:1018F000F67FF58F83D6A500A206D58FC207C183D8
:1019000093F7F7BF83D64500A206D58FC207C183E0
:10191000F576FD16758E03D8C50083D6E500B3E6CF
:1019200006019206558E4206418275B7035705029D
:10193000FD77FD17F98F2310F502035805020356B2
:101940004500420641828357C50165771307F7CFEB
:101950007D8F83D60500A206558F42074183F97714
:10196000FD17B3F7070103D8850083D62500B3E63A
:101970000601B206D58FC207C183B73601409386F0
:1019800006C0630DD5002312C500231EE50003D752
:1019900065002310E5042310F5028280F176FD1620
:1019A000758E83D6C5009A06558E42064182E1BFE8
:1019B000FD572312F5002310050023130500231102
:1019C000050023040500828081C98357050093E741
:1019D00017002310F500828083570500C207C183DA
:1019E000F99BC207C1832310F500828081C9835708
:1019F00045042167D98F2312F5048280835745045B
:101A0000C607C5832312F504828003588500420867
:101A10001358080103578501420741838357050284
:101A2000C207C183137888FFB365B8001377C7CFA7
:101A30001367171093F7D7FD9206558ED18FC20703
:101A4000C1832314B500231CE5002310F502828016
:101A500083578501C207C183DD9BDD8D231CB50043
:101A6000828003578501FD779387F77FF98FA20561
:101A7000CD8FC207C183231CF50082808357C50127
:101A8000C207C183DD9BDD8D231EB5008280035715
:101A9000C501FD779387F77FF98FA205CD8FC20728
:101AA000C183231EF500828083578501C207C1834D
:101AB000ED9BDD8D231CB500828083578501C20715
:101AC000C18393F7F7BFA205CD8FC207C183231C43
:101AD000F50082808357C501C207C183ED9BDD8D70
:101AE000231EB50082808357C501C207C18393F7C7
:101AF000F7BFA205CD8FC207C183231EF5008280E8
:101B0000835705010355C50042054181ED8F89C703
:101B10006D8D3335A00082800145828093C5F5FF2D
:101B2000C205C1812318B5008280797106D622D4FE
:101B300026D22A84AE8403570501F577FD17F98F65
:101B400003D76500D98F2318F5000357C500FD772B
:101B50009387379FF98F03D74500D98F03D7850027
:101B6000D98F03D7A500D98F2316F50083574501D8
:101B7000C207C18393F7F7CF03D7C500D98F231AC4
:101B8000F5006800EFF09F95B74701409387078005
:101B90006301F40652478357C400C207C18763CC70
:101BA000070493171700BA978E07BA9798400A0749
:101BB000B3D7E70213074006B3D6E7029206B3F79E
:101BC000E7020357C40042074187634007049207B6
:101BD0009387270313074006B3D7E702BD8BD58F42
:101BE000C207C1832314F400B250225492544561B9
:101BF000828062474DB793171700BA978E07BA973E
:101C000098400607B3D7E70275B713973700130755
:101C10002703930740063357F7021D8BB367D7009E
:101C2000C1B781C98357C5000967D98F2316F5004D
:101C300082800357C500F977FD17F98F2316F50049
:101C4000828093F7F50F95830547B315B700638C32
:101C5000E700894613074501638AD70019CA1C4368
:101C6000DD8D0CC382801307C500CDBF13070501AE
:101C7000F5B71C4393C5F5FFFD8D0CC3828093F52A
:101C8000F51F2312B5008280035545001375F51F1B
:101C90008280035505006D8D3335A000828093F757
:101CA000F50F958385463397B6006388D70289463A
:101CB0006389D702835745017D8F0355050093172C
:101CC0000501C183014509CBA1810545B315B500C7
:101CD00033F5B7003335A00082808357C5007D8F70
:101CE000E9BF835705017D8FC9BFA1818547B397A0
:101CF000B70093C7F7FFC207C1832310F5008280A6
:101D0000011106CE22CC26CAA307A100A96703A40D
:101D10004774A16444C891675CC885460146930531
:101D2000F1000145EF10400004C8F2406244D24483
:101D300005618280011106CE22CC26CAA307A1002C
:101D4000A96703A44774A16444C891671CC8854669
:101D500001469305F1000145EF00107D04C8F240F3
:101D60006244D24405618280011106CE22CC26CA8B
:101D7000A96703A44774A16444C893578500230648
:101D8000F100A306A10091671CC8894601466C00BA
:101D90000145EF00707904C8F2406244D244056105
:101DA0008280011106CE22CC26CA4AC84EC6AA8914
:101DB000AE84328936841305A002993713858902CF
:101DC0004205418155371305890242054181693F2A
:101DD0001305B00235371385440342054181693745
:101DE000130544034205418141371305C002093FF1
:101DF000F2406244D2444249B249056182800111F5
:101E000006CE22CC26CA4AC84EC6AA8493066008CB
:101E10001306F00E8145014569371309000F930938
:101E2000700839A07D19420913590901630A090094
:101E30004E842685153F7D14420441807DF8DDB730
:101E4000F2406244D2444249B24905618280411164
:101E500006C622C426C2014881471307F004930630
:101E60003002054681450145EF00505C9306003184
:101E7000054685451305000879249306003101467F
:101E800085451305E004412493060031014685454C
:101E90001305D0048D2CA96703A44774896444C832
:101EA0001305800C8145EF00D06B04C81305400674
:101EB0008145EF00106B130560039935130540064B
:101EC0008145EF00106A1305000AAD351305A00324
:101ED000053D154585351305200B1D353145993DCB
:101EE0003145893D0145B93513053003A135130549
:101EF000300389351305700B2135130550031D3D43
:101F00001305B00BF53B130570032D351305000CBD
:101F1000C53B1305C002393D1305200CD5330545DB
:101F2000113D1305300CE93B494529351305400C9B
:101F3000C13B13050002FD3B1305600CD1333D4549
:101F4000D53B1305000D6D3B1305400AE533130522
:101F5000100ACD331305000E65331305000DD93B70
:101F60001145C93B3545F9334545E9334D45D9332D
:101F70001305B002C1331305F0036D3B1305400593
:101F8000553B1305C0047D3361456D3335455D33E5
:101F90002D454D337D45793B13053002613B1305DB
:101FA000100EB93B1305000D7133114561333145F6
:101FB0005133454541334D45B53B1305C0029D3B6B
:101FC0001305F003853B13054004AD3313051005DD
:101FD00095331305F002B93B7D45A93B7D45993BFF
:101FE00013050002813B13053002A93313051002CB
:101FF000013B45453133130580078145EF0070569D
:1020000013059002F53941657D15D53BB240224458
:10201000924441018280797106D622D426D24AD0D8
:102020004ECE52CC56CA5AC85EC662C466C22A8C0C
:102030001206930A06E0A9679387C7143389FA004A
:10204000930A0901B3852541939B050193DB0B019D
:10205000130B7500420B135B0B01A14CC169138A72
:10206000F9FF938909800DA05285FD3985807D1483
:102070001374F40F19C493F71400FDD74E85ED3196
:10208000F5B70509630E5901B3852B01C205C1815E
:10209000AE865A8662853133834409006684E1BF87
:1020A000B250225492540259F249624AD24A424BE7
:1020B000B24B224C924C45618280011106CE22CC5B
:1020C00026CA4AC84EC6B2890306060015C62A8427
:1020D000920513990501135909018144CA85228586
:1020E0001D3F8504C204C180B387990003860700A1
:1020F0002104420441807DF2F2406244D2444249CC
:10210000B24905618280130700086306E510797102
:1021100006D622D426D24AD04ECE52CC9357550062
:1021200013F977001374F501368AB289AE848DCB2A
:1021300005476389E7060947638BE7060D47638D0B
:10214000E70611476380E70815476383E7081947E7
:10215000639CE700854513050010EFF04FC729A0E9
:1021600085451145EFF0AFC685473394870042049B
:102170004180231281006383F4069376FA0F36C6FA
:1021800013172900A9679387C773BA974C00884330
:10219000EFF04F90B250225492540259F249624AE1
:1021A0004561828085452145EFF06FC275BF854549
:1021B0004145EFF0CFC14DBF854513050002EFF05B
:1021C0000FC15DB7854513050004EFF04FC069BF2F
:1021D000854513050008EFF08FBF79B793170A0103
:1021E000C183A1839DE78D473EC49376FA0F36C61F
:1021F00013172900A9669386C673369704434C00CB
:102200002685EFF02F894E86A2852685EFF02F9543
:1022100051B73EC4D9BF8280935755009D8B7D89AD
:102220000547638DE5008A0729671307C773BA97C7
:10223000984385473395A70048CB82808A07296752
:102240001307C773BA97984385473395A70008CB00
:102250008280135735009376C70129671307C77328
:1022600036971C43984785473395A700798D3335BA
:10227000A0008280135735009376C70129671307A2
:10228000C7733697184354478547B397A700C207CB
:10229000C183B58F5CC78280011106CE22CC26CACD
:1022A0004AC82A84AE84328985450545EFF02FB2AD
:1022B000CA86014681452285B93513555400937568
:1022C000F4011375F50FEFF0CF9385473394870032
:1022D00022C002C226C43EC60A85EFE03FEFF240AC
:1022E0006244D244424905618280B7E700E07D57ED
:1022F00023A0E71823A2E7188280011106CE230449
:10230000A100A304B1002305C10036C62800EFF0E8
:102310000F9237E600E01842FD76F98E03A741924E
:10232000558F23A2E192584293874192120711835D
:10233000D443558FD8C303C7870085476305F7008B
:10234000F240056182805537E5BF411106C693070B
:102350000020630EF51C63F0A7049307302163038C
:10236000F52263E8A70E930730206302F51E63F1A0
:10237000A70C930710216305F51E63ECA71E9307B6
:1023800000216319F5129306803101468545130536
:102390006004953B05A2930710106300F51463FADF
:1023A000A70293070011630AF51463F3A7069307C6
:1023B00020116305F516636AF51493073011631B4A
:1023C000F50E93068031014685451305B002253B85
:1023D000D5A089476303F50E63F0A7028D47630616
:1023E000F50E930700106317F50C93068031014634
:1023F00085450145093B7DA85DC58547631CF50AF8
:1024000093068031014685452545EFF0DFCF5DA07D
:1024100093072010630BF50C93073010631CF5082D
:1024200093068031014685450D45EFF0DFCD59A07B
:10243000930710206305F51093072020631CF50611
:10244000930680310146854513050002EFF0BFCBAE
:1024500095A0930700306309F51463F5A70293076D
:1024600020306305F516636AF51493073030631363
:10247000F504930680310146854513059002EFF07F
:102480009FC80DA8930700226307F5109307102239
:102490006312F5029306803101468545130550020B
:1024A000EFF07FC601A8930680310146854521459E
:1024B000EFF07FC5B2404101828093068031014632
:1024C00085452945EFF03FC4F5B7930680310146B5
:1024D00085452D45EFF03FC3F1BF9306803101469E
:1024E00085450545EFF03FC2F1B7930680310146BF
:1024F00085450945EFF03FC175BF93068031014620
:1025000085453D45EFF03FC075B7930680310146E4
:10251000854513053002EFF01FBF69BF9306803178
:10252000014685451305A002EFF0FFBD61B7930694
:102530008031014685451945EFF0FFBCA5BF9306E4
:102540008031014685451D45EFF0FFBBA5B79306D9
:1025500080310146854513051002EFF0DFBA99BFBF
:10256000930680310146854513057004EFF0BFB92D
:1025700091B7930680310146854513058004EFF03D
:102580009FB80DBF93068031014685451305900421
:10259000EFF07FB705B793068031014685451305F7
:1025A0004002EFF05FB639B79306803101468545AA
:1025B00013056002EFF03FB5F5BD9306803101468B
:1025C000854513057002EFF01FB4EDB59306803119
:1025D0000146854513058002EFF0FFB2E1BD397178
:1025E00006DE22DC26DA4AD84ED6AA84AE893289A3
:1025F000EFF0BFD513D4840075C085476307F40E90
:102600008947630CF4108D47630FF4128545054527
:10261000EFE0FFFBB7170240DC43C983BD8B3717E0
:102620007A0013070720B387E7023727F400130760
:102630000740BA9723ACF18433D73703418393051E
:102640001700B3853503B3D7B7029386F7FF231C72
:10265000D100231AE100231D0100231B0100230EDA
:102660000100130700072312E10005472313E100CF
:1026700023140100C207C183B38727030967130727
:102680000771B3D7E7022315F10089472316F1003C
:102690002317F10023180100231901000A04A96778
:1026A0009387C7743E9400404C082285EFE0FFFDFD
:1026B0008D88F9C08547638CF40E89476387F410D1
:1026C0004C002285EFF08FA6A1452285EFF02FBCAC
:1026D000930500402285EFF00FC15DA88545056593
:1026E00013050580EFE0BFEE15B785450545EFE022
:1026F000FFEF85450545EFE09FED93D74400414747
:102700006388E7044547E397E7F0854537051800F8
:1027100013050530EFE05FC5F5BD85450945EFE0E0
:10272000FFEC85450545EFE09FEA93D7440013078A
:1027300010026397E702854537151A00130505C097
:10274000EFE09FC2C1BD85451145EFE03FEA7DBD89
:1027500085453705160013050504EFE0FFC05DBD94
:1027600013072002E398E7EA854537151A00130599
:102770000580EFE07FBF79BD4C002285EFE05FFC74
:10278000A1452285EFF0CFAC91452285EFF0CFB186
:1027900085452285EFF04FA385452285EFF00FA5F3
:1027A000F2506254D2544259B259216182804C0095
:1027B0002285EFF08F81A1452285EFF08FAA930546
:1027C00000402285EFF06FAFE1B74C002285EFF0BB
:1027D000EF8AA1452285EFF06FAA91452285EFF09F
:1027E0006FAF7DB71357850093172700A9669386AF
:1027F000C674B6979C4383D7C702B385F502896731
:1028000093870771B3D5F50201EF0D89B757001013
:102810009387D7B03E950A05C205C1810CC182805D
:1028200085476309F70089476300F7028D4763080E
:10283000F70282800D89B7070010B5073E950A059B
:10284000C205C1810CC182800D89B7070010938732
:10285000D7103E950A05C205C1810CC182800D8941
:10286000B70700109387D7203E950A05C205C1819E
:102870000CC1C1B7411106C622C42E841DC98947A7
:102880006308F5069147630CF50699476300F50860
:10289000A1476304F508A9476309F508B147631028
:1028A000F50291460146814513056002EFF0BF85B0
:1028B00039A09146014681452145EFF0DF848547E7
:1028C000630DF4068D476301F40895476305F4082A
:1028D0009D47630AF408A547630EF408AD476303F8
:1028E000F40AB5476308F40AB240224441018280E9
:1028F0009146014681450145EFF0FF80C9B79146F9
:10290000014681453D45EFF01F8055BF9146014688
:1029100081451945EFF02FFF5DB79146014681458E
:1029200013056004EFF02FFE59BF91460146814523
:1029300013054002EFF02FFD59B79146014681453E
:102940002545EFF04FFC4DB79146014681450545C1
:10295000EFF06FFB51BF91460146814513053002F0
:10296000EFF06FFA51B79146014681451D45EFF0F2
:102970008FF99DBF91460146814513057004EFF024
:102980008FF89DB791460146814513055002EFF03F
:102990008FF799BF91460146814513057002EFF00C
:1029A0008FF699B7011106CE22CC26CA4AC82A84CE
:1029B000AE84328929C58547630AF5048947630CCB
:1029C000F5048D47630EF504CA8526856535854572
:1029D0000545EFE0DFBF91476389F404A147638AAF
:1029E000F40AA9476396F404AD476313F9048545D7
:1029F00037151A0013050580EFE01F9715A88545C8
:102A0000056513050580EFE09FBC7DBF8545054545
:102A1000EFE0DFBD55BF85450945EFE03FBD6DB730
:102A200085451145EFE09FBC45B79547630BF90419
:102A30004800EFE0FFF785472312F100FD5723140C
:102A4000F1002315010023130100230601000A04ED
:102A5000A9679387C7743E9400404C002285EFE03D
:102A6000DFC28146014689452285EFE01FFA854590
:102A70002285EFE07FF5F2406244D244424905618D
:102A8000828085453705180013050530EFE0DF8D9E
:102A900045B7A547E31EF9F8854537151A00130514
:102AA00005C0EFE07F8C69B70A05A9679387C774F3
:102AB000AA979C4303D547024205418582800A05B7
:102AC000A9679387C774AA979C43239207028280C1
:102AD000411106C622C426C24AC0AE843284368959
:102AE0002DCDC1476303F508930700026318F5086D
:102AF00093068031054685451305D002EFF0AFE01F
:102B00008547638CF408C5476381F40A9307100274
:102B10006396F40A93068031054685451305F00255
:102B2000EFF06FDE8947630AF40AC947630FF40ABE
:102B3000930720026304F40C930730026319F40C2A
:102B400093060031054685454A85EFF0CFDBB2405C
:102B50002244924402494101828093068031054615
:102B600085451545EFF02FDA61BF930680310546A4
:102B7000854513053002EFF00FD959B7B7A600000D
:102B80009386C67629661306C6759305D00237A5C7
:102B9000000013050577EF50305793068031054646
:102BA00085451D45EFF02FD6B5BF9306803105460C
:102BB000854513055002EFF00FD5ADB7B7A600005D
:102BC0009386C67629661306C6759305200337A536
:102BD000000013050577EF5030539306803105460A
:102BE00085451945EFF02FD2A1BF930680310546E8
:102BF000854513054002EFF00FD199B79306803158
:102C0000054685451305E002EFF0EFCF15BFB7A6E7
:102C100000009386C67629661306C6759305800361
:102C200037A5000013050577EF50104E397106DE09
:102C300022DC26DA4AD84ED652D456D25AD02A842A
:102C4000AE89328AB68A3A8BBE84428949C58547A5
:102C50006309F508DA865686D2854E85EFF05FE780
:102C600023160100930740102317F10023180100D9
:102C700085476383F40893978401E187ADCB894747
:102C80006382F4088D476385F40893070020231BB3
:102C9000F1000E09231C2101231D01009D47231E65
:102CA000F1000A0413850183229500416C002285FE
:102CB000EFE0BF95C1476384F90685452285EFE0C3
:102CC0007F9AF2506254D2544259B259225A925ABF
:102CD000025B21618280854505650505EFE03F8F38
:102CE00095BF854511650505EFE05F90A5B72319F0
:102CF0000100231A010051BF231901008547231A3F
:102D0000F10061B789472319F100231A0100B5BF0B
:102D100089472319F1008547231AF100BDB785457E
:102D20000545EFE06FE451BFAE96938701830A0536
:102D30003E956387B602184183578700898BEDDF84
:102D4000850583C7F5FF2316F70065D683578700EF
:102D5000858BEDDF8357C7002300F6000506D1BF42
:102D60008280411106C6EF10F033B24041018280EB
:102D7000411106C60DE585476385F500B240410166
:102D8000828093068031014685452545EFF0AFB737
:102D90009146014681452945EFF0EFB6C5B7894711
:102DA0006309F502C1476306F50493070002631047
:102DB000F50693068031014685451305A002EFF024
:102DC0008FB49146014681451305B002EFF0AFB3D1
:102DD00075B7930680310146854513056002EFF013
:102DE0008FB291460146814513057002EFF0AFB1F5
:102DF00071B793068031014685450945EFF0AFB0C4
:102E00009146014681450D45EFF0EFAF85BF930731
:102E10002002E315F5F6930680310146854513053A
:102E2000A004EFF04FAE9146014681451305B00472
:102E3000EFF06FADA1B7797106D622D426D24AD071
:102E40004ECE2A84AE89B284368985450545EFE0A9
:102E50000FF8CA852685293F89476381F4029307C5
:102E600020026390F40293073002631CF900854549
:102E7000370514004105EFE02FCF21A08D47630AED
:102E8000F90429CC85476300F40689476303F406F7
:102E90004EC0231201002313010023140100231646
:102EA0000100B1472315F1000A04A9679387C77988
:102EB0003E9400408A852285EFE03FC78545228504
:102EC000EFE03FD6B250225492540259F249456184
:102ED000828085451145EFE02FC965B785451165AD
:102EE000EFE0EFEE75B7854537050200EFE00FF034
:102EF00045B7854537050400EFE04FEF51BF0A05A0
:102F0000A9679387C779AA9798438357070093F7D0
:102F10000708E5DFC205C1812312B7008280411195
:102F200006C622C426C2AA842E8483C5050099C57C
:102F300005042685E93783450400FDF9B2402244A3
:102F4000924441018280411106C622C426C22A84CD
:102F5000AE8413172500A9679387C779BA970546EA
:102F6000930550528843EFE0DFCDA68601468545A4
:102F700013055403EFF06FB8B2402244924441016C
:102F800082800A05A9679387C779AA9798438357D0
:102F9000070093F70702E5DF835747002380F5001A
:102FA000828003A5C1858280411106C69387C185B1
:102FB0009843050798C3EF10E0723C41FD173CC1F0
:102FC00091C7EF10B035B240410182805C5D3CC1D9
:102FD000EF10A07DFDB7634205029307803E3347A3
:102FE000F5023307F7023365F5023305F5021305E1
:102FF000753E3345F5023A9582807D5582800145C4
:1030000082800145828001458280014582802D6752
:103010001307072DAD679387472D637CF702411196
:1030200006C622C426C22D649304042DAD6793877F
:10303000372D858FF19B9107BE941304042D1C40FE
:1030400082971104E31D94FEB24022449244410150
:10305000828082802D671307472DAD679387C72D28
:10306000637CF702411106C622C426C22D64930474
:10307000442DAD679387B72D858FF19B9107BE9443
:103080001304442D1C4082971104E31D94FEB240AA
:1030900022449244410182808280411106C65D3FF4
:1030A000EFD07FFCB24041018280411106C6D1477A
:1030B0000947930600400146B73500009385A509EE
:1030C00037A500001305C57AEF102062EF10B0039A
:1030D000B24041018280411106C6EFD06F86EF20D9
:1030E0005029EF00D058EF10702CEF10402F753F93
:1030F000EF10702CF920EF1060310145B240410112
:103100008280411106C6C13F0145B2404101828023
:1031100003A7818893878188630FF708011106CE82
:1031200022CC26CA4AC84EC652C456C29389818848
:10313000854A2DA02685EF10002A630A5505EF1059
:10314000C0425285EFD02F804848EF1040052685B9
:10315000EF10202583A7818863863705EFC05FFEC7
:103160002A8A83A78188638D370303A48188930407
:10317000C4FE18405C405CC3184098C340C000C007
:10318000EF10A03C7C4CDDD72685829765B726855D
:10319000EF100018EF10603D5285EFC0DFFA19A064
:1031A000EFC07FFAF2406244D2444249B249224A17
:1031B000924A056182808280411106C6EFF05FF578
:1031C000F5BF411106C622C4930800021D489307AB
:1031D00000301387819A8146373600001306861B1C
:1031E000B7A500009385457B13850193EF108044BC
:1031F00013850193EF102071B24022444101828077
:10320000411106C622C426C24AC02A843289B68425
:103210002E868945EF10A008930744011CCC5CC89A
:10322000231E2401A30494000145B2402244924489
:10323000024941018280411106C622C426C2AE84E1
:103240003284AA850945EF10800F09C9930745010B
:103250001CCD5CC9231E9500A3048500B240224406
:10326000924441018280797106D622D426D24AD076
:103270004ECE52CC2A842EC6EFC09FECAA8983572B
:10328000C401A1E7B247A9CBEF10C045AA84232807
:10329000050213094401034A9400EF10C05663016C
:1032A0000A0485476308FA04B2476348F0084E856C
:1032B000EFC07FE9EF1060188858B2502254925442
:1032C0000259F249624A45618280FD17231EF400CB
:1032D000EFC07FE70145D5B7EFC0FFE67955F1BFF5
:1032E00093874401184C1CC3184C98CC1CCC23AABF
:1032F00024015DBF5C486308F90283C6540303C719
:10330000170263E9E6009C43630FF90003C7170245
:10331000E3FBE6FE13874401D44398C2D44394CC24
:10332000D8C3DCC851B793874401184C1CC3184C50
:1033300098CC1CCC23AA240185BF138444047000BC
:1033400081452285EF1080792285EF10406B85B78B
:10335000411106C622C426C22A84EFC07FDEAA8499
:103360004848930744016300F5023115EF10A0545B
:103370002685EFC05FDDEF10400C0145B2402244CE
:103380009244410182808357C4018507231EF400C3
:103390002685EFC05FDBD5B7411106C622C426C221
:1033A0004AC0AE843289AA851545EF0050792A8437
:1033B0001DC9A3042501930745011CCD5CC9231039
:1033C00095021395040141810A05EF00B04748CCEE
:1033D00015C12311040223120402231304029307CC
:1033E00084025CD41CD42285B24022449244024917
:1033F000410182802285EF00D07A0144EDB7397116
:1034000006DE22DC26DA4AD84ED652D456D25AD01C
:103410005ECE62CC66CA2A842E8C32C6EF10802C17
:10342000AA84EFC0FFD1AA8903572402835704025C
:103430006309F704035744025C4C0A07BA9723A0B8
:103440008701835744028507C207C1832312F40210
:103450000357040263E4E7002312040283572402A3
:1034600085072311F402484851046307851231157A
:10347000EF1060444E85EFC01FCDEF00107C01457A
:1034800025A0B247814C89CB130A8402938A440158
:10349000054B938B4404B9A8EFC0FFCA755529A00A
:1034A0004E85EFC05FCA7555F2506254D2544259EE
:1034B000B259225A925A025BF24B624CD24C2161B1
:1034C00082805C5423A057015C549CCC2326540377
:1034D00023AA4401B2476345F0084E85EFC0BFC63A
:1034E000EF00B075885869F1EFC09FC5AA89B2474F
:1034F0006344F0080357240283570402E31CF7F2E5
:1035000023A80402B247C9DF034994002685EF10BF
:10351000802FE30809FAE31F69FB1C546308FA02D1
:1035200083C6540303C7170263E9E6009C43630F95
:10353000FA0003C71702E3FBE6FED8432320570136
:10354000D84398CC23A25701DCC869B75C5423A0A8
:1035500057015C549CCC2326540323AA44019DBFED
:10356000EFF03FA4AA8C700081455E85EF100057F4
:103570005E85EF10C04895B7EFF0BFA233079541C5
:10358000B247E6973385A740634505002AC6BA8C43
:1035900095B702C6BA8CB9BF4E85EFC0DFBA0145F8
:1035A00021B7411106C60146EFF07FE5B240410167
:1035B0008280397106DE22DC26DA4AD84ED652D411
:1035C00056D25AD05ECE62CC66CAAA842E8C32C63F
:1035D000EF1040112A84EFC0BFB6AA8983D7240216
:1035E000639C0710B247814C89CB138A4401930A2C
:1035F0004401054B930B44048DA0EFC0DFB4795513
:1036000039A04E85EFC03FB4F9571CD87955F25018
:103610006254D2544259B259225A925A025BF24B26
:10362000624CD24C216182809C4C23A057019C4C5F
:103630001CCC23AC5401232A4401B2476342F00856
:103640004E85EFC05FB0EF00505F085869F1EFC0E2
:103650003FAFAA89B2476341F00883D72402C9EF7C
:1036600023280402B247D1DF03C994002285EF105A
:103670008019E30B09FAE31269FDDC486308FA02DA
:103680008346540303C7170263E9E6009C43630FB4
:10369000FA0003C71702E3FBE6FED84323205701D5
:1036A000D84318CC23A257015CC841BF9C4C23A02F
:1036B00057019C4C1CCC23AC5401232A4401B5BFB8
:1036C000EFF03F8EAA8C700081455E85EF100041BF
:1036D0005E85EF10C032ADB7EFF0BF8C3307954178
:1036E000B247E6973385A740634505002AC6BA8CE2
:1036F000ADB702C6BA8C95B703D76402DC4C0A0793
:10370000BA979C432320FC0083D764028507C20735
:10371000C1832393F40203D7040263E4E7002393F5
:10372000040283D72402FD172391F4028854938462
:103730008402630C95003115EF10E0174E85EFC041
:103740009FA0EF00904F0145D9B54E85EFC0BF9FB8
:10375000014575BD411106C6EFC09F9E13870186C6
:1037600083470700850793F7F70F2300F700EFC0A3
:103770009F9DB24041018280411106C6EFC05F9C0F
:103780001387018683470700FD1793F7F70F230080
:10379000F700EFC05F9BB2404101828041119378F6
:1037A0000804639F08022D6F130F0FAB9378080175
:1037B000638C08021378E8FF9302000293782800D4
:1037C00063840804634B060293784800930FB002A9
:1037D000639D0802937F8800B33FF001960F35A0E8
:1037E0002D6F130FCFA0D9B7937818009302000361
:1037F000E39608FC93020002D1B73306C040930F52
:10380000D0028148A94E81A8814F65FE930600032E
:103810002300D1008548468E63D3F8003E8E3307DF
:10382000C74193761801BDE263880F10635EE00E16
:103830001303E7FF854663C5E6101A87FDA01373DF
:10384000F60011828508330E11017A9303430300B9
:10385000A30F6EFE69D2E394D6FF3373D6033356BB
:10386000D603CDB70507B306E6406357D000E37B28
:10387000B7FE2300D701FDB71307F3FF1346F3FF8D
:103880007D86B376C300158F85063695639F0F0836
:1038900013780801631208029306F7FF6357E004E8
:1038A0002A9721A005056307E500E37DB5FE230007
:1038B0005500CDBF3A857D57B3061E41AA96130623
:1038C000000363CFC801AA86635F10038DCF4683D0
:1038D0000A8533061501B68739A80505E306D5FE26
:1038E000E37DB5FE2300C500CDBF3687F1B7850760
:1038F0007D166309A600E3FCB7FE0348F6FF2380AC
:103900000701F5B79A963385E600930700026348EE
:10391000E0003685410182808506E38DA6FEE3FD49
:10392000B6FE2380F600CDBF7D176374B50023007B
:10393000F5017D170505A9BF1303F7FF6359E000E3
:103940002A87930E0002130615001A960DB71A87E0
:1039500081B78D4763F9C700937735008DC713078B
:10396000F6FFAA8729A0AA871307F6FF01CE05074D
:103970003E978507A38FB7FEE39DE7FE8280BA8757
:103980004286DDB7828093F7F50F93968700D58F37
:1039900093960701DD8EBD4763F1C704930706FFC9
:1039A000C19BC107AA972A8714C354C314C74107F0
:1039B000232ED7FEE39AE7FE1378F600318A61D210
:1039C0009307C8FFF19B9107BA971107232ED7FEE3
:1039D000E31DF7FE1376380041BF2A873288CDB742
:1039E00063E0A502B306C500AA8711CA850585074D
:1039F0000387F5FFA38FE7FEE39AD7FE82808280DC
:103A00003387C500E370E5FEB307C50065DA7D17AF
:103A1000FD17830607002380D700E31AF5FE828096
:103A200009CEAA868505938716000387F5FFA38F25
:103A3000E7FE09C77D16BE8675F682801307F6FF7E
:103A40006DDF36968507A38F07FEE31DF6FE8280A5
:103A50008307050089CBAA878507038707006DFFC9
:103A60003385A7408280AA87E5BF5D7186C6A2C460
:103A7000A6C2CAC04EDE52DC56DA5AD85ED662D42E
:103A800066D26AD06ECEAA8C2E8D368CB30AB50063
:103A900063F5AA00134DF5FFFD5A83070600E6897A
:103AA00063820736930B50021309B0022967930D06
:103AB000C77B41677D173AC409A88509328413067C
:103AC000140083071400638F073263877701E3F6DE
:103AD00059FF2380F900D5B781441307D00293061C
:103AE0000002930530021305000321A093E40401B2
:103AF00022861304160083071600E389E7FE638B12
:103B00002701638CD700638DB700639EA70093E401
:103B10001400F9BF93E44400E1BF93E48400C9BFFB
:103B200093E40402F1B73E87938607FDA54563F64B
:103B3000D5041307A0027D5A6382E7060307040039
:103B40009307E0027D5B6309F7068307040013F621
:103B5000B7FF930680060147630CD60A834704002B
:103B60009387B7FD13F6F70F9306300563E8C62079
:103B700093172600EE979C438287014AA5460504C9
:103B800093172A003E9A060A3A9A130A0AFD030777
:103B90000400930707FDE3F4F6FE4DB71304260077
:103BA00093074C00032A0C003E8CE3590AF8330AB1
:103BB000404193E4040159B713071400830714002C
:103BC000BE86938507FD25466379B6009306A0025D
:103BD0006386D7023A84014B8DBF014B05079317CB
:103BE0002B00DA978607B697138B07FD830607002D
:103BF000938706FDE374F6FE3A8429A00904032B9B
:103C00000C00110C9347FBFFFD87337BFB0035BF96
:103C100013F7F70F050499B7C14641AAC1889DC0A3
:103C200093064C0063F6590183270C002380F900AA
:103C30009387190005476351471D52864E9A130713
:103C400000020DA89307FAFF6351F002CE97130705
:103C5000000221A0850963873701E3FD59FF238016
:103C6000E900CDBFBE89014A65BF3E8A55BF8507C1
:103C700063874701E3FD57FF2380E700CDBFB2997B
:103C8000368C35BD93074C003EC6032C0C006301F7
:103C90000C026285EFF0DFDB635560016353AB001C
:103CA0005A85C18899C86350A006B387A900A9A006
:103CB000B7B70000138C87AAE9BF9306FAFF6357D2
:103CC0004503D2852A87B307AA40CE971306000280
:103CD00021A085096387F900E3FD59FF2380C9000E
:103CE000CDBF330AB740369ABE8975BF368A65BFE5
:103CF0008509050C638AF900E3FC59FF03070C00F2
:103D00002380E900F5B7CE87635B450F3305AA40F2
:103D1000B389A7001307000221A085076387370135
:103D2000E3FD57FF2380E700CDBF324C49BBFD5771
:103D30006302FA0293074C003EC62688DA87528750
:103D4000C14603260C00D6854E85EFF03FA5AA8913
:103D5000324CB5B393E41400214AE9BF63F659012C
:103D6000930750022380F900850991BB93E4040472
:103D7000C14625A893E42400A94605A863F6590185
:103D8000930750022380F90013871900830704006A
:103D900099C763745701A380F90089090DB37D1495
:103DA000BA8931BBA94611A0A1469307C006630298
:103DB000F702930780066302F70203260C00110C3A
:103DC0002688DA875287D6854E85EFF03F9DAA89EF
:103DD000FDB103260C00110CE5B793074C00032638
:103DE0000C0013F7240009E72247798E3E8CC9BFE7
:103DF000420641863E8CE9B7368CBE89C9B1324C49
:103E0000BE8975B963060D0063F559032380090067
:103E100033859941B640264496440649F259625A80
:103E2000D25A425BB25B225C925C025DF24D6161F0
:103E30008280A38F0AFEE9BF397106CE22CC2ED232
:103E400032D436D63AD83EDA42DC46DE541036C694
:103E50002A869305F007138581CAEFF01FC11385E9
:103E600081CAEF10B062F240624421618280411148
:103E700006C637B50000130505A2EFF0FFFB37B506
:103E800000001305C5A2EFF03FFB37B70000130792
:103E900007A58D4605468D4537B500001305C5A518
:103EA000EFF09FF937B500001305C5A7EFF0DFF875
:103EB000B240410182800DC59377F50F9DE3C16744
:103EC000938707F0E98F95E7B707FF00E98F8DEF3C
:103ED0006181AD679387C7903E95034505006505F1
:103EE00082802D671307C790BA9703C507000505A1
:103EF000828021851375F50FAD679387C7903E9536
:103F0000034505002505828041851375F50FAD67D2
:103F10009387C7903E95034505004505828003A71A
:103F200081865C41BA976304F50283D6270085E257
:103F300083A64186638DF60083A6C186638BF60255
:103F4000D44354C1DC43BA97B306E54094C7144543
:103F5000B307D700630EF50003D6270011EA03A6C6
:103F6000C186630BA6005041D0C35C413E9714C785
:103F7000828023A6A186E9B723A6F186EDB7411179
:103F800006C683A5418737B50000130505ADEFF0E0
:103F9000BFEA83A5818737B50000130545AEEFF072
:103FA000BFE983A5018737B50000130585AFEFF0A2
:103FB000BFE8B24041018280411106C622C413F716
:103FC000C5FFE14663F9E60093073500F19B9306D0
:103FD00087FE63FEF6002E86AA8537B5000013051E
:103FE000C5B6EFF07FE5B2402244410182801D8FCB
:103FF000130687FE23AAC186138481861CC08966A6
:10400000938606EA2390D7005117D8C323A407004C
:1040100023910700BA9723A2F1862390D700854603
:104020002391D700D8C398C781460546B7B500008D
:10403000938545B6138581D2EFF08F9C184023A657
:10404000E18655B763040512411106C622C426C293
:1040500093043500F19883A7418763EB9710B1472C
:1040600063F3F400B144FD55138581D2EFF0AF9FA7
:1040700003A5C18683A68186B307D54003A84187DF
:104080003306984063E2C706138581D2EFF04FAC48
:104090000145B24022449244410182808547231168
:1040A000F400938781879043329798C383A7018751
:1040B00063F0E70A23A8E18661A883572500C5C3FA
:1040C00003A74186630DE5084841369583572500CF
:1040D00091C7E31BA7FE23A6A18651A023A6A18614
:1040E000BDA85C40E3F2C7FA3384F600035724000E
:1040F0006DFB58401D8F930547FFE3E495FE138643
:104100008401E3EDC5F81386C4003E963387C600EC
:104110008965938505EA2310B700231107004C40F9
:104120004CC31CC750C085472311F4005C433108C1
:1041300063840701B69790C7138781871C43B10733
:10414000BE9404C383A7018763F4970023A89186D4
:104150008967938707EA2310F400E30085F6138547
:1041600081D2EFF0EF9E1305C40025B70145828090
:10417000014505B7411106C622C426C2B304B502E3
:104180002685EFF03FEC2A8409C526868145EFF0AD
:104190004FFC2285B240224492444101828009C9E9
:1041A00083A781866366F50083A741866363F50074
:1041B0008280411106C622C426C22A84930445FF88
:1041C000FD55138581D2EFF00F8A835764FF81CBB1
:1041D000035744FF8967938707EA6303F70237B5FC
:1041E0000000130585B1EFF03FC5835644FF035629
:1041F00064FFA68537B50000130545B3EFF0DFC3B4
:10420000231B04FE8967938707EA231AF4FE83A71A
:10421000C18663F4F40023A69186138781871C432B
:10422000832684FF958F83A68186B386D440B69774
:104230001CC32685EFF0BFCE138581D2EFF04F91DE
:10424000B2402244924441018280AA87370700206D
:1042500003270701630CE502370700200327070245
:104260006302E5023707002003270703630EE5001A
:10427000370700200327070401456303F700828006
:104280000D4531A0054521A0094511A00145931711
:10429000450037050020130505013E95CDB70111F6
:1042A00006CE22CC26CA4AC84EC652C4AA84AE89BB
:1042B000328A2E85EFF07FF92A89412C8327490025
:1042C00013044900638587009C43E39F87FE712C9C
:1042D00093E909F8238434012146D2852685EFF03D
:1042E0002FF4EFB0FFE59387C400032749005CC3B8
:1042F00003274900D8C42322F90080C8EFB0BFE4E7
:10430000F2406244D2444249B249224A0561828065
:10431000411106C622C42A8423040500EFB05FE2DF
:104320009307C40054441848D8C2544414C31CC84A
:104330005CC4EFB05FE1B2402244410182800111D0
:1043400006CE22CC26CA4AC84EC6AA892E89EFF0CC
:10435000DFEFAA844845EFF0FFCE2A841DC9D04480
:104360008145EFF00FDF23043401A304040021464C
:10437000CA852285EFF0CFEAEFB09FDC9307C40037
:10438000D8405CC3D84058C4DCC0910404C8EFB026
:104390009FDB2285F2406244D2444249B249056122
:1043A0008280411106C622C42A8423040500EFB08E
:1043B0003FD99307C40054441848D8C2544414C386
:1043C0001CC85CC4EFB03FD82285EFF05FDDB2407F
:1043D000224441018280030585007D8182802392F1
:1043E0000188938781D413870704DCC39CC3A1078A
:1043F000E39DE7FE1D47238EE18623A0018823A8C5
:10440000018893878188DCC39CC38280411106C6E2
:1044100003A50189EFF03FAA7D1593173500138599
:1044200081D43E9508411307C5FE23A0E1882105EC
:10443000EFB0DFD1B24041018280411106C622C4F3
:10444000EFB01FD02A8483974188A1E303A5018997
:10445000EFF07FA67D1513173500938781D4BA97A7
:104460008C439387C5FE03A701886300F702238E60
:10447000A18623A0F18883C7018693F7F70F89CF20
:10448000A1051305C701EF0000782285EFB0BFCB6F
:10449000B240224441018280A1051305C701EF000B
:1044A00040752285EFB03FCAE5B7411106C622C468
:1044B0002A84EFB0FFC883474403C19B93E71700EA
:1044C000230AF402834754039306440113973700E9
:1044D000938781D4BA97D84314C3D84318CCD4C394
:1044E0005CC893870189185C9443558F98C3EFB0DB
:1044F0009FC5B240224441018280411106C622C4B8
:104500002A84EFB0FFC3930744015448184CD8C223
:10451000544814C31CCC5CC883475403139737001A
:10452000938781D4BA9798436308F700EFB0BFC16F
:10453000B240224441018280138701891C5C93C7E9
:10454000F7FF1443F58F1CC3D5B7411106C6EFB072
:104550003FBF9387418803D7070005072390E700F3
:10456000EFB07FBEB24041018280411106C6EFB07C
:104570003FBD1387418883570700FD17C207C187D6
:104580002310F7006357F000EFB0FFBBB2404101CA
:10459000828023920188EFB01FBB83A70188FDD7DB
:1045A000EFF0BFE9E5B7411106C622C426C203A455
:1045B0000188EFB0FFB8AA842285EFF01FF491477D
:1045C000230AF40213054404752E2285EFF0BFE0A0
:1045D00085476307F5021307440183A68188D8C283
:1045E00054C823A4E188938781881CCC2685EFB02A
:1045F0009FB5EFF09FE4B240224492444101828093
:104600003C58F1FB2285EFF0BFD0CDB7411106C673
:10461000795718D9130745015049144D54C25049D0
:1046200090C218CD58C9EFF05FE8EFF01FE1B2403B
:1046300041018280011106CE22CC26CA4AC84EC64C
:1046400052C456C25AC02A84328BB68ABA893E8A6C
:104650004289C6842E868545EFF07FC493074401C6
:104660001CCC5CC82320640323225403232434037A
:10467000232644035286930530024E85EFF06FAD3A
:104680005C54F1171054B74600009386665A3E9664
:104690004C500850152348CC230B2403A30A2403B1
:1046A000232C040244DC24C023280402230A04022D
:1046B00023280406232A040681470147A286374699
:1046C00000001306C660A28513054404AD2401450D
:1046D000F2406244D2444249B249224A924A024BD1
:1046E0000561828003A501888280011106CE22CC5B
:1046F00026CA4AC84EC652C456C2AE8A328AB68448
:10470000BA893E89AA850545EFF07FC349CD2A8441
:104710002685EFF03F9359C1930744011CCC5CC838
:10472000232054032322440308D444D4268693052B
:104730003002EFF00FA25C54F1171054B74600009E
:104740009386665A3E964C500850BD2148CC230BA8
:104750003403A30A3403232C0402232E240323202E
:10476000240523280402230A040223280406232AFA
:10477000040681470147A286374600001306C6603B
:10478000A28513054404452A2285F2406244D2449E
:104790004249B249224A924A056182802285EFF05D
:1047A0005FC00144D5B70144C5B7411106C6EFB09B
:1047B0003F9983A7018803C747033D8B854663164E
:1047C000D700D44B984F6398E600EFB0DF970145D0
:1047D000B2404101828013864701D8C2D44B14C332
:1047E00090CFD0CB83C657038E06138781D43697DC
:1047F000544390C2544394CF50C3D8CBEFB0BF942E
:10480000EFF0BFC3E9B783474503BD8B054763900E
:10481000E704411106C622C426C22A84EFB05F9283
:10482000AA8483474403C19B93E72700230AF40229
:104830002285EFF09FCC1305440485242685EFB034
:104840009F900145B24022449244410182807D55AF
:104850008280011106CE22CC26CA4AC82AC6EFB0F1
:104860003F8E2A8903A401882285EFF0DFF99304A3
:1048700044047000814526859524268549224A8571
:10488000EFB07F8CEFF07FBB1858F9576309F70042
:104890000145F2406244D2444249056182802328A6
:1048A0000402FDB7411106C6EFE0EFF2EFF07FFA28
:1048B000B2404101828083474503BD8B0947639223
:1048C000E704411106C622C426C22A84EFB05F87DE
:1048D000AA84930744015448184CD8C2544814C3BE
:1048E0001CCC5CC8130544044D2A2685EFB0BF8557
:1048F0002285EFF09FBB0145B24022449244410122
:1049000082807D558280411106C683466503A30AD5
:10491000D50205473317D70018DD0947230AE502FA
:10492000EFF07FF983A7018899C3EFF01FB101452C
:10493000B24041018280011106CE22CC26CA4AC86B
:104940004EC652C42A84328AB6893A89BE842E86DB
:10495000A945EFF0DF94F998A3049400232E4401B5
:104960002320340323240402232224039307440135
:104970001CCC5CC8F2406244D2444249B249224A4B
:1049800005618280411106C622C42A84EFB04FFB24
:10499000930744015448184CD8C2544814C31CCC43
:1049A0005CC8EFB04FFA2285EFF09F960145B24008
:1049B000224441018280011106CE22CC26CA4AC877
:1049C0004EC6AE893289B6843A84AA852945EFF06D
:1049D0001F9719CD7998A3048500232E3501232034
:1049E00025032324050244D1930745011CCD5CC94E
:1049F000F2406244D2444249B24905618280411189
:104A000006C622C426C22A84EFB08FF39304440161
:104A100058481C4C5CC3584898C304CC44C88347CE
:104A20009400F99BA304F400EFB0EFF1EFE06FD72F
:104A30005C503E9508D4EFB0AFF093878189CC43AA
:104A400013878189370800801348E8FF11A0368753
:104A5000638CE5001443DC4A1054E38AC7FE918F4F
:104A60006374F8003687EDB79387418994438506D0
:104A700094C31C43C4C31C435CC804C318CC834701
:104A8000940093E71700A304F400EFB0CFEB0145C7
:104A9000B240224492444101828083479500858B35
:104AA00099E37D558280411106C622C42A84EFB065
:104AB0002FE9930744015448184CD8C2544814C3F2
:104AC0001CCC5CC8EFB02FE883479400F99BA3048B
:104AD000F4000145B240224441018280854763854C
:104AE000F50263DFB70089476384F5028D47639F52
:104AF000F5008347950093E72700A304F50039A04C
:104B000091E51C425CD119A05C511CC20145828018
:104B100083479500F59BA304F500CDBF011106CE98
:104B200022CC26CA4AC84EC652C456C2EFE06FC74E
:104B30002A8AEFB0EFE0AA8993848189B7070080C1
:104B400013C9E7FF8D4A8040631E94004E85EFB085
:104B50008FDFF2406244D2444249B249224A924A2B
:104B6000056182805C48330AFA40E36149FF1840DE
:104B70005C405CC3184098C340C000C01C4448441B
:104B80008297EFE00FC22A8A834754FF13F737005A
:104B900063065701F99BA30AF4FE75B7F99BA30AB4
:104BA000F4FE1305C4FEEFF09FE571BF9387818982
:104BB000DCC39CC3828082802A881106719A130507
:104BC00006F8AA8737C7ADDE1307F7EE98C391073B
:104BD000E31EF6FE2322D6F82324B6FA232006F994
:104BE000A167938707882324F6F8828023A4018A8B
:104BF000828023A0A18A23A2B18AB7E700E01167CF
:104C000023A0E720828083A7818A99E323A0A18A39
:104C100023A2B18A054723A4E18AB7E700E0116720
:104C200023A0E7208280411106C637B50000130596
:104C300085C3EFF06FA00145B240410182800111B0
:104C400006CE22CC26CA4AC84EC600416308850259
:104C5000AA8437B90000B7B9000001A8138549EE4E
:104C6000EFF08F9D0040638B84009305C4FE130515
:104C700009EEEFF06F9C1C40E39297FEF240624415
:104C8000D2444249B24905618280411106C6EFF023
:104C90000F9E0145B24041018280011106CE22CC17
:104CA00026CA4AC84EC623A80500DC45BDC383C733
:104CB0008500B5C32E892A8483A9050039CDEFB0BC
:104CC0002FC88347C4FF93F7F7F703478900639121
:104CD000E7028327490081440040638F89008504EF
:104CE000910723AE87FE0327C900E31797FE31A083
:104CF000EFB06FC5014431A00144EFB0CFC4232809
:104D000099002285F2406244D2444249B249056189
:104D100082800144FDB70144EDB7EFB06FC24E840D
:104D20004DBF517186D7A2D5A6D3CAD1CECFD2CD91
:104D3000D6CBDAC9DEC7E2C5E6C3EAC16EDF0545F8
:104D4000EFF0AFD011052ACF85472302F10AFC18F6
:104D50003ED1A1473ED502D737B60000130606D490
:104D6000A14537B50000130585D4EFF0EF8C214441
:104D7000B7B400001385C4D8EFF00F8C7D147DF814
:104D800037B50000130505D9EFF00F8B814AB7BB8B
:104D9000000037BB0000B7BD0000D5A8130A44FFD0
:104DA00013068007D2854800EF30103C4E85EFB0E7
:104DB0008FB903479402D2862146A14513850BDDA6
:104DC000EFF08F8783478402BD8B05476382E70836
:104DD00009476384E708D9C71147638AE7080D4785
:104DE000638CE7084C4C03C7050093073002631C33
:104DF000F708AE8613073002850683C70600E38DE9
:104E0000E7FE1050B295B386D54093074006B386AF
:104E1000F60208485C505858B3D6C602898D13056F
:104E20008BE1EFF06F8185041109BA5763DFF40459
:104E300003240900EFB0CFB0AA898347C4FF93F7DA
:104E4000F7F70347410AE38BE7F4EFB0CFAFE1BFD9
:104E50001385CCDDEFE05FFE71B713058DDEEFE06B
:104E6000BFFD49B713054CDFEFE01FFDA5BF13855C
:104E70000DE0EFE07FFCBDB7B7B700001385C7E0DA
:104E8000EFE09FFB85B7AE86ADBF63840A026C0975
:104E90005685EFF09FE0AA8ABA57E358F0FE13094F
:104EA000C107814437BC000037BD0000B7BC00001B
:104EB00041B70145BE502E549E540E59FE496E4ACC
:104EC000DE4A4E4BBE4B2E4C9E4C0E4DFA5D6D6134
:104ED0008280011106CE22CC26CA4AC84EC652C4D0
:104EE00037B500001305C5C4EFE01FF503A4C18A60
:104EF00083A7018B637AF402B7B9000037BA0000C8
:104F000031A0210483A7018B6370F4020440094699
:104F1000938509C62685EF40E02165D5A685130552
:104F20004AC6EFE07FF1F1BF0145F2406244D2444E
:104F30004249B249224A056182801D7186CEA2CCC7
:104F4000A6CACAC8CEC6D2C4D6C2DAC02945EFF0B6
:104F5000CFAF11052AD6A947230AF1027C003ED81B
:104F6000A1473EDC02DE37B60000130606E4A14589
:104F700037B50000130585E4EFE01FEC2144B7B41A
:104F800000001385C4D8EFE03FEB7D147DF837B502
:104F90000000130505E7EFE03FEA014AB7B900005A
:104FA00037BB0000B7BA000085A0EFB0CF998504E9
:104FB0001109F25763D8F40403240900EFB04F98A5
:104FC0008347C4FF93F7F7F703474103E39FE7FCE9
:104FD000EFB06F975C4C184C930644FF2146A145F7
:104FE000138549E9EFE05FE58347D4FF858B91C7DF
:104FF0001385CAEAEFE05FE45DBF13058BEBEFE0DA
:10500000BFE375B7630E0A006C105285EFF0FFC85E
:105010002A8AF257E358F0FE1309C100814469BFA0
:10502000EFD03FF8AA8537B50000130585ECEFE017
:10503000BFE00145F6406644D6444649B649264A93
:10504000964A064B25618280597186D6A2D4A6D293
:10505000CAD0CECED2CCD6CADAC8DEC61545EFF05D
:10506000CF9E11052AD69547230AF1027C003ED82F
:10507000A1473EDC02DE37B60000130686C6A14516
:1050800037B50000130505C7EFE01FDB2144B7B4B7
:1050900000001385C4D8EFE03FDA7D147DF837B502
:1050A0000000130545C9EFE03FD9014AB7BB000036
:1050B00037BB0000B7BA000061A0EFB0CF88050988
:1050C0009109F257635CF90603A40900EFB04F871A
:1050D0008347C4FF93F7F7F703474103E39FE7FCD8
:1050E000EFB06F86930484001044638BC402930670
:1050F00044FF0357640183574401014805081042E7
:10510000E39EC4FE2146A14513050BCBEFE0DFD2A1
:105110002685EFF0DFB213858AC4EFE0FFD145B7F3
:1051200001488357440103576401930644FF214615
:10513000A14513858BCCEFE03FD051B7630E0A0039
:105140006C105285EFF07FB52A8AF257E358F0FED3
:105150009309C10001498DBF0145B65026549654AC
:105160000659F649664AD64A464BB64B6561828077
:10517000597186D6A2D4A6D2CAD0CECED2CCD6CAA7
:10518000DAC8DEC60945EFF04F8C11052AD68947EB
:10519000230AF1027C003ED8A1473EDC02DE37B68E
:1051A0000000130606CEA14537B500001305C5CE95
:1051B000EFE09FC82144B7B400001385C4D8EFE0E6
:1051C000BFC77D147DF837B50000130585D0EFE02B
:1051D000BFC6014AB7BB000037BB0000B7BA00002A
:1051E00041A0EFA05FF605099109F2576358F9064F
:1051F00083A40900EFA0DFF483C7C4FF93F7F7F798
:1052000003474103E39FE7FCEFA0FFF3138484000F
:1052100090446309C402938644FF03D70401814785
:1052200085071042E31EC4FE2146A14513050BD29B
:10523000EFE09FC02285EFF09FA013858AC4EFE0C6
:10524000BFBF55B7814703D70401938644FF21466A
:10525000A14513850BD3EFE03FBE71B7630E0A0083
:105260006C105285EFF07FA32A8AF257E358F0FEC4
:105270009309C1000149ADBF0145B650265496546B
:105280000659F649664AD64A464BB64B6561828056
:10529000011106CE22CC26CA4AC84EC652C437B522
:1052A0000000130545F4EFE03FB903A4C18A83A7CA
:1052B000018B637BF402B7B9000037BA000031A05C
:1052C000210483A7018B6371F4020440194693857E
:1052D00009F62685EF30106665F5938564001305A1
:1052E0008AF6EFE07FB5E9BF37B50000130585C446
:1052F000EFE09FB40145F2406244D2444249B249D2
:10530000224A05618280411106C6EFF09FA1014546
:10531000B24041018280411106C6EFE05FC60145FF
:10532000B24041018280054582805D7186C6A2C47B
:10533000A6C2CAC04EDE52DC56DA5AD85ED62A84DD
:10534000AA9513070002A54611A00504B384854061
:1053500083070400E38BE7FEE389D7FE014581EC78
:10536000B640264496440649F259625AD25A425BE4
:10537000B25B61618280814A13070002A54611A0D9
:10538000D28A138A1A00B30744018387070063880F
:10539000E7006386D700E3159AFE268A19A0630109
:1053A0000A1403A9C18A03AB018B637B6913B7BBE2
:1053B000000021A02109637569138329090019469A
:1053C00093850BF64E85EF30F0566DF55286A2852B
:1053D00013856900EF30105671FDD69983877900E7
:1053E000F1FB032A4900630D0A0E02C002C202C487
:1053F00002C602C802CA02CC02CE8A890A8E22875D
:105400000149014613080002A548A14F930E20024E
:10541000130FC00539A0637C960E23000700050713
:10542000050683070700E38807FFE38617FF630D80
:10543000F9036374960A638BD7032320EE001305E8
:1054400019003383C4403A93BA878507B386C700EF
:10545000998E83850700638B050763891507E3969B
:1054600067FE8A85029AEDBD21496DA0930717005A
:10547000930616002320FE001305190003071700EA
:10548000630DD70363EF9600E9BF13861700850607
:10549000930716008506030716006300D703E3F29F
:1054A00096FC3E86E316E7FF03871700E30FD7FD60
:1054B0008506038717008507DDB7E3F496FA238096
:1054C00007008507850663E5960061BFE3FB96F854
:1054D0000509110E3E873686A9B74A85E31309F8F8
:1054E0008307040093F7F7FD228799C70507830711
:1054F000070093F7F7FDFDFB23000700A28537B5F2
:1055000000001305C5F2EFE03F937D5591BD9D4727
:10551000E3F527FD37B500001305C5F0EFE0DF9197
:105520000144B7B4000083A50900138584F6EFE0B9
:10553000BF9005049109E36824FF37B50000130507
:1055400085C4EFE07F8F4A8529BF797106D622D4C2
:1055500026D24AD04ECE52CC56CA5AC85EC662C473
:105560008307050099CF2A8903A4C18A83A7018BE9
:105570006379F40A8149014A37BB0000B7BB0000D8
:1055800035A081450145EFF0BFD061A8CE87B38734
:10559000374163D347013E8AA68513854BC6EFE0AA
:1055A000BF89210483A7018B6376F406032C0400D2
:1055B000194693050BF66285EF30D0377DF19304E1
:1055C0006C004A85EF30F0352A86A6854A85EF3093
:1055D000703661F963170A002685EF3090342A8A05
:1055E000A68983870900DDD303076C0005C3639197
:1055F000E7022687CE87850705070386070041DA7D
:1056000083060700C9D6E308D6FE51B7CE8741B757
:10561000CE87B5BF638709005286CE854A85EFE005
:105620002FC0B250225492540259F249624AD24ACF
:10563000424BB24B224C45618280411106C622C4C6
:1056400026C2AD679387072E23A6F18AAD6793879D
:10565000073623A8F18AAD679387073623AAF18A14
:10566000AD679387073623ACF18A9305C0070545DC
:10567000EFE05FB023A0A18C31CDA9471947930675
:1056800000600146B75500009385057737B50000E7
:10569000130545F8EFF06F85AA841384018C8146C9
:1056A0000146B7B500009385C5F80840EFD05FB557
:1056B00018408347470293E727002302F70201457A
:1056C00089C42685EFF02FA40145B24022449244BC
:1056D0004101828037B500001305C5F6EFE0CFF534
:1056E0007D55E5B783A7018C83C74702898B9DC38E
:1056F000411106C622C483A5C18B95C113060008BB
:10570000138581D8EF30D025138581D8B24022444B
:1057100041018280238401D8138581D88280EFF0F3
:105720009FC005C9938781D8377768201307D7367C
:1057300098C323820700138481D8138581D8EF3062
:10574000501E22959307E0032300F500A3000500F7
:1057500065BF938781D837776E731307679698C3B1
:105760000967130787062392E70023830700E1B741
:10577000797106D622D426D24AD04ECE52CC56CA01
:105780005AC85EC662C403A7018C8347470293E7E9
:1057900017002302F702EFF0FFF4EFE0EFE9B7B9EB
:1057A0000000B7BB000037B9000037BA0000B7BA35
:1057B000000037BC000037BB000029A083A7018C84
:1057C000054798D321232A84AA85E34D05FEED479A
:1057D000E306F5FE83A7018C98538546630ED70632
:1057E00089466305D708F9DD25476387E50E13076A
:1057F000F0076386E51421476383E5143547638B1F
:10580000E51C29476388E51C03D767079306F00466
:1058100063FDE620239B070601473E97A30287020C
:1058200083C74702858B6398072603A7018C83579C
:1058300067078507C207C183231BF70683568707BF
:105840008506231CD7069306F004E3FDF6F6231B1A
:105850000706231C0706BDB71307B0056305E5005F
:1058600023A0070249B7094798D3A9BF23A007027D
:105870001307F5FB1377F70F8546E3F5E6F41307F7
:105880004004630BE50213073004E31EE5F403D77D
:10589000870783D66707E377D7F2BA9783855702DE
:1058A00013858AF9EFE04FD903A7018C8357870747
:1058B0008507231CF70639B783D78707E38407F0EA
:1058C000130549F9EFE04FD703A7018C83578707EA
:1058D000FD17231CF706FDB503D7870709CF014441
:1058E000130549F9EFE04FD5050483A7018C03D7D1
:1058F0008707E347E4FE1384570213058AC4EFE0E9
:10590000AFD3EFF05FA285476307F502EFF09FDDAD
:105910002286AA851305CBF9EFE00FD203A4018CF0
:1059200013055402EF30E07F42054181231BA4069A
:10593000231CA40641BD2285EFF03FC1C1BF03D7A0
:105940008707E30107E803D667077D164206418211
:10595000239BC7067D1742074183239CE706636E9E
:10596000C7001385C9FAEFE02FCD83A7018C03D7B9
:105970006707BA97A3820702B1B5930567021305BB
:105980005702198EBE953E95EFE08F851384018CEA
:105990001C4003D767073E97A302070283D58707FA
:1059A00093855502BE9513854BFAEFE0EFC81C4076
:1059B00003D4870783D76707E3C687E0130549F950
:1059C000EFE08FC7050483A7018C83D76707E3D770
:1059D00087FECDBBEFF03F9585476304F502EFF0FE
:1059E0007FD0EFE06FC503A4018C1306000581454D
:1059F00013055402EFA0BF81231B0406231C0406D9
:105A0000D1B383A7018C83C74702858B91EB03A594
:105A1000018C8355650713055502EFF01F91C1B73F
:105A200013058AC4EFE04FC1DDB703D68707E376DD
:105A3000E6DE93055602130566023306C740BE959F
:105A40003E95EFD0FFF983A5018C83D68507338778
:105A5000D500A302870203C74502058B0DE783A784
:105A6000018C03D4870783D76707E350F4DC130561
:105A700049F9EFE06FBC050483A7018C83D7670762
:105A8000E347F4FE5DB393865602B69513050CEE1C
:105A9000EFE08FBAE9B713858AF9EFE0EFB971B398
:105AA000370500201305C56B8280372500201305BC
:105AB000C5018280397106DE16DC1ADA1ED82AD6B4
:105AC0002ED432D236D03ACE3ECC42CA46C872C666
:105AD00076C47AC27EC0EFD0FFC7B7F700E023825A
