:100000006F10A00C1300000013000000130000008C
:100010001300000013000000130000001300000094
:100020001300000013000000130000001300000084
:08003000130000007300100032
:100038006FF09FFC000000006F0090496F00504E69
:1000480000000000000000000000000000000000A8
:100058000000000000000000000000000000000098
:100068006F60201B000000006F00000F0000000000
:100078006F00904D6FF05FF86F0010526F00F052F4
:100088006F00D0536F00B0546F0040346F00403A97
:100098006F0040406F0020496F00204F6F005054A0
:1000A8006F0010596F00D05D6F00903C6F00506278
:1000B8006F0010676F00D06B6F00E06C00000000ED
:1000C8000000000000000000000000006F00205247
:1000D8006F0060706F0060776F00207E6F007007A0
:1000E8006F0030146F0090166F00501D6FF0DFF036
:1000F8006FF09FF06FF05FF06FF01FF06FF0DFEFC1
:100108006FF09FEF6F6000346F0050226F00D02DAA
:100118006F00405A6FF05FEE6FF01FEE6FF0DFED8B
:1001280000000000000000000000000000000000C7
:080138000000000000000000BF
:1001400073750430828073100530828097520020CE
:10015000938242EB739002340321050095A00100C5
:10016000197106C212C816CA1ACC1ECE22D026D2C7
:100170002AD42ED632D836DA3ADC3EDEC2C0C6C227
:10018000CAC4CEC6D2C8D6CADACCDECEE2D0E6D257
:10019000EAD4EED6F2D8F6DAFADCFEDEF32200304C
:1001A00016C483A2818A23A02200F322103416C031
:1001B000EF50201A83A2C18A03A1020011A00100FE
:1001C000824273901234A2427390023092404242B3
:1001D000D2426243F243025492542255B2554256DF
:1001E000D2566257F257064896482649B649464ABB
:1001F000D64A664BF64B065C965C265DB65D465E5F
:10020000D65E665FF65F09617300203000003D43F3
:100210002A876373C3029377F700BDEFADE593764A
:1002200006FF3D8ABA960CC34CC30CC74CC74107A6
:10023000E36BD7FE11E28280B306C3408A069702C1
:10024000000096966780A6002307B700A306B700B4
:100250002306B700A305B7002305B700A304B70022
:100260002304B700A303B7002303B700A302B7001A
:100270002302B700A301B7002301B700A300B70012
:100280002300B700828093F5F50F93968500D58DF6
:1002900093960501D58D61B79396270097020000CC
:1002A00096968682E78086FA9680C1171D8F3E96C5
:1002B000E374C3F8A5B73367B500FD530D8B79E739
:1002C000B7877F7F9387F7F710419441B372F600A9
:1002D0003363F600BE92B3E262006397720C631858
:1002E000D6065041D441B372F6003363F600BE9295
:1002F000B3E262006398720A631BD604104594450A
:10030000B372F6003363F600BE92B3E2620063910B
:10031000720A631ED6025045D445B372F6003363A9
:10032000F600BE92B3E26200639A72086311D602CD
:1003300010499449B372F6003363F600BE92B3E2FB
:100340006200639372085105D105E30FD6F61317C7
:10035000060193970601631CF7001357060193D714
:1003600006013305F7409375F50F91E982804183CB
:10037000C1833305F7409375F50F91E182801377C0
:10038000F70F93F7F70F3305F74082800346050018
:1003900083C60500050585056313D60065FA330598
:1003A000D640828011059105E312D6FE0145828078
:1003B0002105A105E31CD6FC014582803105B1056C
:1003C000E316D6FC014582804105C105E310D6FC49
:1003D00001458280397106DE16DC1ADA1ED82AD66B
:1003E0002ED432D236D03ACE3ECC42CA46C872C69D
:1003F00076C47AC27EC0EF3030290545EF00B0796F
:1004000085476307F502EF30702AF250E2525253EB
:10041000C2533255A255125682567247E24752488D
:10042000C248324EA24E124F824F216173002030DB
:100430000545EF001078C1BF397106DE16DC1ADA07
:100440001ED82AD62ED432D236D03ACE3ECC42CA8C
:1004500046C872C676C47AC27EC0EF30F022094523
:10046000EF00707385476307F502EF303024F250D8
:10047000E2525253C2533255A25512568256724717
:10048000E2475248C248324EA24E124F824F21617B
:10049000730020300945EF00D071C1BF397106DE0D
:1004A00016DC1ADA1ED82AD62ED432D236D03ACE5C
:1004B0003ECC42CA46C872C676C47AC27EC0EF300D
:1004C000B01C1145EF00306D85476307F502EF3032
:1004D000F01DF250E2525253C2533255A2551256F9
:1004E00082567247E2475248C248324EA24E124FDD
:1004F000824F216173002030054783C7518F93F7E6
:10050000F70FE39CE7FEEF70A05E37250020130590
:10051000C507EF60E03CA38A018EEF60B069EF7021
:10052000F004EF60604B1145EF00B0684DB73971D2
:1005300006DE16DC1ADA1ED82AD62ED432D236D0EF
:100540003ACE3ECC42CA46C872C676C47AC27EC093
:10055000EF3090132145EF00106485476307F502E3
:10056000EF30D014F250E2525253C2533255A255DA
:10057000125682567247E2475248C248324EA24E45
:10058000124F824F2161730020302145EF007062CD
:10059000C1BF397106DE16DC1ADA1ED82AD62ED46F
:1005A00032D236D03ACE3ECC42CA46C872C676C4A3
:1005B0007AC27EC0EF30500D4145EF00D05D8547D7
:1005C0006307F502EF30900EF250E2525253C253DD
:1005D0003255A255125682567247E2475248C248D7
:1005E000324EA24E124F824F21617300203041459E
:1005F000EF00305CC1BF397106DE16DC1ADA1ED896
:100600002AD62ED432D236D03ACE3ECC42CA46C8B2
:1006100072C676C47AC27EC0EF3010071305002080
:10062000EF00705785476303F50413050010EF00D2
:10063000905685476305F50613050008EF00B05591
:1006400085476303F50613050004EF00D054854782
:100650006301F50613050002EF00F0538547631BA5
:10066000F50013050002EF00D05429A01305002067
:10067000EF003054EF309003F250E2525253C25325
:100680003255A255125682567247E2475248C24826
:10069000324EA24E124F824F21617300203013055B
:1006A0000010EF001051F9B713050008EF0070506B
:1006B000D1B713050004EF00D04F6DBF397106DECE
:1006C00016DC1ADA1ED82AD62ED432D236D03ACE3A
:1006D0003ECC42CA46C872C676C47AC27EC0EF30EB
:1006E000A07A2165EF00304B85476308F50411655A
:1006F000EF00704A8547630AF5060965EF00B049C7
:1007000085476308F5060565EF00F04885476306F1
:10071000F506056513050580EF00F0478547630280
:10072000F50613050040EF0010478547631AF500F2
:1007300013050040EF00F04721A02165EF0070474E
:10074000EF30C076F250E2525253C2533255A255A6
:10075000125682567247E2475248C248324EA24E63
:10076000124F824F2161730020301165EF007044F9
:10077000C1BF0965EF00F043E1B70565EF007043C5
:10078000C1B7056513050580EF00B04255BF39714B
:1007900006DE16DC1ADA1ED82AD62ED432D236D08D
:1007A0003ACE3ECC42CA46C872C676C47AC27EC031
:1007B000EF30806DEF30806FF250E2525253C253EF
:1007C0003255A255125682567247E2475248C248E5
:1007D000324EA24E124F824F216173002030397188
:1007E00006DE16DC1ADA1ED82AD62ED432D236D03D
:1007F0003ACE3ECC42CA46C872C676C47AC27EC0E1
:10080000EF3080689305000837350140130505C0B7
:10081000EF10804415E5EF306069F250E252525318
:10082000C2533255A255125682567247E247524879
:10083000C248324EA24E124F824F216173002030C7
:100840009305000837350140130505C0EF108042BD
:10085000D9B7397106DE16DC1ADA1ED82AD62ED49C
:1008600032D236D03ACE3ECC42CA46C872C676C4E0
:100870007AC27EC0EF3040618545373501401305AF
:1008800005C0EF10603D15E5EF304062F250E252D6
:100890005253C2533255A255125682567247E247FE
:1008A0005248C248324EA24E124F824F216173000D
:1008B0002030854537350140130505C0EF10803BDA
:1008C000E1B7397106DE16DC1ADA1ED82AD62ED424
:1008D00032D236D03ACE3ECC42CA46C872C676C470
:1008E0007AC27EC0EF30405A93050004373501408C
:1008F000130505C0EF1040361DED93050002373596
:100900000140130505C0EF1020351DEDEF30005AF2
:10091000F250E2525253C2533255A25512568256E9
:100920007247E2475248C248324EA24E124F824F9F
:100930002161730020309305000437350140130511
:1009400005C0EF10203355BF930500023735014035
:10095000130505C0EF10003255BF397106DE16DCF5
:100960001ADA1ED82AD62ED432D236D03ACE3ECC7F
:1009700042CA46C872C676C47AC27EC0EF30C05042
:10098000894537350140130505C0EF10E02C31EDE6
:10099000914537350140130505C0EF10E02B31EDCF
:1009A000A14537350140130505C0EF10E02A31EDB0
:1009B000C14537350140130505C0EF10E02931ED81
:1009C000EF30C04EF250E2525253C2533255A2554C
:1009D000125682567247E2475248C248324EA24EE1
:1009E000124F824F21617300203089453735014015
:1009F000130505C0EF10002861BF91453735014050
:100A0000130505C0EF10002761BFA1453735014030
:100A1000130505C0EF10002661BFC1453735014001
:100A2000130505C0EF10002561BF411106C6EF3068
:100A3000A045854537050040EF10002211E5EF3055
:100A4000E046B24041018280854537050040EF1005
:100A50006022F5B7397106DE16DC1ADA1ED82AD6FE
:100A60002ED432D236D03ACE3ECC42CA46C872C616
:100A700076C47AC27EC0EF302041854537050040FC
:100A800013050540EF10401D15E5EF302042F250F0
:100A9000E2525253C2533255A255125682567247F1
:100AA000E2475248C248324EA24E124F824F216155
:100AB0007300203085453705004013050540EF10D1
:100AC000601BE1B7397106DE16DC1ADA1ED82AD6A9
:100AD0002ED432D236D03ACE3ECC42CA46C872C6A6
:100AE00076C47AC27EC0EF30203A85453715004083
:100AF00013050580EF10401615E5EF30203BF2504E
:100B0000E2525253C2533255A25512568256724780
:100B1000E2475248C248324EA24E124F824F2161E4
:100B20007300203085453715004013050580EF1010
:100B30006014E1B75D7186C696C49AC29EC022DE7B
:100B40002ADC2EDA32D836D63AD43ED242D046CE3D
:100B500072CC76CA7AC87EC6EF3000339305505205
:100B60003745004013050540EF10E0281DE5EF3044
:100B7000E033B640A6421643864372546255D255BE
:100B80004256B256225792570258F248624ED24EFF
:100B9000424FB24F61617300203093055052374489
:100BA000004013050440EF10C02913050440EF1066
:100BB00020231375F50F03D7819193071700C20700
:100BC000C183239CF190B72600209386C6143697E4
:100BD0002300A7001307F0036374F700239C019020
:100BE000A947E316F5F803A54190EF20B06941B796
:100BF0005D7186C696C49AC29EC022DE2ADC2EDAB9
:100C000032D836D63AD43ED242D046CE72CC76CA0C
:100C10007AC87EC6EF3040279305505237550040C2
:100C200013050580EF10201D1DE5EF302028B6408C
:100C3000A6421643864372546255D2554256B25666
:100C4000225792570258F248624ED24E424FB24F4C
:100C500061617300203093055052375400401305F2
:100C60000480EF10001E13050480EF106017137549
:100C7000F50FEF50B03F55BF397106DE16DC1ADABA
:100C80001ED82AD62ED432D236D03ACE3ECC42CA44
:100C900046C872C676C47AC27EC0EF30E01E0965CF
:100CA000292D85476307F502EF304020F250E252CC
:100CB0005253C2533255A255125682567247E247DA
:100CC0005248C248324EA24E124F824F21617300E9
:100CD000203009651925C9BF397106DE16DC1ADA1C
:100CE0001ED82AD62ED432D236D03ACE3ECC42CAE4
:100CF00046C872C676C47AC27EC0EF30E018EF30C4
:100D0000E01AF250E2525253C2533255A2551256D3
:100D100082567247E2475248C248324EA24E124FA4
:100D2000824F216173002030397106DE16DC1ADA39
:100D30001ED82AD62ED432D236D03ACE3ECC42CA93
:100D400046C872C676C47AC27EC0EF30E01301A0F6
:100D5000397106DE16DC1ADA1ED82AD62ED432D223
:100D600036D03ACE3ECC42CA46C872C676C47AC2A3
:100D70007EC0EF306011EF306013F250E2525253F8
:100D8000C2533255A255125682567247E247524814
:100D9000C248324EA24E124F824F21617300203062
:100DA000411106C6EF30400EEF304010B240410115
:100DB0008280411106C6EF30200DEF30200FB24087
:100DC00041018280411106C6EF30000CEF30000E69
:100DD000B24041018280411106C6EF30E00AEF3097
:100DE000E00CB24041018280397106DE16DC1ADA6D
:100DF0001ED82AD62ED432D236D03ACE3ECC42CAD3
:100E000046C872C676C47AC27EC0EF30E007EF30C3
:100E1000E009F250E2525253C2533255A2551256D3
:100E200082567247E2475248C248324EA24E124F93
:100E3000824F216173002030397106DE16DC1ADA28
:100E40001ED82AD62ED432D236D03ACE3ECC42CA82
:100E500046C872C676C47AC27EC0EF30E002EF3078
:100E6000E004F250E2525253C2533255A255125688
:100E700082567247E2475248C248324EA24E124F43
:100E8000824F216173002030397106DE16DC1ADAD8
:100E90001ED82AD62ED432D236D03ACE3ECC42CA32
:100EA00046C872C676C47AC27EC0EF20F07DEF20BD
:100EB000F07FF250E2525253C2533255A2551256AD
:100EC00082567247E2475248C248324EA24E124FF3
:100ED000824F216173002030397106DE16DC1ADA88
:100EE0001ED82AD62ED432D236D03ACE3ECC42CAE2
:100EF00046C872C676C47AC27EC0EF20F078EF2072
:100F0000F07AF250E2525253C2533255A255125661
:100F100082567247E2475248C248324EA24E124FA2
:100F2000824F216173002030397106DE16DC1ADA37
:100F30001ED82AD62ED432D236D03ACE3ECC42CA91
:100F400046C872C676C47AC27EC0EF20F073EF2026
:100F5000F075F250E2525253C2533255A255125616
:100F600082567247E2475248C248324EA24E124F52
:100F7000824F216173002030397106DE16DC1ADAE7
:100F80001ED82AD62ED432D236D03ACE3ECC42CA41
:100F900046C872C676C47AC27EC0EF20F06EEF20DB
:100FA000F070F250E2525253C2533255A2551256CB
:100FB00082567247E2475248C248324EA24E124F02
:100FC000824F216173002030011106CE22CC26CA47
:100FD0004AC84EC652C456C25AC0EF505000EF0025
:100FE0009075EF600032EF60003BEF605034130605
:100FF0002015930520030145EF10D04DEF6090269A
:10100000EF60D07DEF70202A9306100213060002D5
:10101000B7150E000945EF20805185450945EF20A1
:10102000606585460146814513057003EF10F01B8E
:1010300013068004A14513052002EF10F014854625
:10104000054685456145EF10501AB7C4000037C901
:101050000000B7D900001145EF30307B03960192B4
:101060009385848213850195EF3080519385019596
:101070000545EF20805D930509830545EF20E05C81
:1010800003C6B1939385848213850195EF30404F59
:10109000938501950545EF20405B93050983054540
:1010A000EF20A05A03A6C1939385848213850195EE
:1010B000EF30004D938501950545EF20005993854C
:1010C00009990545EF20605879B797F1FF1F938183
:1010D000617E174100201301E1F217C500001305DE
:1010E00065CA97F5FF1F9385E5F11386818563FA3D
:1010F000C5008322050023A0550011059105E3EAF0
:10110000C5FE138581859715002093852514637787
:10111000B500232005001105E36DB5FE930280089C
:1011200073A0023097F2FFFF938242F193E2120024
:1011300073905230EF50203901458145EF20806F88
:10114000972200009382426F739012347300203014
:10115000B7270140938707406303F5008280411160
:1011600006C6854513050020F12B81451305002097
:10117000D12BB240410182805C413707F1FF130758
:10118000F7EF7D8FDC41A2079441D58FD98F5CC1E9
:101190001C4537F7F1FF1307D77F7D8F9C49D44556
:1011A000D58F94458606D58FD98F1CC55C553707DA
:1011B00010FF7D177D8F83C74501FD1793F7F70F4C
:1011C000D207D98F5CD5828091C51C4593E7170063
:1011D0001CC582801C45F99B1CC582801C4593E779
:1011E00087001CC5828008450D81058982801C45C9
:1011F00093E747001CC582800845098105898280E4
:10120000A54763F7B7048328C500138865FF131744
:10121000180042979D47B397E70093C7F7FFB3F7CE
:101220001701B396E600DD8E54C5994763E3C70402
:1012300058597D16931726003E96FD47B397C70071
:1012400093C7F7FFF98F3396C5005D8E50D9828022
:1012500003280501139715002E979D47B397E700C4
:1012600093C7F7FFB3F70701B396E600DD8E14C905
:101270006DBFB14763E3C7021459130796FF1316F6
:1012800027003A96FD47B397C70093C7F7FFF58F3E
:101290003396C5005D8E10D9828054554D161317B4
:1012A00026003A96FD47B397C70093C7F7FFF58F1F
:1012B000B395C500DD8D4CD582809317350063DA78
:1012C0000700B707024083A707407D8D3335A00094
:1012D0008280B70702409C43CDBF9317350063D788
:1012E0000700B707024023A2A7408280B707024049
:1012F000C8C382805C45D9C3B706014093870640C6
:1013000003A6064018411347F7FF718F23A0E6405C
:1013100083A6464018411347F7FF758FD8C358413D
:101320003E9714431041D18E14C39447184113477C
:10133000F7FF758F98C7D44718411347F7FF758F8C
:10134000D8C71C454147638CE700370701401307A6
:101350000740BA9798431441558F98C38280B707C6
:10136000014003A787401441558F23A4E74003A7FA
:10137000C7401441558F23A6E74082805841B707E4
:101380000140938707403E9714431C4193C7F7FFE2
:10139000F58F1CC38280370701408327074003274E
:1013A0004741698F09C77D8D3335A0008280014593
:1013B0008280B707014023AAA74082809C4593F80A
:1013C000F700C18B81C7DC41B3E8F80083C7050093
:1013D000A9CB10418147054E3D4F930E8002930FDC
:1013E0008004214329A054C98507638B6702B31683
:1013F000FE0003D70500758FE398E6FE13972700DC
:101400003318EF001348F8FF3376C8003397E8002D
:10141000598E9845E309D7FDE318F7FD14C9E9B7DC
:1014200010C103D705009307F00F63FDE704504197
:10143000A147054EBD4F130F8002930E8004414318
:1014400031A054C915A88507638D6702B316FE0045
:1014500003D70500758FE398E6FE13972700011761
:101460003398EF001348F8FF3376C8003397E8004D
:10147000598E9845E307E7FD9845E316D7FD14C953
:10148000D9B750C1828019C20CC982804CC98280F0
:101490002A8663400504B7070140DC439316050123
:1014A000C182370730003378E5006308E80213177C
:1014B000B500635C0704135705011378F7000D4767
:1014C000331707011347F7FF7D8FB707000FD98F39
:1014D0000DA0B7070140DC4FD1B7370700F17D17EA
:1014E000F98FB708014003A848003377E80023A22A
:1014F000E80091C5558112053395A600C98F634256
:101500000602370701405CC382801357550112075A
:101510003397E6001347F7FF7D8FB707000FD98F8A
:10152000C9BF370701405CCF828093F735008A0737
:1015300013F7C50FB7050140BA9594453D473317DA
:10154000F7001347F7FF758F98C598453315F500D9
:10155000598D88C58280B7E700E0BC47898B95CF5D
:101560008346050083472500920793F7F70F37E777
:1015700000E036972300F7405C41B5C703470500FC
:10158000935757008546B396E600938707048A076A
:1015900037E700E0BA9794C38280B7E700E0BC4722
:1015A000898BF9FB034715008547630FF7008346D6
:1015B000050083472500920793F7F70F37E700E010
:1015C00036972300F7404DBF83460500834725002B
:1015D000920793E707F893F7F70F37E700E036979E
:1015E0002300F74051BF0347050093575700854636
:1015F000B396E600938707068A0737E700E0BA97B5
:1016000094C38280B7160240DC4251777D17F98F70
:101610005D8DC8C28280B7170240DC43B18B114791
:101620006384E70821476387E70899C7B7177A00FB
:10163000938707201CC131A0B7177A009387072032
:101640001CC1371602405C429183BD8B37070020D6
:1016500013070700BA9783C607001C41B3D7D7000A
:101660005CC15442A1829D8ABA9683C60600B3D655
:10167000D70014C55442AD829D8A369703470700B0
:10168000B3D7E7005CC558423983937637003707F4
:1016900000201307070B3697034707001377F70F50
:1016A000B3D7E7021CC98280B7177A009387072057
:1016B0001CC141BF371702405C435843C983BD8BEF
:1016C00089079316F70063CA060037173D00130712
:1016D0000790B387E7021CC1ADB7371702405843E4
:1016E0009316E70063DA060037173D0013070790EB
:1016F000B387E7021CC1B1B737177A001307072079
:10170000B387E7021CC135BF99C5371702401C4F8C
:101710005D8D08CF8280B7170240984F1345F5FFC3
:10172000798D88CF828099C5371702405C4F5D8DD7
:1017300048CF8280B7170240D84F1345F5FF798D07
:10174000C8CF828099C5371702405C475D8D48C776
:101750008280B7170240D8471345F5FF798DC8C777
:101760008280035705008D67938707047D8F83D799
:10177000050083D62500D58F83D64500D58F83D627
:101780006500D58F83D68500D58F83D6A500D58FEC
:1017900083D6C500D58F83D6E500D58FD98F23108A
:1017A000F5000357C501FD779387F77FF98F231E57
:1017B000F50083D705012318F500828081C983577E
:1017C000050093E707042310F50082808357050086
:1017D000C207C18393F7F7FBC207C1832310F5004B
:1017E000828083570500C207C18337370140130742
:1017F00007C06300E504370700406307E5061307E9
:1018000007406303E5063717004013070780630DA1
:10181000E50493F7F7CF03D76500D98F2310F500C0
:1018200083D745002316F50283D705002314F5025C
:1018300085A093F7F7F803D72500D98F93F7F7CF53
:1018400003D76500D98F2310F50083D745002316F1
:10185000F50283D705002314F50203C78500B737C7
:1018600001402398E7C22DA093F7F7F803D725008E
:10187000D98F93F7F7CF03D76500D98F2310F500E1
:1018800083D745002316F50283D705002314F502FC
:101890008547231AF500828083570502C207C1835A
:1018A000F99BC207C1832310F50283570502C207C3
:1018B000C18383564500C206C18203578501420792
:1018C00041831377C7F803D60500518FF59B03D6E4
:1018D000850003D8250033660601D18F37360140D5
:1018E000130606C0630DC5002312D500231CE500B6
:1018F00003D76500231AE5022310F5028280DD9BE1
:1019000003D6A500D18FED9B03D64500D18F93F66A
:10191000F6CF03D6C50003D8E50033660601D18EA5
:10192000E1B783570502C207C183BD9BC207C183CC
:101930002310F50283570502C207C18303564500F1
:10194000420641828356850165771307F7CF758F6D
:1019500083D60500A206558F4207418393F7F7FD12
:1019600003D8850083D62500B3E606019206D58FFD
:10197000C207C183B7360140938606C0630DD50008
:101980002312C500231CE50003D76500231CE502D4
:101990002310F502828093F7F7F783D6A50092060D
:1019A000D58FC207C18393F7F7FB83D64500920614
:1019B000D58FC207C183FD769386F63F758E03D817
:1019C000C50083D6E500B3E606018A06558E4206B9
:1019D00041827DB783570502C207C18393F7F7EFB2
:1019E000C207C1832310F50283570502C207C183D2
:1019F00003564500420641820357C5014207418311
:101A00001377C7F883D60500558F93F7F7DF03D810
:101A1000850083D62500B3E60601A206D58FC2074E
:101A2000C183B7360140938606C0630DD5002312EB
:101A3000C500231EE50003D76500231EE502231021
:101A4000F5028280FD769386F67FF58F83D6A5001A
:101A5000A206D58FC207C18393F7F7BF83D645008F
:101A6000A206D58FC207C183F576FD16758E03D801
:101A7000C50083D6E500B3E606019206558E420600
:101A8000418275B703570502FD77FD17F98F2310C3
:101A9000F50203580502035645004206418283576A
:101AA000C50165771307F7CF7D8F83D60500A206A2
:101AB000558F42074183F977FD17B3F7070103D824
:101AC000850083D62500B3E60601B206D58FC2078E
:101AD000C183B7360140938606C0630DD50023123B
:101AE000C500231EE50003D765002310E50423107D
:101AF000F5028280F176FD16758E83D6C5009A06B2
:101B0000558E42064182E1BFFD572312F500231096
:101B1000050023130500231105002304050082801E
:101B200081C98357050093E717002310F5008280D1
:101B300083570500C207C183F99BC207C1832310E5
:101B4000F500828081C9835745042167D98F23120C
:101B5000F504828083574504C607C5832312F50424
:101B600082800358850042081358080103578501F5
:101B70004207418383570502C207C183137888FF58
:101B8000B365B8001377C7CF1367171093F7D7FD66
:101B90009206558ED18FC207C1832314B500231C32
:101BA000E5002310F502828083578501C207C183B7
:101BB000DD9BDD8D231CB500828003578501FD77F9
:101BC0009387F77FF98FA205CD8FC207C183231CAE
:101BD000F50082808357C501C207C183DD9BDD8D7F
:101BE000231EB50082800357C501FD779387F77FD9
:101BF000F98FA205CD8FC207C183231EF500828015
:101C000083578501C207C183ED9BDD8D231CB50081
:101C1000828083578501C207C18393F7F7BFA2056E
:101C2000CD8FC207C183231CF50082808357C50175
:101C3000C207C183ED9BDD8D231EB50082808357D3
:101C4000C501C207C18393F7F7BFA205CD8FC207B5
:101C5000C183231EF5008280835705010355C5000B
:101C600042054181ED8F89C76D8D3335A00082809B
:101C70000145828093C5F5FFC205C1812318B500D7
:101C80008280797106D622D426D22A84AE84035764
:101C90000501F577FD17F98F03D76500D98F231854
:101CA000F5000357C500FD779387379FF98F03D75A
:101CB0004500D98F03D78500D98F03D7A500D98FC9
:101CC0002316F50083574501C207C18393F7F7CF69
:101CD00003D7C500D98F231AF5006800EFF0BF9332
:101CE000B7470140938707806301F4065247835743
:101CF000C400C207C18763CC070493171700BA97C3
:101D00008E07BA9798400A07B3D7E7021307400631
:101D1000B3D6E7029206B3F7E7020357C4004207BF
:101D20004187634007049207938727031307400600
:101D3000B3D7E702BD8BD58FC207C1832314F4004C
:101D4000B250225492544561828062474DB7931736
:101D50001700BA978E07BA9798400607B3D7E702DD
:101D600075B71397370013072703930740063357B8
:101D7000F7021D8BB367D700C1B781C98357C50070
:101D80000967D98F2316F50082800357C500F977BC
:101D9000FD17F98F2316F500828093F7F50F9583D1
:101DA0000547B315B700638CE70089461307450163
:101DB000638AD70019CA1C43DD8D0CC382801307C8
:101DC000C500CDBF13070501F5B71C4393C5F5FF4B
:101DD000FD8D0CC3828093F5F51F2312B500828020
:101DE000035545001375F51F8280035505006D8D61
:101DF0003335A000828093F7F50F9583854633979E
:101E0000B6006388D70289466389D70283574501A4
:101E10007D8F0355050093170501C183014509CB4B
:101E2000A1810545B315B50033F5B7003335A000E2
:101E300082808357C5007D8FE9BF835705017D8F61
:101E4000C9BFA1818547B397B70093C7F7FFC20702
:101E5000C1832310F5008280011106CE22CC26CA50
:101E6000B16783A447E2056413040480C0C8230655
:101E7000A100A306B10089467000B2850545EF10A8
:101E8000205A80C8F2406244D24405618280011128
:101E900006CE22CC26CA4AC82E89B16783A447E25F
:101EA000056413040480C0C8136505F82306A10067
:101EB00083C70500A306F10089467000B285054579
:101EC000EF1000568347D1002300F90080C8F2408C
:101ED0006244D244424905618280411106C622C44F
:101EE00026C2B16783A447E2056413040480C0C816
:101EF000AE862A86AA850545EF10805280C8B2407A
:101F00002244924441018280011106CE22CCA307D3
:101F1000010049449305F100130550078D3F154515
:101F20008145EF1080538347F100E39587FEF2402F
:101F3000624405618280011106CE22CCA307010014
:101F400029458145EF106051094881472D47930687
:101F5000200213061002930500020545EF10803C95
:101F60006537930500081305B006FD350945814521
:101F7000EF10A04E130410049305F1001305B006F2
:101F8000393729458145EF10404D8347F100E395EE
:101F900087FE85451305B006C13581451305C0068A
:101FA000653D854569454D3D9D4565457535E14531
:101FB0006D455D35C145714545358D457545693D75
:101FC000F240624405618280011106CE930730FC25
:101FD0002304F1009D452800093783479100A2079B
:101FE0000347A100D98F239CF1848347B100A20746
:101FF0000347C100D98F239DF1848347D100A207F5
:102000000347E100D98F239EF184F240056182806D
:10201000011106CE22CC26CAA307A100B16703A4F2
:10202000C7E2A16444C891675CC885460146930530
:10203000F1000145EF10C03E04C8F2406244D244B2
:1020400005618280011106CE22CC26CAA307A10019
:10205000B16703A4C7E2A16444C891671CC8854660
:1020600001469305F1000145EF10803B04C8F240A2
:102070006244D24405618280011106CE22CC26CA78
:10208000B16703A4C7E2A16444C89357850023063F
:10209000F100A306A10091671CC8894601466C00A7
:1020A0000145EF10E03704C8F2406244D2440561B4
:1020B0008280011106CE22CC26CA4AC84EC6AA8901
:1020C000AE84328936841305A002993713858902BC
:1020D0004205418155371305890242054181693F17
:1020E0001305B00235371385440342054181693732
:1020F000130544034205418141371305C002093FDE
:10210000F2406244D2444249B249056182800111E1
:1021100006CE22CC26CA4AC84EC6AA8493066008B8
:102120001306F00E8145014569371309000F930925
:10213000700839A07D19420913590901630A090081
:102140004E842685153F7D14420441807DF8DDB71D
:10215000F2406244D2444249B24905618280411151
:1021600006C622C426C2014881471307F00493061D
:102170003002054681450145EF10C01A9306003133
:102180000546854513050008EF00206993060031D8
:10219000014685451305E004EF00206893060031F1
:1021A000014685451305D004EF002067B16703A4FD
:1021B000C7E2896444C81305800C8145EF10E0290B
:1021C00004C8130540068145EF102029130560035C
:1021D0008135130540068145EF1020281305000ABC
:1021E00095351305A0032D351545A93D1305200B85
:1021F00005353145813D3145B1350145A1351305E1
:102200003003893513053003353D1305700B09354F
:1022100013055003053D1305B00BDD3B130570039B
:1022200015351305000CED331305C002213D1305D0
:10223000200CF93B054539351305300CD13B494598
:1022400011351305400CE93313050002E53B130576
:10225000600C7D3B3D45FD331305000D553B1305DB
:10226000400ACD331305100AF13B1305000E4D3320
:102270001305000DC13B1145F1333545E1334545AB
:10228000D1334D45C1331305B0026D3B1305F00347
:10229000553B130540057D331305C0046533614587
:1022A0005533354545332D45713B7D45613B130520
:1022B0003002493B1305100EA13B1305000D5933A5
:1022C000114549333145BD3B4545AD3B4D459D3BF2
:1022D0001305C002853B1305F003AD33130540041D
:1022E000953313051005B93B1305F002A13B7D455D
:1022F000913B7D45813B13050002A9331305300254
:10230000913313051002293345451933130580070E
:102310008145EF10801413059002DD3941657D156C
:10232000FD33B2402244924441018280797106D645
:1023300022D426D24AD04ECE52CC56CA5AC85EC6F5
:1023400062C4AA8B1206130A06E0B167938747831B
:102350003309FA00130A0901B3852541139B0501CE
:10236000135B0B01930A7500C20A93DA0A01214C30
:10237000C169FD1915A04E85013385807D14137444
:10238000F40F01C893F71400FDD70145EFF0DFCE3D
:10239000EDB70509630E4901B3052B01C205C181E3
:1023A000AE8656865E853133834409006284D9BF88
:1023B000B250225492540259F249624AD24A424BD4
:1023C000B24B224C45618280797106D622D426D246
:1023D0004AD04ECE52CC56CA5AC85EC662C4AA8BE8
:1023E0001206130A06E0B167938747833309FA00A0
:1023F000130A0901B3852541139B0501135B0B01EA
:10240000930A7500C20A93DA0A01214CC169FD19C9
:102410001DA00145EFF05FC685807D141374F40F95
:1024200001C893F71400F5D74E85EFF0FFC4EDB760
:102430000509630F4901B3052B01C205C181AE86B1
:1024400056865E85EFF0FFC6834409006284D1BFE3
:10245000B250225492540259F249624AD24A424B33
:10246000B24B224C45618280797106D622D426D2A5
:102470004AD04ECE52CC56CA5AC85EC662C466C254
:102480002A8C1206930A06E0B16793874783338943
:10249000FA00930A0901B3852541939B050193DB5B
:1024A0000B01130B7500420B135B0B01A14C216A4E
:1024B000130A0A43C169FD191DA05285EFF0DFBB65
:1024C00085807D141374F40F01C893F71400F5D7B9
:1024D0004E85EFF07FBAEDB70509630F5901B3855B
:1024E0002B01C205C181AE865A866285EFF07FBCA2
:1024F000834409006684D1BFB250225492540259D9
:10250000F249624AD24A424BB24B224C924C45614C
:102510008280011106CE22CC26CA4AC84EC6B28994
:102520000306060015C62A8492051399050113595E
:1025300009018144CA852285D53B8504C204C18036
:10254000B3879900038607002104420441807DF28D
:10255000F2406244D2444249B2490561828001118D
:1025600006CE22CC26CA4AC84EC6B2890306060049
:1025700015C62A849205139905011359090181444E
:10258000CA85228591358504C204C180B38799002C
:10259000038607002104420441807DF2F240624438
:1025A000D2444249B24905618280011106CE22CC53
:1025B00026CA4AC84EC6B2890306060015C62A8432
:1025C000920513990501135909018144CA85228591
:1025D000613D8504C204C180B3879900038607006A
:1025E0002104420441807DF2F2406244D2444249D7
:1025F000B24905618280411106C62DC58547630A2F
:10260000F5068947630DF5068D476300F508914788
:102610006303F50895476306F50899476309F508CC
:102620009D47630CF508A147630FF508A5476303B1
:10263000F50AA9476307F50AAD47630BF50AB147E9
:10264000630FF50AB5476303F50CB9476307F50C4B
:10265000BD47631DF50081460146814513055004C1
:102660006D2A29A0814601468145452AB240410193
:10267000828081460146814505454522C5BF814688
:10268000014681450945512AD5B781460146814514
:102690000D456122E1BF8146014681451145B52ABC
:1026A000F1B78146014681451545852AC1B7814666
:1026B000014681451945952255BF81460146814510
:1026C0001D45A12A65B781460146814513050002D3
:1026D000A92269BF81460146814513051002352AAA
:1026E00071B7814601468145130500043D22BDBFF7
:1026F00081460146814513051004052285BF8146A8
:102700000146814513052004092A8DB781460146FB
:10271000814513053004112291BF81460146814550
:1027200013054004DD2899B7797106D622D42A848E
:10273000854513054020EFE03FFD22856D3D03A751
:102740000186B7C70105938707D063FBE7063165AC
:10275000EFE05FEB3724014013050440EFE05F9F9B
:1027600002C402C602C8B7070E003ECA02CC8547A3
:10277000230EF1002C0013050440EFE0FF9F854578
:1027800013050440EFE05FA413050440EFE01FA52C
:10279000130404402285EFE01FA56DFD372501409D
:1027A00013050540EFE0BFA43724014013040440A3
:1027B0002285EFE07FA46DFDB250225445618280F6
:1027C0002165EFE03FE479B7411106C622C426C275
:1027D000AE84814605469375F50F372401401305F5
:1027E0000440EFE0FFA18327844037075000D98FD2
:1027F0002324F4403727014083270740898BEDDFEE
:10280000B727014003A5C7443355950042054181D0
:10281000B2402244924441018280130700086306BB
:10282000E510797106D622D426D24AD04ECE52CCAB
:102830009357550013F977001374F501368AB2895E
:10284000AE848DCB05476389E7060947638BE706AE
:102850000D47638DE70611476380E70815476383DB
:10286000E7081947639CE700854513050010EFE072
:10287000BFE929A085451145EFE01FE9854733945D
:10288000870042044180231281006383F40693761B
:10289000FA0F36C613172900B167938747E2BA9734
:1028A0004C008843EFE09FB1B25022549254025939
:1028B000F249624A4561828085452145EFE0DFE4C7
:1028C00075BF85454145EFE03FE44DBF85451305A4
:1028D0000002EFE07FE35DB7854513050004EFE0FC
:1028E000BFE269BF854513050008EFE0FFE179B756
:1028F00093170A01C183A1839DE78D473EC4937658
:10290000FA0F36C613172900B166938646E236974A
:1029100004434C002685EFE07FAA4E86A2852685DB
:10292000EFE07FB651B73EC4D9BF828093575500C0
:102930009D8B7D890547638DE5008A073167130705
:1029400047E2BA97984385473395A70048CB8280E2
:102950008A073167130747E2BA979843854733954B
:10296000A70008CB8280135735009376C7013167E3
:10297000130747E236971C43984785473395A700CE
:10298000798D3335A0008280011106CE22CC26CA73
:102990004AC82A84AE84328985450545EFE0DFD6F2
:1029A000CA860146814522858D3D13555400937595
:1029B000F4011375F50FEFE05FB785473394870097
:1029C00022C002C226C43EC60A85EFE0BF92F24092
:1029D0006244D244424905618280B7E700E07D57F6
:1029E00023A0E71823A2E7188280011106CE230452
:1029F000A100A304B1002305C10036C62800EFE002
:102A00009FB537E600E01842FD76F98E03A70197DF
:102A1000558F23A8E1965842938701971207118397
:102A2000D443558FD8C303C7870085476305F70094
:102A3000F240056182805537E5BF411106C6930714
:102A400000206301F51E63F1A7049307302163069C
:102A5000F52263EBA70E930730206305F51E63F4A0
:102A6000A70C930710216308F51E63EFA71E9307B9
:102A70000021631CF512930680310146854513053C
:102A80006004EFF09FD915A2930710106302F514AC
:102A900063FBA70293070011630CF51463F5A70607
:102AA000930720116307F516636CF5149307301133
:102AB000631DF50E93068031014685451305B0026E
:102AC000EFF0BFD5DDA089476304F50E63F1A702DF
:102AD0008D476307F50E930700106318F50C9306F6
:102AE0008031014685450145EFF03FD37DA85DC5A6
:102AF0008547631CF50A93068031014685452545C7
:102B0000EFF0BFD15DA093072010630BF50C930786
:102B10003010631CF50893068031014685450D454C
:102B2000EFF0BFCF59A0930710206305F51093076E
:102B30002020631CF5069306803101468545130568
:102B40000002EFF09FCD95A0930700306309F514C4
:102B500063F5A702930720306305F516636AF51441
:102B6000930730306313F5049306803101468545A1
:102B700013059002EFF07FCA0DA8930700226307A8
:102B8000F510930710226312F50293068031014677
:102B9000854513055002EFF05FC801A89306803108
:102BA000014685452145EFF05FC7B2404101828073
:102BB00093068031014685452945EFF01FC6F5B7DC
:102BC00093068031014685452D45EFF01FC5F1BFC5
:102BD00093068031014685450545EFF01FC4F1B7E6
:102BE00093068031014685450945EFF01FC375BF47
:102BF00093068031014685453D45EFF01FC275B70C
:102C0000930680310146854513053002EFF0FFC081
:102C100069BF93068031014685451305A002EFF098
:102C2000DFBF61B793068031014685451945EFF056
:102C3000DFBEA5BF93068031014685451D45EFF0F7
:102C4000DFBDA5B793068031014685451305100207
:102C5000EFF0BFBC99BF930680310146854513054F
:102C60007004EFF09FBB91B7930680310146854514
:102C700013058004EFF07FBA0DBF93068031014643
:102C8000854513059004EFF05FB905B793068031D1
:102C90000146854513054002EFF03FB839B793066A
:102CA00080310146854513056002EFF01FB7F5BD81
:102CB000930680310146854513057002EFF0FFB59C
:102CC000EDB5930680310146854513058002EFF08E
:102CD000DFB4E1BD397106DE22DC26DA4AD84ED6F1
:102CE000AA84AE893289EFF05FD513D4840075C011
:102CF00085476307F40E8947630CF4108D47630F13
:102D0000F41285450545EFE03FA0B7170240DC43CC
:102D1000C983BD8B37177A0013070720B387E702F3
:102D20003727F40013070740BA9723A0F18633D75B
:102D30003703418393051700B3853503B3D7B70233
:102D40009386F7FF231CD100231AE100231D010005
:102D5000231B0100230E0100130700072312E100CB
:102D600005472313E10023140100C207C183B38781
:102D70002703096713070771B3D7E7022315F1008B
:102D800089472316F1002317F100231801002319A6
:102D900001000A04B167938747E33E9400404C0862
:102DA0002285EFE01FA48D88F9C08547638CF40E5F
:102DB00089476387F4104C002285EFE0BFCCA14522
:102DC0002285EFE05FE2930500402285EFE03FE7D8
:102DD0005DA88545056513050580EFE0FF9215B7F1
:102DE00085450545EFE03F9485450545EFE0DF91DA
:102DF00093D7440041476388E7044547E397E7F0EA
:102E000085453705180013050530EFE06FE8F5BD7F
:102E100085450945EFE03F9185450545EFE0DF8EAB
:102E200093D74400130710026397E70285453715CF
:102E30001A00130505C0EFE0AFE5C1BD854511459A
:102E4000EFE07F8E7DBD854537051600130505042F
:102E5000EFE00FE45DBD13072002E398E7EA854544
:102E600037151A0013050580EFE08FE279BD4C009D
:102E70002285EFE07FA2A1452285EFE0FFD29145B8
:102E80002285EFE0FFD785452285EFE07FC98545A4
:102E90002285EFE03FCBF2506254D2544259B259EE
:102EA000216182804C002285EFE0BFA7A1452285E9
:102EB000EFE0BFD0930500402285EFE09FD5E1B75A
:102EC0004C002285EFE01FB1A1452285EFE09FD0A5
:102ED00091452285EFE09FD57DB713578500931765
:102EE0002700B166938646E3B6979C4383D7C70213
:102EF000B385F502896793870771B3D5F50201EFB2
:102F00000D89B75700109387D7B03E950A05C205C3
:102F1000C1810CC1828085476309F700894763003E
:102F2000F7028D476308F70282800D89B70700100A
:102F3000B5073E950A05C205C1810CC182800D8985
:102F4000B70700109387D7103E950A05C205C181C7
:102F50000CC182800D89B70700109387D7203E955A
:102F60000A05C205C1810CC1C1B7411106C622C400
:102F70002E841DC989476308F5069147630CF50641
:102F800099476300F508A1476304F508A947630959
:102F9000F508B1476310F5029146014681451305D6
:102FA0006002EFF09F8739A0914601468145214597
:102FB000EFF0BF868547630DF4068D476301F40883
:102FC00095476305F4089D47630AF408A547630E17
:102FD000F408AD476303F40AB5476308F40AB24046
:102FE0002244410182809146014681450145EFF02E
:102FF000DF82C9B79146014681453D45EFF0FF812B
:1030000055BF9146014681451945EFF01F815DB7D7
:1030100091460146814513056004EFF01F8059BFBA
:1030200091460146814513054002EFF00FFF59B765
:103030009146014681452545EFF02FFE4DB791465B
:10304000014681450545EFF04FFD51BF91460146D0
:10305000814513053002EFF04FFC51B79146014610
:1030600081451D45EFF06FFB9DBF914601468145AF
:1030700013057004EFF06FFA9DB791460146814544
:1030800013055002EFF06FF999BF91460146814553
:1030900013057002EFF06FF899B7011106CE22CC3C
:1030A00026CA4AC82A84AE84328931C58547630B53
:1030B000F5048947630DF5048D47630FF504CA8550
:1030C0002685EFF09FEA85450545EFE0EFE3914760
:1030D0006389F404A147638AF40AA9476396F40458
:1030E000AD476313F904854537151A0013050580AC
:1030F000EFE00FBA15A88545056513050580EFE0DB
:10310000AFE075BF85450545EFE0EFE14DBF854573
:103110000945EFE04FE165B785451145EFE0AFE0C8
:1031200079BF9547630BF9044800EFE0FF9D8547A1
:103130002312F100FD572314F1002315010023137E
:103140000100230601000A04B167938747E33E9418
:1031500000404C002285EFE0CFE8814601468945DA
:103160002285EFE01FA085452285EFE07F9BF2409E
:103170006244D24442490561828085453705180082
:1031800013050530EFE0CFB045B7A547E31EF9F8CA
:10319000854537151A00130505C0EFE06FAF69B715
:1031A0000A05B167938747E3AA979C4303D5470273
:1031B0004205418582800A05B167938747E3AA9754
:1031C0009C43239207028280411106C622C426C274
:1031D0004AC0AE84328436892DCDC1476303F508D9
:1031E000930700026318F50893068031054685456C
:1031F0001305D002EFF06FE28547638CF408C547F2
:103200006381F40A930710026396F40A93068031EF
:10321000054685451305F002EFF02FE08947630A64
:10322000F40AC947630FF40A930720026304F40CFD
:10323000930730026319F40C930600310546854567
:103240004A85EFF08FDDB2402244924402494101A9
:10325000828093068031054685451545EFF0EFDB0A
:1032600061BF930680310546854513053002EFF0B6
:10327000CFDA59B7B7C60000938646E53166130624
:1032800046E49305D00237C50000130585E5EF70CD
:10329000E01D93068031054685451D45EFF0EFD7CB
:1032A000B5BF930680310546854513055002EFF002
:1032B000CFD6ADB7B7C60000938646E53166130694
:1032C00046E49305200337C50000130585E5EF703C
:1032D000E01993068031054685451945EFF0EFD397
:1032E000A1BF930680310546854513054002EFF0E6
:1032F000CFD299B793068031054685451305E00284
:10330000EFF0AFD115BFB7C60000938646E5316632
:10331000130646E49305800337C50000130585E5D1
:10332000EF70C014397106DE22DC26DA4AD84ED698
:1033300052D456D25AD02A84AE89328AB68A3A8B6F
:10334000BE84428949C585476309F508DA865686F1
:10335000D2854E85EFF05FE72316010093074010FA
:103360002317F1002318010085476383F40893971E
:103370008401E187ADCB89476382F4088D4763857B
:10338000F40893070020231BF1000E09231C2101E0
:10339000231D01009D47231EF1000A04138541836C
:1033A000229500416C002285EFE0AFBBC1476384EA
:1033B000F90685452285EFE06FC0F2506254D25481
:1033C0004259B259225A925A025B21618280854544
:1033D00005650505EFE04FB395BF8545116505050A
:1033E000EFE06FB4A5B723190100231A010051BF04
:1033F000231901008547231AF10061B78947231972
:10340000F100231A0100B5BF89472319F100854750
:10341000231AF100BDB785450545EFE06F8751BF21
:10342000AE96938741830A053E956387B60218419D
:1034300083578700898BEDDF850583C7F5FF23164A
:10344000F70065D683578700858BEDDF8357C7006C
:103450002300F6000506D1BF8280411106C6EF1099
:10346000D03AB24041018280411106C60DE5854740
:103470006385F500B24041018280930680310146A8
:1034800085452545EFF06FB99146014681452945AF
:10349000EFF0AFB8C5B789476309F502C1476306C6
:1034A000F504930700026310F50693068031014688
:1034B00085451305A002EFF04FB6914601468145C0
:1034C0001305B002EFF06FB575B793068031014672
:1034D000854513056002EFF04FB4914601468145E2
:1034E00013057002EFF06FB371B793068031014698
:1034F00085450945EFF06FB29146014681450D457E
:10350000EFF0AFB185BF93072002E315F5F6930600
:103510008031014685451305A004EFF00FB09146B8
:10352000014681451305B004EFF02FAFA1B77971C3
:1035300006D622D426D24AD04ECE2A84AE89B28470
:10354000368985450545EFE02F9CCA852685EFF035
:10355000BFF189476381F402930720026390F4026C
:1035600093073002631CF9008545370514004105B7
:10357000EFD01FF221A08D47630AF90429CC8547BB
:103580006300F40689476303F4064EC0231201006A
:10359000231301002314010023160100B147231552
:1035A000F1000A04B167938747E83E9400408A859A
:1035B0002285EFE00FED85452285EFE00FFCB2504C
:1035C000225492540259F249456182808545114541
:1035D000EFD01FEC65B785451165EFE0EF9275B749
:1035E000854537050200EFE00F9445B7854537055F
:1035F0000400EFE04F9351BF0A05B167938747E896
:10360000AA9798438357070093F70708E5DFC20599
:10361000C1812312B700828005CA411106C622C4A7
:1036200026C24AC02A892E84B384C5000504834576
:10363000F4FF4A85EFF05FFCE39A84FEB240224437
:1036400092440249410182808280411106C622C40F
:1036500026C2AA842E8483C5050081C90504268557
:10366000EFF09FF983450400F5F9B24022449244FB
:1036700041018280411106C622C426C22A84AE843A
:1036800013172500B167938747E8BA970546930556
:1036900050528843EFE06FF0A6860146854513053A
:1036A0005403EFF08FB4B24022449244410182802F
:1036B0000A05B167938747E8AA979843835707009D
:1036C00093F70702E5DF835747002380F5008280E8
:1036D00003A541868280411106C69387418698439F
:1036E000050798C3EF1060763C41FD173CC191C7B8
:1036F000EF103039B240410182805C5D3CC1EF1077
:103700003001FDB7634205029307803E3347F5025F
:103710003307F7023365F5023305F5021305753EED
:103720003345F5023A9582807D558280014582803D
:1037300001458280014582800145828035671307FB
:1037400007CFB567938747CF637CF702411106C661
:1037500022C426C23564930404CFB567938737CF5C
:10376000858FF19B9107BE94130404CF1C40829770
:103770001104E31D94FEB240224492444101828030
:1037800082803567130747CFB5679387C7CF637CC0
:10379000F702411106C622C426C23564930444CF01
:1037A000B5679387B7CF858FF19B9107BE941304BC
:1037B00044CF1C4082971104E31D94FEB240224482
:1037C0009244410182808280411106C6EFF07FFB66
:1037D000EFD08FFFB24041018280411106C6D14730
:1037E0000D47930600400146B73500009385857C60
:1037F00037C50000130545E9EF108065EF1010078D
:10380000B24041018280411106C6EFC07F93EF2094
:10381000B02CEF00305CEF10D02FEF10A032EFF0A3
:10382000DFFBEF10B02FC128EF10A0340145B240EC
:1038300041018280411106C6EFF0FFFC0145B24014
:103840004101828003A7018993870189630FF708EB
:10385000011106CE22CC26CA4AC84EC652C456C250
:1038600093890189854A2DA02685EF10202D630AB2
:103870005505EF10E0455285EFC0FF8C4848EF102A
:1038800060082685EF10402883A7018963863705E5
:10389000EFC01F8B2A8A83A70189638D370303A496
:1038A00001899304C4FE18405C405CC3184098C36F
:1038B00040C000C0EF10C03F7C4CDDD7268582970A
:1038C00065B72685EF10201BEF1080405285EFC0B2
:1038D0009F8719A0EFC03F87F2406244D24442491B
:1038E000B249224A924A056182808280411106C60D
:1038F000EFF05FF5F5BF411106C622C49308000240
:103900001D48930700301387419F814637460000CA
:103910001306C68EB7C500009385C5E91385C19708
:10392000EF10A0471385C197EF104074B2402244B6
:1039300041018280411106C622C426C24AC02A849F
:103940003289B6842E868945EF10C00B9307440157
:103950001CCC5CC8231E2401A30494000145B24082
:1039600022449244024941018280411106C622C488
:1039700026C2AE843284AA850945EF10A01209C977
:10398000930745011CCD5CC9231E9500A304850047
:10399000B2402244924441018280797106D622D4F9
:1039A00026D24AD04ECE52CC2A842EC6EFC04FF932
:1039B000AA898357C401A1E7B247A9CBEF10E04819
:1039C000AA842328050213094401034A9400EF1036
:1039D000E05963010A0485476308FA04B247634863
:1039E000F0084E85EFC02FF6EF10801B8858B250BC
:1039F000225492540259F249624A45618280FD176D
:103A0000231EF400EFC02FF40145D5B7EFC0AFF38C
:103A10007955F1BF93874401184C1CC3184C98CCBE
:103A20001CCC23AA24015DBF5C486308F90283C64D
:103A3000540303C7170263E9E6009C43630FF900D0
:103A400003C71702E3FBE6FE13874401D44398C281
:103A5000D44394CCD8C3DCC851B793874401184CE5
:103A60001CC3184C98CC1CCC23AA240185BF1384FA
:103A70004404700081452285EF10A07C2285EF1060
:103A8000606E85B7411106C622C426C22A84EFC0E3
:103A90002FEBAA844848930744016300F5023115CF
:103AA000EF10C0572685EFC00FEAEF10600F0145F9
:103AB000B24022449244410182808357C401850769
:103AC000231EF4002685EFC00FE8D5B7411106C6C6
:103AD00022C426C24AC0AE843289AA851545EF00A9
:103AE000707C2A841DC9A3042501930745011CCDC0
:103AF0005CC9231095021395040141810A05EF006A
:103B0000D04A48CC15C12311040223120402231306
:103B10000402930784025CD41CD42285B240224460
:103B200092440249410182802285EF00F07D0144E8
:103B3000EDB7397106DE22DC26DA4AD84ED652D4E9
:103B400056D25AD05ECE62CC66CA2A842E8C32C639
:103B5000EF10A02FAA84EFC0AFDEAA89035724027A
:103B6000835704026309F704035744025C4C0A07B5
:103B7000BA9723A08701835744028507C207C183F0
:103B80002312F4020357040263E4E7002312040241
:103B90008357240285072311F40248485104630720
:103BA00085123115EF1080474E85EFC0CFD9EF0059
:103BB000307F014525A0B247814C89CB130A84028E
:103BC000938A4401054B938B4404B9A8EFC0AFD747
:103BD000755529A04E85EFC00FD77555F250625428
:103BE000D2544259B259225A925A025BF24B624C59
:103BF000D24C216182805C5423A057015C549CCC40
:103C00002326540323AA4401B2476345F0084E8596
:103C1000EFC06FD3EF00D078885869F1EFC04FD272
:103C2000AA89B2476344F008035724028357040269
:103C3000E31CF7F223A80402B247C9DF034994004A
:103C40002685EF10A032E30809FAE31F69FB1C5434
:103C50006308FA0283C6540303C7170263E9E60048
:103C60009C43630FFA0003C71702E3FBE6FED84349
:103C700023205701D84398CC23A25701DCC869B749
:103C80005C5423A057015C549CCC2326540323AAE4
:103C900044019DBFEFF0DFA3AA8C700081455E85D3
:103CA000EF10205A5E85EF10E04B95B7EFF05FA262
:103CB00033079541B247E6973385A7406345050032
:103CC0002AC6BA8C95B702C6BA8CB9BF4E85EFC06A
:103CD0008FC7014521B7411106C60146EFF07FE5C8
:103CE000B24041018280397106DE22DC26DA4AD8F0
:103CF0004ED652D456D25AD05ECE62CC66CAAA8470
:103D00002E8C32C6EF1060142A84EFC06FC3AA89CC
:103D100083D72402639C0710B247814C89CB138A56
:103D20004401930A4401054B930B44048DA0EFC05A
:103D30008FC1795539A04E85EFC0EFC0F9571CD817
:103D40007955F2506254D2544259B259225A925A79
:103D5000025BF24B624CD24C216182809C4C23A0CE
:103D600057019C4C1CCC23AC5401232A4401B2477C
:103D70006342F0084E85EFC00FBDEF007062085837
:103D800069F1EFC0EFBBAA89B2476341F00883D75E
:103D90002402C9EF23280402B247D1DF03C99400EB
:103DA0002285EF10A01CE30B09FAE31269FDDC4841
:103DB0006308FA028346540303C7170263E9E60067
:103DC0009C43630FFA0003C71702E3FBE6FED843E8
:103DD00023205701D84318CC23A257015CC841BF08
:103DE0009C4C23A057019C4C1CCC23AC5401232A8F
:103DF0004401B5BFEFF0DF8DAA8C700081455E8570
:103E0000EF1020445E85EF10E035ADB7EFF05F8C2A
:103E100033079541B247E6973385A74063450500D0
:103E20002AC6BA8CADB702C6BA8C95B703D764025E
:103E3000DC4C0A07BA979C432320FC0083D764021A
:103E40008507C207C1832393F40203D7040263E406
:103E5000E7002393040283D72402FD172391F40281
:103E6000885493848402630C95003115EF10001B75
:103E70004E85EFC04FADEF00B0520145D9B54E852C
:103E8000EFC06FAC014575BD411106C6EFC04FAB29
:103E90001387818683470700850793F7F70F230071
:103EA000F700EFC04FAAB24041018280411106C61F
:103EB000EFC00FA91387818683470700FD1793F78B
:103EC000F70F2300F700EFC00FA8B2404101828036
:103ED000411193780804639F0802316F130F8F1903
:103EE00093780801638C08021378E8FF93020002BC
:103EF0009378280063840804634B06029378480093
:103F0000930FB002639D0802937F8800B33FF001D6
:103F1000960F35A0316F130F4F0FD9B79378180054
:103F200093020003E39608FC93020002D1B7330624
:103F3000C040930FD0028148A94E81A8814F65FEF1
:103F4000930600032300D1008548468E63D3F80012
:103F50003E8E3307C74193761801BDE263880F1088
:103F6000635EE00E1303E7FF854663C5E6101A871C
:103F7000FDA01373F60011828508330E11017A93A8
:103F800003430300A30F6EFE69D2E394D6FF33739D
:103F9000D6033356D603CDB70507B306E6406357BD
:103FA000D000E37BB7FE2300D701FDB71307F3FF73
:103FB0001346F3FF7D86B376C300158F85063695CD
:103FC000639F0F0813780801631208029306F7FF36
:103FD0006357E0042A9721A005056307E500E37D08
:103FE000B5FE23005500CDBF3A857D57B3061E416F
:103FF000AA961306000363CFC801AA86635F100365
:104000008DCF46830A8533061501B68739A8050585
:10401000E306D5FEE37DB5FE2300C500CDBF3687A0
:10402000F1B785077D166309A600E3FCB7FE0348D8
:10403000F6FF23800701F5B79A963385E6009307CC
:1040400000026348E0003685410182808506E38DE9
:10405000A6FEE3FDB6FE2380F600CDBF7D17637498
:10406000B5002300F5017D170505A9BF1303F7FF70
:104070006359E0002A87930E0002130615001A9672
:104080000DB71A8781B78D4763F9C700937735005D
:104090008DC71307F6FFAA8729A0AA871307F6FF83
:1040A00001CE05073E978507A38FB7FEE39DE7FE88
:1040B0008280BA874286DDB7828093F7F50F9396A8
:1040C0008700D58F93960701DD8EBD4763F1C70446
:1040D000930706FFC19BC107AA972A8714C354C33D
:1040E00014C74107232ED7FEE39AE7FE1378F600A4
:1040F000318A61D29307C8FFF19B9107BA971107E4
:10410000232ED7FEE31DF7FE1376380041BF2A8722
:104110003288CDB763E0A502B306C500AA8711CAED
:10412000850585070387F5FFA38FE7FEE39AD7FE92
:10413000828082803387C500E370E5FEB307C50047
:1041400065DA7D17FD17830607002380D700E31A81
:10415000F5FE828009CEAA8685059387160003871F
:10416000F5FFA38FE7FE09C77D16BE8675F6828030
:104170001307F6FF6DDF36968507A38F07FEE31D55
:10418000F6FE82808307050089CBAA87850703870F
:1041900007006DFF3385A7408280AA87E5BF5D7168
:1041A00086C6A2C4A6C2CAC04EDE52DC56DA5AD8AF
:1041B0005ED662D466D26AD06ECEAA8C2E8D368C34
:1041C000B30AB50063F5AA00134DF5FFFD5A830746
:1041D0000600E68963820736930B50021309B0028A
:1041E0003167930D47EA41677D173AC409A88509ED
:1041F00032841306140083071400638F0732638729
:104200007701E3F659FF2380F900D5B781441307FE
:10421000D00293060002930530021305000321A08B
:1042200093E4040122861304160083071600E38931
:10423000E7FE638B2701638CD700638DB700639E15
:10424000A70093E41400F9BF93E44400E1BF93E4B2
:104250008400C9BF93E40402F1B73E87938607FD4B
:10426000A54563F6D5041307A0027D5A6382E706CD
:10427000030704009307E0027D5B6309F7068307E9
:10428000040013F6B7FF930680060147630CD60AB5
:10429000834704009387B7FD13F6F70F93063005A5
:1042A00063E8C62093172600EE979C438287014A55
:1042B000A546050493172A003E9A060A3A9A130A5D
:1042C0000AFD03070400930707FDE3F4F6FE4DB76C
:1042D0001304260093074C00032A0C003E8CE3597C
:1042E0000AF8330A404193E4040159B71307140054
:1042F00083071400BE86938507FD25466379B600C3
:104300009306A0026386D7023A84014B8DBF014B0E
:10431000050793172B00DA978607B697138B07FDCF
:1043200083060700938706FDE374F6FE3A8429A00E
:104330000904032B0C00110C9347FBFFFD87337B13
:10434000FB0035BF13F7F70F050499B7C14641AA23
:10435000C1889DC093064C0063F6590183270C0069
:104360002380F9009387190005476351471D528642
:104370004E9A130700020DA89307FAFF6351F0024B
:10438000CE971307000221A0850963873701E3FD5B
:1043900059FF2380E900CDBFBE89014A65BF3E8A2F
:1043A00055BF850763874701E3FD57FF2380E7007B
:1043B000CDBFB299368C35BD93074C003EC6032C59
:1043C0000C0063010C026285EFF0DFDB63556001D6
:1043D0006353AB005A85C18899C86350A006B38760
:1043E000A900A9A0B7C70000138C0719E9BF93065D
:1043F000FAFF63574503D2852A87B307AA40CE97B1
:104400001306000221A085096387F900E3FD59FF27
:104410002380C900CDBF330AB740369ABE8975BF25
:10442000368A65BF8509050C638AF900E3FC59FFEC
:1044300003070C002380E900F5B7CE87635B450FC7
:104440003305AA40B389A7001307000221A08507FE
:1044500063873701E3FD57FF2380E700CDBF324C70
:1044600049BBFD576302FA0293074C003EC62688FB
:10447000DA875287C14603260C00D6854E85EFF0B9
:104480003FA5AA89324CB5B393E41400214AE9BF91
:1044900063F65901930750022380F900850991BB07
:1044A00093E40404C14625A893E42400A94605A882
:1044B00063F65901930750022380F900138719000E
:1044C0008307040099C763745701A380F900890921
:1044D0000DB37D14BA8931BBA94611A0A14693073B
:1044E000C0066302F702930780066302F702032601
:1044F0000C00110C2688DA875287D6854E85EFF09E
:104500003F9DAA89FDB103260C00110CE5B7930766
:104510004C0003260C0013F7240009E72247798E8C
:104520003E8CC9BF420641863E8CE9B7368CBE89B7
:10453000C9B1324CBE8975B963060D0063F55903E4
:104540002380090033859941B640264496440649A4
:10455000F259625AD25A425BB25B225C925C025DB3
:10456000F24D61618280A38F0AFEE9BF411106C648
:10457000B2862E86FD55EFF09FC2B2404101828087
:10458000397106CE32D436D63AD83EDA42DC46DE2F
:10459000301032C6EFF09FFDF24021618280397108
:1045A00006CE22CC2ED232D436D63AD83EDA42DCEF
:1045B00046DE541036C62A869305F007138541CF90
:1045C000EFF0FFBD138541CFEF10B062F2406244BF
:1045D00021618280411106C637C500001305851090
:1045E000EFF0FFFB37C5000013054511EFF03FFB6F
:1045F00037C70000130787138D4605468D4537C51D
:10460000000013054514EFF09FF937C500001305AE
:104610004516EFF0DFF8B240410182800DC5937777
:10462000F50F9DE3C167938707F0E98F95E7B7071B
:10463000FF00E98F8DEF6181B167938747FF3E955A
:1046400003450500650582803167130747FFBA9768
:1046500003C507000505828021851375F50FB16735
:10466000938747FF3E9503450500250582804185D8
:104670001375F50FB167938747FF3E950345050016
:104680004505828003A701875C41BA976304F50260
:1046900083D6270085E283A6C186638DF60083A6B4
:1046A0004187638BF602D44354C1DC43BA97B30607
:1046B000E54094C71445B307D700630EF50003D651
:1046C000270011EA03A64187630BA6005041D0C31F
:1046D0005C413E9714C7828023AAA186E9B723AA2A
:1046E000F186EDB7411106C683A5C18737C5000025
:1046F0001305851BEFF0BFEA83A5018837C50000CD
:104700001305C51CEFF0BFE983A5818737C50000FD
:104710001305051EEFF0BFE8B24041018280411150
:1047200006C622C413F7C5FFE14663F9E600930706
:104730003500F19B930687FE63FEF6002E86AA8560
:1047400037C5000013054525EFF07FE5B240224450
:10475000410182801D8F130687FE23AEC18613841C
:1047600001871CC08966938606EA2390D7005117FB
:10477000D8C323A4070023910700BA9723A6F18684
:104780002390D70085462391D700D8C398C7814688
:104790000546B7C500009385C524138541D7EFF0C2
:1047A0006F99184023AAE18655B763040512411199
:1047B00006C622C426C293043500F19883A7C18798
:1047C00063EB9710B14763F3F400B144FD551385D3
:1047D00041D7EFF08F9C03A5418783A60187B307DC
:1047E000D54003A8C1873306984063E2C706138506
:1047F00041D7EFF02FA90145B24022449244410134
:10480000828085472311F400938701889043329773
:1048100098C383A7818763F0E70A23ACE18661A888
:1048200083572500C5C303A7C186630DE50848412A
:1048300036958357250091C7E31BA7FE23AAA186BF
:1048400051A023AAA186BDA85C40E3F2C7FA338435
:10485000F600035724006DFB58401D8F930547FF5A
:10486000E3E495FE13868401E3EDC5F81386C400E6
:104870003E963387C6008965938505EA2310B70005
:10488000231107004C404CC31CC750C0854723115F
:10489000F4005C43310863840701B69790C713871F
:1048A00001881C43B107BE9404C383A7818763F4C6
:1048B000970023AC91868967938707EA2310F40059
:1048C000E30085F6138541D7EFF0CF9B1305C400B5
:1048D00025B701458280014505B7411106C622C4AE
:1048E00026C2B304B5022685EFF03FEC2A8409C541
:1048F00026868145EFF02FF92285B240224492446A
:104900004101828009C983A701876366F50083A7F7
:10491000C1866363F5008280411106C622C426C2A7
:104920002A84930445FFFD55138541D7EFF0EF86A8
:10493000835764FF81CB035744FF8967938707EA56
:104940006303F70237C5000013050520EFF03FC5EC
:10495000835644FF035664FFA68537C50000130540
:10496000C521EFF0DFC3231B04FE8967938707EAA5
:10497000231AF4FE83A7418763F4F40023AA9186E7
:10498000138701881C43832684FF958F83A60187A4
:10499000B386D440B6971CC32685EFF0BFCE1385EF
:1049A00041D7EFF02F8EB2402244924441018280E1
:1049B000AA873707002003270701630CE5023707A2
:1049C0000020032707026302E502370700200327C0
:1049D0000703630EE500370700200327070401459E
:1049E0006303F70082800D4531A0054521A00945EC
:1049F00011A0014593174500370500201305050157
:104A00003E95CDB7011106CE22CC26CA4AC84EC665
:104A100052C4AA84AE89328A2E85EFF07FF92A89A2
:104A2000412C8327490013044900638587009C4378
:104A3000E39F87FE712C93E909F823843401214612
:104A4000D2852685EFF00FF1EFB08FEF9387C4008A
:104A5000032749005CC303274900D8C42322F90077
:104A600080C8EFB04FEEF2406244D2444249B249AE
:104A7000224A05618280411106C622C42A84230489
:104A80000500EFB0EFEB9307C40054441848D8C2B8
:104A9000544414C31CC85CC4EFB0EFEAB2402244D3
:104AA00041018280011106CE22CC26CA4AC84EC6D8
:104AB000AA892E89EFF0DFEFAA844845EFF0FFCEF8
:104AC0002A841DC9D0448145EFF0EFDB2304340173
:104AD000A30404002146CA852285EFF0AFE7EFB0BA
:104AE0002FE69307C400D8405CC3D84058C4DCC04C
:104AF000910404C8EFB02FE52285F2406244D2440D
:104B00004249B24905618280411106C622C42A8405
:104B100023040500EFB0CFE29307C40054441848C3
:104B2000D8C2544414C31CC85CC4EFB0CFE1228582
:104B3000EFF05FDDB2402244410182800305850031
:104B40007D81828023960188938741D9138707044A
:104B5000DCC39CC3A107E39DE7FE1D472382E188D8
:104B600023A4018823AC018893870189DCC39CC3FB
:104B70008280411106C603A58189EFF03FAA7D1509
:104B800093173500138541D93E9508411307C5FE9B
:104B900023A4E1882105EFB06FDBB24041018280A0
:104BA000411106C622C4EFB0AFD92A848397C188C9
:104BB000A1E303A58189EFF07FA67D1513173500CA
:104BC000938741D9BA978C439387C5FE03A7818801
:104BD0006300F7022382A18823A4F18883C781861A
:104BE00093F7F70F89CFA1051305C701EF000078F0
:104BF0002285EFB04FD5B240224441018280A10509
:104C00001305C701EF0040752285EFB0CFD3E5B79C
:104C1000411106C622C42A84EFB08FD283474403D1
:104C2000C19B93E71700230AF402834754039306BA
:104C3000440113973700938741D9BA97D84314C3D7
:104C4000D84318CCD4C35CC893878189185C94433B
:104C5000558F98C3EFB02FCFB240224441018280DC
:104C6000411106C622C42A84EFB08FCD93074401B8
:104C70005448184CD8C2544814C31CCC5CC8834751
:104C8000540313973700938741D9BA979843630821
:104C9000F700EFB04FCBB24022444101828013872E
:104CA00081891C5C93C7F7FF1443F58F1CC3D5B7EC
:104CB000411106C6EFB0CFC89387C18803D707005C
:104CC00005072390E700EFB00FC8B2404101828092
:104CD000411106C6EFB0CFC61387C18883570700BE
:104CE000FD17C207C1872310F7006357F000EFB02C
:104CF0008FC5B2404101828023960188EFB0AFC4D6
:104D000083A78188FDD7EFF0BFE9E5B7411106C65B
:104D100022C426C203A48188EFB08FC2AA84228550
:104D2000EFF01FF49147230AF40213054404752E93
:104D30002285EFF0BFE085476307F50213074401C2
:104D400083A60189D8C254C823A8E1889387018922
:104D50001CCC2685EFB02FBFEFF09FE4B240224479
:104D60009244410182803C58F1FB2285EFF0BFD094
:104D7000CDB7411106C6795718D9130745015049D7
:104D8000144D54C2504990C218CD58C9EFF05FE895
:104D9000EFF01FE1B24041018280011106CE22CC2A
:104DA00026CA4AC84EC652C456C25AC02A84328B3A
:104DB000B68ABA893E8A4289C6842E868545EFF036
:104DC0007FC4930744011CCC5CC8232064032322C6
:104DD00054032324340323264403528693053002CC
:104DE0004E85EFF04FAA5C54F1171054B7560000EF
:104DF0009386C6D03E964C500850152348CC230BC2
:104E00002403A30A2403232C040244DC24C0232803
:104E10000402230A040223280406232A04068147E5
:104E20000147A28637560000130626D7A285130530
:104E30004404AD240145F2406244D2444249B2499F
:104E4000224A924A024B0561828003A581888280B2
:104E5000011106CE22CC26CA4AC84EC652C456C23A
:104E6000AE8A328AB684BA893E89AA850545EFF0B2
:104E70007FC349CD2A842685EFF03F9359C193071C
:104E800044011CCC5CC8232054032322440308D4CF
:104E900044D4268693053002EFF0EF9E5C54F11760
:104EA0001054B75600009386C6D03E964C5008501A
:104EB000BD2148CC230B3403A30A3403232C040262
:104EC000232E24032320240523280402230A04027A
:104ED00023280406232A040681470147A286375661
:104EE0000000130626D7A28513054404452A22850F
:104EF000F2406244D2444249B249224A924A056190
:104F000082802285EFF05FC00144D5B70144C5B768
:104F1000411106C6EFB0CFA283A7818803C747031C
:104F20003D8B85466316D700D44B984F6398E600B7
:104F3000EFB06FA10145B240410182801386470165
:104F4000D8C2D44B14C390CFD0CB83C657038E06A0
:104F5000138741D93697544390C2544394CF50C3DA
:104F6000D8CBEFB04F9EEFF0BFC3E9B783474503FF
:104F7000BD8B05476390E704411106C622C426C2D3
:104F80002A84EFB0EF9BAA8483474403C19B93E735
:104F90002700230AF4022285EFF09FCC1305440476
:104FA00085242685EFB02F9A0145B24022449244D1
:104FB000410182807D558280011106CE22CC26CA15
:104FC0004AC82AC6EFB0CF972A8903A481882285D0
:104FD000EFF0DFF9930444047000814526859524A1
:104FE000268549224A85EFB00F96EFF07FBB18580F
:104FF000F9576309F7000145F2406244D24442493F
:105000000561828023280402FDB7411106C6EFE046
:105010006FEFEFF07FFAB240410182808347450392
:10502000BD8B09476392E704411106C622C426C21C
:105030002A84EFB0EF90AA84930744015448184C97
:10504000D8C2544814C31CCC5CC8130544044D2A70
:105050002685EFB04F8F2285EFF09FBB0145B24010
:1050600022449244410182807D558280411106C6CE
:1050700083466503A30AD50205473317D70018DD19
:105080000947230AE502EFF07FF983A7818899C3D6
:10509000EFF01FB10145B24041018280011106CEFF
:1050A00022CC26CA4AC84EC652C42A84328AB6893D
:1050B0003A89BE842E86A945EFF0DF94F998A304BF
:1050C0009400232E440123203403232404022322AA
:1050D0002403930744011CCC5CC8F2406244D244D0
:1050E0004249B249224A05618280411106C622C462
:1050F0002A84EFB0EF84930744015448184CD8C277
:10510000544814C31CCC5CC8EFB0EF832285EFF089
:105110009F960145B240224441018280011106CE92
:1051200022CC26CA4AC84EC6AE893289B6843A8491
:10513000AA852945EFF01F9719CD7998A30485001A
:10514000232E3501232025032324050244D1930770
:1051500045011CCD5CC9F2406244D2444249B24987
:1051600005618280411106C622C426C22A84EFA0AE
:105170003FFD9304440158481C4C5CC3584898C3F5
:1051800004CC44C883479400F99BA304F400EFA027
:105190009FFBEFE0EFD35C503E9508D4EFA05FFAA1
:1051A0009387018ACC431387018A3708008013480C
:1051B000E8FF11A03687638CE5001443DC4A1054E5
:1051C000E38AC7FE918F6374F8003687EDB7938743
:1051D000C1899443850694C31C43C4C31C435CC863
:1051E00004C318CC8347940093E71700A304F4008A
:1051F000EFA07FF50145B2402244924441018280F4
:1052000083479500858B99E37D558280411106C6C1
:1052100022C42A84EFA0DFF2930744015448184CBB
:10522000D8C2544814C31CCC5CC8EFA0DFF183473C
:105230009400F99BA304F4000145B24022444101CB
:10524000828085476385F50263DFB7008947638401
:10525000F5028D47639FF5008347950093E727008C
:10526000A304F50039A091E51C425CD119A05C5162
:105270001CC20145828083479500F59BA304F5007D
:10528000CDBF011106CE22CC26CA4AC84EC652C492
:1052900056C2EFE0EFC32A8AEFA09FEAAA8993845F
:1052A000018AB707008013C9E7FF8D4A8040631E5B
:1052B00094004E85EFA03FE9F2406244D244424957
:1052C000B249224A924A056182805C48330AFA4018
:1052D000E36149FF18405C405CC3184098C340C07C
:1052E00000C01C4448448297EFE08FBE2A8A83475F
:1052F00054FF13F7370063065701F99BA30AF4FE26
:1053000075B7F99BA30AF4FE1305C4FEEFF09FE501
:1053100071BF9387018ADCC39CC3828082802A8804
:105320001106719A130506F8AA8737C7ADDE130771
:10533000F7EE98C39107E31EF6FE2322D6F8232446
:10534000B6FA232006F9A167938707882324F6F885
:10535000828023A8018A828023A4A18A23A6B18AFD
:10536000B7E700E0116723A0E720828083A7018BC5
:1053700099E323A4A18A23A6B18A054723A8E18A39
:10538000B7E700E0116723A0E7208280411106C63D
:1053900037C5000013050532EFF06FA00145B2409C
:1053A00041018280011106CE22CC26CA4AC84EC6CF
:1053B000004163088502AA8437C90000B7C900000C
:1053C00001A81385C95CEFF08F9D0040638B8400BA
:1053D0009305C4FE1305895CEFF06F9C1C40E392BB
:1053E00097FEF2406244D2444249B249056182804C
:1053F000411106C6EFF00F9E0145B2404101828087
:10540000011106CE22CC26CA4AC84EC623A80500E2
:10541000DC45BDC383C78500B5C32E892A8483A913
:10542000050039CDEFA0DFD18347C4FF93F7F7F72D
:10543000034789006391E7028327490081440040C4
:10544000638F89008504910723AE87FE0327C90077
:10545000E31797FE31A0EFA01FCF014431A0014414
:10546000EFA07FCE232899002285F2406244D244E7
:105470004249B249056182800144FDB70144EDB75C
:10548000EFA01FCC4E844DBF517186D7A2D5A6D3B5
:10549000CAD1CECFD2CDD6CBDAC9DEC7E2C5E6C3FC
:1054A000EAC16EDF0545EFF0AFD011052ACF854781
:1054B0002302F10AFC183ED1A1473ED502D737C6D8
:1054C000000013068642A14537C5000013050543B9
:1054D000EFF0EF8C2144B7C4000013854447EFF090
:1054E0000F8C7D147DF837C5000013058547EFF05C
:1054F0000F8B814AB7CB000037CB0000B7CD00003F
:10550000D5A8130A44FF13068007D2854800EF4050
:10551000F07B4E85EFA03FC303479402D28621461D
:10552000A14513858B4BEFF08F8783478402BD8B9A
:1055300005476382E70809476384E708D9C711472D
:10554000638AE7080D47638CE7084C4C03C70500E6
:1055500093073002631CF708AE86130730028506F6
:1055600083C70600E38DE7FE1050B295B386D540A1
:1055700093074006B386F60208485C505858B3D6E5
:10558000C602898D13050B50EFF06F818504110958
:10559000BA5763DFF40403240900EFA07FBAAA8995
:1055A0008347C4FF93F7F7F70347410AE38BE7F418
:1055B000EFA07FB9E1BF13854C4CEFE05FFE71B700
:1055C00013050D4DEFE0BFFD49B71305CC4DEFE0DE
:1055D0001FFDA5BF13858D4EEFE07FFCBDB7B7C79C
:1055E00000001385474FEFE09FFB85B7AE86ADBF48
:1055F00063840A026C095685EFF09FE0AA8ABA57C5
:10560000E358F0FE1309C107814437CC000037CDC1
:105610000000B7CC000041B70145BE502E549E5447
:105620000E59FE496E4ADE4A4E4BBE4B2E4C9E4CE6
:105630000E4DFA5D6D618280011106CE22CC26CA24
:105640004AC84EC652C437C5000013054533EFE0C3
:105650001FF503A4418B83A7818B637AF402B7C93A
:10566000000037CA000031A0210483A7818B63703A
:10567000F40204400946938589342685EF50605D25
:1056800065D5A6851305CA34EFE07FF1F1BF01456A
:10569000F2406244D2444249B249224A05618280C2
:1056A0001D7186CEA2CCA6CACAC8CEC6D2C4D6C2E6
:1056B000DAC02945EFF0CFAF11052AD6A947230A52
:1056C000F1027C003ED8A1473EDC02DE37C6000076
:1056D00013068652A14537C5000013050553EFE0B8
:1056E0001FEC2144B7C4000013854447EFE03FEBB3
:1056F0007D147DF837C5000013058555EFE03FEABE
:10570000014AB7C9000037CB0000B7CA000085A026
:10571000EFA07FA385041109F25763D8F404032492
:105720000900EFA0FFA18347C4FF93F7F7F70347F2
:105730004103E39FE7FCEFA01FA15C4C184C9306CC
:1057400044FF2146A1451385C957EFE05FE5834734
:10575000D4FF858B91C713854A59EFE05FE45DBFA5
:1057600013050B5AEFE0BFE375B7630E0A006C1028
:105770005285EFF0FFC82A8AF257E358F0FE13096A
:10578000C100814469BFEFD0BFF4AA8537C50000CE
:105790001305055BEFE0BFE00145F6406644D644E3
:1057A0004649B649264A964A064B25618280597178
:1057B00086D6A2D4A6D2CAD0CECED2CCD6CADAC889
:1057C000DEC61545EFF0CF9E11052AD69547230A70
:1057D000F1027C003ED8A1473EDC02DE37C6000065
:1057E00013060635A14537C5000013058535EFE0E2
:1057F0001FDB2144B7C4000013854447EFE03FDAC4
:105800007D147DF837C500001305C537EFE03FD99B
:10581000014AB7CB000037CB0000B7DA000061A027
:10582000EFA07F9205099109F257635CF90603A482
:105830000900EFA0FF908347C4FF93F7F7F70347F2
:105840004103E39FE7FCEFA01F9093048400104402
:10585000638BC402930644FF0357640183574401DA
:10586000014805081042E39EC4FE2146A1451305E8
:105870008B39EFE0DFD22685EFF0DFB213850A998E
:10588000EFE0FFD145B70148835744010357640156
:10589000930644FF2146A14513850B3BEFE03FD023
:1058A00051B7630E0A006C105285EFF07FB52A8A5B
:1058B000F257E358F0FE9309C10001498DBF01453D
:1058C000B650265496540659F649664AD64A464B6F
:1058D000B64B65618280597186D6A2D4A6D2CAD051
:1058E000CECED2CCD6CADAC8DEC60945EFF04F8C90
:1058F00011052AD68947230AF1027C003ED8A14728
:105900003EDC02DE37C600001306863CA14537C5E3
:1059100000001305453DEFE09FC82144B7C40000D7
:1059200013854447EFE0BFC77D147DF837C50000FD
:105930001305053FEFE0BFC6014AB7CB000037CBE8
:105940000000B7DA000041A0EFA0EFFF05099109C0
:10595000F2576358F90683A40900EFA06FFE83C7CE
:10596000C4FF93F7F7F703474103E39FE7FCEFA07A
:105970008FFD1384840090446309C402938644FF1E
:1059800003D70401814785071042E31EC4FE214668
:10599000A14513058B40EFE09FC02285EFF09FA04B
:1059A00013850A99EFE0BFBF55B7814703D70401BC
:1059B000938644FF2146A14513858B41EFE03FBE0E
:1059C00071B7630E0A006C105285EFF07FA32A8A2C
:1059D000F257E358F0FE9309C1000149ADBF0145FC
:1059E000B650265496540659F649664AD64A464B4E
:1059F000B64B65618280011106CE22CC26CA4AC808
:105A00004EC652C437C500001305C562EFE03FB96A
:105A100003A4418B83A7818B637BF402B7C9000089
:105A200037CA000031A0210483A7818B6371F4027F
:105A300004401946938589642685EF50802165F5D9
:105A40009385640013050A65EFE07FB5E9BF37D59C
:105A5000000013050599EFE09FB40145F240624450
:105A6000D2444249B249224A05618280411106C6A8
:105A7000EFF09FA10145B24041018280411106C66D
:105A8000EFE05FC60145B24041018280054582805A
:105A90005D7186C6A2C4A6C2CAC04EDE52DC56DA0A
:105AA0005AD85ED62A84AA9513070002A54611A0EB
:105AB0000504B384854083070400E38BE7FEE38994
:105AC000D7FE014581ECB640264496440649F2597A
:105AD000625AD25A425BB25B61618280814A13078B
