:100000006F106007130000001300000013000000D1
:100010001300000013000000130000001300000094
:100020001300000013000000130000001300000084
:08003000130000007300100032
:100038006FF09FFC000000006F0070466F00304BAF
:1000480000000000000000000000000000000000A8
:100058000000000000000000000000000000000098
:100068006F403058000000006F00000F00000000D3
:100078006F00704A6FF05FF86F00F04E6F00D04F5E
:100088006F00B0506F0090516F0040346F00403ADD
:100098006F0080406F0080466F00804C6F003051C9
:1000A8006F00F0556F00B05A6F0030396F00305F45
:1000B8006F00F0636F00B0686F00406A00000000D6
:1000C8000000000000000000000000006F00804FEA
:1000D8006F00C06D6F00C0746F00807B6F00D0042C
:1000E8006F0090116F00F0136F00B01A6FF0DFF01F
:1000F8006FF09FF06FF05FF06FF01FF06FF0DFEFC1
:100108006FF09FEF6F40706A6F00B01F6F00F025AF
:100118006F00A0576FF05FEE6FF01FEE6FF0DFED2E
:1001280000000000000000000000000000000000C7
:080138000000000000000000BF
:1001400073750430828073100530828097520020CE
:10015000938242EB739002340321050095A00100C5
:10016000197106C212C816CA1ACC1ECE22D026D2C7
:100170002AD42ED632D836DA3ADC3EDEC2C0C6C227
:10018000CAC4CEC6D2C8D6CADACCDECEE2D0E6D257
:10019000EAD4EED6F2D8F6DAFADCFEDEF32200304C
:1001A00016C483A2018D23A02200F322103416C0AE
:1001B000EF40C04E83A2418D03A1020011A00100B7
:1001C000824273901234A2427390023092404242B3
:1001D000D2426243F243025492542255B2554256DF
:1001E000D2566257F257064896482649B649464ABB
:1001F000D64A664BF64B065C965C265DB65D465E5F
:10020000D65E665FF65F09617300203000003D43F3
:100210002A876373C3029377F700BDEFADE593764A
:1002200006FF3D8ABA960CC34CC30CC74CC74107A6
:10023000E36BD7FE11E28280B306C3408A069702C1
:10024000000096966780A6002307B700A306B700B4
:100250002306B700A305B7002305B700A304B70022
:100260002304B700A303B7002303B700A302B7001A
:100270002302B700A301B7002301B700A300B70012
:100280002300B700828093F5F50F93968500D58DF6
:1002900093960501D58D61B79396270097020000CC
:1002A00096968682E78086FA9680C1171D8F3E96C5
:1002B000E374C3F8A5B73367B500FD530D8B79E739
:1002C000B7877F7F9387F7F710419441B372F600A9
:1002D0003363F600BE92B3E262006397720C631858
:1002E000D6065041D441B372F6003363F600BE9295
:1002F000B3E262006398720A631BD604104594450A
:10030000B372F6003363F600BE92B3E2620063910B
:10031000720A631ED6025045D445B372F6003363A9
:10032000F600BE92B3E26200639A72086311D602CD
:1003300010499449B372F6003363F600BE92B3E2FB
:100340006200639372085105D105E30FD6F61317C7
:10035000060193970601631CF7001357060193D714
:1003600006013305F7409375F50F91E982804183CB
:10037000C1833305F7409375F50F91E182801377C0
:10038000F70F93F7F70F3305F74082800346050018
:1003900083C60500050585056313D60065FA330598
:1003A000D640828011059105E312D6FE0145828078
:1003B0002105A105E31CD6FC014582803105B1056C
:1003C000E316D6FC014582804105C105E310D6FC49
:1003D00001458280397106DE16DC1ADA1ED82AD66B
:1003E0002ED432D236D03ACE3ECC42CA46C872C69D
:1003F00076C47AC27EC0EF2030610545EF00707B85
:1004000085476307F502EF207062F250E2525253C3
:10041000C2533255A255125682567247E24752488D
:10042000C248324EA24E124F824F216173002030DB
:100430000545EF00D079C1BF397106DE16DC1ADA46
:100440001ED82AD62ED432D236D03ACE3ECC42CA8C
:1004500046C872C676C47AC27EC0EF20F05A0945FB
:10046000EF00307585476307F502EF20305CF250EE
:10047000E2525253C2533255A25512568256724717
:10048000E2475248C248324EA24E124F824F21617B
:1004900073002030EF1070580945EF005073F1B72A
:1004A000397106DE16DC1ADA1ED82AD62ED432D2DC
:1004B00036D03ACE3ECC42CA46C872C676C47AC25C
:1004C0007EC0EF2070541145EF00B06E8547630782
:1004D000F502EF20B055F250E2525253C25332555A
:1004E000A255125682567247E2475248C248324ECF
:1004F000A24E124F824F2161730020301145EF0050
:10050000106DC1BF397106DE16DC1ADA1ED82AD684
:100510002ED432D236D03ACE3ECC42CA46C872C66B
:1005200076C47AC27EC0EF20304E2145EF0070685D
:1005300085476307F502EF20704FF250E2525253A5
:10054000C2533255A255125682567247E24752485C
:10055000C248324EA24E124F824F216173002030AA
:100560002145EF00D066C1BF397106DE16DC1ADA0C
:100570001ED82AD62ED432D236D03ACE3ECC42CA5B
:1005800046C872C676C47AC27EC0EF20F0474145A5
:10059000EF00306285476307F502EF203049F250E3
:1005A000E2525253C2533255A255125682567247E6
:1005B000E2475248C248324EA24E124F824F21614A
:1005C000730020304145EF009060C1BF397106DEF5
:1005D00016DC1ADA1ED82AD62ED432D236D03ACE2B
:1005E0003ECC42CA46C872C676C47AC27EC0EF20EC
:1005F000B04113050020EF00D05B85476303F5048D
:1006000013050010EF00F05A85476305F506130542
:100610000008EF00105A85476303F5061305000430
:10062000EF00305985476301F50613050002EF001E
:1006300050588547631BF50013050002EF00305941
:1006400029A013050020EF009058EF20303EF25013
:10065000E2525253C2533255A25512568256724735
:10066000E2475248C248324EA24E124F824F216199
:100670007300203013050010EF007055F9B7130513
:100680000008EF00D054D1B713050004EF00305438
:100690006DBF397106DE16DC1ADA1ED82AD62ED4C2
:1006A00032D236D03ACE3ECC42CA46C872C676C4A2
:1006B0007AC27EC0EF2050352165EF00904F85470C
:1006C0006308F5041165EF00D04E8547630AF5060F
:1006D0000965EF00104E85476308F5060565EF00D4
:1006E000504D85476306F506056513050580EF0047
:1006F000504C85476302F50613050040EF00704B30
:100700008547631AF50013050040EF00504C21A007
:100710002165EF00D04BEF207031F250E25252537E
:10072000C2533255A255125682567247E24752487A
:10073000C248324EA24E124F824F216173002030C8
:100740001165EF00D048C1BF0965EF005048E1B71F
:100750000565EF00D047C1B7056513050580EF00BB
:10076000104755BF397106DE16DC1ADA1ED82AD6B4
:100770002ED432D236D03ACE3ECC42CA46C872C609
:1007800076C47AC27EC0EF203028EF20302AF250A3
:10079000E2525253C2533255A255125682567247F4
:1007A000E2475248C248324EA24E124F824F216158
:1007B00073002030397106DE16DC1ADA1ED82AD60C
:1007C0002ED432D236D03ACE3ECC42CA46C872C6B9
:1007D00076C47AC27EC0EF203023930500083735F7
:1007E0000140130505C0EF10601E15E5EF20102431
:1007F000F250E2525253C2533255A255125682560B
:100800007247E2475248C248324EA24E124F824FC0
:10081000216173002030930500083735014013052E
:1008200005C0EF10601CD9B7397106DE16DC1ADA84
:100830001ED82AD62ED432D236D03ACE3ECC42CA98
:1008400046C872C676C47AC27EC0EF20F01B8545CA
:1008500037350140130505C0EF10401715E5EF20AF
:10086000F01CF250E2525253C2533255A255125666
:1008700082567247E2475248C248324EA24E124F49
:10088000824F2161730020308545373501401305C3
:1008900005C0EF106015E1B7397106DE16DC1ADA13
:1008A0001ED82AD62ED432D236D03ACE3ECC42CA28
:1008B00046C872C676C47AC27EC0EF20F014930593
:1008C000000437350140130505C0EF1020101DED61
:1008D0009305000237350140130505C0EF10000FE6
:1008E0001DEDEF20B014F250E2525253C253325574
:1008F000A255125682567247E2475248C248324EBB
:10090000A24E124F824F21617300203093050004E4
:1009100037350140130505C0EF10000D55BF930595
:10092000000237350140130505C0EF10E00B55BF3D
:10093000397106DE16DC1ADA1ED82AD62ED432D247
:1009400036D03ACE3ECC42CA46C872C676C47AC2C7
:100950007EC0EF20700B894537350140130505C077
:10096000EF10C00631ED914537350140130505C044
:10097000EF10C00531EDA14537350140130505C025
:10098000EF10C00431EDC14537350140130505C0F6
:10099000EF10C00331EDEF207009F250E2525253D4
:1009A000C2533255A255125682567247E2475248F8
:1009B000C248324EA24E124F824F21617300203046
:1009C000894537350140130505C0EF10E00161BFCF
:1009D000914537350140130505C0EF10E00061BFB8
:1009E000A14537350140130505C0EF00F07F61BF19
:1009F000C14537350140130505C0EF00F07E61BFEA
:100A0000411106C6EF205000854537050040EF0034
:100A1000F07B11E5EF209001B240410182808545D5
:100A200037050040EF00507CF5B7397106DE16DC63
:100A30001ADA1ED82AD62ED432D236D03ACE3ECCAE
:100A400042CA46C872C676C47AC27EC0EF20C07B56
:100A500085453705004013050540EF00307715E563
:100A6000EF20C07CF250E2525253C2533255A2558D
:100A7000125682567247E2475248C248324EA24E40
:100A8000124F824F216173002030854537050040A9
:100A900013050540EF005075E1B7397106DE16DC2D
:100AA0001ADA1ED82AD62ED432D236D03ACE3ECC3E
:100AB00042CA46C872C676C47AC27EC0EF20C074ED
:100AC00085453715004013050580EF00307015E5AA
:100AD000EF20C075F250E2525253C2533255A25524
:100AE000125682567247E2475248C248324EA24ED0
:100AF000124F824F21617300203085453715004029
:100B000013050580EF00506EE1B7397106DE16DC83
:100B10001ADA1ED82AD62ED432D236D03ACE3ECCCD
:100B200042CA46C872C676C47AC27EC0EF20C06D83
:100B3000930550523745004013050540EF10600102
:100B400015E5EF20A06EF250E2525253C2533255D7
:100B5000A255125682567247E2475248C248324E58
:100B6000A24E124F824F216173002030EF1080445B
:100B7000C9BF5D7186C696C49AC29EC022DE2ADCB9
:100B80002EDA32D836D63AD43ED242D046CE72CCC5
:100B900076CA7AC87EC6EF20206793055052375533
:100BA000004013050580EF00D07A39CD93055052EF
:100BB0003754004013050480EF00707E1305048055
:100BC000EF0090781375F50F2388A186938611871F
:100BD00003C706009307170093F7F70F2380F6006B
:100BE0009386818E36972300A7008DC31387818E4D
:100BF0003E978346F7FF1307E00E638DE6020D472D
:100C00006374F700A3880186EF204062B640A642D5
:100C10001643864372546255D2554256B2562257F5
:100C200092570258F248624ED24E424FB24F616123
:100C300073002030A38801861385818EEF406065A4
:100C4000E1B7397106DE16DC1ADA1ED82AD62ED4A0
:100C500032D236D03ACE3ECC42CA46C872C676C4EC
:100C60007AC27EC0EF20405A0965B52585476307E3
:100C7000F502EF20A05BF250E2525253C2533255BC
:100C8000A255125682567247E2475248C248324E27
:100C9000A24E124F824F2161730020300965A12DB1
:100CA000EF100059F9B7397106DE16DC1ADA1ED8D2
:100CB0002AD62ED432D236D03ACE3ECC42CA46C8FC
:100CC00072C676C47AC27EC0EF200054EF20005670
:100CD000F250E2525253C2533255A2551256825626
:100CE0007247E2475248C248324EA24E124F824FDC
:100CF000216173002030397106DE16DC1ADA1ED845
:100D00002AD62ED432D236D03ACE3ECC42CA46C8AB
:100D100072C676C47AC27EC0EF20004F01A039713E
:100D200006DE16DC1ADA1ED82AD62ED432D236D0F7
:100D30003ACE3ECC42CA46C872C676C47AC27EC09B
:100D4000EF20804CEF20804EF250E2525253C253BB
:100D50003255A255125682567247E2475248C2484F
:100D6000324EA24E124F824F21617300203041114A
:100D700006C6EF206049EF20604BB24041018280FF
:100D8000411106C6EF204048EF20404AB2404101E1
:100D90008280411106C6EF202047EF202049B24053
:100DA00041018280411106C6EF200046EF20004835
:100DB000B24041018280397106DE16DC1ADA1ED893
:100DC0002AD62ED432D236D03ACE3ECC42CA46C8EB
:100DD00072C676C47AC27EC0EF200043EF20004581
:100DE000F250E2525253C2533255A2551256825615
:100DF0007247E2475248C248324EA24E124F824FCB
:100E0000216173002030397106DE16DC1ADA1ED833
:100E10002AD62ED432D236D03ACE3ECC42CA46C89A
:100E200072C676C47AC27EC0EF20003EEF2000403A
:100E3000F250E2525253C2533255A25512568256C4
:100E40007247E2475248C248324EA24E124F824F7A
:100E5000216173002030397106DE16DC1ADA1ED8E3
:100E60002AD62ED432D236D03ACE3ECC42CA46C84A
:100E700072C676C47AC27EC0EF200039EF20003BF4
:100E8000F250E2525253C2533255A2551256825674
:100E90007247E2475248C248324EA24E124F824F2A
:100EA000216173002030397106DE16DC1ADA1ED893
:100EB0002AD62ED432D236D03ACE3ECC42CA46C8FA
:100EC00072C676C47AC27EC0EF200034EF200036AE
:100ED000F250E2525253C2533255A2551256825624
:100EE0007247E2475248C248324EA24E124F824FDA
:100EF000216173002030397106DE16DC1ADA1ED843
:100F00002AD62ED432D236D03ACE3ECC42CA46C8A9
:100F100072C676C47AC27EC0EF20002FEF20003167
:100F2000F250E2525253C2533255A25512568256D3
:100F30007247E2475248C248324EA24E124F824F89
:100F4000216173002030397106DE16DC1ADA1ED8F2
:100F50002AD62ED432D236D03ACE3ECC42CA46C859
:100F600072C676C47AC27EC0EF20002AEF20002C21
:100F7000F250E2525253C2533255A2551256825683
:100F80007247E2475248C248324EA24E124F824F39
:100F9000216173002030011106CE22CC26CA4AC836
:100FA0004EC652C456C25AC00146814537A50000FC
:100FB00013058570EF20C00823AAA186EF10801EBC
:100FC0000565130585BBEF30E038EF60C019EF40D1
:100FD0000040EF40401AEF60001E93061002130617
:100FE0000002B7150E000945EF10B04185450945CF
:100FF000EF10305585460546854513057003EF1003
:10100000005F93060031014685451305C002EF10CD
:10101000004193060031054685451305F002EF10A7
:101020000040EF400064B70A0020054929A0EF40C6
:10103000C06723880198FD5503A54187EF20400331
:101040002945EF302031EF10F05523ACA1981385DE
:101050004A43EF509071EF60400EEF10B05423AE52
:10106000A19883A781991D8D23AAA19883C701996F
:10107000E39327FD6DBF97010020938121A11741C4
:101080000020130121F817B500001305A59197F56D
:10109000FF1F938525F71386018763FAC500832216
:1010A000050023A0550011059105E3EAC5FE13854F
:1010B0000187974500209385A5876377B500232096
:1010C00005001105E36DB5FE9302800873A00230A0
:1010D00097F2FFFF938282F693E2120073905230F0
:1010E000EF30F07701458145EF10D0619722000085
:1010F000938282E173901234730020301C41416767
:101100007917F98F1CC12320050023220500232411
:10111000050023260500B7070240A1076304F50870
:10112000B7070240F1076306F508B7070240938747
:1011300007036307F508B707024093874704630A6C
:10114000F508B707024093878705630BF508B707D3
:1011500002409387C706630DF508B70702409387DF
:101160000708630FF508B7070240938787406301BC
:10117000F50AB70702409387C7416304F50AB7072A
:101180000240938707436307F50AB7070240938736
:101190004744630CF50AB707024093878745630FFE
:1011A000F50A8280370702405C4393E7F7005CC38F
:1011B0008280370702405C4393E7070F5CC382805D
:1011C000B7060240DC420567130707F0D98FDCC27F
:1011D0008280370702405C43BD66D58F5CC3828046
:1011E000370702405C43B7060F00D58F5CC382808F
:1011F000370702405C43B706F000D58F5CC382809E
:10120000370702405C43B706000FD58F5CC382806E
:10121000B707024003A747401367F70023A2E74040
:101220008280B707024003A747401367070F23A236
:10123000E7408280B707024003A747408566938650
:1012400006F0558F23A2E7408280B707024003A72C
:101250004740BD66558F23A2E7408280B707024012
:1012600003A74740B7060F00558F23A2E74015BFDD
:101270001C4161773D077D8F9C459451D58F9449E2
:10128000D58FD449D58F944DD58FD44DD58FD4518A
:10129000D58F9455D58FD98F1CC1DC455CC19C413D
:1012A0001CC5DC415CC5828091C51C4193E71700D9
:1012B0001CC182801C4141677917F98F1CC1828053
:1012C00009C61C41DD8D0CC182801C4193C5F5FF10
:1012D000FD8D0CC182809317350063DA0700B707D4
:1012E000024083A707407D8D3335A0008280B70779
:1012F00002409C43CDBF9317350063D70700B70763
:10130000024023A2A7408280B7070240C8C3828060
:101310005C45D9C3B70601409387064003A6064043
:1013200018411347F7FF718F23A0E64083A646407C
:1013300018411347F7FF758FD8C358413E971443A0
:101340001041D18E14C3944718411347F7FF758F8E
:1013500098C7D44718411347F7FF758FD8C71C4566
:101360004147638CE7003707014013070740BA97EE
:1013700098431441558F98C38280B707014003A753
:1013800087401441558F23A4E74003A7C740144169
:10139000558F23A6E74082805841B70701409387C5
:1013A00007403E9714431C4193C7F7FFF58F1CC3BA
:1013B0008280370701408327074003274741698F11
:1013C00009C77D8D3335A000828001458280B70733
:1013D000014023AAA74082809C4593F8F700C18B67
:1013E00081C7DC41B3E8F80083C70500A9CB1041F1
:1013F0008147054E3D4F930E8002930F8004214399
:1014000029A054C98507638B6702B316FE0003D772
:101410000500758FE398E6FE139727003318EF0059
:101420001348F8FF3376C8003397E800598E984583
:10143000E309D7FDE318F7FD14C9E9B710C103D7D5
:1014400005009307F00F63FDE7045041A147054EE7
:10145000BD4F130F8002930E8004414331A054C945
:1014600015A88507638D6702B316FE0003D7050034
:10147000758FE398E6FE1397270001173398EF0066
:101480001348F8FF3376C8003397E800598E984523
:10149000E307E7FD9845E316D7FD14C9D9B750C156
:1014A000828019C20CC982804CC982802A8663401E
:1014B0000504B7070140DC4393160501C1823707D5
:1014C00030003378E5006308E8021317B500635C69
:1014D0000704135705011378F7000D473317070169
:1014E0001347F7FF7D8FB707000FD98F0DA0B70700
:1014F0000140DC4FD1B7370700F17D17F98FB708EE
:10150000014003A848003377E80023A2E80091C512
:10151000558112053395A600C98F6342060237072D
:1015200001405CC382801357550112073397E600D0
:101530001347F7FF7D8FB707000FD98FC9BF370754
:1015400001405CCF828093F735008A0713F7C50FFF
:10155000B7050140BA9594453D473317F700134747
:10156000F7FF758F98C598453315F500598D88C5D7
:101570008280B7E700E0BC47898B95CF83460500A2
:1015800083472500920793F7F70F37E700E0369778
:101590002300F7405C41B5C7034705009357570048
:1015A0008546B396E600938707048A0737E700E08D
:1015B000BA9794C38280B7E700E0BC47898BF9FBF8
:1015C000034715008547630FF700834605008347EF
:1015D0002500920793F7F70F37E700E036972300CF
:1015E000F7404DBF8346050083472500920793E7E8
:1015F00007F893F7F70F37E700E036972300F74037
:1016000051BF03470500935757008546B396E60040
:10161000938707068A0737E700E0BA9794C382806A
:10162000B7170240DC43B18B11476384E7082147B9
:101630006387E70899C7B7177A00938707201CC10B
:1016400031A0B7177A00938707201CC137160240D4
:101650005C429183BD8B3707002013070700BA97C0
:1016600083C607001C41B3D7D7005CC15442A18296
:101670009D8ABA9683C60600B3D6D70014C55442D5
:10168000AD829D8A369703470700B3D7E7005CC554
:10169000584239839376370037070020130787288D
:1016A0003697034707001377F70FB3D7E7021CC934
:1016B0008280B7177A00938707201CC141BF371774
:1016C00002405C435843C983BD8B89079316F700DA
:1016D00063CA060037173D0013070790B387E70278
:1016E0001CC1ADB73717024058439316E70063DAC1
:1016F000060037173D0013070790B387E7021CC1A8
:10170000B1B737177A0013070720B387E7021CC168
:1017100035BF99C5371702405C4B5D8D48CB828041
:10172000B7170240D84B1345F5FF798DC8CB82809F
:1017300099C5371702401C4F5D8D08CF8280B717BF
:101740000240984F1345F5FF798D88CF828099C567
:10175000371702405C4F5D8D48CF8280B71702403B
:10176000D84F1345F5FF798DC8CF82800357050008
:101770008D67938707047D8F83D7050083D6250067
:10178000D58F83D64500D58F83D66500D58F83D678
:101790008500D58F83D6A500D58F83D6C500D58F7C
:1017A00083D6E500D58FD98F2310F5000357C501E7
:1017B000FD779387F77FF98F231EF50083D7050107
:1017C0002318F500828081C98357050093E7070439
:1017D0002310F500828083570500C207C18393F769
:1017E000F7FBC207C1832310F500828083570500F1
:1017F000C207C18337370140130707C06300E50400
:10180000370700406307E506130707406303E50653
:101810003717004013070780630DE50493F7F7CFF0
:1018200003D76500D98F2310F50083D74500231611
:10183000F50283D705002314F50285A093F7F7F886
:1018400003D72500D98F93F7F7CF03D76500D98F3A
:101850002310F50083D745002316F50283D7050032
:101860002314F50203C78500B73701402398E7C268
:101870002DA093F7F7F803D72500D98F93F7F7CF6B
:1018800003D76500D98F2310F50083D745002316B1
:10189000F50283D705002314F5028547231AF500C6
:1018A0008280FD572312F500231005002313050045
:1018B0002311050023040500828081C98357050098
:1018C00093E717002310F500828083570500C207B5
:1018D000C183F99BC207C1832310F500828019C61A
:1018E0008357C500DD8D2316B50082808357C50060
:1018F00093C5F5FFFD8D2316B500828083578500C3
:1019000093F7F70FA2064D8ED18ED58FC207C183F4
:101910002314F5008280411106C622C42A84F93FAF
:101920008357840093E777072314F400B2402244DE
:101930004101828083578500C207C18393F7F7F87E
:10194000DD8D2314B50082800358850042081358AA
:101950000801035785014207418383570502C207E7
:10196000C183137888FFB365B8001377C7CF1367B7
:10197000171093F7D7FD9206558ED18FC207C183FA
:101980002314B500231CE5002310F5028280835741
:101990008500C207C183E19BC207C1832314F50000
:1019A00083578500DD8D2314B50082808357850021
:1019B000C207C18393F7F7F7C207C1832314F50069
:1019C00083578500DD8D2314B50082808357050180
:1019D0000355C50042054181ED8F89C76D8D3335B3
:1019E000A00082800145828093C5F5FFC205C181B8
:1019F0002318B5008280797106D622D426D22A8493
:101A0000AE8403570501F577FD17F98F03D76500FD
:101A1000D98F2318F5000357C500FD779387379FAB
:101A2000F98F03D74500D98F03D78500D98F03D706
:101A3000A500D98F2316F50083574501C207C1833E
:101A400093F7F7CF03D7C500D98F231AF5006800A5
:101A5000C13EB7470140938707806301F4065247B0
:101A60008357C400C207C18763CC070493171700CC
:101A7000BA978E07BA9798400A07B3D7E7021307B9
:101A80004006B3D6E7029206B3F7E7020357C40055
:101A90004207418763400704920793872703130790
:101AA0004006B3D7E702BD8BD58FC207C18323148D
:101AB000F400B250225492544561828062474DB77F
:101AC00093171700BA978E07BA9798400607B3D7AF
:101AD000E70275B7139737001307270393074006EC
:101AE0003357F7021D8BB367D700C1B781C983573E
:101AF000C5000967D98F2316F50082800357C500FA
:101B0000F977FD17F98F2316F500828093F7F50F0B
:101B100095830547B315B700638CE7008946130723
:101B20004501638AD70019CA1C43DD8D0CC382802E
:101B30001307C500CDBF13070501F5B71C4393C5B7
:101B4000F5FFFD8D0CC38280035545001375F51F0D
:101B5000828093F7F50F958385463397B6006388A7
:101B6000D70289466389D702835745017D8F035584
:101B7000050093170501C183014509CBA1810545E6
:101B8000B315B50033F5B7003335A0008280835715
:101B9000C5007D8FE9BF835705017D8FC9BFA18136
:101BA0008547B397B70093C7F7FFC207C1832310D8
:101BB000F5008280011106CE22CC26CAA307A1001F
:101BC000AD6703A487D0A16444C891675CC885460B
:101BD00001469305F1000145EF00D07104C8F240C1
:101BE0006244D24405618280011106CE22CC26CA0D
:101BF000A307A100AD6703A487D0A16444C891677F
:101C00001CC8854601469305F1000145EF00906E22
:101C100004C8F2406244D24405618280011106CEBC
:101C200022CC26CAAD6703A487D0A16444C89357C9
:101C300085002306F100A306A10091671CC8894610
:101C400001466C000145EF00F06A04C8F2406244AE
:101C5000D24405618280011106CE22CC26CA4AC830
:101C60004EC6AA89AE84328936841305A0029937FC
:101C700013858902420541815537130589024205C2
:101C80004181693F1305B00235371385540342057E
:101C900041816937130554034205418141371305DA
:101CA000C002093FF2406244D2444249B249056150
:101CB0008280011106CE22CC26CA4AC84EC6AA840A
:101CC000930660081306F00E814501456937130934
:101CD000000F9309700839A07D19420913590901B1
:101CE000630A09004E842685153F7D144204418015
:101CF0007DF8DDB7F2406244D2444249B249056101
:101D00008280411106C622C426C2014881471307BA
:101D1000F00493063002054681450145EF00F04D81
:101D2000930600310546854513050008EF00206F36
:101D300093060031014685451305E004EF00206E4F
:101D400093060031014685451305D004EF00206D50
:101D5000AD6703A487D0896444C81305800C81450E
:101D6000EF00F05C04C8130540068145EF00305CCD
:101D7000130560038135130540068145EF00305B94
:101D80001305000795351305A0032D351545A93D0D
:101D90001305200B05353145813D3145B1350145F0
:101DA000A13513053003893513053003353D13057F
:101DB000700B093513055003053D1305B00BDD3BD2
:101DC0001305700315351305000CED331305C00220
:101DD000213D1305200CF93B054539351305300C21
:101DE000D13B494511351305400CE9331305000279
:101DF000E53B1305600C7D3B3D45FD331305000DB0
:101E0000553B1305400ACD331305100AF13B13056A
:101E1000000E4D331305000DC13B1145F13335451F
:101E2000E1334545D1334D45C1331305B0026D3B18
:101E30001305F003553B130540057D331305C0041E
:101E4000653361455533354545332D45713B7D45FA
:101E5000613B13053002493B1305100EA13B1305EE
:101E6000000D5933114549333145BD3B4545AD3B27
:101E70004D459D3B1305C002853B1305F003AD3373
:101E800013054004953313051005B93B1305F00203
:101E9000A13B7D45913B7D45813B13050002A93364
:101EA00013053002913313051002293345451933C8
:101EB000130580078145EF00904713059002DD3937
:101EC0000145C53BB2402244924441018280797170
:101ED00006D622D426D24AD04ECE52CC56CA5AC8A2
:101EE0005EC662C4AA8B1206130A06E0A96793872E
:101EF00007713309FA00130A0901B3852541139BC1
:101F00000501135B0B01930A7500C20A93DA0A01FB
:101F1000214CC16981190DA00145093385807D14CB
:101F20001374F40F19C493F71400FDD74E85FD31D7
:101F3000F5B70509630E4901B3052B01C205C1813F
:101F4000AE8656865E85013B834409006284E1BF0C
:101F5000B250225492540259F249624AD24A424B38
:101F6000B24B224C45618280011106CE22CC26CA9A
:101F70004AC84EC6B2890306060015C62A849205D1
:101F800013990501135909018144CA8522858137B6
:101F90008504C204C180B387990003860700210429
:101FA000420441807DF2F2406244D2444249B24947
:101FB00005618280411106C622C41384F1878345DE
:101FC00004009387C187BE950545EF00505B8347AA
:101FD0000400850793F7F70F2300F4000547638E8D
:101FE000E7000D476397E700A38F0186054723802D
:101FF000E188B24022444101828003C7C187930730
:10200000500AE308F7FEA38F0186E5B7797106D67B
:1020100022D426D24AD04ECEAA89238001882E848B
:1020200093844502130950FA2306210183570400C3
:10203000A306F1000317240093170701C183A183AE
:102040002307F100A307E10011466C004E85EF0065
:10205000D04909458145EF00902D1104E31694FC09
:102060009387018883C7070093F7F70FF5DB238079
:1020700001889387C18703C7170083C6270093078A
:10208000F00F6310F700E39EF6FEB2502254925414
:102090000259F24945618280397106DE22DC26DA76
:1020A0004AD84ED652D456D25AD05ECEAA8BAE84DF
:1020B000138B0502930A50FA455A1389C1872306E8
:1020C0005101A3064101A689039704009317070154
:1020D000C183A1832307F100A307E10011466C002F
:1020E0005E85EF0090409387018883C7070093F7D0
:1020F000F70FF5DB938701882380070083471900DA
:10210000A20703472900D98F2391F9009104E3988E
:1021100064FBF2506254D2544259B259225A925A34
:10212000025BF24B21618280411106C613068004D6
:10213000B1450545A1298546014685455D454529A9
:10214000B24041018280411106C6B14501451124CA
:10215000B24041018280411106C622C426C2130446
:102160007004930400049146014681452285452C64
:102170007D14E31A94FE89669386864B03A64188F4
:10218000B7150140A1053705024013054504E120BC
:1021900085460146814579459929B24022449244B9
:1021A00041018280411106C622C426C2B707002021
:1021B000054723A6E728B70700209387474323A2B4
:1021C000F188C54641468965938505580545EF0068
:1021D000502385450545EF00D03613840188230040
:1021E0000400B704002093850401054575352300DC
:1021F0000400B7050020938505030545013D230034
:102200000400938504010545413DB1372D3F293F29
:10221000B2402244924441018280B70702400967DC
:102220001307874BB8C7F84313671700F8C38280BA
:10223000411106C60547238CE186B7060240FC42E1
:1022400041677917F98FFCC203A54187EF00F07051
:10225000B240410182805D7186C6A2C4A6C2CAC0D6
:102260004EDE2A84AE893289B684B7070240A107C0
:102270006308F508B7070240F1076303F508B707DD
:10228000024093870703630DF506B7070240938763
:1022900047046307F506B707024093878705630184
:1022A000F506B70702409387C706630BF504B70727
:1022B0000240938707086305F504B7070240938738
:1022C0008740630AF502B70702409387C74163045A
:1022D000F502B707024093870743630EF500B7077F
:1022E0000240938747446308F500B707024093878D
:1022F0008745631BF50085450945EFF08FC129A08F
:1023000085450545EFF0EFC02285EFE03FDF4EC287
:102310004AC402C626C802CA930700083ECC02CEB1
:1023200002D002D28D673ED402D64C002285EFE067
:102330003FF4054689452285EFE09FF885452285D3
:10234000EFE09FF6B640264496440649F259616193
:102350008280011106CE22CC26CA2A84AE8485450D
:102360000545EFF0EFBC51C48547630BF40889477E
:10237000630DF4088D47630FF408914601468145CB
:1023800026857128FD572314F1002312010023151F
:10239000010023130100230601000A04AD6793879F
:1023A00007D13E9400404C002285EFF02FC48146B7
:1023B000216681452285EFF00FD69305000722851F
:1023C000EFF04FD791452285EFF06FDC93050008C1
:1023D0002285EFF0AFDD85452285EFF00FCE054673
:1023E00091652285EFF0AFCFF2406244D24405619F
:1023F00082808545056513050580EFF06FB3B5BF95
:1024000085450545EFF0AFB48DBF85450945EFF033
:102410000FB4A5B785451145EFF06FB3B9BF1307EA
:1024200000086306E510797106D622D426D24AD078
:102430004ECE52CC9357550013F977001374F50123
:10244000368AB289AE848DCB05476389E706094792
:10245000638BE7060D47638DE70611476380E70846
:1024600015476383E7081947639CE7008545130513
:102470000010EFF0EFAB29A085451145EFF04FAB11
:10248000854733948700420441802312810063838F
:10249000F4069376FA0F36C613172900AD679387B3
:1024A00007D0BA974C008843EFE01FF3B250225494
:1024B00092540259F249624A45618280854521451C
:1024C000EFF00FA775BF85454145EFF06FA64DBFF3
:1024D000854513050002EFF0AFA55DB785451305EF
:1024E0000004EFF0EFA469BF854513050008EFF085
:1024F0002FA479B793170A01C183A1839DE78D4764
:102500003EC49376FA0F36C613172900AD6693863C
:1025100006D0369704434C002685EFE0FFEB4E864D
:10252000A2852685EFE0FFF751B73EC4D9BF828070
:10253000935755009D8B7D890547638DE5008A077C
:102540002D67130707D0BA97984385473395A7009F
:1025500048CB82808A072D67130707D0BA97984324
:1025600085473395A70008CB8280135735009376B3
:10257000C7012D67130707D036971C439847854737
:102580003395A700798D3335A0008280011106CEE6
:1025900022CC26CA4AC82A84AE843289854505459C
:1025A000EFF00F99CA860146814522858D3D13556E
:1025B00054009375F4011375F50FEFE0DFF88547CC
:1025C0003394870022C002C226C43EC60A85EFE0CB
:1025D0003FD4F2406244D244424905618280B7E769
:1025E00000E07D5723A0E71823A2E718828001119D
:1025F00006CE2304A100A304B1002305C10036C602
:102600002800EFE01FF737E600E01842B737002058
:10261000FD76F98E03A7C78E558F23A6E78E584205
:102620009387C78E12071183D443558FD8C303C72E
:10263000870085476305F700F240056182804537D2
:10264000E5BF411106C622C42E841DC9894763080F
:10265000F5069147630CF50699476300F508A14715
:102660006304F508A9476309F508B1476310F5024B
:1026700091460146814513056002EFF05FDA39A00B
:102680009146014681452145EFF07FD98547630D8D
:10269000F4068D476301F40895476305F4089D47E8
:1026A000630AF408A547630EF408AD476303F40A10
:1026B000B5476308F40AB240224441018280914642
:1026C000014681450145EFF09FD5C9B791460146C6
:1026D00081453D45EFF0BFD455BF91460146814548
:1026E0001945EFF0DFD35DB79146014681451305EB
:1026F0006004EFF0DFD259BF9146014681451305D2
:102700004002EFF0DFD159B791460146814525459A
:10271000EFF0FFD04DB79146014681450545EFF0FA
:102720001FD051BF91460146814513053002EFF09D
:102730001FCF51B79146014681451D45EFF03FCE71
:102740009DBF91460146814513057004EFF03FCDD2
:102750009DB791460146814513055002EFF03FCCED
:1027600099BF91460146814513057002EFF03FCBBA
:1027700099B7011106CE22CC26CA4AC82A84AE8453
:10278000328929C58547630AF5048947630CF50436
:102790008D47630EF504CA85268565358545054553
:1027A000EFE01FF991476389F404A147638AF40AB3
:1027B000A9476396F404AD476313F90485453715BB
:1027C0001A0013050580EFE07FCE15A88545056545
:1027D00013050580EFE0DFF57DBF85450545EFE09A
:1027E0001FF755BF85450945EFE07FF66DB7854575
:1027F0001145EFE0DFF545B79547630BF904480055
:10280000EFF02F8A85472312F100FD572314F100C2
:102810002315010023130100230601000A04AD67FC
:10282000938707D13E9400404C002285EFE01FFCC7
:102830008146014689452285EFF00F918545228525
:10284000EFF0AF87F2406244D24442490561828092
:1028500085453705180013050530EFE03FC545B73E
:10286000A547E31EF9F8854537151A00130505C07D
:10287000EFE0DFC369B70A05AD67938707D1AA9771
:102880009C4303D547024205418582800A05AD6716
:10289000938707D1AA979C43239207028280411114
:1028A00006C622C426C24AC0AE84328436892DCDE3
:1028B000C1476303F508930700026318F508930600
:1028C0008031054685451305D002EFF05FB5854799
:1028D000638CF408C5476381F40A9307100263967A
:1028E000F40A93068031054685451305F002EFF0A2
:1028F0001FB38947630AF40AC947630FF40A9307B1
:1029000020026304F40C930730026319F40C93065D
:102910000031054685454A85EFF07FB0B24022443C
:1029200092440249410182809306803105468545E3
:102930001545EFF0DFAE61BF930680310546854552
:1029400013053002EFF0BFAD59B7B7B6000093865C
:1029500006D32D66130606D29305D00237B50000C4
:10296000130545D3EF603021930680310546854538
:102970001D45EFF0DFAAB5BF9306803105468545BA
:1029800013055002EFF0BFA9ADB7B7B600009386AC
:1029900006D32D66130606D29305200337B5000033
:1029A000130545D3EF60301D9306803105468545FC
:1029B0001945EFF0DFA6A1BF930680310546854596
:1029C00013054002EFF0BFA599B793068031054685
:1029D00085451305E002EFF09FA415BFB7B60000D0
:1029E000938606D32D66130606D29305800337B56A
:1029F0000000130545D3EF601018397106DE22DCA4
:102A000026DA4AD84ED652D456D25AD02A84AE8923
:102A1000328AB68A3A8BBE84428941C585476308AB
:102A2000F508DA865686D2854E85953D2316010037
:102A3000930740102317F100231801008547638393
:102A4000F40893978401E187ADCB89476382F4084A
:102A50008D476385F40893070020231BF1000E09BE
:102A6000231C2101231D01009D47231EF1000A04A0
:102A700013858184229500416C002285EFE01FCFF1
:102A8000C1476384F90685452285EFE0DFD3F25024
:102A90006254D2544259B259225A925A025B21616D
:102AA0008280854505650505EFE09FC89DBF85458A
:102AB00011650505EFE0BFC9ADB723190100231A61
:102AC000010051BF231901008547231AF10061B7A6
:102AD00089472319F100231A0100B5BF894723193B
:102AE000F1008547231AF100BDB785450545EFE0A4
:102AF000FF9B51BFAE96938781840A053E956387FD
:102B0000B602184183578700898BEDDF850583C79F
:102B1000F5FF2316F70065D683578700858BEDDF19
:102B20008357C7002300F6000506D1BF82804111FC
:102B300006C6EF103002B24041018280411106C644
:102B40000DE585476385F500B2404101828093061B
:102B50008031014685452545EFF07F8C9146014641
:102B600081452945EFF0BF8BC5B789476309F50259
:102B7000C1476306F504930700026310F506930648
:102B80008031014685451305A002EFF05F8991462B
:102B9000014681451305B002EFF07F8875B79306B3
:102BA00080310146854513056002EFF05F8791464D
:102BB0000146814513057002EFF07F8671B79306D9
:102BC0008031014685450945EFF07F8591460146F4
:102BD00081450D45EFF0BF8485BF93072002E315C3
:102BE000F5F693068031014685451305A004EFF004
:102BF0001F839146014681451305B004EFF03F82E3
:102C0000A1B7797106D622D426D24AD04ECE2A84D4
:102C1000AE89B284368985450545EFE07FB1CA8526
:102C20002685293F89476381F40293072002639038
:102C3000F40293073002631CF90085453705140040
:102C40004105EFE0BF8621A08D47630AF90429CC36
:102C500085476300F40689476303F4064EC02312D8
:102C60000100231301002314010023160100B147C2
:102C70002315F1000A04AD67938707D63E94004000
:102C80008A852285EFE03FD785452285EFE01FE664
:102C9000B250225492540259F249456182808545CE
:102CA0001145EFE0BF8065B785451165EFE05FA88E
:102CB00075B7854537050200EFE07FA945B7854523
:102CC00037050400EFE0BFA851BF0A05AD67938741
:102CD00007D6AA9798438357070093F70708E5DFBD
:102CE000C205C1812312B70082801DC6411106C6EC
:102CF00022C426C24AC02A892E84B384C500050492
:102D00008345F4FF4A85D137E39B84FEB2402244D9
:102D100092440249410182808280411106C622C448
:102D200026C2AA842E8483C5050099C5050426857C
:102D3000693F83450400FDF9B240224492444101B9
:102D40008280411106C622C426C22A84AE8413178B
:102D50002500AD67938707D6BA970546930550526D
:102D60008843EFE0BFDAA686014685451305540384
:102D7000EFF0FF87B24022449244410182800A056D
:102D8000AD67938707D6AA9798438357070093F7B1
:102D9000070299E301458280835747002380F500AD
:102DA0000545828003A5C1888280411106C69387AC
:102DB000C1889843050798C3EF10803D3C41FD173B
:102DC0003CC191C7EF109000B240410182805C5D30
:102DD0003CC1EF104048FDB7634205029307803EB7
:102DE0003347F5023307F7023365F5023305F50281
:102DF0001305753E3345F5023A9582807D558280F4
:102E000001458280014582800145828001458280A2
:102E1000316713070791B16793874791637CF70286
:102E2000411106C622C426C2316493040491B167DD
:102E300093873791858FF19B9107BE94130404917A
:102E40001C4082971104E31D94FEB2402244924438
:102E5000410182808280316713074791B167938770
:102E60008791637CF702411106C622C426C23164F1
:102E700093044491B16793877791858FF19B910774
:102E8000BE94130444911C4082971104E31D94FEE8
:102E9000B24022449244410182808280411106C6A0
:102EA0005D3FEFE04F8FB24041018280411106C685
:102EB000D1470947930600400146B7350000938586
:102EC000C5E937B50000130505D7EF10C02CEF108A
:102ED000804EB24041018280411106C6EFD04FA61C
:102EE000EF10707CEF005023EF104077EF00B078C8
:102EF000753FEF104077F920EF00107B0145B2409D
:102F000041018280411106C6C13F0145B2404101E5
:102F1000828003A7818B9387818B630FF708011150
:102F200006CE22CC26CA4AC84EC652C456C293897F
:102F3000818B854A2DA02685EF007073630A5505A5
:102F4000EF10600D5285EFD00FA04848EF00304ED3
:102F50002685EF00906E83A7818B63863705EFD0BF
:102F60002F9E2A8A83A7818B638D370303A4818BCD
:102F70009304C4FE18405C405CC3184098C340C032
:102F800000C0EF1040077C4CDDD72685829765B7DF
:102F90002685EF007061EF1000085285EFD0AF9AE0
:102FA00019A0EFD04F9AF2406244D2444249B2494C
:102FB000224A924A056182808280411106C6EFF062
:102FC0005FF5F5BF411106C622C4373400209308CF
:102FD00000021D489307003037370020130707977A
:102FE0008146373600001306A6FBB7B5000093856F
:102FF00085D71305848FEF10A00E1305848FEF1073
:10300000803BB240224441018280411106C622C465
:1030100026C24AC02A843289B6842E868945EF00AA
:103020009051930744011CCC5CC8231E2401A304C7
:1030300094000145B24022449244024941018280F9
:10304000411106C622C426C2AE843284AA8509452F
:10305000EF00705809C9930745011CCD5CC9231EB8
:103060009500A3048500B24022449244410182802D
:10307000797106D622D426D24AD04ECE52CC2A849A
:103080002EC6EFD0EF8BAA898357C401A1E7B247C0
:10309000A9CBEF10E00FAA842328050213094401ED
:1030A000034A9400EF10202163010A048547630856
:1030B000FA04B2476348F0084E85EFD0CF88EF009E
:1030C000D0618858B250225492540259F249624A4F
:1030D00045618280FD17231EF400EFD0CF860145A5
:1030E000D5B7EFD04F867955F1BF93874401184C7F
:1030F0001CC3184C98CC1CCC23AA24015DBF5C488F
:103100006308F90283C6540303C7170263E9E600A4
:103110009C43630FF90003C71702E3FBE6FE138726
:103120004401D44398C2D44394CCD8C3DCC851B72B
:1031300093874401184C1CC3184C98CC1CCC23AA70
:10314000240185BF13844404700081452285EF105B
:10315000E0432285EF10A03585B7411106C622C491
:1031600026C22A84EFC0DFFDAA84484893074401A1
:103170006300F5023115EF10001F2685EFC0BFFC7C
:10318000EF00B0550145B240224492444101828093
:103190008357C4018507231EF4002685EFC0BFFABC
:1031A000D5B7411106C622C426C24AC0AE843289B0
:1031B000AA851545EF0030422A841DC9A3042501C4
:1031C000930745011CCD5CC923109502139504019A
:1031D00041810A05EF00F01148CC15C1231104020A
:1031E0002312040223130402930784025CD41CD428
:1031F0002285B240224492440249410182802285C4
:10320000EF00B0430144EDB7411106C6EFC05FF3D4
:103210001387018983470700850793F7F70F23007A
:10322000F700EFC05FF2B24041018280411106C653
:10323000EFC01FF11387018983470700FD1793F73C
:10324000F70F2300F700EFC01FF0B240410182806A
:10325000411193780804639F08022D6F130F4F07E5
:1032600093780801638C08021378E8FF9302000248
:103270009378280063840804634B0602937848001F
:10328000930FB002639D0802937F8800B33FF00163
:10329000960F35A02D6F130F0FFDD9B79378180037
:1032A00093020003E39608FC93020002D1B73306B1
:1032B000C040930FD0028148A94E81A8814F65FE7E
:1032C000930600032300D1008548468E63D3F8009F
:1032D0003E8E3307C74193761801BDE263880F1015
:1032E000635EE00E1303E7FF854663C5E6101A87A9
:1032F000FDA01373F60011828508330E11017A9335
:1033000003430300A30F6EFE69D2E394D6FF337329
:10331000D6033356D603CDB70507B306E640635749
:10332000D000E37BB7FE2300D701FDB71307F3FFFF
:103330001346F3FF7D86B376C300158F8506369559
:10334000639F0F0813780801631208029306F7FFC2
:103350006357E0042A9721A005056307E500E37D94
:10336000B5FE23005500CDBF3A857D57B3061E41FB
:10337000AA961306000363CFC801AA86635F1003F1
:103380008DCF46830A8533061501B68739A8050512
:10339000E306D5FEE37DB5FE2300C500CDBF36872D
:1033A000F1B785077D166309A600E3FCB7FE034865
:1033B000F6FF23800701F5B79A963385E600930759
:1033C00000026348E0003685410182808506E38D76
:1033D000A6FEE3FDB6FE2380F600CDBF7D17637425
:1033E000B5002300F5017D170505A9BF1303F7FFFD
:1033F0006359E0002A87930E0002130615001A96FF
:103400000DB71A8781B78D4763F9C70093773500E9
:103410008DC71307F6FFAA8729A0AA871307F6FF0F
:1034200001CE05073E978507A38FB7FEE39DE7FE14
:103430008280BA874286DDB7828093F7F50F939634
:103440008700D58F93960701DD8EBD4763F1C704D2
:10345000930706FFC19BC107AA972A8714C354C3C9
:1034600014C74107232ED7FEE39AE7FE1378F60030
:10347000318A61D29307C8FFF19B9107BA97110770
:10348000232ED7FEE31DF7FE1376380041BF2A87AF
:103490003288CDB709CEAA868505938716000387A3
:1034A000F5FFA38FE7FE09C77D16BE8675F68280FD
:1034B0001307F6FF6DDF36968507A38F07FEE31D22
:1034C000F6FE82808307050089CBAA8785070387DC
:1034D00007006DFF3385A7408280AA87E5BF5D7135
:1034E00086C6A2C4A6C2CAC04EDE52DC56DA5AD87C
:1034F0005ED662D466D26AD06ECEAA8C2E8D368C01
:10350000B30AB50063F5AA00134DF5FFFD5A830712
:103510000600E68963820736930B50021309B00256
:103520002D67930D07D841677D173AC409A885090F
:1035300032841306140083071400638F07326387F5
:103540007701E3F659FF2380F900D5B781441307CB
:10355000D00293060002930530021305000321A058
:1035600093E4040122861304160083071600E389FE
:10357000E7FE638B2701638CD700638DB700639EE2
:10358000A70093E41400F9BF93E44400E1BF93E47F
:103590008400C9BF93E40402F1B73E87938607FD18
:1035A000A54563F6D5041307A0027D5A6382E7069A
:1035B000030704009307E0027D5B6309F7068307B6
:1035C000040013F6B7FF930680060147630CD60A82
:1035D000834704009387B7FD13F6F70F9306300572
:1035E00063E8C62093172600EE979C438287014A22
:1035F000A546050493172A003E9A060A3A9A130A2A
:103600000AFD03070400930707FDE3F4F6FE4DB738
:103610001304260093074C00032A0C003E8CE35948
:103620000AF8330A404193E4040159B71307140020
:1036300083071400BE86938507FD25466379B6008F
:103640009306A0026386D7023A84014B8DBF014BDB
:10365000050793172B00DA978607B697138B07FD9C
:1036600083060700938706FDE374F6FE3A8429A0DB
:103670000904032B0C00110C9347FBFFFD87337BE0
:10368000FB0035BF13F7F70F050499B7C14641AAF0
:10369000C1889DC093064C0063F6590183270C0036
:1036A0002380F9009387190005476351471D52860F
:1036B0004E9A130700020DA89307FAFF6351F00218
:1036C000CE971307000221A0850963873701E3FD28
:1036D00059FF2380E900CDBFBE89014A65BF3E8AFC
:1036E00055BF850763874701E3FD57FF2380E70048
:1036F000CDBFB299368C35BD93074C003EC6032C26
:103700000C0063010C026285EFF0DFDB63556001A2
:103710006353AB005A85C18899C86350A006B3872C
:10372000A900A9A0B7B70000138CC706E9BF93068C
:10373000FAFF63574503D2852A87B307AA40CE977D
:103740001306000221A085096387F900E3FD59FFF4
:103750002380C900CDBF330AB740369ABE8975BFF2
:10376000368A65BF8509050C638AF900E3FC59FFB9
:1037700003070C002380E900F5B7CE87635B450F94
:103780003305AA40B389A7001307000221A08507CB
:1037900063873701E3FD57FF2380E700CDBF324C3D
:1037A00049BBFD576302FA0293074C003EC62688C8
:1037B000DA875287C14603260C00D6854E85EFF086
:1037C0003FA9AA89324CB5B393E41400214AE9BF5A
:1037D00063F65901930750022380F900850991BBD4
:1037E00093E40404C14625A893E42400A94605A84F
:1037F00063F65901930750022380F90013871900DB
:103800008307040099C763745701A380F9008909ED
:103810000DB37D14BA8931BBA94611A0A146930707
:10382000C0066302F702930780066302F7020326CD
:103830000C00110C2688DA875287D6854E85EFF06A
:103840003FA1AA89FDB103260C00110CE5B793072F
:103850004C0003260C0013F7240009E72247798E59
:103860003E8CC9BF420641863E8CE9B7368CBE8984
:10387000C9B1324CBE8975B963060D0063F55903B1
:103880002380090033859941B64026449644064971
:10389000F259625AD25A425BB25B225C925C025D80
:1038A000F24D61618280A38F0AFEE9BF411106C615
:1038B000B2862E86FD55EFF09FC2B2404101828054
:1038C000397106CE32D436D63AD83EDA42DC46DEFC
:1038D000301032C6EFF09FFDF240216182803971D5
:1038E00006CE22CC2ED232D436D63AD83EDA42DCBC
:1038F00046DE541036C6373400202A869305F0077A
:10390000130504C7EFF0BFBD130504C7EF106066D1
:10391000F240624421618280411106C637B5000041
:10392000130545FEEFF0BFFB37B50000130505FF9B
:10393000EFF0FFFA37B70000130747018D46054641
:103940008D4537B5000013050502EFF05FF937B577
:10395000000013050504EFF09FF8B240410182809A
:103960000DC59377F50F9DE3C167938707F0E98F46
:1039700095E7B707FF00E98F8DEF6181AD6793870A
:1039800007ED3E9503450500650582802D67130709
:1039900007EDBA9703C507000505828021851375D9
:1039A000F50FAD67938707ED3E95034505002505A7
:1039B000828041851375F50FAD67938707ED3E95BE
:1039C000034505004505828003A781895C41BA97BC
:1039D0006304F50283D6270085E283A64189638DBF
:1039E000F60083A6C189638BF602D44354C1DC433D
:1039F000BA97B306E54094C71445B307D700630EE2
:103A0000F50003D6270011EA03A6C189630BA600BF
:103A10005041D0C35C413E9714C7828023AEA18839
:103A2000E9B723AEF188EDB7411106C683A5418AF7
:103A300037B5000013054509EFF07FEA83A5818AB9
:103A400037B500001305850AEFF07FE983A5018AE9
:103A500037B500001305C50BEFF07FE8B240410118
:103A60008280411106C622C413F7C5FFE14663F9FF
:103A7000E60093073500F19B930687FE63FEF60090
:103A80002E86AA8537B5000013050513EFF03FE534
:103A9000B2402244410182801D8F130687FE23A27B
:103AA000C18A138481891CC08966938606EA2390A3
:103AB000D7005117D8C323A4070023910700BA9752
:103AC00023AAF1882390D70085462391D700D8C335
:103AD00098C781460546B7B50000938585123735EE
:103AE0000020130505CFEFF04FD2184023AEE18838
:103AF00045B7630A0512411106C622C426C29304C3
:103B00003500F19883A7418A63E19712B14763F3C7
:103B1000F400B144FD5537350020130505CFEFF013
:103B20002FD503A5C18983A68189B307D54003A8F2
:103B3000418A3306984063E4C706373500201305F1
:103B400005CFEFF08FE10145B2402244924441019C
:103B5000828085472311F4009387818A90433297AE
:103B600098C383A7018A63F0E70A23A0E18A61A8CA
:103B700083572500C5C303A74189630DE508484164
:103B800036958357250091C7E31BA7FE23AEA18876
:103B900051A023AEA188BDA85C40E3F0C7FA3384EE
:103BA000F600035724006DFB58401D8F930547FF17
:103BB000E3E495FE13868401E3EDC5F81386C400A3
:103BC0003E963387C6008965938505EA2310B700C2
:103BD000231107004C404CC31CC750C0854723111C
:103BE000F4005C43310863840701B69790C71387DC
:103BF000818A1C43B107BE9404C383A7018A63F47E
:103C0000970023A0918A8967938707EA2310F4001D
:103C1000E30085F637350020130505CFEFF0EFD32D
:103C20001305C40015B701458280014531BF09C99C
:103C300083A781896366F50083A741896363F500E3
:103C40008280411106C622C426C22A84930445FFFD
:103C5000FD5537350020130505CFEFF06FC18357B1
:103C600064FF81CB035744FF8967938707EA6303A7
:103C7000F70237B500001305C50DEFF05FC6835698
:103C800044FF035664FFA68537B500001305850F72
:103C9000EFF0FFC4231B04FE8967938707EA231A0A
:103CA000F4FE83A7C18963F4F40023AE91881387DF
:103CB000818A1C43832684FF958F83A68189B386DE
:103CC000D440B6971CC32685EFF01FD037350020AF
:103CD000130505CFEFF06FC8B24022449244410172
:103CE0008280AA873707002003274705630CE50277
:103CF00037070020032747066302E5023707002045
:103D000003274707630EE50037070020032747080E
:103D100001456303F70082800D4531A0054521A0D0
:103D2000094511A0014593174500370500201305EB
:103D300045053E95CDB7011106CE22CC26CA4AC80C
:103D40004EC652C4AA84AE89328A2E85EFF07FF91E
:103D50002A89552483274900130449006385870075
:103D60009C43E39F87FE452C93E909F823843401A3
:103D70002146D2852685EFF0EFF1EFC06FBC938727
:103D8000C400032749005CC303274900D8C4232289
:103D9000F90080C8EFC02FBBF2406244D2444249D0
:103DA000B249224A05618280411106C622C42A8492
:103DB00023040500EFC0CFB89307C400544418484B
:103DC000D8C2544414C31CC85CC4EFC0CFB7B240BF
:103DD000224441018280011106CE22CC26CA4AC863
:103DE0004EC6AA892E89EFF0DFEFAA844845EFF08E
:103DF0005FD02A841DC9D0448145EFF0CFE0230471
:103E00003401A30404002146CA852285EFF08FE81F
:103E1000EFC00FB39307C400D8405CC3D84058C468
:103E2000DCC0910404C8EFC00FB22285F2406244A6
:103E3000D2444249B24905618280411106C622C47A
:103E40002A8423040500EFC0AFAF9307C400544495
:103E50001848D8C2544414C31CC85CC4EFC0AFAEE9
:103E60002285EFF0DFDCB24022444101828003056D
:103E700085007D818280239A018AB737002093874D
:103E800007D113870704DCC39CC3A107E39DE7FEAA
:103E90001D472386E18A23A8018A23A0018C9387EA
:103EA000818BDCC39CC38280411106C603A5018CB3
:103EB000EFF01FAB7D159317350037350020130544
:103EC00005D13E9508411307C5FE23A8E18A2105C7
:103ED000EFC0CFA7B24041018280411106C622C483
:103EE000EFC00FA62A848397418BB1E303A5018C11
:103EF000EFF01FA77D1513173500B7370020938704
:103F000007D1BA978C439387C5FE03A7018B630043
:103F1000F7022386A18A23A8F18A83C7018993F730
:103F2000F70F89CFA1051305C701EF00C0782285DF
:103F3000EFC06FA1B240224441018280A105130568
:103F4000C701EF0000762285EFC0EF9FE5B7411172
:103F500006C622C42A84EFC0AF9E83474403C19B98
:103F600093E71700230AF40283475403930644019E
:103F700013973700B7370020938707D1BA97D843F4
:103F800014C3D84318CCD4C35CC89387018C185C85
:103F90009443558F98C3EFC00F9BB2402244410118
:103FA0008280411106C622C42A84EFC06F9993070C
:103FB00044015448184CD8C2544814C31CCC5CC8A3
:103FC0008347540313973700B7370020938707D1EF
:103FD000BA9798436308F700EFC0EF96B2402244C7
:103FE000410182801387018C1C5C93C7F7FF144347
:103FF000F58F1CC3D5B7411106C6EFC06F949387E8
:10400000418B03D7070005072390E700EFC0AF936C
:10401000B24041018280411106C6EFC06F92138702
:10402000418B83570700FD17C207C1872310F70094
:104030006357F000EFC02F91B24041018280239A74
:10404000018AEFC04F9083A7018BFDD7EFF0FFE807
:10405000E5B7411106C622C426C203A4018BEFC0F6
:104060002F8EAA842285EFF0DFF39147230AF40212
:1040700013054404C1262285EFF07FDF85476307DF
:10408000F5021307440183A6818BD8C254C823AC20
:10409000E18A9387818B1CCC2685EFC0CF8AEFF015
:1040A000DFE3B24022449244410182803C58F1FB5C
:1040B0002285EFF07FCFCDB7411106C6795718D9C9
:1040C000130745015049144D54C2504990C218CDB0
:1040D00058C9EFF0DFE7EFF05FE0B24041018280C6
:1040E000011106CE22CC26CA4AC84EC652C456C2B8
:1040F0005AC02A84328BB68ABA893E8A4289C684DB
:104100002E868545EFF03FC3930744011CCC5CC865
:10411000232064032322540323243403232644034B
:104120005286930530024E85EFF0EFAD5C54F117E7
:104130001054B7460000938626053E964C50085012
:10414000252348CC230B2403A30A2403232C040295
:1041500044DC24C023280402230A04022328040682
:10416000232A040681470147A2863746000013062A
:10417000860BA28513054404BD240145F240624428
:10418000D2444249B249224A924A024B0561828096
:1041900003A5018B8280011106CE22CC26CA4AC813
:1041A0004EC652C456C2AE8A328AB684BA893E8995
:1041B000AA850545EFF03FC249CD2A842685EFF058
:1041C0005F9359C1930744011CCC5CC8232054035E
:1041D0002322440308D444D4268693053002EFF00A
:1041E0008FA25C54F1171054B74600009386260541
:1041F0003E964C5008508D2948CC230B3403A30A1B
:104200003403232C0402232E2403232024052328F3
:104210000402230A040223280406232A04068147F1
:104220000147A286374600001306860BA2851305B8
:104230004404552A2285F2406244D2444249B2499C
:10424000224A924A056182802285EFF01FBF014415
:10425000D5B70144C5B7411106C6EFB07FEE83A7BD
:10426000018B03C747033D8B85466316D700D44BAC
:10427000984F6398E600EFB01FED0145B240410151
:10428000828013864701D8C2D44B14C390CFD0CBC1
:1042900083C65703373700208E06130707D136979A
:1042A000544390C2544394CF50C3D8CBEFB0BFE92E
:1042B000EFF0BFC2D9B783474503BD8B0547639075
:1042C000E704411106C622C426C22A84EFB05FE784
:1042D000AA8483474403C19B93E72700230AF4027F
:1042E0002285EFF01FCC1305440485242685EFB00A
:1042F0009FE50145B24022449244410182807D55B0
:104300008280011106CE22CC26CA4AC82AC6EFB046
:104310003FE32A8903A4018B2285EFF0DFF99304A0
:1043200044047000814526859524268549224A85C6
:10433000EFB07FE1EFF07FBA1858F9576309F70043
:104340000145F2406244D2444249056182802328FB
:104350000402FDB7411106C6EFE01FA8EFF07FFA97
:10436000B2404101828083474503BD8B0947639278
:10437000E704411106C622C426C22A84EFB05FDCDE
:10438000AA84930744015448184CD8C2544814C313
:104390001CCC5CC8130544044D2A2685EFB0BFDA57
:1043A0002285EFF0DFBA0145B24022449244410138
:1043B00082807D558280411106C683466503A30A2B
:1043C000D50205473317D70018DD0947230AE50250
:1043D000EFF07FF983A7018B99C3EFF01FB0014580
:1043E000B24041018280011106CE22CC26CA4AC8C1
:1043F0004EC652C42A84328AB6893A89BE842E8631
:10440000A945EFF05F93F998A3049400232E44018B
:10441000232034032324040223222403930744018A
:104420001CCC5CC8F2406244D2444249B249224AA0
:1044300005618280411106C622C42A84EFB05FD094
:10444000930744015448184CD8C2544814C31CCC98
:104450005CC8EFB05FCF2285EFF01F950145B240F9
:10446000224441018280011106CE22CC26CA4AC8CC
:104470004EC6AE893289B6843A84AA852945EFF0C2
:104480009F9519CD7998A3048500232E350123200B
:1044900025032324050244D1930745011CCD5CC9A3
:1044A000F2406244D2444249B249056182804111DE
:1044B00006C622C426C22A84EFB09FC893044401D2
:1044C00058481C4C5CC3584898C304CC44C8834724
:1044D0009400F99BA304F400EFB0FFC6EFE09F8CBB
:1044E0005C503E9508D4EFB0BFC59387818CCC4318
:1044F0001387818C370800801348E8FF11A03687A6
:10450000638CE5001443DC4A1054E38AC7FE918FA4
:104510006374F8003687EDB79387418C9443850622
:1045200094C31C43C4C31C435CC804C318CC834756
:10453000940093E71700A304F400EFB0DFC0014537
:10454000B240224492444101828083479500858B8A
:1045500099E37D558280411106C622C42A84EFB0BA
:104560003FBE930744015448184CD8C2544814C362
:104570001CCC5CC8EFB03FBD83479400F99BA304FB
:10458000F4000145B24022444101828085476385A1
:10459000F50263DFB70089476384F5028D47639FA7
:1045A000F5008347950093E72700A304F50039A0A1
:1045B00091E51C425CD119A05C511CC2014582806E
:1045C00083479500F59BA304F500CDBF011106CEEE
:1045D00022CC26CA4AC84EC652C456C2EFE08FFC4F
:1045E0002A8AEFB0FFB5AA899384818CB70700802F
:1045F00013C9E7FF8D4A8040631E94004E85EFB0DB
:104600009FB4F2406244D2444249B249224A924A9B
:10461000056182805C48330AFA40E36149FF184033
:104620005C405CC3184098C340C000C01C44484470
:104630008297EFE02FF72A8A834754FF13F737005A
:1046400063065701F99BA30AF4FE75B7F99BA30A09
:10465000F4FE1305C4FEEFF09FE571BF9387818CD4
:10466000DCC39CC3828082802A881106719A13055C
:1046700006F8AA8737C7ADDE1307F7EE98C3910790
:10468000E31EF6FE2322D6F82324B6FA232006F9E9
:10469000A167938707882324F6F8828023AC018CD6
:1046A000828023A8A18C23AAB18CB7E700E0116710
:1046B00023A0E720828083A7818D99E323A8A18C82
:1046C00023AAB18C054723ACE18CB7E700E0116762
:1046D00023A0E7208280411106C637B500001305EC
:1046E000C51FEFF0CF9F0145B2404101828001110B
:1046F00006CE22CC26CA4AC84EC6004163088502AF
:10470000AA8437B90000B7B9000001A81385894A07
:10471000EFF0EF9C0040638B84009305C4FE13050B
:10472000494AEFF0CF9B1C40E39297FEF24062446F
:10473000D2444249B24905618280411106C6EFF078
:10474000AF9D0145B24041018280011106CE22CCCD
:1047500026CA4AC84EC623A80500DC45BDC383C788
:104760008500B5C32E892A8483A9050039CDEFB011
:104770003F9D8347C4FF93F7F7F703478900639191
:10478000E7028327490081440040638F8900850444
:10479000910723AE87FE0327C900E31797FE31A0D8
:1047A000EFB07F9A014431A00144EFB0DF99232894
:1047B00099002285F2406244D2444249B2490561DF
:1047C00082800144FDB70144EDB7EFB07F974E847E
:1047D0004DBF517186D7A2D5A6D3CAD1CECFD2CDE7
:1047E000D6CBDAC9DEC7E2C5E6C3EAC16EDF05454E
:1047F000EFF02FCF11052ACF85472302F10AFC18CD
:104800003ED1A1473ED502D737B600001306463049
:10481000A14537B500001305C530EFF04F8C21449A
:10482000B7B4000013850435EFF06F8B7D147DF86D
:1048300037B5000013054535EFF06F8A814AB7BBE5
:10484000000037BB0000B7BD0000D5A8130A44FF25
:1048500013068007D2854800EF40F0374E85EFB051
:104860009F8E03479402D2862146A14513854B397A
:10487000EFF0EF8683478402BD8B05476382E7082C
:1048800009476384E708D9C71147638AE7080D47DA
:10489000638CE7084C4C03C7050093073002631C88
:1048A000F708AE8613073002850683C70600E38D3E
:1048B000E7FE1050B295B386D54093074006B38605
:1048C000F60208485C505858B3D6C602898D1305C5
:1048D000CB3DEFF0CF8085041109BA5763DFF404B4
:1048E00003240900EFB0DF85AA898347C4FF93F74B
:1048F000F7F70347410AE38BE7F4EFB0DF84E1BF4A
:1049000013850C3AEFE0BFFD71B71305CD3AEFE028
:104910001FFD49B713058C3BEFE07FFCA5BF138556
:104920004D3CEFE0DFFBBDB7B7B700001385073D97
:10493000EFE0FFFA85B7AE86ADBF63840A026C096B
:104940005685EFF09FE0AA8ABA57E358F0FE1309A4
:10495000C107814437BC000037BD0000B7BC000070
:1049600041B70145BE502E549E540E59FE496E4A21
:10497000DE4A4E4BBE4B2E4C9E4C0E4DFA5D6D6189
:104980008280011106CE22CC26CA4AC84EC652C425
:1049900037B5000013050521EFE07FF403A4C18DB6
:1049A00083A7018E637AF402B7B9000037BA00001A
:1049B00031A0210483A7018E6370F40204400946EC
:1049C000938549222685EF50201865D5A6851305C5
:1049D0008A22EFE0DFF0F1BF0145F2406244D244A9
:1049E0004249B249224A056182801D7186CEA2CC1D
:1049F000A6CACAC8CEC6D2C4D6C2DAC02945EFF00C
:104A00004FAE11052AD6A947230AF1027C003ED8F1
:104A1000A1473EDC02DE37B6000013064640A14542
:104A200037B500001305C540EFE07FEB2144B7B474
:104A3000000013850435EFE09FEA7D147DF837B55B
:104A4000000013054543EFE09FE9014AB7B90000B4
:104A500037BB0000B7BA000085A0EFB0CFEE8504E9
:104A60001109F25763D8F40403240900EFB04FEDA5
:104A70008347C4FF93F7F7F703474103E39FE7FC3E
:104A8000EFB06FEC5C4C184C930644FF2146A145F7
:104A900013858945EFE0BFE48347D4FF858B91C739
:104AA00013850A47EFE0BFE35DBF1305CB47EFE097
:104AB0001FE375B7630E0A006C105285EFF0FFC854
:104AC0002A8AF257E358F0FE1309C100814469BFF6
:104AD000EFE04FADAA8537B500001305C548EFE0FC
:104AE0001FE00145F6406644D6444649B649264A89
:104AF000964A064B25618280597186D6A2D4A6D2E9
:104B0000CAD0CECED2CCD6CADAC8DEC61545EFF0B2
:104B10004F9D11052AD69547230AF1027C003ED805
:104B2000A1473EDC02DE37B600001306C622A145CF
:104B300037B5000013054523EFE07FDA2144B7B411
:104B4000000013850435EFE09FD97D147DF837B55B
:104B5000000013058525EFE09FD8014AB7BB000090
:104B600037BB0000B7BA000061A0EFB0CFDD050988
:104B70009109F257635CF90603A40900EFB04FDC1A
:104B80008347C4FF93F7F7F703474103E39FE7FC2D
:104B9000EFB06FDB930484001044638BC402930670
:104BA00044FF03576401835744010148050810423C
:104BB000E39EC4FE2146A14513054B27EFE03FD2FB
:104BC0002685EFF0DFB21385CA20EFE05FD145B74D
:104BD00001488357440103576401930644FF21466B
:104BE000A1451385CB28EFE09FCF51B7630E0A0094
:104BF0006C105285EFF07FB52A8AF257E358F0FE29
:104C00009309C10001498DBF0145B6502654965401
:104C10000659F649664AD64A464BB64B65618280CC
:104C2000597186D6A2D4A6D2CAD0CECED2CCD6CAFC
:104C3000DAC8DEC60945EFF0CF8A11052AD68947C2
:104C4000230AF1027C003ED8A1473EDC02DE37B6E3
:104C500000001306462AA14537B500001305052BB1
:104C6000EFE0FFC72144B7B4000013850435EFE03F
:104C70001FC77D147DF837B500001305C52CEFE084
:104C80001FC6014AB7BB000037BB0000B7BA00001F
:104C900041A0EFB04FCB05099109F2576358F906CF
:104CA00083A40900EFB0CFC983C7C4FF93F7F7F718
:104CB00003474103E39FE7FCEFB0EFC81384840090
:104CC00090446309C402938644FF03D704018147DB
:104CD00085071042E31EC4FE2146A14513054B2E55
:104CE000EFE0FFBF2285EFF09FA01385CA20EFE021
:104CF0001FBF55B7814703D70401938644FF214660
:104D0000A14513854B2FEFE09FBD71B7630E0A00DD
:104D10006C105285EFF07FA32A8AF257E358F0FE19
:104D20009309C1000149ADBF0145B65026549654C0
:104D30000659F649664AD64A464BB64B65618280AB
:104D4000011106CE22CC26CA4AC84EC652C437B577
:104D500000001305054DEFE09FB803A4C18D83A7A4
:104D6000018E637BF402B7B9000037BA000031A0AE
:104D7000210483A7018E6371F402044019469385D0
:104D8000C94E2685EF40505C65F593856400130598
:104D90004A4FEFE0DFB4E9BF37B500001305C52087
:104DA000EFE0FFB30145F2406244D2444249B249C8
:104DB000224A05618280411106C6EFF09FA101459C
:104DC000B24041018280411106C6EFE0FFC50145B6
:104DD000B2404101828037350020130505D582801D
:104DE000374500201305056B8280397106DE16DC1D
:104DF0001ADA1ED82AD62ED432D236D03ACE3ECCAB
:104E000042CA46C872C676C47AC27EC0EFE0CFBF3F
:104E1000B7F700E023820700A3820700238307007F
:104E2000A383070023840700A384070023850700CA
:104E3000A3850700EFD07FF7EFE04FBFF250E252BB
:104E40005253C2533255A255125682567247E24708
:104E50005248C248324EA24E124F824F2161730017
:104E60002030411106C6B7170240DC43C983BD8B11
:104E700037177A0013070720B387E7023727F400B4
:104E800013070740BA9723A4F18885460146B71552
:104E90000E000145EFD0FFD685450145EFD07FEAF2
:104EA000B24041018280411106C622C426C24AC0D6
:104EB000EFF03FFB03A781888967938707F4335797
:104EC000F7027D17B7F700E023820700A3820700EF
:104ED00023830700A383070023840700A38407001C
:104EE00023850700A38507009376F70F2386D70055
:104EF0009356870093F6F60FA386D70093560701C3
:104F000093F6F60F2387D7006183A387E7002388F2
:104F10000700A388070023890700A389070037E457
:104F200000E0FD542306944005672320E410054764
:104F300098C3EFD0FFEDEFF01FEA2A89EFF05FEAA8
:104F4000AA854A85EFE0FFB10146A94537B50000C3
:104F50001305854FEFE0EFA423A2A18E91672320D4
:104F6000F41023079440B240224492440249410184
:104F70008280830705008DCF411106C622C426C258
:104F80002A84A94431A8B5450145EFD01FD40504B2
:104F90008345F4FF0145EFD05FD38307040081C749
:104FA000E39797FECDB7B2402244924441018280FC
:104FB0008280397106DE16DC1ADA1ED82AD62ED483
:104FC00032D236D03ACE3ECC42CA46C872C676C439
:104FD0007AC27EC0EFE04FA393055052374501409F
:104FE00013050580EFC0FFB615E5EFE02FA4F250E2
:104FF000E2525253C2533255A2551256825672474C
:10500000E2475248C248324EA24E124F824F2161AF
:10501000730020303745014013050580EFC0DFB233
:105020001375F50F03D7219993071700C207C183A2
:105030002399F198B75600209386868E36972300E1
:10504000A7001307F0036374F70023990198A94799
:10505000E31DF5F803A5C18FEFE02F9079B741115B
:10506000B717024098431367170098C3D843B70691
:10507000FFF8758FD8C39843B706F7FEFD16758FF6
:1050800098C39843B706FCFFFD16758F98C3D843A5
:10509000B70681FFFD16758FD8C337079F0098C7E5
:1050A00002C402C69843C166558F98C337160240A2
:1050B000B7060200130700501C42F58F3EC6A247F8
:1050C00085073EC4B24781E7A247E397E7FEB717DB
:1050D00002409C431397E7006350070285473EC692
:1050E00032478547630CF70037E700E0B70705FA5A
:1050F00085073CC74101828002C6DDB7B727024061
:1051000098431367070198C39843719B98C39843CA
:105110001367270098C3B7170240D843D8C3D843B2
:10512000D8C3D843D8C3D843B706C1FFFD16758F7F
:10513000D8C3D843B7062500558FD8C39843B706C0
:105140000001558F98C3371702401C4393966700A0
:10515000E3DD06FEB7170240D843719BD8C3D8439E
:1051600013672700D8C3B71602402147DC42B18B32
:10517000E39EE7FE95BF411106C6154691450545DC
:10518000EFD02FDF2D46A9450945EFD08FDEB24085
:1051900041018280411106C613055002EFD0EFBCD9
:1051A00029C10945EFD02FED9357F5413D8D1D8D58
:1051B0002397A18E0945EFD06FED13053002EFD094
:1051C000CFBA15C90545EFD00FEB9357F5413D8D8B
:1051D000898F2398F18E0545EFD04FEBB240410106
:1051E00082800945EFD02FE99357F5413D8D898F96
:1051F0002397F18EC1B70545EFD0EFE79357F541FF
:105200003D8D1D8D2398A18EF9B783A6019113972B
:1052100006014187239AE18EB74700209387076BE9
:10522000130680FD2380C700130600FBA380C70080
:105230000396E18E935586402381B700A381C70072
:10524000130610FB2382C7000396018F93558640F7
:10525000A382B7002383C700130620FBA383C700E4
:1052600021872384E700A384D700130730FB23851D
:10527000E70003C70181A385E700130740FB2386EE
:10528000E70003C7E192A386E70039572387E700C9
:105290008280034705009307800D6303F700828037
:1052A000034715009307000BE31BF7FE0347250098
:1052B0002389E18EEDB7411106C622C43744002090
:1052C00003A64199B7B50000938585501305046C7A
:1052D000EFE00FDF1306046C81450145EFC0DFC826
:1052E00083A6819403A60194B7B500009385455128
:1052F0001305046CEFE0CFDC1306046C8545014513
:10530000EFC09FC603C7018183C6E19203A6019146
:10531000B7B50000938505531305046CEFE04FDA31
:105320001306046C8D450145EFC01FC483C651931D
:1053300003C67193B7B500009385C5541305046C7B
:10534000EFE00FD81306046C91450145EFC0DFC1B3
:1053500083C6419303C66192B7B500009385455655
:105360001305046CEFE0CFD51306046C9545014599
:10537000EFC09FBF83C6819303866193B7B50000DA
:10538000938505581305046CEFE08FD31306046C66
:1053900099450145EFC05FBD83D6C19203A6019038
:1053A000B7B50000938585591305046CEFE04FD124
:1053B0001306046C89450145EFC01FBBB24022446F
:1053C00041018280411106C6EFF0FFEEF5BF4111A9
:1053D00006C6EFC01F9393072003154793060040AE
:1053E0000146B75500009385453C37B500001305CD
:1053F0000550EFE05FDA19C1EFE0FFFBB240410179
:105400008280411106C613060004814537550020ED
:105410001305858EEFA0BFDF23990198B2404101AB
:105420008280411106C693060031054685452D450B
:10543000EFC0FFFE81452D45EFD08F8F1305A00FE4
:105440008145EFD0CFEE85452D45EFD06F8E13050A
:10545000401F8145EFD0AFEDEFF0BFFAB240410100
:10546000828083D72199375700201307878EBA97F8
:1054700003C7F7FFA9476314F71A411106C6B7B56A
:1054800000009385855B375500201305858EEFA0BE
:105490009FE21DC9B7B500009385055D3755002013
:1054A0001305858EEFA03FE11DC9B7B500009385B8
:1054B000055F375500201305858EEFA0DFDF1DE95E
:1054C00005472388E19839A0B7B500009385055CAE
:1054D000EFD0BF84EFF0FFF2B24041018280238B16
:1054E0000192238C0192B7B500009385055EEFD041
:1054F000DF82CDB7B757002083C7A78E13074005BB
:105500006386E70613074004638EE70A1307F00675
:10551000E392E7FCB757002003C7B78E9307000755
:10552000E31AF7FA375700201307878E8346970050
:1055300093972600B69786078346A700C116B697AD
:10554000238FF1828346C70093972600B69786077C
:105550000347D7004117BA97A38EF182B7B5000071
:10556000938505640145EFD04FFBADB7B7570020D9
:1055700003C7B78E93078006E31EF7F43757002062
:105580001307878E83475700938707FD93064006CE
:10559000B387D70283466700138606FD931626005D
:1055A000B2968606B69703477700130707FDBA97AA
:1055B00023ACF182B7B50000938505600145EFD0BB
:1055C000CFF509BFB757002003C7B78E9307300741
:1055D000E312F7F0B75700209387878E03C7570071
:1055E000130707FD131527003A95060583C76700C3
:1055F000938707FD3E9523ACA18EEF301044B7B7DB
:10560000000083A5475BEF30A05B23A0A182B7B564
:105610000000938505620145EFD02FF065BD8280C3
:10562000411106C622C4FD5503A5C18FEFD05FA46A
:105630003756002083D721991307868EBA97238F78
:1056400007FE1306868E9D450145EFC0FF91EFF0E2
:105650005FDBFD5503A5C18FEFD09FA1EFF07FE089
:10566000CDBF411106C622C4EFF0BFDB0146814524
:1056700037B4000013050465EFD09F9C23AEA18EC4
:105680009307800C0947930600400146B755000078
:105690009385056213050465EFE0FFAF19C1EFE0E4
:1056A0009FD1B240224441018280797106D622D432
:1056B0000396C192B7B50000938585650A85EFE032
:1056C0002FA08A850145EFD04FE5138481800C40DF
:1056D0000145EFD08FE403C69192B7B500009385E2
:1056E00045660A85EFE0CF9D8A850145EFD0EFE260
:1056F0000C400145EFD06FE203866193B7B500001F
:10570000938505670A85EFE0AF9B8A850145EFD059
:10571000CFE00C400145EFD04FE003C6218FB7B575
:105720000000938505680A85EFE08F998A85014519
:10573000EFD0AFDE0C400145EFD02FDE83A5C18056
:105740000145EFD08FDDB2502254456182801D713A
:1057500086CEA2CCA6CACAC8CEC6D2C4D6C2DAC029
:105760005EDE62DC66DA6AD86ED603CBA1935AC6D7
:105770009309C00BB3093B03AA9983A48182B38721
:10578000990003CA0700060A23A2419713F4F40FF5
:10579000A38C819213F9F40F4A85EF30102AAA8A5C
:1057A0002AC82685EF307029AA842ACA5ACE9317B0
:1057B0002B00370700201307C715BA979C4313D552
:1057C000F7013E950585EF30502783A50182EF3024
:1057D000203FAA852ACC2685EF308067AA852AC477
:1057E0005685EF30C02C635BA008894763F88708B3
:1057F00083AC8183CA8AA2845A87931B2B00B74744
:10580000002093878775BE9B374B0020130B0B6FCF
:105810003A9B894D338759018347F7FF03470700B8
:10582000BA9723A0F196B307FA4063C7FC0223A0FE
:105830000B0023000B00F91493F4F40FA38C919246
:10584000A68A2685EF30701FA245EF3040266357A9
:10585000A002E3E19DFC1DA0B246939726003747C6
:10586000002013078775BA9723A05701B747002078
:105870009387076FB69705472380E700A38C819233
:10588000E2455245EF20106C2AC4C245EF30202279
:10589000635FA00A9307800B63EB870A83AB818366
:1058A0007247931A2700B74D0020938D8D75D69DB2
:1058B000B757002093870782BE9A930CB00BB7446A
:1058C000002093844472BA94130D800B2DA023A062
:1058D0009A012380040009041374F40FA38C8192AD
:1058E00022892285EF307015A245EF30A024635B3A
:1058F000050A63698D0A3387290183471700034727
:105900000700BA9723A0F196B307FA40E3D1FBFC56
:1059100083A70D00E3DD27FBB24693972600375798
:10592000002013070782BA9723A02701B74700205A
:1059300093874772B69705472380E700B747002053
:105940009387076FB69783C707009DC33DA0B747EE
:1059500000209387076F3247BA9783C70700A1EFEC
:10596000B747002093874772BA9783C707008DC750
:1059700083C7D1948507A386F194F6406644D64444
:105980004649B649264A964A064BF25B625CD25CAF
:10599000425DB25D2561828083C7C19485072386FD
:1059A000F194E1BFB74700209387076F3247BA975A
:1059B00083C70700F5D3B747002093874772324764
:1059C000BA9783C70700D5FB83C7E1948507238770
:1059D000F19465B7597186D6A2D4A6D2CAD0CECEDC
:1059E000D2CCD6CADAC8DEC6E2C4E6C2EAC06EDEEF
:1059F00083C9A193930710036384F9124E8B83C765
:105A0000D183FD1763CEF90CAA8A9304C00BB3842B
:105A10009902AA9483A68182B387D40003C90700A0
:105A2000060923A221978387619379576389E71039
:105A300009476381E72A1307D005A38CE192939766
:105A40002900370700201307C715BA979C433ECC9F
:105A500013D5F7013E950585EF20B047B7B7000095
:105A600003A6876983A6C769EF20C0002A86AE8691
:105A70002AD42ED637B400000325046A8325446A4D
:105A8000EF20C04A2AC02EC20326046A8326446A35
:105A9000EF10F072635E054483AD8183130AD00575
:105AA0001304D005130DC00B93972900B74B0020AA
:105AB000938B8B75BE9B3757002013070782BA97CD
:105AC0003ECEB7B7000003A8476983A707693ED059
:105AD00042D2B74700209387076FCE973EC4CDA62A
